{
  "_format": "hh-sol-artifact-1",
  "contractName": "DirectDemocracyToken",
  "sourceName": "contracts/KUBIGovToken.sol",
  "abi": [
    {
      "inputs": [],
      "stateMutability": "nonpayable",
      "type": "constructor"
    },
    {
      "anonymous": false,
      "inputs": [
        {
          "indexed": true,
          "internalType": "address",
          "name": "owner",
          "type": "address"
        },
        {
          "indexed": true,
          "internalType": "address",
          "name": "spender",
          "type": "address"
        },
        {
          "indexed": false,
          "internalType": "uint256",
          "name": "value",
          "type": "uint256"
        }
      ],
      "name": "Approval",
      "type": "event"
    },
    {
      "anonymous": false,
      "inputs": [
        {
          "indexed": true,
          "internalType": "address",
          "name": "from",
          "type": "address"
        },
        {
          "indexed": true,
          "internalType": "address",
          "name": "to",
          "type": "address"
        },
        {
          "indexed": false,
          "internalType": "uint256",
          "name": "value",
          "type": "uint256"
        }
      ],
      "name": "Transfer",
      "type": "event"
    },
    {
      "inputs": [
        {
          "internalType": "address",
          "name": "owner",
          "type": "address"
        },
        {
          "internalType": "address",
          "name": "spender",
          "type": "address"
        }
      ],
      "name": "allowance",
      "outputs": [
        {
          "internalType": "uint256",
          "name": "",
          "type": "uint256"
        }
      ],
      "stateMutability": "view",
      "type": "function"
    },
    {
      "inputs": [
        {
          "internalType": "address",
          "name": "",
          "type": "address"
        },
        {
          "internalType": "uint256",
          "name": "",
          "type": "uint256"
        }
      ],
      "name": "approve",
      "outputs": [
        {
          "internalType": "bool",
          "name": "",
          "type": "bool"
        }
      ],
      "stateMutability": "nonpayable",
      "type": "function"
    },
    {
      "inputs": [
        {
          "internalType": "address",
          "name": "account",
          "type": "address"
        }
      ],
      "name": "balanceOf",
      "outputs": [
        {
          "internalType": "uint256",
          "name": "",
          "type": "uint256"
        }
      ],
      "stateMutability": "view",
      "type": "function"
    },
    {
      "inputs": [],
      "name": "decimals",
      "outputs": [
        {
          "internalType": "uint8",
          "name": "",
          "type": "uint8"
        }
      ],
      "stateMutability": "view",
      "type": "function"
    },
    {
      "inputs": [
        {
          "internalType": "address",
          "name": "spender",
          "type": "address"
        },
        {
          "internalType": "uint256",
          "name": "subtractedValue",
          "type": "uint256"
        }
      ],
      "name": "decreaseAllowance",
      "outputs": [
        {
          "internalType": "bool",
          "name": "",
          "type": "bool"
        }
      ],
      "stateMutability": "nonpayable",
      "type": "function"
    },
    {
      "inputs": [
        {
          "internalType": "address",
          "name": "_address",
          "type": "address"
        }
      ],
      "name": "getBalance",
      "outputs": [
        {
          "internalType": "uint256",
          "name": "",
          "type": "uint256"
        }
      ],
      "stateMutability": "view",
      "type": "function"
    },
    {
      "inputs": [
        {
          "internalType": "address",
          "name": "spender",
          "type": "address"
        },
        {
          "internalType": "uint256",
          "name": "addedValue",
          "type": "uint256"
        }
      ],
      "name": "increaseAllowance",
      "outputs": [
        {
          "internalType": "bool",
          "name": "",
          "type": "bool"
        }
      ],
      "stateMutability": "nonpayable",
      "type": "function"
    },
    {
      "inputs": [],
      "name": "maxSupplyPerPerson",
      "outputs": [
        {
          "internalType": "uint256",
          "name": "",
          "type": "uint256"
        }
      ],
      "stateMutability": "view",
      "type": "function"
    },
    {
      "inputs": [],
      "name": "mint",
      "outputs": [],
      "stateMutability": "nonpayable",
      "type": "function"
    },
    {
      "inputs": [],
      "name": "name",
      "outputs": [
        {
          "internalType": "string",
          "name": "",
          "type": "string"
        }
      ],
      "stateMutability": "view",
      "type": "function"
    },
    {
      "inputs": [],
      "name": "symbol",
      "outputs": [
        {
          "internalType": "string",
          "name": "",
          "type": "string"
        }
      ],
      "stateMutability": "view",
      "type": "function"
    },
    {
      "inputs": [],
      "name": "totalSupply",
      "outputs": [
        {
          "internalType": "uint256",
          "name": "",
          "type": "uint256"
        }
      ],
      "stateMutability": "view",
      "type": "function"
    },
    {
      "inputs": [
        {
          "internalType": "address",
          "name": "",
          "type": "address"
        },
        {
          "internalType": "uint256",
          "name": "",
          "type": "uint256"
        }
      ],
      "name": "transfer",
      "outputs": [
        {
          "internalType": "bool",
          "name": "",
          "type": "bool"
        }
      ],
      "stateMutability": "nonpayable",
      "type": "function"
    },
    {
      "inputs": [
        {
          "internalType": "address",
          "name": "",
          "type": "address"
        },
        {
          "internalType": "address",
          "name": "",
          "type": "address"
        },
        {
          "internalType": "uint256",
          "name": "",
          "type": "uint256"
        }
      ],
      "name": "transferFrom",
      "outputs": [
        {
          "internalType": "bool",
          "name": "",
          "type": "bool"
        }
      ],
      "stateMutability": "nonpayable",
      "type": "function"
    }
  ],
  "bytecode": "0x60806040523480156200001157600080fd5b506040518060400160405280600781526020017f4b55424944656d000000000000000000000000000000000000000000000000008152506040518060400160405280600581526020017f4b5542494400000000000000000000000000000000000000000000000000000081525081600390816200008f919062000324565b508060049081620000a1919062000324565b5050506200040b565b600081519050919050565b7f4e487b7100000000000000000000000000000000000000000000000000000000600052604160045260246000fd5b7f4e487b7100000000000000000000000000000000000000000000000000000000600052602260045260246000fd5b600060028204905060018216806200012c57607f821691505b602082108103620001425762000141620000e4565b5b50919050565b60008190508160005260206000209050919050565b60006020601f8301049050919050565b600082821b905092915050565b600060088302620001ac7fffffffffffffffffffffffffffffffffffffffffffffffffffffffffffffffff826200016d565b620001b886836200016d565b95508019841693508086168417925050509392505050565b6000819050919050565b6000819050919050565b600062000205620001ff620001f984620001d0565b620001da565b620001d0565b9050919050565b6000819050919050565b6200022183620001e4565b6200023962000230826200020c565b8484546200017a565b825550505050565b600090565b6200025062000241565b6200025d81848462000216565b505050565b5b8181101562000285576200027960008262000246565b60018101905062000263565b5050565b601f821115620002d4576200029e8162000148565b620002a9846200015d565b81016020851015620002b9578190505b620002d1620002c8856200015d565b83018262000262565b50505b505050565b600082821c905092915050565b6000620002f960001984600802620002d9565b1980831691505092915050565b6000620003148383620002e6565b9150826002028217905092915050565b6200032f82620000aa565b67ffffffffffffffff8111156200034b576200034a620000b5565b5b62000357825462000113565b6200036482828562000289565b600060209050601f8311600181146200039c576000841562000387578287015190505b62000393858262000306565b86555062000403565b601f198416620003ac8662000148565b60005b82811015620003d657848901518255600182019150602085019450602081019050620003af565b86831015620003f65784890151620003f2601f891682620002e6565b8355505b6001600288020188555050505b505050505050565b611316806200041b6000396000f3fe608060405234801561001057600080fd5b50600436106100ea5760003560e01c806370a082311161008c578063a457c2d711610066578063a457c2d71461024f578063a9059cbb1461027f578063dd62ed3e146102af578063f8b2cb4f146102df576100ea565b806370a08231146101e357806395d89b4114610213578063a04b397914610231576100ea565b806318160ddd116100c857806318160ddd1461014757806323b872dd14610165578063313ce5671461019557806339509351146101b3576100ea565b806306fdde03146100ef578063095ea7b31461010d5780631249c58b1461013d575b600080fd5b6100f761030f565b6040516101049190610af5565b60405180910390f35b61012760048036038101906101229190610bb0565b6103a1565b6040516101349190610c0b565b60405180910390f35b6101456103de565b005b61014f610481565b60405161015c9190610c35565b60405180910390f35b61017f600480360381019061017a9190610c50565b61048b565b60405161018c9190610c0b565b60405180910390f35b61019d6104c8565b6040516101aa9190610cbf565b60405180910390f35b6101cd60048036038101906101c89190610bb0565b6104d1565b6040516101da9190610c0b565b60405180910390f35b6101fd60048036038101906101f89190610cda565b610508565b60405161020a9190610c35565b60405180910390f35b61021b610550565b6040516102289190610af5565b60405180910390f35b6102396105e2565b6040516102469190610c35565b60405180910390f35b61026960048036038101906102649190610bb0565b6105e7565b6040516102769190610c0b565b60405180910390f35b61029960048036038101906102949190610bb0565b61065e565b6040516102a69190610c0b565b60405180910390f35b6102c960048036038101906102c49190610d07565b61069b565b6040516102d69190610c35565b60405180910390f35b6102f960048036038101906102f49190610cda565b610722565b6040516103069190610c35565b60405180910390f35b60606003805461031e90610d76565b80601f016020809104026020016040519081016040528092919081815260200182805461034a90610d76565b80156103975780601f1061036c57610100808354040283529160200191610397565b820191906000526020600020905b81548152906001019060200180831161037a57829003601f168201915b5050505050905090565b60006040517f08c379a00000000000000000000000000000000000000000000000000000000081526004016103d590610e19565b60405180910390fd5b60006103e933610508565b14610429576040517f08c379a000000000000000000000000000000000000000000000000000000000815260040161042090610eab565b60405180910390fd5b610434336064610734565b606461043f33610508565b1461047f576040517f08c379a000000000000000000000000000000000000000000000000000000000815260040161047690610f17565b60405180910390fd5b565b6000600254905090565b60006040517f08c379a00000000000000000000000000000000000000000000000000000000081526004016104bf90610fa9565b60405180910390fd5b60006012905090565b6000806104dc61088a565b90506104fd8185856104ee858961069b565b6104f89190610ff8565b610892565b600191505092915050565b60008060008373ffffffffffffffffffffffffffffffffffffffff1673ffffffffffffffffffffffffffffffffffffffff168152602001908152602001600020549050919050565b60606004805461055f90610d76565b80601f016020809104026020016040519081016040528092919081815260200182805461058b90610d76565b80156105d85780601f106105ad576101008083540402835291602001916105d8565b820191906000526020600020905b8154815290600101906020018083116105bb57829003601f168201915b5050505050905090565b606481565b6000806105f261088a565b90506000610600828661069b565b905083811015610645576040517f08c379a000000000000000000000000000000000000000000000000000000000815260040161063c9061109e565b60405180910390fd5b6106528286868403610892565b60019250505092915050565b60006040517f08c379a000000000000000000000000000000000000000000000000000000000815260040161069290611130565b60405180910390fd5b6000600160008473ffffffffffffffffffffffffffffffffffffffff1673ffffffffffffffffffffffffffffffffffffffff16815260200190815260200160002060008373ffffffffffffffffffffffffffffffffffffffff1673ffffffffffffffffffffffffffffffffffffffff16815260200190815260200160002054905092915050565b600061072d82610508565b9050919050565b600073ffffffffffffffffffffffffffffffffffffffff168273ffffffffffffffffffffffffffffffffffffffff16036107a3576040517f08c379a000000000000000000000000000000000000000000000000000000000815260040161079a9061119c565b60405180910390fd5b6107af60008383610a5b565b80600260008282546107c19190610ff8565b92505081905550806000808473ffffffffffffffffffffffffffffffffffffffff1673ffffffffffffffffffffffffffffffffffffffff168152602001908152602001600020600082825401925050819055508173ffffffffffffffffffffffffffffffffffffffff16600073ffffffffffffffffffffffffffffffffffffffff167fddf252ad1be2c89b69c2b068fc378daa952ba7f163c4a11628f55a4df523b3ef836040516108729190610c35565b60405180910390a361088660008383610a60565b5050565b600033905090565b600073ffffffffffffffffffffffffffffffffffffffff168373ffffffffffffffffffffffffffffffffffffffff1603610901576040517f08c379a00000000000000000000000000000000000000000000000000000000081526004016108f89061122e565b60405180910390fd5b600073ffffffffffffffffffffffffffffffffffffffff168273ffffffffffffffffffffffffffffffffffffffff1603610970576040517f08c379a0000000000000000000000000000000000000000000000000000000008152600401610967906112c0565b60405180910390fd5b80600160008573ffffffffffffffffffffffffffffffffffffffff1673ffffffffffffffffffffffffffffffffffffffff16815260200190815260200160002060008473ffffffffffffffffffffffffffffffffffffffff1673ffffffffffffffffffffffffffffffffffffffff168152602001908152602001600020819055508173ffffffffffffffffffffffffffffffffffffffff168373ffffffffffffffffffffffffffffffffffffffff167f8c5be1e5ebec7d5bd14f71427d1e84f3dd0314c0f7b2291e5b200ac8c7c3b92583604051610a4e9190610c35565b60405180910390a3505050565b505050565b505050565b600081519050919050565b600082825260208201905092915050565b60005b83811015610a9f578082015181840152602081019050610a84565b60008484015250505050565b6000601f19601f8301169050919050565b6000610ac782610a65565b610ad18185610a70565b9350610ae1818560208601610a81565b610aea81610aab565b840191505092915050565b60006020820190508181036000830152610b0f8184610abc565b905092915050565b600080fd5b600073ffffffffffffffffffffffffffffffffffffffff82169050919050565b6000610b4782610b1c565b9050919050565b610b5781610b3c565b8114610b6257600080fd5b50565b600081359050610b7481610b4e565b92915050565b6000819050919050565b610b8d81610b7a565b8114610b9857600080fd5b50565b600081359050610baa81610b84565b92915050565b60008060408385031215610bc757610bc6610b17565b5b6000610bd585828601610b65565b9250506020610be685828601610b9b565b9150509250929050565b60008115159050919050565b610c0581610bf0565b82525050565b6000602082019050610c206000830184610bfc565b92915050565b610c2f81610b7a565b82525050565b6000602082019050610c4a6000830184610c26565b92915050565b600080600060608486031215610c6957610c68610b17565b5b6000610c7786828701610b65565b9350506020610c8886828701610b65565b9250506040610c9986828701610b9b565b9150509250925092565b600060ff82169050919050565b610cb981610ca3565b82525050565b6000602082019050610cd46000830184610cb0565b92915050565b600060208284031215610cf057610cef610b17565b5b6000610cfe84828501610b65565b91505092915050565b60008060408385031215610d1e57610d1d610b17565b5b6000610d2c85828601610b65565b9250506020610d3d85828601610b65565b9150509250929050565b7f4e487b7100000000000000000000000000000000000000000000000000000000600052602260045260246000fd5b60006002820490506001821680610d8e57607f821691505b602082108103610da157610da0610d47565b5b50919050565b7f417070726f76616c206f6620546f6b656e20616c6c6f77616e6365206973206e60008201527f6f7420616c6c6f77656400000000000000000000000000000000000000000000602082015250565b6000610e03602a83610a70565b9150610e0e82610da7565b604082019050919050565b60006020820190508181036000830152610e3281610df6565b9050919050565b7f596f75204861766520416c726561647920436c61696d656420596f757220436f60008201527f696e732100000000000000000000000000000000000000000000000000000000602082015250565b6000610e95602483610a70565b9150610ea082610e39565b604082019050919050565b60006020820190508181036000830152610ec481610e88565b9050919050565b7f436f696e73206661696c656420746f206d696e74000000000000000000000000600082015250565b6000610f01601483610a70565b9150610f0c82610ecb565b602082019050919050565b60006020820190508181036000830152610f3081610ef4565b9050919050565b7f5472616e73666572206f6620546f6b656e73206973206e6f7420616c6c6f776560008201527f6400000000000000000000000000000000000000000000000000000000000000602082015250565b6000610f93602183610a70565b9150610f9e82610f37565b604082019050919050565b60006020820190508181036000830152610fc281610f86565b9050919050565b7f4e487b7100000000000000000000000000000000000000000000000000000000600052601160045260246000fd5b600061100382610b7a565b915061100e83610b7a565b925082820190508082111561102657611025610fc9565b5b92915050565b7f45524332303a2064656372656173656420616c6c6f77616e63652062656c6f7760008201527f207a65726f000000000000000000000000000000000000000000000000000000602082015250565b6000611088602583610a70565b91506110938261102c565b604082019050919050565b600060208201905081810360008301526110b78161107b565b9050919050565b7f5472616e73666572206f6620746f6b656e73206973206e6f7420616c6c6f776560008201527f6400000000000000000000000000000000000000000000000000000000000000602082015250565b600061111a602183610a70565b9150611125826110be565b604082019050919050565b600060208201905081810360008301526111498161110d565b9050919050565b7f45524332303a206d696e7420746f20746865207a65726f206164647265737300600082015250565b6000611186601f83610a70565b915061119182611150565b602082019050919050565b600060208201905081810360008301526111b581611179565b9050919050565b7f45524332303a20617070726f76652066726f6d20746865207a65726f2061646460008201527f7265737300000000000000000000000000000000000000000000000000000000602082015250565b6000611218602483610a70565b9150611223826111bc565b604082019050919050565b600060208201905081810360008301526112478161120b565b9050919050565b7f45524332303a20617070726f766520746f20746865207a65726f20616464726560008201527f7373000000000000000000000000000000000000000000000000000000000000602082015250565b60006112aa602283610a70565b91506112b58261124e565b604082019050919050565b600060208201905081810360008301526112d98161129d565b905091905056fea26469706673582212205ebd42cdccb2797fdfef2dca0f9914418fa9c5f072792ab868b6d284b27567cf64736f6c63430008120033",
  "linkReferences": {},
  "deployedLinkReferences": {}
}