{
  "_format": "hh-sol-artifact-1",
  "contractName": "KubixVoting",
  "sourceName": "contracts/KUBIXvoting.sol",
  "abi": [
    {
      "inputs": [
        {
          "internalType": "address",
          "name": "_kubixToken",
          "type": "address"
        },
        {
          "internalType": "address",
          "name": "_dao",
          "type": "address"
        }
      ],
      "stateMutability": "nonpayable",
      "type": "constructor"
    },
    {
      "anonymous": false,
      "inputs": [
        {
          "indexed": true,
          "internalType": "uint256",
          "name": "proposalId",
          "type": "uint256"
        },
        {
          "indexed": false,
          "internalType": "string",
          "name": "name",
          "type": "string"
        },
        {
          "indexed": false,
          "internalType": "bool",
          "name": "isPoll",
          "type": "bool"
        }
      ],
      "name": "NewProposal",
      "type": "event"
    },
    {
      "inputs": [
        {
          "internalType": "uint256",
          "name": "_proposalId",
          "type": "uint256"
        },
        {
          "internalType": "uint256",
          "name": "_balance",
          "type": "uint256"
        }
      ],
      "name": "calculateVoteWeight",
      "outputs": [
        {
          "internalType": "uint256",
          "name": "",
          "type": "uint256"
        }
      ],
      "stateMutability": "view",
      "type": "function"
    },
    {
      "inputs": [
        {
          "internalType": "string",
          "name": "_name",
          "type": "string"
        },
        {
          "internalType": "string",
          "name": "_description",
          "type": "string"
        },
        {
          "internalType": "string",
          "name": "_execution",
          "type": "string"
        },
        {
          "internalType": "bool",
          "name": "_isPoll",
          "type": "bool"
        },
        {
          "internalType": "uint256",
          "name": "_maxBalance",
          "type": "uint256"
        },
        {
          "internalType": "uint256",
          "name": "_minBalance",
          "type": "uint256"
        }
      ],
      "name": "createProposal",
      "outputs": [],
      "stateMutability": "nonpayable",
      "type": "function"
    },
    {
      "inputs": [],
      "name": "dao",
      "outputs": [
        {
          "internalType": "address",
          "name": "",
          "type": "address"
        }
      ],
      "stateMutability": "view",
      "type": "function"
    },
    {
      "inputs": [],
      "name": "kubixToken",
      "outputs": [
        {
          "internalType": "contract IERC20",
          "name": "",
          "type": "address"
        }
      ],
      "stateMutability": "view",
      "type": "function"
    },
    {
      "inputs": [
        {
          "internalType": "uint256",
          "name": "",
          "type": "uint256"
        }
      ],
      "name": "proposals",
      "outputs": [
        {
          "internalType": "string",
          "name": "name",
          "type": "string"
        },
        {
          "internalType": "string",
          "name": "description",
          "type": "string"
        },
        {
          "internalType": "string",
          "name": "execution",
          "type": "string"
        },
        {
          "internalType": "uint256",
          "name": "totalVotes",
          "type": "uint256"
        },
        {
          "internalType": "bool",
          "name": "isPoll",
          "type": "bool"
        },
        {
          "internalType": "uint256",
          "name": "maxBalance",
          "type": "uint256"
        },
        {
          "internalType": "uint256",
          "name": "minBalance",
          "type": "uint256"
        }
      ],
      "stateMutability": "view",
      "type": "function"
    },
    {
      "inputs": [
        {
          "internalType": "uint256",
          "name": "_proposalId",
          "type": "uint256"
        },
        {
          "internalType": "address",
          "name": "_voter",
          "type": "address"
        }
      ],
      "name": "vote",
      "outputs": [],
      "stateMutability": "nonpayable",
      "type": "function"
    }
  ],
  "bytecode": "0x60806040523480156200001157600080fd5b50604051620016823803806200168283398181016040528101906200003791906200012a565b816000806101000a81548173ffffffffffffffffffffffffffffffffffffffff021916908373ffffffffffffffffffffffffffffffffffffffff16021790555080600160006101000a81548173ffffffffffffffffffffffffffffffffffffffff021916908373ffffffffffffffffffffffffffffffffffffffff160217905550505062000171565b600080fd5b600073ffffffffffffffffffffffffffffffffffffffff82169050919050565b6000620000f282620000c5565b9050919050565b6200010481620000e5565b81146200011057600080fd5b50565b6000815190506200012481620000f9565b92915050565b60008060408385031215620001445762000143620000c0565b5b6000620001548582860162000113565b9250506020620001678582860162000113565b9150509250929050565b61150180620001816000396000f3fe608060405234801561001057600080fd5b50600436106100625760003560e01c8063013cf08b1461006757806302d947ef1461009d5780634162169f146100b9578063a52bc6e2146100d7578063c13b798e146100f5578063e0fdcc4214610111575b600080fd5b610081600480360381019061007c919061086b565b610141565b6040516100949796959493929190610952565b60405180910390f35b6100b760048036038101906100b29190610a34565b610338565b005b6100c161053a565b6040516100ce9190610a83565b60405180910390f35b6100df610560565b6040516100ec9190610afd565b60405180910390f35b61010f600480360381019061010a9190610c79565b610584565b005b61012b60048036038101906101269190610d5a565b610799565b6040516101389190610d9a565b60405180910390f35b6002818154811061015157600080fd5b906000526020600020906008020160009150905080600001805461017490610de4565b80601f01602080910402602001604051908101604052809291908181526020018280546101a090610de4565b80156101ed5780601f106101c2576101008083540402835291602001916101ed565b820191906000526020600020905b8154815290600101906020018083116101d057829003601f168201915b50505050509080600101805461020290610de4565b80601f016020809104026020016040519081016040528092919081815260200182805461022e90610de4565b801561027b5780601f106102505761010080835404028352916020019161027b565b820191906000526020600020905b81548152906001019060200180831161025e57829003601f168201915b50505050509080600201805461029090610de4565b80601f01602080910402602001604051908101604052809291908181526020018280546102bc90610de4565b80156103095780601f106102de57610100808354040283529160200191610309565b820191906000526020600020905b8154815290600101906020018083116102ec57829003601f168201915b5050505050908060030154908060050160009054906101000a900460ff16908060060154908060070154905087565b60006002838154811061034e5761034d610e15565b5b9060005260206000209060080201905060008160040160008473ffffffffffffffffffffffffffffffffffffffff1673ffffffffffffffffffffffffffffffffffffffff16815260200190815260200160002054146103e2576040517f08c379a00000000000000000000000000000000000000000000000000000000081526004016103d990610e90565b60405180910390fd5b60008060009054906101000a900473ffffffffffffffffffffffffffffffffffffffff1673ffffffffffffffffffffffffffffffffffffffff166370a08231846040518263ffffffff1660e01b815260040161043e9190610a83565b602060405180830381865afa15801561045b573d6000803e3d6000fd5b505050506040513d601f19601f8201168201806040525081019061047f9190610ec5565b9050600081116104c4576040517f08c379a00000000000000000000000000000000000000000000000000000000081526004016104bb90610f3e565b60405180910390fd5b60006104d08583610799565b9050808360030160008282546104e69190610f8d565b92505081905550808360040160008673ffffffffffffffffffffffffffffffffffffffff1673ffffffffffffffffffffffffffffffffffffffff168152602001908152602001600020819055505050505050565b600160009054906101000a900473ffffffffffffffffffffffffffffffffffffffff1681565b60008054906101000a900473ffffffffffffffffffffffffffffffffffffffff1681565b600160009054906101000a900473ffffffffffffffffffffffffffffffffffffffff1673ffffffffffffffffffffffffffffffffffffffff163373ffffffffffffffffffffffffffffffffffffffff1614610614576040517f08c379a000000000000000000000000000000000000000000000000000000000815260040161060b9061100d565b60405180910390fd5b60008111610657576040517f08c379a000000000000000000000000000000000000000000000000000000000815260040161064e9061109f565b60405180910390fd5b808211610699576040517f08c379a000000000000000000000000000000000000000000000000000000000815260040161069090611131565b60405180910390fd5b600060028054905090506002600181600181540180825580915050039060005260206000209050506000600282815481106106d7576106d6610e15565b5b90600052602060002090600802019050878160000190816106f891906112f3565b508681600101908161070a91906112f3565b508581600201908161071c91906112f3565b5060008160030181905550848160050160006101000a81548160ff021916908315150217905550838160060181905550828160070181905550817f2051ffe25d60ab748fa26502933d3b9b2a402f2387ed5b76f780c23d2c0b4e7d89876040516107879291906113c5565b60405180910390a25050505050505050565b600080600284815481106107b0576107af610e15565b5b906000526020600020906008020190506000816007015482600601546107d691906113f5565b905060008260070154856107ea91906113f5565b905060006001836003846107fe9190611429565b610808919061149a565b6108129190610f8d565b90508094505050505092915050565b6000604051905090565b600080fd5b600080fd5b6000819050919050565b61084881610835565b811461085357600080fd5b50565b6000813590506108658161083f565b92915050565b6000602082840312156108815761088061082b565b5b600061088f84828501610856565b91505092915050565b600081519050919050565b600082825260208201905092915050565b60005b838110156108d25780820151818401526020810190506108b7565b60008484015250505050565b6000601f19601f8301169050919050565b60006108fa82610898565b61090481856108a3565b93506109148185602086016108b4565b61091d816108de565b840191505092915050565b61093181610835565b82525050565b60008115159050919050565b61094c81610937565b82525050565b600060e082019050818103600083015261096c818a6108ef565b9050818103602083015261098081896108ef565b9050818103604083015261099481886108ef565b90506109a36060830187610928565b6109b06080830186610943565b6109bd60a0830185610928565b6109ca60c0830184610928565b98975050505050505050565b600073ffffffffffffffffffffffffffffffffffffffff82169050919050565b6000610a01826109d6565b9050919050565b610a11816109f6565b8114610a1c57600080fd5b50565b600081359050610a2e81610a08565b92915050565b60008060408385031215610a4b57610a4a61082b565b5b6000610a5985828601610856565b9250506020610a6a85828601610a1f565b9150509250929050565b610a7d816109f6565b82525050565b6000602082019050610a986000830184610a74565b92915050565b6000819050919050565b6000610ac3610abe610ab9846109d6565b610a9e565b6109d6565b9050919050565b6000610ad582610aa8565b9050919050565b6000610ae782610aca565b9050919050565b610af781610adc565b82525050565b6000602082019050610b126000830184610aee565b92915050565b600080fd5b600080fd5b7f4e487b7100000000000000000000000000000000000000000000000000000000600052604160045260246000fd5b610b5a826108de565b810181811067ffffffffffffffff82111715610b7957610b78610b22565b5b80604052505050565b6000610b8c610821565b9050610b988282610b51565b919050565b600067ffffffffffffffff821115610bb857610bb7610b22565b5b610bc1826108de565b9050602081019050919050565b82818337600083830152505050565b6000610bf0610beb84610b9d565b610b82565b905082815260208101848484011115610c0c57610c0b610b1d565b5b610c17848285610bce565b509392505050565b600082601f830112610c3457610c33610b18565b5b8135610c44848260208601610bdd565b91505092915050565b610c5681610937565b8114610c6157600080fd5b50565b600081359050610c7381610c4d565b92915050565b60008060008060008060c08789031215610c9657610c9561082b565b5b600087013567ffffffffffffffff811115610cb457610cb3610830565b5b610cc089828a01610c1f565b965050602087013567ffffffffffffffff811115610ce157610ce0610830565b5b610ced89828a01610c1f565b955050604087013567ffffffffffffffff811115610d0e57610d0d610830565b5b610d1a89828a01610c1f565b9450506060610d2b89828a01610c64565b9350506080610d3c89828a01610856565b92505060a0610d4d89828a01610856565b9150509295509295509295565b60008060408385031215610d7157610d7061082b565b5b6000610d7f85828601610856565b9250506020610d9085828601610856565b9150509250929050565b6000602082019050610daf6000830184610928565b92915050565b7f4e487b7100000000000000000000000000000000000000000000000000000000600052602260045260246000fd5b60006002820490506001821680610dfc57607f821691505b602082108103610e0f57610e0e610db5565b5b50919050565b7f4e487b7100000000000000000000000000000000000000000000000000000000600052603260045260246000fd5b7f416c726561647920766f74656400000000000000000000000000000000000000600082015250565b6000610e7a600d836108a3565b9150610e8582610e44565b602082019050919050565b60006020820190508181036000830152610ea981610e6d565b9050919050565b600081519050610ebf8161083f565b92915050565b600060208284031215610edb57610eda61082b565b5b6000610ee984828501610eb0565b91505092915050565b7f4e6f204b5542495820746f6b656e730000000000000000000000000000000000600082015250565b6000610f28600f836108a3565b9150610f3382610ef2565b602082019050919050565b60006020820190508181036000830152610f5781610f1b565b9050919050565b7f4e487b7100000000000000000000000000000000000000000000000000000000600052601160045260246000fd5b6000610f9882610835565b9150610fa383610835565b9250828201905080821115610fbb57610fba610f5e565b5b92915050565b7f4f6e6c792044414f2063616e2063616c6c20746869732066756e6374696f6e00600082015250565b6000610ff7601f836108a3565b915061100282610fc1565b602082019050919050565b6000602082019050818103600083015261102681610fea565b9050919050565b7f4d696e2062616c616e6365206d7573742062652067726561746572207468616e60008201527f2030000000000000000000000000000000000000000000000000000000000000602082015250565b60006110896022836108a3565b91506110948261102d565b604082019050919050565b600060208201905081810360008301526110b88161107c565b9050919050565b7f4d61782062616c616e6365206d7573742062652067726561746572207468616e60008201527f206d696e2062616c616e63650000000000000000000000000000000000000000602082015250565b600061111b602c836108a3565b9150611126826110bf565b604082019050919050565b6000602082019050818103600083015261114a8161110e565b9050919050565b60008190508160005260206000209050919050565b60006020601f8301049050919050565b600082821b905092915050565b6000600883026111b37fffffffffffffffffffffffffffffffffffffffffffffffffffffffffffffffff82611176565b6111bd8683611176565b95508019841693508086168417925050509392505050565b60006111f06111eb6111e684610835565b610a9e565b610835565b9050919050565b6000819050919050565b61120a836111d5565b61121e611216826111f7565b848454611183565b825550505050565b600090565b611233611226565b61123e818484611201565b505050565b5b818110156112625761125760008261122b565b600181019050611244565b5050565b601f8211156112a75761127881611151565b61128184611166565b81016020851015611290578190505b6112a461129c85611166565b830182611243565b50505b505050565b600082821c905092915050565b60006112ca600019846008026112ac565b1980831691505092915050565b60006112e383836112b9565b9150826002028217905092915050565b6112fc82610898565b67ffffffffffffffff81111561131557611314610b22565b5b61131f8254610de4565b61132a828285611266565b600060209050601f83116001811461135d576000841561134b578287015190505b61135585826112d7565b8655506113bd565b601f19841661136b86611151565b60005b828110156113935784890151825560018201915060208501945060208101905061136e565b868310156113b057848901516113ac601f8916826112b9565b8355505b6001600288020188555050505b505050505050565b600060408201905081810360008301526113df81856108ef565b90506113ee6020830184610943565b9392505050565b600061140082610835565b915061140b83610835565b925082820390508181111561142357611422610f5e565b5b92915050565b600061143482610835565b915061143f83610835565b925082820261144d81610835565b9150828204841483151761146457611463610f5e565b5b5092915050565b7f4e487b7100000000000000000000000000000000000000000000000000000000600052601260045260246000fd5b60006114a582610835565b91506114b083610835565b9250826114c0576114bf61146b565b5b82820490509291505056fea2646970667358221220b008d34611ebf34d6a352a54ef155e611b4fb9b973992e11a176b1d013c144c764736f6c63430008120033",
  "linkReferences": {},
  "deployedLinkReferences": {}
}