{
  "_format": "hh-sol-artifact-1",
  "contractName": "KubidVoting",
  "sourceName": "contracts/KUBIDvoting.sol",
  "abi": [
    {
      "inputs": [
        {
          "internalType": "address",
          "name": "_kubidToken",
          "type": "address"
        },
        {
          "internalType": "address",
          "name": "_dao",
          "type": "address"
        },
        {
          "internalType": "address",
          "name": "_owner1",
          "type": "address"
        },
        {
          "internalType": "address",
          "name": "_owner2",
          "type": "address"
        }
      ],
      "stateMutability": "nonpayable",
      "type": "constructor"
    },
    {
      "anonymous": false,
      "inputs": [
        {
          "indexed": true,
          "internalType": "uint256",
          "name": "proposalId",
          "type": "uint256"
        },
        {
          "indexed": false,
          "internalType": "string",
          "name": "name",
          "type": "string"
        },
        {
          "indexed": false,
          "internalType": "string",
          "name": "description",
          "type": "string"
        },
        {
          "indexed": false,
          "internalType": "string",
          "name": "execution",
          "type": "string"
        }
      ],
      "name": "NewProposal",
      "type": "event"
    },
    {
      "anonymous": false,
      "inputs": [
        {
          "indexed": true,
          "internalType": "uint256",
          "name": "proposalId",
          "type": "uint256"
        },
        {
          "indexed": true,
          "internalType": "uint256",
          "name": "optionIndex",
          "type": "uint256"
        },
        {
          "indexed": false,
          "internalType": "string",
          "name": "name",
          "type": "string"
        }
      ],
      "name": "PollOptionNames",
      "type": "event"
    },
    {
      "anonymous": false,
      "inputs": [
        {
          "indexed": true,
          "internalType": "uint256",
          "name": "proposalId",
          "type": "uint256"
        },
        {
          "indexed": true,
          "internalType": "address",
          "name": "voter",
          "type": "address"
        },
        {
          "indexed": false,
          "internalType": "uint256",
          "name": "optionIndex",
          "type": "uint256"
        }
      ],
      "name": "Voted",
      "type": "event"
    },
    {
      "inputs": [
        {
          "internalType": "address",
          "name": "_newOwner",
          "type": "address"
        }
      ],
      "name": "addOwner",
      "outputs": [],
      "stateMutability": "nonpayable",
      "type": "function"
    },
    {
      "inputs": [
        {
          "internalType": "string",
          "name": "_name",
          "type": "string"
        },
        {
          "internalType": "string",
          "name": "_description",
          "type": "string"
        },
        {
          "internalType": "string",
          "name": "_execution",
          "type": "string"
        },
        {
          "internalType": "uint256",
          "name": "_timeInMinutes",
          "type": "uint256"
        },
        {
          "internalType": "string[]",
          "name": "_optionNames",
          "type": "string[]"
        }
      ],
      "name": "createProposal",
      "outputs": [],
      "stateMutability": "nonpayable",
      "type": "function"
    },
    {
      "inputs": [],
      "name": "dao",
      "outputs": [
        {
          "internalType": "address",
          "name": "",
          "type": "address"
        }
      ],
      "stateMutability": "view",
      "type": "function"
    },
    {
      "inputs": [
        {
          "internalType": "uint256",
          "name": "_proposalId",
          "type": "uint256"
        },
        {
          "internalType": "uint256",
          "name": "_optionIndex",
          "type": "uint256"
        }
      ],
      "name": "getOptionVotes",
      "outputs": [
        {
          "internalType": "uint256",
          "name": "votes",
          "type": "uint256"
        }
      ],
      "stateMutability": "view",
      "type": "function"
    },
    {
      "inputs": [
        {
          "internalType": "uint256",
          "name": "_proposalId",
          "type": "uint256"
        }
      ],
      "name": "getOptionsCount",
      "outputs": [
        {
          "internalType": "uint256",
          "name": "",
          "type": "uint256"
        }
      ],
      "stateMutability": "view",
      "type": "function"
    },
    {
      "inputs": [
        {
          "internalType": "uint256",
          "name": "_proposalId",
          "type": "uint256"
        }
      ],
      "name": "getWinner",
      "outputs": [
        {
          "internalType": "uint256",
          "name": "winningOptionIndex",
          "type": "uint256"
        }
      ],
      "stateMutability": "view",
      "type": "function"
    },
    {
      "inputs": [
        {
          "internalType": "address",
          "name": "",
          "type": "address"
        }
      ],
      "name": "isOwner",
      "outputs": [
        {
          "internalType": "bool",
          "name": "",
          "type": "bool"
        }
      ],
      "stateMutability": "view",
      "type": "function"
    },
    {
      "inputs": [],
      "name": "kubidToken",
      "outputs": [
        {
          "internalType": "contract IERC20",
          "name": "",
          "type": "address"
        }
      ],
      "stateMutability": "view",
      "type": "function"
    },
    {
      "inputs": [
        {
          "internalType": "address",
          "name": "_owner",
          "type": "address"
        }
      ],
      "name": "removeOwner",
      "outputs": [],
      "stateMutability": "nonpayable",
      "type": "function"
    },
    {
      "inputs": [
        {
          "internalType": "uint256",
          "name": "_proposalId",
          "type": "uint256"
        },
        {
          "internalType": "address",
          "name": "_voter",
          "type": "address"
        },
        {
          "internalType": "uint256",
          "name": "_optionIndex",
          "type": "uint256"
        }
      ],
      "name": "vote",
      "outputs": [],
      "stateMutability": "nonpayable",
      "type": "function"
    }
  ],
  "bytecode": "0x60806040523480156200001157600080fd5b50604051620019d6380380620019d6833981810160405281019062000037919062000234565b836000806101000a81548173ffffffffffffffffffffffffffffffffffffffff021916908373ffffffffffffffffffffffffffffffffffffffff16021790555082600160006101000a81548173ffffffffffffffffffffffffffffffffffffffff021916908373ffffffffffffffffffffffffffffffffffffffff1602179055506001600360003373ffffffffffffffffffffffffffffffffffffffff1673ffffffffffffffffffffffffffffffffffffffff16815260200190815260200160002060006101000a81548160ff0219169083151502179055506001600360008473ffffffffffffffffffffffffffffffffffffffff1673ffffffffffffffffffffffffffffffffffffffff16815260200190815260200160002060006101000a81548160ff0219169083151502179055506001600360008373ffffffffffffffffffffffffffffffffffffffff1673ffffffffffffffffffffffffffffffffffffffff16815260200190815260200160002060006101000a81548160ff02191690831515021790555050505050620002a6565b600080fd5b600073ffffffffffffffffffffffffffffffffffffffff82169050919050565b6000620001fc82620001cf565b9050919050565b6200020e81620001ef565b81146200021a57600080fd5b50565b6000815190506200022e8162000203565b92915050565b60008060008060808587031215620002515762000250620001ca565b5b600062000261878288016200021d565b945050602062000274878288016200021d565b935050604062000287878288016200021d565b92505060606200029a878288016200021d565b91505092959194509250565b61172080620002b66000396000f3fe608060405234801561001057600080fd5b506004361061009e5760003560e01c8063517a625711610066578063517a6257146101595780635c5dab67146101895780637065cb48146101a7578063778d5547146101c3578063e7ea088f146101df5761009e565b8063173825d9146100a35780632f54bf6e146100bf5780634129b2c9146100ef5780634162169f1461011f5780634de8737c1461013d575b600080fd5b6100bd60048036038101906100b89190610ca5565b61020f565b005b6100d960048036038101906100d49190610ca5565b6102f6565b6040516100e69190610ced565b60405180910390f35b61010960048036038101906101049190610d3e565b610316565b6040516101169190610d7a565b60405180910390f35b610127610408565b6040516101349190610da4565b60405180910390f35b61015760048036038101906101529190610dbf565b61042e565b005b610173600480360381019061016e9190610d3e565b6107e5565b6040516101809190610d7a565b60405180910390f35b610191610864565b60405161019e9190610e71565b60405180910390f35b6101c160048036038101906101bc9190610ca5565b610888565b005b6101dd60048036038101906101d891906110b8565b61096f565b005b6101f960048036038101906101f491906111a3565b610b4e565b6040516102069190610d7a565b60405180910390f35b600360003373ffffffffffffffffffffffffffffffffffffffff1673ffffffffffffffffffffffffffffffffffffffff16815260200190815260200160002060009054906101000a900460ff1661029b576040517f08c379a000000000000000000000000000000000000000000000000000000000815260040161029290611240565b60405180910390fd5b6000600360008373ffffffffffffffffffffffffffffffffffffffff1673ffffffffffffffffffffffffffffffffffffffff16815260200190815260200160002060006101000a81548160ff02191690831515021790555050565b60036020528060005260406000206000915054906101000a900460ff1681565b6000600280549050821061035f576040517f08c379a0000000000000000000000000000000000000000000000000000000008152600401610356906112ac565b60405180910390fd5b600060028381548110610375576103746112cc565b5b906000526020600020906005020190506000805b826004018054905081101561040057818360040182815481106103af576103ae6112cc565b5b906000526020600020016000015411156103ed578260040181815481106103d9576103d86112cc565b5b906000526020600020016000015491508093505b80806103f89061132a565b915050610389565b505050919050565b600160009054906101000a900473ffffffffffffffffffffffffffffffffffffffff1681565b826002805490508110610476576040517f08c379a000000000000000000000000000000000000000000000000000000000815260040161046d906112ac565b60405180910390fd5b60006002828154811061048c5761048b6112cc565b5b90600052602060002090600502019050603c81600201546104ad9190611372565b81600301546104bc91906113b4565b4211156104fe576040517f08c379a00000000000000000000000000000000000000000000000000000000081526004016104f590611434565b60405180910390fd5b6002805490508510610545576040517f08c379a000000000000000000000000000000000000000000000000000000000815260040161053c906112ac565b60405180910390fd5b60006002868154811061055b5761055a6112cc565b5b906000526020600020906005020190508060010160008673ffffffffffffffffffffffffffffffffffffffff1673ffffffffffffffffffffffffffffffffffffffff16815260200190815260200160002060009054906101000a900460ff16156105fa576040517f08c379a00000000000000000000000000000000000000000000000000000000081526004016105f1906114a0565b60405180910390fd5b60008060009054906101000a900473ffffffffffffffffffffffffffffffffffffffff1673ffffffffffffffffffffffffffffffffffffffff166370a08231876040518263ffffffff1660e01b81526004016106569190610da4565b602060405180830381865afa158015610673573d6000803e3d6000fd5b505050506040513d601f19601f8201168201806040525081019061069791906114d5565b9050600081116106dc576040517f08c379a00000000000000000000000000000000000000000000000000000000081526004016106d39061154e565b60405180910390fd5b60018260010160008873ffffffffffffffffffffffffffffffffffffffff1673ffffffffffffffffffffffffffffffffffffffff16815260200190815260200160002060006101000a81548160ff021916908315150217905550600182600001600082825461074b91906113b4565b92505081905550600182600401868154811061076a576107696112cc565b5b90600052602060002001600001600082825461078691906113b4565b925050819055508573ffffffffffffffffffffffffffffffffffffffff16877f1abe610cf2bf87e57dcc1181fcf5ac0934e843d8344ab9eed6e86c799f62585e876040516107d49190610d7a565b60405180910390a350505050505050565b6000600280549050821061082e576040517f08c379a0000000000000000000000000000000000000000000000000000000008152600401610825906112ac565b60405180910390fd5b600060028381548110610844576108436112cc565b5b906000526020600020906005020190508060040180549050915050919050565b60008054906101000a900473ffffffffffffffffffffffffffffffffffffffff1681565b600360003373ffffffffffffffffffffffffffffffffffffffff1673ffffffffffffffffffffffffffffffffffffffff16815260200190815260200160002060009054906101000a900460ff16610914576040517f08c379a000000000000000000000000000000000000000000000000000000000815260040161090b90611240565b60405180910390fd5b6001600360008373ffffffffffffffffffffffffffffffffffffffff1673ffffffffffffffffffffffffffffffffffffffff16815260200190815260200160002060006101000a81548160ff02191690831515021790555050565b600360003373ffffffffffffffffffffffffffffffffffffffff1673ffffffffffffffffffffffffffffffffffffffff16815260200190815260200160002060009054906101000a900460ff166109fb576040517f08c379a00000000000000000000000000000000000000000000000000000000081526004016109f290611240565b60405180910390fd5b6000600260018160018154018082558091505003906000526020600020906005020190506000816000018190555082816002018190555042816003018190555060006001600280549050610a4f919061156e565b9050807fa8a6a59cf1e5611c92db062f2bbe8c3ad99a1931b83d1b103ac5634561535955888888604051610a8593929190611610565b60405180910390a260005b8351811015610b445782600401604051806020016040528060008152509080600181540180825580915050600190039060005260206000200160009091909190915060008201518160000155505080827fd3b5cef521b08344b2f3822456355f6c2603e7f00a271d0215ac4760a401fc48868481518110610b1457610b136112cc565b5b6020026020010151604051610b29919061165c565b60405180910390a38080610b3c9061132a565b915050610a90565b5050505050505050565b60006002805490508310610b97576040517f08c379a0000000000000000000000000000000000000000000000000000000008152600401610b8e906112ac565b60405180910390fd5b600060028481548110610bad57610bac6112cc565b5b9060005260206000209060050201905080600401805490508310610c06576040517f08c379a0000000000000000000000000000000000000000000000000000000008152600401610bfd906116ca565b60405180910390fd5b806004018381548110610c1c57610c1b6112cc565b5b906000526020600020016000015491505092915050565b6000604051905090565b600080fd5b600080fd5b600073ffffffffffffffffffffffffffffffffffffffff82169050919050565b6000610c7282610c47565b9050919050565b610c8281610c67565b8114610c8d57600080fd5b50565b600081359050610c9f81610c79565b92915050565b600060208284031215610cbb57610cba610c3d565b5b6000610cc984828501610c90565b91505092915050565b60008115159050919050565b610ce781610cd2565b82525050565b6000602082019050610d026000830184610cde565b92915050565b6000819050919050565b610d1b81610d08565b8114610d2657600080fd5b50565b600081359050610d3881610d12565b92915050565b600060208284031215610d5457610d53610c3d565b5b6000610d6284828501610d29565b91505092915050565b610d7481610d08565b82525050565b6000602082019050610d8f6000830184610d6b565b92915050565b610d9e81610c67565b82525050565b6000602082019050610db96000830184610d95565b92915050565b600080600060608486031215610dd857610dd7610c3d565b5b6000610de686828701610d29565b9350506020610df786828701610c90565b9250506040610e0886828701610d29565b9150509250925092565b6000819050919050565b6000610e37610e32610e2d84610c47565b610e12565b610c47565b9050919050565b6000610e4982610e1c565b9050919050565b6000610e5b82610e3e565b9050919050565b610e6b81610e50565b82525050565b6000602082019050610e866000830184610e62565b92915050565b600080fd5b600080fd5b6000601f19601f8301169050919050565b7f4e487b7100000000000000000000000000000000000000000000000000000000600052604160045260246000fd5b610edf82610e96565b810181811067ffffffffffffffff82111715610efe57610efd610ea7565b5b80604052505050565b6000610f11610c33565b9050610f1d8282610ed6565b919050565b600067ffffffffffffffff821115610f3d57610f3c610ea7565b5b610f4682610e96565b9050602081019050919050565b82818337600083830152505050565b6000610f75610f7084610f22565b610f07565b905082815260208101848484011115610f9157610f90610e91565b5b610f9c848285610f53565b509392505050565b600082601f830112610fb957610fb8610e8c565b5b8135610fc9848260208601610f62565b91505092915050565b600067ffffffffffffffff821115610fed57610fec610ea7565b5b602082029050602081019050919050565b600080fd5b600061101661101184610fd2565b610f07565b9050808382526020820190506020840283018581111561103957611038610ffe565b5b835b8181101561108057803567ffffffffffffffff81111561105e5761105d610e8c565b5b80860161106b8982610fa4565b8552602085019450505060208101905061103b565b5050509392505050565b600082601f83011261109f5761109e610e8c565b5b81356110af848260208601611003565b91505092915050565b600080600080600060a086880312156110d4576110d3610c3d565b5b600086013567ffffffffffffffff8111156110f2576110f1610c42565b5b6110fe88828901610fa4565b955050602086013567ffffffffffffffff81111561111f5761111e610c42565b5b61112b88828901610fa4565b945050604086013567ffffffffffffffff81111561114c5761114b610c42565b5b61115888828901610fa4565b935050606061116988828901610d29565b925050608086013567ffffffffffffffff81111561118a57611189610c42565b5b6111968882890161108a565b9150509295509295909350565b600080604083850312156111ba576111b9610c3d565b5b60006111c885828601610d29565b92505060206111d985828601610d29565b9150509250929050565b600082825260208201905092915050565b7f43616c6c6572206973206e6f7420616e206f776e657200000000000000000000600082015250565b600061122a6016836111e3565b9150611235826111f4565b602082019050919050565b600060208201905081810360008301526112598161121d565b9050919050565b7f496e76616c69642070726f706f73616c20494400000000000000000000000000600082015250565b60006112966013836111e3565b91506112a182611260565b602082019050919050565b600060208201905081810360008301526112c581611289565b9050919050565b7f4e487b7100000000000000000000000000000000000000000000000000000000600052603260045260246000fd5b7f4e487b7100000000000000000000000000000000000000000000000000000000600052601160045260246000fd5b600061133582610d08565b91507fffffffffffffffffffffffffffffffffffffffffffffffffffffffffffffffff8203611367576113666112fb565b5b600182019050919050565b600061137d82610d08565b915061138883610d08565b925082820261139681610d08565b915082820484148315176113ad576113ac6112fb565b5b5092915050565b60006113bf82610d08565b91506113ca83610d08565b92508282019050808211156113e2576113e16112fb565b5b92915050565b7f566f74696e672074696d65206578706972656400000000000000000000000000600082015250565b600061141e6013836111e3565b9150611429826113e8565b602082019050919050565b6000602082019050818103600083015261144d81611411565b9050919050565b7f416c726561647920766f74656400000000000000000000000000000000000000600082015250565b600061148a600d836111e3565b915061149582611454565b602082019050919050565b600060208201905081810360008301526114b98161147d565b9050919050565b6000815190506114cf81610d12565b92915050565b6000602082840312156114eb576114ea610c3d565b5b60006114f9848285016114c0565b91505092915050565b7f4e6f204b5542494420746f6b656e730000000000000000000000000000000000600082015250565b6000611538600f836111e3565b915061154382611502565b602082019050919050565b600060208201905081810360008301526115678161152b565b9050919050565b600061157982610d08565b915061158483610d08565b925082820390508181111561159c5761159b6112fb565b5b92915050565b600081519050919050565b60005b838110156115cb5780820151818401526020810190506115b0565b60008484015250505050565b60006115e2826115a2565b6115ec81856111e3565b93506115fc8185602086016115ad565b61160581610e96565b840191505092915050565b6000606082019050818103600083015261162a81866115d7565b9050818103602083015261163e81856115d7565b9050818103604083015261165281846115d7565b9050949350505050565b6000602082019050818103600083015261167681846115d7565b905092915050565b7f496e76616c6964206f7074696f6e20696e646578000000000000000000000000600082015250565b60006116b46014836111e3565b91506116bf8261167e565b602082019050919050565b600060208201905081810360008301526116e3816116a7565b905091905056fea2646970667358221220e98289ec1163c1194c103df1c284146787c485260dba8a9aadfbdc14fd1948c664736f6c63430008120033",
  "linkReferences": {},
  "deployedLinkReferences": {}
}