{
  "_format": "hh-sol-artifact-1",
  "contractName": "KubidVoting",
  "sourceName": "contracts/KUBIDvoting.sol",
  "abi": [
    {
      "inputs": [
        {
          "internalType": "address",
          "name": "_kubidToken",
          "type": "address"
        },
        {
          "internalType": "address",
          "name": "_dao",
          "type": "address"
        },
        {
          "internalType": "address",
          "name": "_owner1",
          "type": "address"
        },
        {
          "internalType": "address",
          "name": "_owner2",
          "type": "address"
        }
      ],
      "stateMutability": "nonpayable",
      "type": "constructor"
    },
    {
      "anonymous": false,
      "inputs": [
        {
          "indexed": true,
          "internalType": "uint256",
          "name": "proposalId",
          "type": "uint256"
        },
        {
          "indexed": false,
          "internalType": "string",
          "name": "name",
          "type": "string"
        },
        {
          "indexed": false,
          "internalType": "string",
          "name": "description",
          "type": "string"
        },
        {
          "indexed": false,
          "internalType": "string",
          "name": "execution",
          "type": "string"
        }
      ],
      "name": "NewProposal",
      "type": "event"
    },
    {
      "anonymous": false,
      "inputs": [
        {
          "indexed": true,
          "internalType": "uint256",
          "name": "proposalId",
          "type": "uint256"
        }
      ],
      "name": "ProposalCompleted",
      "type": "event"
    },
    {
      "anonymous": false,
      "inputs": [
        {
          "indexed": true,
          "internalType": "uint256",
          "name": "proposalId",
          "type": "uint256"
        },
        {
          "indexed": true,
          "internalType": "address",
          "name": "voter",
          "type": "address"
        },
        {
          "indexed": false,
          "internalType": "uint256",
          "name": "optionIndex",
          "type": "uint256"
        }
      ],
      "name": "Voted",
      "type": "event"
    },
    {
      "inputs": [
        {
          "internalType": "uint256",
          "name": "",
          "type": "uint256"
        }
      ],
      "name": "activeProposalIndices",
      "outputs": [
        {
          "internalType": "uint256",
          "name": "",
          "type": "uint256"
        }
      ],
      "stateMutability": "view",
      "type": "function"
    },
    {
      "inputs": [],
      "name": "activeProposalsCount",
      "outputs": [
        {
          "internalType": "uint256",
          "name": "",
          "type": "uint256"
        }
      ],
      "stateMutability": "view",
      "type": "function"
    },
    {
      "inputs": [
        {
          "internalType": "uint256",
          "name": "_proposalId",
          "type": "uint256"
        },
        {
          "internalType": "uint256",
          "name": "_optionsCount",
          "type": "uint256"
        }
      ],
      "name": "addOptions",
      "outputs": [],
      "stateMutability": "nonpayable",
      "type": "function"
    },
    {
      "inputs": [
        {
          "internalType": "address",
          "name": "_newOwner",
          "type": "address"
        }
      ],
      "name": "addOwner",
      "outputs": [],
      "stateMutability": "nonpayable",
      "type": "function"
    },
    {
      "inputs": [
        {
          "internalType": "uint256",
          "name": "",
          "type": "uint256"
        }
      ],
      "name": "completedProposalIndices",
      "outputs": [
        {
          "internalType": "uint256",
          "name": "",
          "type": "uint256"
        }
      ],
      "stateMutability": "view",
      "type": "function"
    },
    {
      "inputs": [],
      "name": "completedProposalsCount",
      "outputs": [
        {
          "internalType": "uint256",
          "name": "",
          "type": "uint256"
        }
      ],
      "stateMutability": "view",
      "type": "function"
    },
    {
      "inputs": [
        {
          "internalType": "string",
          "name": "_name",
          "type": "string"
        },
        {
          "internalType": "string",
          "name": "_description",
          "type": "string"
        },
        {
          "internalType": "string",
          "name": "_execution",
          "type": "string"
        },
        {
          "internalType": "uint256",
          "name": "_timeInMinutes",
          "type": "uint256"
        }
      ],
      "name": "createProposal",
      "outputs": [],
      "stateMutability": "nonpayable",
      "type": "function"
    },
    {
      "inputs": [],
      "name": "dao",
      "outputs": [
        {
          "internalType": "address",
          "name": "",
          "type": "address"
        }
      ],
      "stateMutability": "view",
      "type": "function"
    },
    {
      "inputs": [
        {
          "internalType": "uint256",
          "name": "_proposalId",
          "type": "uint256"
        },
        {
          "internalType": "uint256",
          "name": "_optionIndex",
          "type": "uint256"
        }
      ],
      "name": "getOption",
      "outputs": [
        {
          "internalType": "uint256",
          "name": "votes",
          "type": "uint256"
        }
      ],
      "stateMutability": "view",
      "type": "function"
    },
    {
      "inputs": [
        {
          "internalType": "uint256",
          "name": "_proposalId",
          "type": "uint256"
        }
      ],
      "name": "getOptionsCount",
      "outputs": [
        {
          "internalType": "uint256",
          "name": "",
          "type": "uint256"
        }
      ],
      "stateMutability": "view",
      "type": "function"
    },
    {
      "inputs": [
        {
          "internalType": "uint256",
          "name": "_completedProposalIndex",
          "type": "uint256"
        }
      ],
      "name": "getWinner",
      "outputs": [
        {
          "internalType": "uint256",
          "name": "winningOptionIndex",
          "type": "uint256"
        }
      ],
      "stateMutability": "view",
      "type": "function"
    },
    {
      "inputs": [
        {
          "internalType": "address",
          "name": "",
          "type": "address"
        }
      ],
      "name": "isOwner",
      "outputs": [
        {
          "internalType": "bool",
          "name": "",
          "type": "bool"
        }
      ],
      "stateMutability": "view",
      "type": "function"
    },
    {
      "inputs": [],
      "name": "kubidToken",
      "outputs": [
        {
          "internalType": "contract IERC20",
          "name": "",
          "type": "address"
        }
      ],
      "stateMutability": "view",
      "type": "function"
    },
    {
      "inputs": [],
      "name": "moveToCompleted",
      "outputs": [],
      "stateMutability": "nonpayable",
      "type": "function"
    },
    {
      "inputs": [
        {
          "internalType": "address",
          "name": "_owner",
          "type": "address"
        }
      ],
      "name": "removeOwner",
      "outputs": [],
      "stateMutability": "nonpayable",
      "type": "function"
    },
    {
      "inputs": [
        {
          "internalType": "uint256",
          "name": "_proposalId",
          "type": "uint256"
        },
        {
          "internalType": "uint256",
          "name": "_optionIndex",
          "type": "uint256"
        }
      ],
      "name": "vote",
      "outputs": [],
      "stateMutability": "nonpayable",
      "type": "function"
    }
  ],
  "bytecode": "0x60806040523480156200001157600080fd5b5060405162001aaf38038062001aaf83398181016040528101906200003791906200025e565b836000806101000a81548173ffffffffffffffffffffffffffffffffffffffff021916908373ffffffffffffffffffffffffffffffffffffffff16021790555082600160006101000a81548173ffffffffffffffffffffffffffffffffffffffff021916908373ffffffffffffffffffffffffffffffffffffffff1602179055506001600560003373ffffffffffffffffffffffffffffffffffffffff1673ffffffffffffffffffffffffffffffffffffffff16815260200190815260200160002060006101000a81548160ff0219169083151502179055506001600560008473ffffffffffffffffffffffffffffffffffffffff1673ffffffffffffffffffffffffffffffffffffffff16815260200190815260200160002060006101000a81548160ff0219169083151502179055506001600560008373ffffffffffffffffffffffffffffffffffffffff1673ffffffffffffffffffffffffffffffffffffffff16815260200190815260200160002060006101000a81548160ff02191690831515021790555060036000908060018154018082558091505060019003906000526020600020016000909190919091505550505050620002d0565b600080fd5b600073ffffffffffffffffffffffffffffffffffffffff82169050919050565b60006200022682620001f9565b9050919050565b620002388162000219565b81146200024457600080fd5b50565b60008151905062000258816200022d565b92915050565b600080600080608085870312156200027b576200027a620001f4565b5b60006200028b8782880162000247565b94505060206200029e8782880162000247565b9350506040620002b18782880162000247565b9250506060620002c48782880162000247565b91505092959194509250565b6117cf80620002e06000396000f3fe608060405234801561001057600080fd5b50600436106101005760003560e01c8063517a6257116100975780637f30b7c0116100665780637f30b7c0146102bf578063b384abef146102dd578063f9232e1d146102f9578063fb0cb3ca1461030357610100565b8063517a6257146102395780635c5dab67146102695780636f5d4a33146102875780637065cb48146102a357610100565b80634129b2c9116100d35780634129b2c91461019f5780634162169f146101cf57806342501dae146101ed5780634c15676b1461021d57610100565b8063173825d9146101055780631ce30927146101215780632116c347146101515780632f54bf6e1461016f575b600080fd5b61011f600480360381019061011a9190610f88565b610333565b005b61013b60048036038101906101369190610feb565b61041a565b604051610148919061103a565b60405180910390f35b610159610474565b604051610166919061103a565b60405180910390f35b61018960048036038101906101849190610f88565b61048d565b6040516101969190611070565b60405180910390f35b6101b960048036038101906101b4919061108b565b6104ad565b6040516101c6919061103a565b60405180910390f35b6101d761057b565b6040516101e491906110c7565b60405180910390f35b6102076004803603810190610202919061108b565b6105a1565b604051610214919061103a565b60405180910390f35b61023760048036038101906102329190611228565b6105c5565b005b610253600480360381019061024e919061108b565b610728565b604051610260919061103a565b60405180910390f35b61027161075f565b60405161027e9190611342565b60405180910390f35b6102a1600480360381019061029c9190610feb565b610783565b005b6102bd60048036038101906102b89190610f88565b61089e565b005b6102c7610985565b6040516102d4919061103a565b60405180910390f35b6102f760048036038101906102f29190610feb565b610992565b005b610301610cba565b005b61031d6004803603810190610318919061108b565b610e47565b60405161032a919061103a565b60405180910390f35b600560003373ffffffffffffffffffffffffffffffffffffffff1673ffffffffffffffffffffffffffffffffffffffff16815260200190815260200160002060009054906101000a900460ff166103bf576040517f08c379a00000000000000000000000000000000000000000000000000000000081526004016103b6906113ba565b60405180910390fd5b6000600560008373ffffffffffffffffffffffffffffffffffffffff1673ffffffffffffffffffffffffffffffffffffffff16815260200190815260200160002060006101000a81548160ff02191690831515021790555050565b60008060028481548110610431576104306113da565b5b906000526020600020906005020190506000816004018481548110610459576104586113da565b5b90600052602060002001905080600001549250505092915050565b600060016003805490506104889190611438565b905090565b60056020528060005260406000206000915054906101000a900460ff1681565b600080600483815481106104c4576104c36113da565b5b906000526020600020015490506000600282815481106104e7576104e66113da565b5b906000526020600020906005020190506000805b82600401805490508110156105725781836004018281548110610521576105206113da565b5b9060005260206000200160000154111561055f5782600401818154811061054b5761054a6113da565b5b906000526020600020016000015491508094505b808061056a9061146c565b9150506104fb565b50505050919050565b600160009054906101000a900473ffffffffffffffffffffffffffffffffffffffff1681565b600381815481106105b157600080fd5b906000526020600020016000915090505481565b600560003373ffffffffffffffffffffffffffffffffffffffff1673ffffffffffffffffffffffffffffffffffffffff16815260200190815260200160002060009054906101000a900460ff16610651576040517f08c379a0000000000000000000000000000000000000000000000000000000008152600401610648906113ba565b60405180910390fd5b6000600280549050905060038190806001815401808255809150506001900390600052602060002001600090919091909150556002600181600181540180825580915050039060005260206000209050506000600282815481106106b8576106b76113da565b5b9060005260206000209060050201905060008160000181905550828160020181905550428160030181905550817fa8a6a59cf1e5611c92db062f2bbe8c3ad99a1931b83d1b103ac563456153595587878760405161071893929190611522565b60405180910390a2505050505050565b6000806002838154811061073f5761073e6113da565b5b906000526020600020906005020190508060040180549050915050919050565b60008054906101000a900473ffffffffffffffffffffffffffffffffffffffff1681565b600560003373ffffffffffffffffffffffffffffffffffffffff1673ffffffffffffffffffffffffffffffffffffffff16815260200190815260200160002060009054906101000a900460ff1661080f576040517f08c379a0000000000000000000000000000000000000000000000000000000008152600401610806906113ba565b60405180910390fd5b600060028381548110610825576108246113da565b5b9060005260206000209060050201905060005b828110156108985781600401604051806020016040528060008152509080600181540180825580915050600190039060005260206000200160009091909190915060008201518160000155505080806108909061146c565b915050610838565b50505050565b600560003373ffffffffffffffffffffffffffffffffffffffff1673ffffffffffffffffffffffffffffffffffffffff16815260200190815260200160002060009054906101000a900460ff1661092a576040517f08c379a0000000000000000000000000000000000000000000000000000000008152600401610921906113ba565b60405180910390fd5b6001600560008373ffffffffffffffffffffffffffffffffffffffff1673ffffffffffffffffffffffffffffffffffffffff16815260200190815260200160002060006101000a81548160ff02191690831515021790555050565b6000600480549050905090565b816000600282815481106109a9576109a86113da565b5b90600052602060002090600502019050603c81600201546109ca919061156e565b81600301546109d991906115b0565b421115610a1b576040517f08c379a0000000000000000000000000000000000000000000000000000000008152600401610a1290611630565b60405180910390fd5b600060028581548110610a3157610a306113da565b5b906000526020600020906005020190508060010160003373ffffffffffffffffffffffffffffffffffffffff1673ffffffffffffffffffffffffffffffffffffffff16815260200190815260200160002060009054906101000a900460ff1615610ad0576040517f08c379a0000000000000000000000000000000000000000000000000000000008152600401610ac79061169c565b60405180910390fd5b60008060009054906101000a900473ffffffffffffffffffffffffffffffffffffffff1673ffffffffffffffffffffffffffffffffffffffff166370a08231336040518263ffffffff1660e01b8152600401610b2c91906110c7565b602060405180830381865afa158015610b49573d6000803e3d6000fd5b505050506040513d601f19601f82011682018060405250810190610b6d91906116d1565b905060008111610bb2576040517f08c379a0000000000000000000000000000000000000000000000000000000008152600401610ba99061174a565b60405180910390fd5b60018260010160003373ffffffffffffffffffffffffffffffffffffffff1673ffffffffffffffffffffffffffffffffffffffff16815260200190815260200160002060006101000a81548160ff0219169083151502179055506001826000016000828254610c2191906115b0565b925050819055506001826004018681548110610c4057610c3f6113da565b5b906000526020600020016000016000828254610c5c91906115b0565b925050819055503373ffffffffffffffffffffffffffffffffffffffff16867f1abe610cf2bf87e57dcc1181fcf5ac0934e843d8344ab9eed6e86c799f62585e87604051610caa919061103a565b60405180910390a3505050505050565b600560003373ffffffffffffffffffffffffffffffffffffffff1673ffffffffffffffffffffffffffffffffffffffff16815260200190815260200160002060009054906101000a900460ff16610d46576040517f08c379a0000000000000000000000000000000000000000000000000000000008152600401610d3d906113ba565b60405180910390fd5b6000600190505b600380549050811015610e4457600060038281548110610d7057610d6f6113da565b5b90600052602060002001549050600060028281548110610d9357610d926113da565b5b90600052602060002090600502019050603c8160020154610db4919061156e565b8160030154610dc391906115b0565b421115610e2e576004829080600181540180825580915050600190039060005260206000200160009091909190915055817f71611adb0c8d2eea43359b2e41e5fdf96309ce734ed1eb78ceb763198c1b896760405160405180910390a2610e2983610e6b565b610e3d565b8280610e399061146c565b9350505b5050610d4d565b50565b60048181548110610e5757600080fd5b906000526020600020016000915090505481565b60008190505b6001600380549050610e839190611438565b811015610eea576003600182610e9991906115b0565b81548110610eaa57610ea96113da565b5b906000526020600020015460038281548110610ec957610ec86113da565b5b90600052602060002001819055508080610ee29061146c565b915050610e71565b506003805480610efd57610efc61176a565b5b6001900381819060005260206000200160009055905550565b6000604051905090565b600080fd5b600080fd5b600073ffffffffffffffffffffffffffffffffffffffff82169050919050565b6000610f5582610f2a565b9050919050565b610f6581610f4a565b8114610f7057600080fd5b50565b600081359050610f8281610f5c565b92915050565b600060208284031215610f9e57610f9d610f20565b5b6000610fac84828501610f73565b91505092915050565b6000819050919050565b610fc881610fb5565b8114610fd357600080fd5b50565b600081359050610fe581610fbf565b92915050565b6000806040838503121561100257611001610f20565b5b600061101085828601610fd6565b925050602061102185828601610fd6565b9150509250929050565b61103481610fb5565b82525050565b600060208201905061104f600083018461102b565b92915050565b60008115159050919050565b61106a81611055565b82525050565b60006020820190506110856000830184611061565b92915050565b6000602082840312156110a1576110a0610f20565b5b60006110af84828501610fd6565b91505092915050565b6110c181610f4a565b82525050565b60006020820190506110dc60008301846110b8565b92915050565b600080fd5b600080fd5b6000601f19601f8301169050919050565b7f4e487b7100000000000000000000000000000000000000000000000000000000600052604160045260246000fd5b611135826110ec565b810181811067ffffffffffffffff82111715611154576111536110fd565b5b80604052505050565b6000611167610f16565b9050611173828261112c565b919050565b600067ffffffffffffffff821115611193576111926110fd565b5b61119c826110ec565b9050602081019050919050565b82818337600083830152505050565b60006111cb6111c684611178565b61115d565b9050828152602081018484840111156111e7576111e66110e7565b5b6111f28482856111a9565b509392505050565b600082601f83011261120f5761120e6110e2565b5b813561121f8482602086016111b8565b91505092915050565b6000806000806080858703121561124257611241610f20565b5b600085013567ffffffffffffffff8111156112605761125f610f25565b5b61126c878288016111fa565b945050602085013567ffffffffffffffff81111561128d5761128c610f25565b5b611299878288016111fa565b935050604085013567ffffffffffffffff8111156112ba576112b9610f25565b5b6112c6878288016111fa565b92505060606112d787828801610fd6565b91505092959194509250565b6000819050919050565b60006113086113036112fe84610f2a565b6112e3565b610f2a565b9050919050565b600061131a826112ed565b9050919050565b600061132c8261130f565b9050919050565b61133c81611321565b82525050565b60006020820190506113576000830184611333565b92915050565b600082825260208201905092915050565b7f43616c6c6572206973206e6f7420616e206f776e657200000000000000000000600082015250565b60006113a460168361135d565b91506113af8261136e565b602082019050919050565b600060208201905081810360008301526113d381611397565b9050919050565b7f4e487b7100000000000000000000000000000000000000000000000000000000600052603260045260246000fd5b7f4e487b7100000000000000000000000000000000000000000000000000000000600052601160045260246000fd5b600061144382610fb5565b915061144e83610fb5565b925082820390508181111561146657611465611409565b5b92915050565b600061147782610fb5565b91507fffffffffffffffffffffffffffffffffffffffffffffffffffffffffffffffff82036114a9576114a8611409565b5b600182019050919050565b600081519050919050565b60005b838110156114dd5780820151818401526020810190506114c2565b60008484015250505050565b60006114f4826114b4565b6114fe818561135d565b935061150e8185602086016114bf565b611517816110ec565b840191505092915050565b6000606082019050818103600083015261153c81866114e9565b9050818103602083015261155081856114e9565b9050818103604083015261156481846114e9565b9050949350505050565b600061157982610fb5565b915061158483610fb5565b925082820261159281610fb5565b915082820484148315176115a9576115a8611409565b5b5092915050565b60006115bb82610fb5565b91506115c683610fb5565b92508282019050808211156115de576115dd611409565b5b92915050565b7f566f74696e672074696d65206578706972656400000000000000000000000000600082015250565b600061161a60138361135d565b9150611625826115e4565b602082019050919050565b600060208201905081810360008301526116498161160d565b9050919050565b7f416c726561647920766f74656400000000000000000000000000000000000000600082015250565b6000611686600d8361135d565b915061169182611650565b602082019050919050565b600060208201905081810360008301526116b581611679565b9050919050565b6000815190506116cb81610fbf565b92915050565b6000602082840312156116e7576116e6610f20565b5b60006116f5848285016116bc565b91505092915050565b7f4e6f204b5542494420746f6b656e730000000000000000000000000000000000600082015250565b6000611734600f8361135d565b915061173f826116fe565b602082019050919050565b6000602082019050818103600083015261176381611727565b9050919050565b7f4e487b7100000000000000000000000000000000000000000000000000000000600052603160045260246000fdfea26469706673582212200ce6826eadca1e2e7f5cee54dab0c553b9b3f3fe888a4adcfde07f9250bc5c3664736f6c63430008120033",
  "linkReferences": {},
  "deployedLinkReferences": {}
}