{
  "_format": "hh-sol-artifact-1",
  "contractName": "KubixVoting",
  "sourceName": "contracts/KUBIXvoting.sol",
  "abi": [
    {
      "inputs": [
        {
          "internalType": "address",
          "name": "_kubixToken",
          "type": "address"
        },
        {
          "internalType": "address",
          "name": "_dao",
          "type": "address"
        }
      ],
      "stateMutability": "nonpayable",
      "type": "constructor"
    },
    {
      "anonymous": false,
      "inputs": [
        {
          "indexed": true,
          "internalType": "uint256",
          "name": "proposalId",
          "type": "uint256"
        },
        {
          "indexed": false,
          "internalType": "string",
          "name": "name",
          "type": "string"
        }
      ],
      "name": "NewProposal",
      "type": "event"
    },
    {
      "inputs": [
        {
          "internalType": "uint256",
          "name": "",
          "type": "uint256"
        }
      ],
      "name": "activeProposalIndices",
      "outputs": [
        {
          "internalType": "uint256",
          "name": "",
          "type": "uint256"
        }
      ],
      "stateMutability": "view",
      "type": "function"
    },
    {
      "inputs": [
        {
          "internalType": "uint256",
          "name": "",
          "type": "uint256"
        }
      ],
      "name": "activeProposals",
      "outputs": [
        {
          "internalType": "string",
          "name": "name",
          "type": "string"
        },
        {
          "internalType": "string",
          "name": "description",
          "type": "string"
        },
        {
          "internalType": "string",
          "name": "execution",
          "type": "string"
        },
        {
          "internalType": "uint256",
          "name": "totalVotes",
          "type": "uint256"
        },
        {
          "internalType": "uint256",
          "name": "maxBalance",
          "type": "uint256"
        },
        {
          "internalType": "uint256",
          "name": "minBalance",
          "type": "uint256"
        },
        {
          "internalType": "uint256",
          "name": "timeInMinutes",
          "type": "uint256"
        },
        {
          "internalType": "uint256",
          "name": "creationTimestamp",
          "type": "uint256"
        }
      ],
      "stateMutability": "view",
      "type": "function"
    },
    {
      "inputs": [],
      "name": "activeProposalsCount",
      "outputs": [
        {
          "internalType": "uint256",
          "name": "",
          "type": "uint256"
        }
      ],
      "stateMutability": "view",
      "type": "function"
    },
    {
      "inputs": [
        {
          "internalType": "uint256",
          "name": "_proposalId",
          "type": "uint256"
        },
        {
          "internalType": "uint256",
          "name": "_balance",
          "type": "uint256"
        }
      ],
      "name": "calculateVoteWeight",
      "outputs": [
        {
          "internalType": "uint256",
          "name": "",
          "type": "uint256"
        }
      ],
      "stateMutability": "view",
      "type": "function"
    },
    {
      "inputs": [
        {
          "internalType": "uint256",
          "name": "",
          "type": "uint256"
        }
      ],
      "name": "completedProposalIndices",
      "outputs": [
        {
          "internalType": "uint256",
          "name": "",
          "type": "uint256"
        }
      ],
      "stateMutability": "view",
      "type": "function"
    },
    {
      "inputs": [],
      "name": "completedProposalsCount",
      "outputs": [
        {
          "internalType": "uint256",
          "name": "",
          "type": "uint256"
        }
      ],
      "stateMutability": "view",
      "type": "function"
    },
    {
      "inputs": [
        {
          "internalType": "string",
          "name": "_name",
          "type": "string"
        },
        {
          "internalType": "string",
          "name": "_description",
          "type": "string"
        },
        {
          "internalType": "string",
          "name": "_execution",
          "type": "string"
        },
        {
          "internalType": "uint256",
          "name": "_maxBalance",
          "type": "uint256"
        },
        {
          "internalType": "uint256",
          "name": "_minBalance",
          "type": "uint256"
        },
        {
          "internalType": "uint256",
          "name": "_timeInMinutes",
          "type": "uint256"
        },
        {
          "internalType": "string[]",
          "name": "_options",
          "type": "string[]"
        }
      ],
      "name": "createProposal",
      "outputs": [],
      "stateMutability": "nonpayable",
      "type": "function"
    },
    {
      "inputs": [],
      "name": "dao",
      "outputs": [
        {
          "internalType": "address",
          "name": "",
          "type": "address"
        }
      ],
      "stateMutability": "view",
      "type": "function"
    },
    {
      "inputs": [
        {
          "internalType": "uint256",
          "name": "_proposalId",
          "type": "uint256"
        },
        {
          "internalType": "uint256",
          "name": "_optionIndex",
          "type": "uint256"
        }
      ],
      "name": "getOption",
      "outputs": [
        {
          "internalType": "string",
          "name": "optionName",
          "type": "string"
        },
        {
          "internalType": "uint256",
          "name": "votes",
          "type": "uint256"
        }
      ],
      "stateMutability": "view",
      "type": "function"
    },
    {
      "inputs": [
        {
          "internalType": "uint256",
          "name": "_completedProposalIndex",
          "type": "uint256"
        }
      ],
      "name": "getWinner",
      "outputs": [
        {
          "internalType": "string",
          "name": "",
          "type": "string"
        }
      ],
      "stateMutability": "view",
      "type": "function"
    },
    {
      "inputs": [],
      "name": "kubixToken",
      "outputs": [
        {
          "internalType": "contract IERC20",
          "name": "",
          "type": "address"
        }
      ],
      "stateMutability": "view",
      "type": "function"
    },
    {
      "inputs": [],
      "name": "moveToCompleted",
      "outputs": [],
      "stateMutability": "nonpayable",
      "type": "function"
    },
    {
      "inputs": [
        {
          "internalType": "uint256",
          "name": "_proposalId",
          "type": "uint256"
        },
        {
          "internalType": "address",
          "name": "_voter",
          "type": "address"
        },
        {
          "internalType": "uint256",
          "name": "_optionIndex",
          "type": "uint256"
        }
      ],
      "name": "vote",
      "outputs": [],
      "stateMutability": "nonpayable",
      "type": "function"
    }
  ],
  "bytecode": "0x60806040523480156200001157600080fd5b506040516200211a3803806200211a833981810160405281019062000037919062000154565b816000806101000a81548173ffffffffffffffffffffffffffffffffffffffff021916908373ffffffffffffffffffffffffffffffffffffffff16021790555080600160006101000a81548173ffffffffffffffffffffffffffffffffffffffff021916908373ffffffffffffffffffffffffffffffffffffffff16021790555060036000908060018154018082558091505060019003906000526020600020016000909190919091505550506200019b565b600080fd5b600073ffffffffffffffffffffffffffffffffffffffff82169050919050565b60006200011c82620000ef565b9050919050565b6200012e816200010f565b81146200013a57600080fd5b50565b6000815190506200014e8162000123565b92915050565b600080604083850312156200016e576200016d620000ea565b5b60006200017e858286016200013d565b925050602062000191858286016200013d565b9150509250929050565b611f6f80620001ab6000396000f3fe608060405234801561001057600080fd5b50600436106100cf5760003560e01c80637775f7da1161008c578063e0fdcc4211610066578063e0fdcc4214610215578063e40824f814610245578063f9232e1d1461027c578063fb0cb3ca14610286576100cf565b80637775f7da146101bd5780637f30b7c0146101d9578063a52bc6e2146101f7576100cf565b80631ce30927146100d45780632116c347146101055780634129b2c9146101235780634162169f1461015357806342501dae146101715780634de8737c146101a1575b600080fd5b6100ee60048036038101906100e991906110e2565b6102b6565b6040516100fc9291906111c1565b60405180910390f35b61010d6103a9565b60405161011a91906111f1565b60405180910390f35b61013d6004803603810190610138919061120c565b6103c2565b60405161014a9190611239565b60405180910390f35b61015b610551565b604051610168919061129c565b60405180910390f35b61018b6004803603810190610186919061120c565b610577565b60405161019891906111f1565b60405180910390f35b6101bb60048036038101906101b691906112e3565b61059b565b005b6101d760048036038101906101d29190611551565b61087b565b005b6101e1610b4d565b6040516101ee91906111f1565b60405180910390f35b6101ff610b5a565b60405161020c91906116c2565b60405180910390f35b61022f600480360381019061022a91906110e2565b610b7e565b60405161023c91906111f1565b60405180910390f35b61025f600480360381019061025a919061120c565b610c29565b6040516102739897969594939291906116dd565b60405180910390f35b610284610e19565b005b6102a0600480360381019061029b919061120c565b61101c565b6040516102ad91906111f1565b60405180910390f35b6060600080600285815481106102cf576102ce611770565b5b90600052602060002090600a0201905060008160090185815481106102f7576102f6611770565b5b9060005260206000209060020201905080600001816001015481805461031c906117ce565b80601f0160208091040260200160405190810160405280929190818152602001828054610348906117ce565b80156103955780601f1061036a57610100808354040283529160200191610395565b820191906000526020600020905b81548152906001019060200180831161037857829003601f168201915b505050505091509350935050509250929050565b600060016003805490506103bd919061182e565b905090565b60606000600483815481106103da576103d9611770565b5b906000526020600020015490506000600282815481106103fd576103fc611770565b5b90600052602060002090600a0201905060008080600090505b8360090180549050811015610495578284600901828154811061043c5761043b611770565b5b90600052602060002090600202016001015411156104825783600901818154811061046a57610469611770565b5b90600052602060002090600202016001015492508091505b808061048d90611862565b915050610416565b508260090181815481106104ac576104ab611770565b5b906000526020600020906002020160000180546104c8906117ce565b80601f01602080910402602001604051908101604052809291908181526020018280546104f4906117ce565b80156105415780601f1061051657610100808354040283529160200191610541565b820191906000526020600020905b81548152906001019060200180831161052457829003601f168201915b5050505050945050505050919050565b600160009054906101000a900473ffffffffffffffffffffffffffffffffffffffff1681565b6003818154811061058757600080fd5b906000526020600020016000915090505481565b826000600282815481106105b2576105b1611770565b5b90600052602060002090600a02019050603c81600701546105d391906118aa565b81600801546105e291906118ec565b421115610624576040517f08c379a000000000000000000000000000000000000000000000000000000000815260040161061b9061196c565b60405180910390fd5b60006002868154811061063a57610639611770565b5b90600052602060002090600a0201905060008160040160008773ffffffffffffffffffffffffffffffffffffffff1673ffffffffffffffffffffffffffffffffffffffff16815260200190815260200160002054146106ce576040517f08c379a00000000000000000000000000000000000000000000000000000000081526004016106c5906119d8565b60405180910390fd5b60008060009054906101000a900473ffffffffffffffffffffffffffffffffffffffff1673ffffffffffffffffffffffffffffffffffffffff166370a08231876040518263ffffffff1660e01b815260040161072a919061129c565b602060405180830381865afa158015610747573d6000803e3d6000fd5b505050506040513d601f19601f8201168201806040525081019061076b9190611a0d565b9050600081116107b0576040517f08c379a00000000000000000000000000000000000000000000000000000000081526004016107a790611a86565b60405180910390fd5b81600501548111156107c457816005015490505b60006107d08883610b7e565b9050808360030160008282546107e691906118ec565b92505081905550808360040160008973ffffffffffffffffffffffffffffffffffffffff1673ffffffffffffffffffffffffffffffffffffffff168152602001908152602001600020819055508083600901878154811061084a57610849611770565b5b9060005260206000209060020201600101600082825461086a91906118ec565b925050819055505050505050505050565b600160009054906101000a900473ffffffffffffffffffffffffffffffffffffffff1673ffffffffffffffffffffffffffffffffffffffff163373ffffffffffffffffffffffffffffffffffffffff161461090b576040517f08c379a000000000000000000000000000000000000000000000000000000000815260040161090290611af2565b60405180910390fd5b6000831161094e576040517f08c379a000000000000000000000000000000000000000000000000000000000815260040161094590611b84565b60405180910390fd5b828411610990576040517f08c379a000000000000000000000000000000000000000000000000000000000815260040161098790611c16565b60405180910390fd5b6000600280549050905060038190806001815401808255809150506001900390600052602060002001600090919091909150556002600181600181540180825580915050039060005260206000209050506000600282815481106109f7576109f6611770565b5b90600052602060002090600a0201905088816000019081610a189190611dd8565b5087816001019081610a2a9190611dd8565b5086816002019081610a3c9190611dd8565b506000816003018190555085816005018190555084816006018190555083816007018190555042816008018190555060005b8351811015610b0957816009016040518060400160405280868481518110610a9957610a98611770565b5b60200260200101518152602001600081525090806001815401808255809150506001900390600052602060002090600202016000909190919091506000820151816000019081610ae99190611dd8565b506020820151816001015550508080610b0190611862565b915050610a6e565b50817fa9ef596c73fbcfb4a78bc139b1a19c35247c1f37d2489c0513ad2dd3eb7d8c6b8a604051610b3a9190611239565b60405180910390a2505050505050505050565b6000600480549050905090565b60008054906101000a900473ffffffffffffffffffffffffffffffffffffffff1681565b60008060028481548110610b9557610b94611770565b5b90600052602060002090600a020190506000610bc28260060154836005015461104090919063ffffffff16565b90506000610bdd83600601548661104090919063ffffffff16565b90506000610c1a6001610c0c85610bfe60038761105690919063ffffffff16565b61106c90919063ffffffff16565b61108290919063ffffffff16565b90508094505050505092915050565b60028181548110610c3957600080fd5b90600052602060002090600a0201600091509050806000018054610c5c906117ce565b80601f0160208091040260200160405190810160405280929190818152602001828054610c88906117ce565b8015610cd55780601f10610caa57610100808354040283529160200191610cd5565b820191906000526020600020905b815481529060010190602001808311610cb857829003601f168201915b505050505090806001018054610cea906117ce565b80601f0160208091040260200160405190810160405280929190818152602001828054610d16906117ce565b8015610d635780601f10610d3857610100808354040283529160200191610d63565b820191906000526020600020905b815481529060010190602001808311610d4657829003601f168201915b505050505090806002018054610d78906117ce565b80601f0160208091040260200160405190810160405280929190818152602001828054610da4906117ce565b8015610df15780601f10610dc657610100808354040283529160200191610df1565b820191906000526020600020905b815481529060010190602001808311610dd457829003601f168201915b5050505050908060030154908060050154908060060154908060070154908060080154905088565b600160009054906101000a900473ffffffffffffffffffffffffffffffffffffffff1673ffffffffffffffffffffffffffffffffffffffff163373ffffffffffffffffffffffffffffffffffffffff1614610ea9576040517f08c379a0000000000000000000000000000000000000000000000000000000008152600401610ea090611af2565b60405180910390fd5b6000600190505b60038054905081101561101957600060038281548110610ed357610ed2611770565b5b90600052602060002001549050600060028281548110610ef657610ef5611770565b5b90600052602060002090600a02019050603c8160070154610f1791906118aa565b8160080154610f2691906118ec565b42111561100357600482908060018154018082558091505060019003906000526020600020016000909190919091505560008390505b6001600380549050610f6e919061182e565b811015610fd5576003600182610f8491906118ec565b81548110610f9557610f94611770565b5b906000526020600020015460038281548110610fb457610fb3611770565b5b90600052602060002001819055508080610fcd90611862565b915050610f5c565b506003805480610fe857610fe7611eaa565b5b60019003818190600052602060002001600090559055611012565b828061100e90611862565b9350505b5050610eb0565b50565b6004818154811061102c57600080fd5b906000526020600020016000915090505481565b6000818361104e919061182e565b905092915050565b6000818361106491906118aa565b905092915050565b6000818361107a9190611f08565b905092915050565b6000818361109091906118ec565b905092915050565b6000604051905090565b600080fd5b600080fd5b6000819050919050565b6110bf816110ac565b81146110ca57600080fd5b50565b6000813590506110dc816110b6565b92915050565b600080604083850312156110f9576110f86110a2565b5b6000611107858286016110cd565b9250506020611118858286016110cd565b9150509250929050565b600081519050919050565b600082825260208201905092915050565b60005b8381101561115c578082015181840152602081019050611141565b60008484015250505050565b6000601f19601f8301169050919050565b600061118482611122565b61118e818561112d565b935061119e81856020860161113e565b6111a781611168565b840191505092915050565b6111bb816110ac565b82525050565b600060408201905081810360008301526111db8185611179565b90506111ea60208301846111b2565b9392505050565b600060208201905061120660008301846111b2565b92915050565b600060208284031215611222576112216110a2565b5b6000611230848285016110cd565b91505092915050565b600060208201905081810360008301526112538184611179565b905092915050565b600073ffffffffffffffffffffffffffffffffffffffff82169050919050565b60006112868261125b565b9050919050565b6112968161127b565b82525050565b60006020820190506112b1600083018461128d565b92915050565b6112c08161127b565b81146112cb57600080fd5b50565b6000813590506112dd816112b7565b92915050565b6000806000606084860312156112fc576112fb6110a2565b5b600061130a868287016110cd565b935050602061131b868287016112ce565b925050604061132c868287016110cd565b9150509250925092565b600080fd5b600080fd5b7f4e487b7100000000000000000000000000000000000000000000000000000000600052604160045260246000fd5b61137882611168565b810181811067ffffffffffffffff8211171561139757611396611340565b5b80604052505050565b60006113aa611098565b90506113b6828261136f565b919050565b600067ffffffffffffffff8211156113d6576113d5611340565b5b6113df82611168565b9050602081019050919050565b82818337600083830152505050565b600061140e611409846113bb565b6113a0565b90508281526020810184848401111561142a5761142961133b565b5b6114358482856113ec565b509392505050565b600082601f83011261145257611451611336565b5b81356114628482602086016113fb565b91505092915050565b600067ffffffffffffffff82111561148657611485611340565b5b602082029050602081019050919050565b600080fd5b60006114af6114aa8461146b565b6113a0565b905080838252602082019050602084028301858111156114d2576114d1611497565b5b835b8181101561151957803567ffffffffffffffff8111156114f7576114f6611336565b5b808601611504898261143d565b855260208501945050506020810190506114d4565b5050509392505050565b600082601f83011261153857611537611336565b5b813561154884826020860161149c565b91505092915050565b600080600080600080600060e0888a0312156115705761156f6110a2565b5b600088013567ffffffffffffffff81111561158e5761158d6110a7565b5b61159a8a828b0161143d565b975050602088013567ffffffffffffffff8111156115bb576115ba6110a7565b5b6115c78a828b0161143d565b965050604088013567ffffffffffffffff8111156115e8576115e76110a7565b5b6115f48a828b0161143d565b95505060606116058a828b016110cd565b94505060806116168a828b016110cd565b93505060a06116278a828b016110cd565b92505060c088013567ffffffffffffffff811115611648576116476110a7565b5b6116548a828b01611523565b91505092959891949750929550565b6000819050919050565b600061168861168361167e8461125b565b611663565b61125b565b9050919050565b600061169a8261166d565b9050919050565b60006116ac8261168f565b9050919050565b6116bc816116a1565b82525050565b60006020820190506116d760008301846116b3565b92915050565b60006101008201905081810360008301526116f8818b611179565b9050818103602083015261170c818a611179565b905081810360408301526117208189611179565b905061172f60608301886111b2565b61173c60808301876111b2565b61174960a08301866111b2565b61175660c08301856111b2565b61176360e08301846111b2565b9998505050505050505050565b7f4e487b7100000000000000000000000000000000000000000000000000000000600052603260045260246000fd5b7f4e487b7100000000000000000000000000000000000000000000000000000000600052602260045260246000fd5b600060028204905060018216806117e657607f821691505b6020821081036117f9576117f861179f565b5b50919050565b7f4e487b7100000000000000000000000000000000000000000000000000000000600052601160045260246000fd5b6000611839826110ac565b9150611844836110ac565b925082820390508181111561185c5761185b6117ff565b5b92915050565b600061186d826110ac565b91507fffffffffffffffffffffffffffffffffffffffffffffffffffffffffffffffff820361189f5761189e6117ff565b5b600182019050919050565b60006118b5826110ac565b91506118c0836110ac565b92508282026118ce816110ac565b915082820484148315176118e5576118e46117ff565b5b5092915050565b60006118f7826110ac565b9150611902836110ac565b925082820190508082111561191a576119196117ff565b5b92915050565b7f566f74696e672074696d65206578706972656400000000000000000000000000600082015250565b600061195660138361112d565b915061196182611920565b602082019050919050565b6000602082019050818103600083015261198581611949565b9050919050565b7f416c726561647920766f74656400000000000000000000000000000000000000600082015250565b60006119c2600d8361112d565b91506119cd8261198c565b602082019050919050565b600060208201905081810360008301526119f1816119b5565b9050919050565b600081519050611a07816110b6565b92915050565b600060208284031215611a2357611a226110a2565b5b6000611a31848285016119f8565b91505092915050565b7f4e6f204b5542495820746f6b656e730000000000000000000000000000000000600082015250565b6000611a70600f8361112d565b9150611a7b82611a3a565b602082019050919050565b60006020820190508181036000830152611a9f81611a63565b9050919050565b7f4f6e6c792044414f2063616e2063616c6c20746869732066756e6374696f6e00600082015250565b6000611adc601f8361112d565b9150611ae782611aa6565b602082019050919050565b60006020820190508181036000830152611b0b81611acf565b9050919050565b7f4d696e2062616c616e6365206d7573742062652067726561746572207468616e60008201527f2030000000000000000000000000000000000000000000000000000000000000602082015250565b6000611b6e60228361112d565b9150611b7982611b12565b604082019050919050565b60006020820190508181036000830152611b9d81611b61565b9050919050565b7f4d61782062616c616e6365206d7573742062652067726561746572207468616e60008201527f206d696e2062616c616e63650000000000000000000000000000000000000000602082015250565b6000611c00602c8361112d565b9150611c0b82611ba4565b604082019050919050565b60006020820190508181036000830152611c2f81611bf3565b9050919050565b60008190508160005260206000209050919050565b60006020601f8301049050919050565b600082821b905092915050565b600060088302611c987fffffffffffffffffffffffffffffffffffffffffffffffffffffffffffffffff82611c5b565b611ca28683611c5b565b95508019841693508086168417925050509392505050565b6000611cd5611cd0611ccb846110ac565b611663565b6110ac565b9050919050565b6000819050919050565b611cef83611cba565b611d03611cfb82611cdc565b848454611c68565b825550505050565b600090565b611d18611d0b565b611d23818484611ce6565b505050565b5b81811015611d4757611d3c600082611d10565b600181019050611d29565b5050565b601f821115611d8c57611d5d81611c36565b611d6684611c4b565b81016020851015611d75578190505b611d89611d8185611c4b565b830182611d28565b50505b505050565b600082821c905092915050565b6000611daf60001984600802611d91565b1980831691505092915050565b6000611dc88383611d9e565b9150826002028217905092915050565b611de182611122565b67ffffffffffffffff811115611dfa57611df9611340565b5b611e0482546117ce565b611e0f828285611d4b565b600060209050601f831160018114611e425760008415611e30578287015190505b611e3a8582611dbc565b865550611ea2565b601f198416611e5086611c36565b60005b82811015611e7857848901518255600182019150602085019450602081019050611e53565b86831015611e955784890151611e91601f891682611d9e565b8355505b6001600288020188555050505b505050505050565b7f4e487b7100000000000000000000000000000000000000000000000000000000600052603160045260246000fd5b7f4e487b7100000000000000000000000000000000000000000000000000000000600052601260045260246000fd5b6000611f13826110ac565b9150611f1e836110ac565b925082611f2e57611f2d611ed9565b5b82820490509291505056fea2646970667358221220fe208de38748701ff72d983d717186d63cef34c891d9d0af447bc5b792b80ac964736f6c63430008120033",
  "linkReferences": {},
  "deployedLinkReferences": {}
}