{
  "_format": "hh-sol-artifact-1",
  "contractName": "KubixVoting",
  "sourceName": "contracts/KUBIXvoting.sol",
  "abi": [
    {
      "inputs": [
        {
          "internalType": "address",
          "name": "_kubixToken",
          "type": "address"
        },
        {
          "internalType": "address",
          "name": "_dao",
          "type": "address"
        }
      ],
      "stateMutability": "nonpayable",
      "type": "constructor"
    },
    {
      "anonymous": false,
      "inputs": [
        {
          "indexed": true,
          "internalType": "uint256",
          "name": "proposalId",
          "type": "uint256"
        },
        {
          "indexed": false,
          "internalType": "string",
          "name": "name",
          "type": "string"
        }
      ],
      "name": "NewProposal",
      "type": "event"
    },
    {
      "inputs": [
        {
          "internalType": "uint256",
          "name": "",
          "type": "uint256"
        }
      ],
      "name": "activeProposalIndices",
      "outputs": [
        {
          "internalType": "uint256",
          "name": "",
          "type": "uint256"
        }
      ],
      "stateMutability": "view",
      "type": "function"
    },
    {
      "inputs": [
        {
          "internalType": "uint256",
          "name": "",
          "type": "uint256"
        }
      ],
      "name": "activeProposals",
      "outputs": [
        {
          "internalType": "string",
          "name": "name",
          "type": "string"
        },
        {
          "internalType": "string",
          "name": "description",
          "type": "string"
        },
        {
          "internalType": "string",
          "name": "execution",
          "type": "string"
        },
        {
          "internalType": "uint256",
          "name": "totalVotes",
          "type": "uint256"
        },
        {
          "internalType": "uint256",
          "name": "maxBalance",
          "type": "uint256"
        },
        {
          "internalType": "uint256",
          "name": "minBalance",
          "type": "uint256"
        },
        {
          "internalType": "uint256",
          "name": "timeInMinutes",
          "type": "uint256"
        },
        {
          "internalType": "uint256",
          "name": "creationTimestamp",
          "type": "uint256"
        }
      ],
      "stateMutability": "view",
      "type": "function"
    },
    {
      "inputs": [],
      "name": "activeProposalsCount",
      "outputs": [
        {
          "internalType": "uint256",
          "name": "",
          "type": "uint256"
        }
      ],
      "stateMutability": "view",
      "type": "function"
    },
    {
      "inputs": [
        {
          "internalType": "uint256",
          "name": "_proposalId",
          "type": "uint256"
        },
        {
          "internalType": "uint256",
          "name": "_balance",
          "type": "uint256"
        }
      ],
      "name": "calculateVoteWeight",
      "outputs": [
        {
          "internalType": "uint256",
          "name": "",
          "type": "uint256"
        }
      ],
      "stateMutability": "view",
      "type": "function"
    },
    {
      "inputs": [
        {
          "internalType": "uint256",
          "name": "",
          "type": "uint256"
        }
      ],
      "name": "completedProposalIndices",
      "outputs": [
        {
          "internalType": "uint256",
          "name": "",
          "type": "uint256"
        }
      ],
      "stateMutability": "view",
      "type": "function"
    },
    {
      "inputs": [],
      "name": "completedProposalsCount",
      "outputs": [
        {
          "internalType": "uint256",
          "name": "",
          "type": "uint256"
        }
      ],
      "stateMutability": "view",
      "type": "function"
    },
    {
      "inputs": [
        {
          "internalType": "string",
          "name": "_name",
          "type": "string"
        },
        {
          "internalType": "string",
          "name": "_description",
          "type": "string"
        },
        {
          "internalType": "string",
          "name": "_execution",
          "type": "string"
        },
        {
          "internalType": "uint256",
          "name": "_maxBalance",
          "type": "uint256"
        },
        {
          "internalType": "uint256",
          "name": "_minBalance",
          "type": "uint256"
        },
        {
          "internalType": "uint256",
          "name": "_timeInMinutes",
          "type": "uint256"
        },
        {
          "internalType": "string[]",
          "name": "_options",
          "type": "string[]"
        }
      ],
      "name": "createProposal",
      "outputs": [],
      "stateMutability": "nonpayable",
      "type": "function"
    },
    {
      "inputs": [],
      "name": "dao",
      "outputs": [
        {
          "internalType": "address",
          "name": "",
          "type": "address"
        }
      ],
      "stateMutability": "view",
      "type": "function"
    },
    {
      "inputs": [
        {
          "internalType": "uint256",
          "name": "_completedProposalIndex",
          "type": "uint256"
        }
      ],
      "name": "getWinner",
      "outputs": [
        {
          "internalType": "string",
          "name": "",
          "type": "string"
        }
      ],
      "stateMutability": "view",
      "type": "function"
    },
    {
      "inputs": [],
      "name": "kubixToken",
      "outputs": [
        {
          "internalType": "contract IERC20",
          "name": "",
          "type": "address"
        }
      ],
      "stateMutability": "view",
      "type": "function"
    },
    {
      "inputs": [],
      "name": "moveToCompleted",
      "outputs": [],
      "stateMutability": "nonpayable",
      "type": "function"
    },
    {
      "inputs": [
        {
          "internalType": "uint256",
          "name": "_proposalId",
          "type": "uint256"
        },
        {
          "internalType": "address",
          "name": "_voter",
          "type": "address"
        },
        {
          "internalType": "uint256",
          "name": "_optionIndex",
          "type": "uint256"
        }
      ],
      "name": "vote",
      "outputs": [],
      "stateMutability": "nonpayable",
      "type": "function"
    }
  ],
  "bytecode": "0x60806040523480156200001157600080fd5b5060405162001fab38038062001fab833981810160405281019062000037919062000154565b816000806101000a81548173ffffffffffffffffffffffffffffffffffffffff021916908373ffffffffffffffffffffffffffffffffffffffff16021790555080600160006101000a81548173ffffffffffffffffffffffffffffffffffffffff021916908373ffffffffffffffffffffffffffffffffffffffff16021790555060036000908060018154018082558091505060019003906000526020600020016000909190919091505550506200019b565b600080fd5b600073ffffffffffffffffffffffffffffffffffffffff82169050919050565b60006200011c82620000ef565b9050919050565b6200012e816200010f565b81146200013a57600080fd5b50565b6000815190506200014e8162000123565b92915050565b600080604083850312156200016e576200016d620000ea565b5b60006200017e858286016200013d565b925050602062000191858286016200013d565b9150509250929050565b611e0080620001ab6000396000f3fe608060405234801561001057600080fd5b50600436106100b45760003560e01c80637f30b7c0116100715780637f30b7c01461018d578063a52bc6e2146101ab578063e0fdcc42146101c9578063e40824f8146101f9578063f9232e1d14610230578063fb0cb3ca1461023a576100b4565b80632116c347146100b95780634129b2c9146100d75780634162169f1461010757806342501dae146101255780634de8737c146101555780637775f7da14610171575b600080fd5b6100c161026a565b6040516100ce9190610f72565b60405180910390f35b6100f160048036038101906100ec9190610fcd565b610283565b6040516100fe919061108a565b60405180910390f35b61010f610412565b60405161011c91906110ed565b60405180910390f35b61013f600480360381019061013a9190610fcd565b610438565b60405161014c9190610f72565b60405180910390f35b61016f600480360381019061016a9190611134565b61045c565b005b61018b600480360381019061018691906113a2565b61073c565b005b610195610a0e565b6040516101a29190610f72565b60405180910390f35b6101b3610a1b565b6040516101c09190611513565b60405180910390f35b6101e360048036038101906101de919061152e565b610a3f565b6040516101f09190610f72565b60405180910390f35b610213600480360381019061020e9190610fcd565b610aea565b60405161022798979695949392919061156e565b60405180910390f35b610238610cda565b005b610254600480360381019061024f9190610fcd565b610edd565b6040516102619190610f72565b60405180910390f35b6000600160038054905061027e9190611630565b905090565b606060006004838154811061029b5761029a611664565b5b906000526020600020015490506000600282815481106102be576102bd611664565b5b90600052602060002090600a0201905060008080600090505b836009018054905081101561035657828460090182815481106102fd576102fc611664565b5b90600052602060002090600202016001015411156103435783600901818154811061032b5761032a611664565b5b90600052602060002090600202016001015492508091505b808061034e90611693565b9150506102d7565b5082600901818154811061036d5761036c611664565b5b906000526020600020906002020160000180546103899061170a565b80601f01602080910402602001604051908101604052809291908181526020018280546103b59061170a565b80156104025780601f106103d757610100808354040283529160200191610402565b820191906000526020600020905b8154815290600101906020018083116103e557829003601f168201915b5050505050945050505050919050565b600160009054906101000a900473ffffffffffffffffffffffffffffffffffffffff1681565b6003818154811061044857600080fd5b906000526020600020016000915090505481565b8260006002828154811061047357610472611664565b5b90600052602060002090600a02019050603c8160070154610494919061173b565b81600801546104a3919061177d565b4211156104e5576040517f08c379a00000000000000000000000000000000000000000000000000000000081526004016104dc906117fd565b60405180910390fd5b6000600286815481106104fb576104fa611664565b5b90600052602060002090600a0201905060008160040160008773ffffffffffffffffffffffffffffffffffffffff1673ffffffffffffffffffffffffffffffffffffffff168152602001908152602001600020541461058f576040517f08c379a000000000000000000000000000000000000000000000000000000000815260040161058690611869565b60405180910390fd5b60008060009054906101000a900473ffffffffffffffffffffffffffffffffffffffff1673ffffffffffffffffffffffffffffffffffffffff166370a08231876040518263ffffffff1660e01b81526004016105eb91906110ed565b602060405180830381865afa158015610608573d6000803e3d6000fd5b505050506040513d601f19601f8201168201806040525081019061062c919061189e565b905060008111610671576040517f08c379a000000000000000000000000000000000000000000000000000000000815260040161066890611917565b60405180910390fd5b816005015481111561068557816005015490505b60006106918883610a3f565b9050808360030160008282546106a7919061177d565b92505081905550808360040160008973ffffffffffffffffffffffffffffffffffffffff1673ffffffffffffffffffffffffffffffffffffffff168152602001908152602001600020819055508083600901878154811061070b5761070a611664565b5b9060005260206000209060020201600101600082825461072b919061177d565b925050819055505050505050505050565b600160009054906101000a900473ffffffffffffffffffffffffffffffffffffffff1673ffffffffffffffffffffffffffffffffffffffff163373ffffffffffffffffffffffffffffffffffffffff16146107cc576040517f08c379a00000000000000000000000000000000000000000000000000000000081526004016107c390611983565b60405180910390fd5b6000831161080f576040517f08c379a000000000000000000000000000000000000000000000000000000000815260040161080690611a15565b60405180910390fd5b828411610851576040517f08c379a000000000000000000000000000000000000000000000000000000000815260040161084890611aa7565b60405180910390fd5b6000600280549050905060038190806001815401808255809150506001900390600052602060002001600090919091909150556002600181600181540180825580915050039060005260206000209050506000600282815481106108b8576108b7611664565b5b90600052602060002090600a02019050888160000190816108d99190611c69565b50878160010190816108eb9190611c69565b50868160020190816108fd9190611c69565b506000816003018190555085816005018190555084816006018190555083816007018190555042816008018190555060005b83518110156109ca5781600901604051806040016040528086848151811061095a57610959611664565b5b602002602001015181526020016000815250908060018154018082558091505060019003906000526020600020906002020160009091909190915060008201518160000190816109aa9190611c69565b5060208201518160010155505080806109c290611693565b91505061092f565b50817fa9ef596c73fbcfb4a78bc139b1a19c35247c1f37d2489c0513ad2dd3eb7d8c6b8a6040516109fb919061108a565b60405180910390a2505050505050505050565b6000600480549050905090565b60008054906101000a900473ffffffffffffffffffffffffffffffffffffffff1681565b60008060028481548110610a5657610a55611664565b5b90600052602060002090600a020190506000610a8382600601548360050154610f0190919063ffffffff16565b90506000610a9e836006015486610f0190919063ffffffff16565b90506000610adb6001610acd85610abf600387610f1790919063ffffffff16565b610f2d90919063ffffffff16565b610f4390919063ffffffff16565b90508094505050505092915050565b60028181548110610afa57600080fd5b90600052602060002090600a0201600091509050806000018054610b1d9061170a565b80601f0160208091040260200160405190810160405280929190818152602001828054610b499061170a565b8015610b965780601f10610b6b57610100808354040283529160200191610b96565b820191906000526020600020905b815481529060010190602001808311610b7957829003601f168201915b505050505090806001018054610bab9061170a565b80601f0160208091040260200160405190810160405280929190818152602001828054610bd79061170a565b8015610c245780601f10610bf957610100808354040283529160200191610c24565b820191906000526020600020905b815481529060010190602001808311610c0757829003601f168201915b505050505090806002018054610c399061170a565b80601f0160208091040260200160405190810160405280929190818152602001828054610c659061170a565b8015610cb25780601f10610c8757610100808354040283529160200191610cb2565b820191906000526020600020905b815481529060010190602001808311610c9557829003601f168201915b5050505050908060030154908060050154908060060154908060070154908060080154905088565b600160009054906101000a900473ffffffffffffffffffffffffffffffffffffffff1673ffffffffffffffffffffffffffffffffffffffff163373ffffffffffffffffffffffffffffffffffffffff1614610d6a576040517f08c379a0000000000000000000000000000000000000000000000000000000008152600401610d6190611983565b60405180910390fd5b6000600190505b600380549050811015610eda57600060038281548110610d9457610d93611664565b5b90600052602060002001549050600060028281548110610db757610db6611664565b5b90600052602060002090600a02019050603c8160070154610dd8919061173b565b8160080154610de7919061177d565b421115610ec457600482908060018154018082558091505060019003906000526020600020016000909190919091505560008390505b6001600380549050610e2f9190611630565b811015610e96576003600182610e45919061177d565b81548110610e5657610e55611664565b5b906000526020600020015460038281548110610e7557610e74611664565b5b90600052602060002001819055508080610e8e90611693565b915050610e1d565b506003805480610ea957610ea8611d3b565b5b60019003818190600052602060002001600090559055610ed3565b8280610ecf90611693565b9350505b5050610d71565b50565b60048181548110610eed57600080fd5b906000526020600020016000915090505481565b60008183610f0f9190611630565b905092915050565b60008183610f25919061173b565b905092915050565b60008183610f3b9190611d99565b905092915050565b60008183610f51919061177d565b905092915050565b6000819050919050565b610f6c81610f59565b82525050565b6000602082019050610f876000830184610f63565b92915050565b6000604051905090565b600080fd5b600080fd5b610faa81610f59565b8114610fb557600080fd5b50565b600081359050610fc781610fa1565b92915050565b600060208284031215610fe357610fe2610f97565b5b6000610ff184828501610fb8565b91505092915050565b600081519050919050565b600082825260208201905092915050565b60005b83811015611034578082015181840152602081019050611019565b60008484015250505050565b6000601f19601f8301169050919050565b600061105c82610ffa565b6110668185611005565b9350611076818560208601611016565b61107f81611040565b840191505092915050565b600060208201905081810360008301526110a48184611051565b905092915050565b600073ffffffffffffffffffffffffffffffffffffffff82169050919050565b60006110d7826110ac565b9050919050565b6110e7816110cc565b82525050565b600060208201905061110260008301846110de565b92915050565b611111816110cc565b811461111c57600080fd5b50565b60008135905061112e81611108565b92915050565b60008060006060848603121561114d5761114c610f97565b5b600061115b86828701610fb8565b935050602061116c8682870161111f565b925050604061117d86828701610fb8565b9150509250925092565b600080fd5b600080fd5b7f4e487b7100000000000000000000000000000000000000000000000000000000600052604160045260246000fd5b6111c982611040565b810181811067ffffffffffffffff821117156111e8576111e7611191565b5b80604052505050565b60006111fb610f8d565b905061120782826111c0565b919050565b600067ffffffffffffffff82111561122757611226611191565b5b61123082611040565b9050602081019050919050565b82818337600083830152505050565b600061125f61125a8461120c565b6111f1565b90508281526020810184848401111561127b5761127a61118c565b5b61128684828561123d565b509392505050565b600082601f8301126112a3576112a2611187565b5b81356112b384826020860161124c565b91505092915050565b600067ffffffffffffffff8211156112d7576112d6611191565b5b602082029050602081019050919050565b600080fd5b60006113006112fb846112bc565b6111f1565b90508083825260208201905060208402830185811115611323576113226112e8565b5b835b8181101561136a57803567ffffffffffffffff81111561134857611347611187565b5b808601611355898261128e565b85526020850194505050602081019050611325565b5050509392505050565b600082601f83011261138957611388611187565b5b81356113998482602086016112ed565b91505092915050565b600080600080600080600060e0888a0312156113c1576113c0610f97565b5b600088013567ffffffffffffffff8111156113df576113de610f9c565b5b6113eb8a828b0161128e565b975050602088013567ffffffffffffffff81111561140c5761140b610f9c565b5b6114188a828b0161128e565b965050604088013567ffffffffffffffff81111561143957611438610f9c565b5b6114458a828b0161128e565b95505060606114568a828b01610fb8565b94505060806114678a828b01610fb8565b93505060a06114788a828b01610fb8565b92505060c088013567ffffffffffffffff81111561149957611498610f9c565b5b6114a58a828b01611374565b91505092959891949750929550565b6000819050919050565b60006114d96114d46114cf846110ac565b6114b4565b6110ac565b9050919050565b60006114eb826114be565b9050919050565b60006114fd826114e0565b9050919050565b61150d816114f2565b82525050565b60006020820190506115286000830184611504565b92915050565b6000806040838503121561154557611544610f97565b5b600061155385828601610fb8565b925050602061156485828601610fb8565b9150509250929050565b6000610100820190508181036000830152611589818b611051565b9050818103602083015261159d818a611051565b905081810360408301526115b18189611051565b90506115c06060830188610f63565b6115cd6080830187610f63565b6115da60a0830186610f63565b6115e760c0830185610f63565b6115f460e0830184610f63565b9998505050505050505050565b7f4e487b7100000000000000000000000000000000000000000000000000000000600052601160045260246000fd5b600061163b82610f59565b915061164683610f59565b925082820390508181111561165e5761165d611601565b5b92915050565b7f4e487b7100000000000000000000000000000000000000000000000000000000600052603260045260246000fd5b600061169e82610f59565b91507fffffffffffffffffffffffffffffffffffffffffffffffffffffffffffffffff82036116d0576116cf611601565b5b600182019050919050565b7f4e487b7100000000000000000000000000000000000000000000000000000000600052602260045260246000fd5b6000600282049050600182168061172257607f821691505b602082108103611735576117346116db565b5b50919050565b600061174682610f59565b915061175183610f59565b925082820261175f81610f59565b9150828204841483151761177657611775611601565b5b5092915050565b600061178882610f59565b915061179383610f59565b92508282019050808211156117ab576117aa611601565b5b92915050565b7f566f74696e672074696d65206578706972656400000000000000000000000000600082015250565b60006117e7601383611005565b91506117f2826117b1565b602082019050919050565b60006020820190508181036000830152611816816117da565b9050919050565b7f416c726561647920766f74656400000000000000000000000000000000000000600082015250565b6000611853600d83611005565b915061185e8261181d565b602082019050919050565b6000602082019050818103600083015261188281611846565b9050919050565b60008151905061189881610fa1565b92915050565b6000602082840312156118b4576118b3610f97565b5b60006118c284828501611889565b91505092915050565b7f4e6f204b5542495820746f6b656e730000000000000000000000000000000000600082015250565b6000611901600f83611005565b915061190c826118cb565b602082019050919050565b60006020820190508181036000830152611930816118f4565b9050919050565b7f4f6e6c792044414f2063616e2063616c6c20746869732066756e6374696f6e00600082015250565b600061196d601f83611005565b915061197882611937565b602082019050919050565b6000602082019050818103600083015261199c81611960565b9050919050565b7f4d696e2062616c616e6365206d7573742062652067726561746572207468616e60008201527f2030000000000000000000000000000000000000000000000000000000000000602082015250565b60006119ff602283611005565b9150611a0a826119a3565b604082019050919050565b60006020820190508181036000830152611a2e816119f2565b9050919050565b7f4d61782062616c616e6365206d7573742062652067726561746572207468616e60008201527f206d696e2062616c616e63650000000000000000000000000000000000000000602082015250565b6000611a91602c83611005565b9150611a9c82611a35565b604082019050919050565b60006020820190508181036000830152611ac081611a84565b9050919050565b60008190508160005260206000209050919050565b60006020601f8301049050919050565b600082821b905092915050565b600060088302611b297fffffffffffffffffffffffffffffffffffffffffffffffffffffffffffffffff82611aec565b611b338683611aec565b95508019841693508086168417925050509392505050565b6000611b66611b61611b5c84610f59565b6114b4565b610f59565b9050919050565b6000819050919050565b611b8083611b4b565b611b94611b8c82611b6d565b848454611af9565b825550505050565b600090565b611ba9611b9c565b611bb4818484611b77565b505050565b5b81811015611bd857611bcd600082611ba1565b600181019050611bba565b5050565b601f821115611c1d57611bee81611ac7565b611bf784611adc565b81016020851015611c06578190505b611c1a611c1285611adc565b830182611bb9565b50505b505050565b600082821c905092915050565b6000611c4060001984600802611c22565b1980831691505092915050565b6000611c598383611c2f565b9150826002028217905092915050565b611c7282610ffa565b67ffffffffffffffff811115611c8b57611c8a611191565b5b611c95825461170a565b611ca0828285611bdc565b600060209050601f831160018114611cd35760008415611cc1578287015190505b611ccb8582611c4d565b865550611d33565b601f198416611ce186611ac7565b60005b82811015611d0957848901518255600182019150602085019450602081019050611ce4565b86831015611d265784890151611d22601f891682611c2f565b8355505b6001600288020188555050505b505050505050565b7f4e487b7100000000000000000000000000000000000000000000000000000000600052603160045260246000fd5b7f4e487b7100000000000000000000000000000000000000000000000000000000600052601260045260246000fd5b6000611da482610f59565b9150611daf83610f59565b925082611dbf57611dbe611d6a565b5b82820490509291505056fea2646970667358221220b1a686a49f46ebefb184abc199c8dc3ef46abd2ab1125eeb9be269d4bec923b464736f6c63430008120033",
  "linkReferences": {},
  "deployedLinkReferences": {}
}