{
  "_format": "hh-sol-artifact-1",
  "contractName": "KubixVoting",
  "sourceName": "contracts/KUBIXvoting.sol",
  "abi": [
    {
      "inputs": [
        {
          "internalType": "address",
          "name": "_kubixToken",
          "type": "address"
        },
        {
          "internalType": "address",
          "name": "_dao",
          "type": "address"
        }
      ],
      "stateMutability": "nonpayable",
      "type": "constructor"
    },
    {
      "anonymous": false,
      "inputs": [
        {
          "indexed": true,
          "internalType": "uint256",
          "name": "proposalId",
          "type": "uint256"
        },
        {
          "indexed": false,
          "internalType": "string",
          "name": "name",
          "type": "string"
        }
      ],
      "name": "NewProposal",
      "type": "event"
    },
    {
      "inputs": [
        {
          "internalType": "uint256",
          "name": "",
          "type": "uint256"
        }
      ],
      "name": "activeProposalIndices",
      "outputs": [
        {
          "internalType": "uint256",
          "name": "",
          "type": "uint256"
        }
      ],
      "stateMutability": "view",
      "type": "function"
    },
    {
      "inputs": [
        {
          "internalType": "uint256",
          "name": "",
          "type": "uint256"
        }
      ],
      "name": "activeProposals",
      "outputs": [
        {
          "internalType": "string",
          "name": "name",
          "type": "string"
        },
        {
          "internalType": "string",
          "name": "description",
          "type": "string"
        },
        {
          "internalType": "string",
          "name": "execution",
          "type": "string"
        },
        {
          "internalType": "uint256",
          "name": "totalVotes",
          "type": "uint256"
        },
        {
          "internalType": "uint256",
          "name": "maxBalance",
          "type": "uint256"
        },
        {
          "internalType": "uint256",
          "name": "minBalance",
          "type": "uint256"
        },
        {
          "internalType": "uint256",
          "name": "timeInMinutes",
          "type": "uint256"
        },
        {
          "internalType": "uint256",
          "name": "creationTimestamp",
          "type": "uint256"
        }
      ],
      "stateMutability": "view",
      "type": "function"
    },
    {
      "inputs": [],
      "name": "activeProposalsCount",
      "outputs": [
        {
          "internalType": "uint256",
          "name": "",
          "type": "uint256"
        }
      ],
      "stateMutability": "view",
      "type": "function"
    },
    {
      "inputs": [
        {
          "internalType": "uint256",
          "name": "_proposalId",
          "type": "uint256"
        },
        {
          "internalType": "uint256",
          "name": "_balance",
          "type": "uint256"
        }
      ],
      "name": "calculateVoteWeight",
      "outputs": [
        {
          "internalType": "uint256",
          "name": "",
          "type": "uint256"
        }
      ],
      "stateMutability": "view",
      "type": "function"
    },
    {
      "inputs": [
        {
          "internalType": "uint256",
          "name": "",
          "type": "uint256"
        }
      ],
      "name": "completedProposalIndices",
      "outputs": [
        {
          "internalType": "uint256",
          "name": "",
          "type": "uint256"
        }
      ],
      "stateMutability": "view",
      "type": "function"
    },
    {
      "inputs": [],
      "name": "completedProposalsCount",
      "outputs": [
        {
          "internalType": "uint256",
          "name": "",
          "type": "uint256"
        }
      ],
      "stateMutability": "view",
      "type": "function"
    },
    {
      "inputs": [
        {
          "internalType": "string",
          "name": "_name",
          "type": "string"
        },
        {
          "internalType": "string",
          "name": "_description",
          "type": "string"
        },
        {
          "internalType": "string",
          "name": "_execution",
          "type": "string"
        },
        {
          "internalType": "uint256",
          "name": "_maxBalance",
          "type": "uint256"
        },
        {
          "internalType": "uint256",
          "name": "_minBalance",
          "type": "uint256"
        },
        {
          "internalType": "uint256",
          "name": "_timeInMinutes",
          "type": "uint256"
        },
        {
          "internalType": "string[]",
          "name": "_options",
          "type": "string[]"
        }
      ],
      "name": "createProposal",
      "outputs": [],
      "stateMutability": "nonpayable",
      "type": "function"
    },
    {
      "inputs": [],
      "name": "dao",
      "outputs": [
        {
          "internalType": "address",
          "name": "",
          "type": "address"
        }
      ],
      "stateMutability": "view",
      "type": "function"
    },
    {
      "inputs": [
        {
          "internalType": "uint256",
          "name": "_proposalId",
          "type": "uint256"
        },
        {
          "internalType": "uint256",
          "name": "_optionIndex",
          "type": "uint256"
        }
      ],
      "name": "getOption",
      "outputs": [
        {
          "internalType": "string",
          "name": "optionName",
          "type": "string"
        },
        {
          "internalType": "uint256",
          "name": "votes",
          "type": "uint256"
        }
      ],
      "stateMutability": "view",
      "type": "function"
    },
    {
      "inputs": [
        {
          "internalType": "uint256",
          "name": "_proposalId",
          "type": "uint256"
        }
      ],
      "name": "getOptionsCount",
      "outputs": [
        {
          "internalType": "uint256",
          "name": "",
          "type": "uint256"
        }
      ],
      "stateMutability": "view",
      "type": "function"
    },
    {
      "inputs": [
        {
          "internalType": "uint256",
          "name": "_completedProposalIndex",
          "type": "uint256"
        }
      ],
      "name": "getWinner",
      "outputs": [
        {
          "internalType": "string",
          "name": "",
          "type": "string"
        }
      ],
      "stateMutability": "view",
      "type": "function"
    },
    {
      "inputs": [],
      "name": "kubixToken",
      "outputs": [
        {
          "internalType": "contract IERC20",
          "name": "",
          "type": "address"
        }
      ],
      "stateMutability": "view",
      "type": "function"
    },
    {
      "inputs": [],
      "name": "moveToCompleted",
      "outputs": [],
      "stateMutability": "nonpayable",
      "type": "function"
    },
    {
      "inputs": [
        {
          "internalType": "uint256",
          "name": "_proposalId",
          "type": "uint256"
        },
        {
          "internalType": "address",
          "name": "_voter",
          "type": "address"
        },
        {
          "internalType": "uint256",
          "name": "_optionIndex",
          "type": "uint256"
        }
      ],
      "name": "vote",
      "outputs": [],
      "stateMutability": "nonpayable",
      "type": "function"
    }
  ],
  "bytecode": "0x60806040523480156200001157600080fd5b506040516200255d3803806200255d833981810160405281019062000037919062000154565b816000806101000a81548173ffffffffffffffffffffffffffffffffffffffff021916908373ffffffffffffffffffffffffffffffffffffffff16021790555080600160006101000a81548173ffffffffffffffffffffffffffffffffffffffff021916908373ffffffffffffffffffffffffffffffffffffffff16021790555060036000908060018154018082558091505060019003906000526020600020016000909190919091505550506200019b565b600080fd5b600073ffffffffffffffffffffffffffffffffffffffff82169050919050565b60006200011c82620000ef565b9050919050565b6200012e816200010f565b81146200013a57600080fd5b50565b6000815190506200014e8162000123565b92915050565b600080604083850312156200016e576200016d620000ea565b5b60006200017e858286016200013d565b925050602062000191858286016200013d565b9150509250929050565b6123b280620001ab6000396000f3fe608060405234801561001057600080fd5b50600436106100ea5760003560e01c80637775f7da1161008c578063e0fdcc4211610066578063e0fdcc4214610260578063e40824f814610290578063f9232e1d146102c7578063fb0cb3ca146102d1576100ea565b80637775f7da146102085780637f30b7c014610224578063a52bc6e214610242576100ea565b80634162169f116100c85780634162169f1461016e57806342501dae1461018c5780634de8737c146101bc578063517a6257146101d8576100ea565b80631ce30927146100ef5780632116c347146101205780634129b2c91461013e575b600080fd5b61010960048036038101906101049190611525565b610301565b604051610117929190611604565b60405180910390f35b6101286103f4565b6040516101359190611634565b60405180910390f35b6101586004803603810190610153919061164f565b61040d565b604051610165919061167c565b60405180910390f35b61017661059c565b60405161018391906116df565b60405180910390f35b6101a660048036038101906101a1919061164f565b6105c2565b6040516101b39190611634565b60405180910390f35b6101d660048036038101906101d19190611726565b6105e6565b005b6101f260048036038101906101ed919061164f565b6108df565b6040516101ff9190611634565b60405180910390f35b610222600480360381019061021d9190611994565b610916565b005b61022c610be8565b6040516102399190611634565b60405180910390f35b61024a610bf5565b6040516102579190611b05565b60405180910390f35b61027a60048036038101906102759190611525565b610c19565b6040516102879190611634565b60405180910390f35b6102aa60048036038101906102a5919061164f565b610d1c565b6040516102be989796959493929190611b20565b60405180910390f35b6102cf610f0c565b005b6102eb60048036038101906102e6919061164f565b61110f565b6040516102f89190611634565b60405180910390f35b60606000806002858154811061031a57610319611bb3565b5b90600052602060002090600a02019050600081600901858154811061034257610341611bb3565b5b9060005260206000209060020201905080600001816001015481805461036790611c11565b80601f016020809104026020016040519081016040528092919081815260200182805461039390611c11565b80156103e05780601f106103b5576101008083540402835291602001916103e0565b820191906000526020600020905b8154815290600101906020018083116103c357829003601f168201915b505050505091509350935050509250929050565b600060016003805490506104089190611c71565b905090565b606060006004838154811061042557610424611bb3565b5b9060005260206000200154905060006002828154811061044857610447611bb3565b5b90600052602060002090600a0201905060008080600090505b83600901805490508110156104e0578284600901828154811061048757610486611bb3565b5b90600052602060002090600202016001015411156104cd578360090181815481106104b5576104b4611bb3565b5b90600052602060002090600202016001015492508091505b80806104d890611ca5565b915050610461565b508260090181815481106104f7576104f6611bb3565b5b9060005260206000209060020201600001805461051390611c11565b80601f016020809104026020016040519081016040528092919081815260200182805461053f90611c11565b801561058c5780601f106105615761010080835404028352916020019161058c565b820191906000526020600020905b81548152906001019060200180831161056f57829003601f168201915b5050505050945050505050919050565b600160009054906101000a900473ffffffffffffffffffffffffffffffffffffffff1681565b600381815481106105d257600080fd5b906000526020600020016000915090505481565b826000600282815481106105fd576105fc611bb3565b5b90600052602060002090600a02019050603c816007015461061e9190611ced565b816008015461062d9190611d2f565b42111561066f576040517f08c379a000000000000000000000000000000000000000000000000000000000815260040161066690611daf565b60405180910390fd5b60006002868154811061068557610684611bb3565b5b90600052602060002090600a0201905060008160040160008773ffffffffffffffffffffffffffffffffffffffff1673ffffffffffffffffffffffffffffffffffffffff1681526020019081526020016000205414610719576040517f08c379a000000000000000000000000000000000000000000000000000000000815260040161071090611e1b565b60405180910390fd5b60008060009054906101000a900473ffffffffffffffffffffffffffffffffffffffff1673ffffffffffffffffffffffffffffffffffffffff166370a08231876040518263ffffffff1660e01b815260040161077591906116df565b602060405180830381865afa158015610792573d6000803e3d6000fd5b505050506040513d601f19601f820116820180604052508101906107b69190611e50565b9050600081116107fb576040517f08c379a00000000000000000000000000000000000000000000000000000000081526004016107f290611ec9565b60405180910390fd5b6000670de0b6b3a7640000826108119190611f18565b9050826005015481111561082757826005015490505b60006108338983610c19565b9050808460030160008282546108499190611d2f565b92505081905550808460040160008a73ffffffffffffffffffffffffffffffffffffffff1673ffffffffffffffffffffffffffffffffffffffff16815260200190815260200160002081905550808460090188815481106108ad576108ac611bb3565b5b906000526020600020906002020160010160008282546108cd9190611d2f565b92505081905550505050505050505050565b600080600283815481106108f6576108f5611bb3565b5b90600052602060002090600a020190508060090180549050915050919050565b600160009054906101000a900473ffffffffffffffffffffffffffffffffffffffff1673ffffffffffffffffffffffffffffffffffffffff163373ffffffffffffffffffffffffffffffffffffffff16146109a6576040517f08c379a000000000000000000000000000000000000000000000000000000000815260040161099d90611f95565b60405180910390fd5b600083116109e9576040517f08c379a00000000000000000000000000000000000000000000000000000000081526004016109e090612027565b60405180910390fd5b828411610a2b576040517f08c379a0000000000000000000000000000000000000000000000000000000008152600401610a22906120b9565b60405180910390fd5b600060028054905090506003819080600181540180825580915050600190039060005260206000200160009091909190915055600260018160018154018082558091505003906000526020600020905050600060028281548110610a9257610a91611bb3565b5b90600052602060002090600a0201905088816000019081610ab3919061227b565b5087816001019081610ac5919061227b565b5086816002019081610ad7919061227b565b506000816003018190555085816005018190555084816006018190555083816007018190555042816008018190555060005b8351811015610ba457816009016040518060400160405280868481518110610b3457610b33611bb3565b5b60200260200101518152602001600081525090806001815401808255809150506001900390600052602060002090600202016000909190919091506000820151816000019081610b84919061227b565b506020820151816001015550508080610b9c90611ca5565b915050610b09565b50817fa9ef596c73fbcfb4a78bc139b1a19c35247c1f37d2489c0513ad2dd3eb7d8c6b8a604051610bd5919061167c565b60405180910390a2505050505050505050565b6000600480549050905090565b60008054906101000a900473ffffffffffffffffffffffffffffffffffffffff1681565b60008060028481548110610c3057610c2f611bb3565b5b90600052602060002090600a020190506000610c5d8260060154836005015461113390919063ffffffff16565b90506000610c8b6001610c7d85600601548861113390919063ffffffff16565b61114990919063ffffffff16565b90506000610c988361115f565b90506000610ca58361115f565b90506000610cb283611182565b90506000610cbf83611182565b90506000610cf1610ce2610cdc610cd6600961115f565b866111ab565b84611234565b610cec600161115f565b61129f565b90506000610cfe82611306565b67ffffffffffffffff16905080995050505050505050505092915050565b60028181548110610d2c57600080fd5b90600052602060002090600a0201600091509050806000018054610d4f90611c11565b80601f0160208091040260200160405190810160405280929190818152602001828054610d7b90611c11565b8015610dc85780601f10610d9d57610100808354040283529160200191610dc8565b820191906000526020600020905b815481529060010190602001808311610dab57829003601f168201915b505050505090806001018054610ddd90611c11565b80601f0160208091040260200160405190810160405280929190818152602001828054610e0990611c11565b8015610e565780601f10610e2b57610100808354040283529160200191610e56565b820191906000526020600020905b815481529060010190602001808311610e3957829003601f168201915b505050505090806002018054610e6b90611c11565b80601f0160208091040260200160405190810160405280929190818152602001828054610e9790611c11565b8015610ee45780601f10610eb957610100808354040283529160200191610ee4565b820191906000526020600020905b815481529060010190602001808311610ec757829003601f168201915b5050505050908060030154908060050154908060060154908060070154908060080154905088565b600160009054906101000a900473ffffffffffffffffffffffffffffffffffffffff1673ffffffffffffffffffffffffffffffffffffffff163373ffffffffffffffffffffffffffffffffffffffff1614610f9c576040517f08c379a0000000000000000000000000000000000000000000000000000000008152600401610f9390611f95565b60405180910390fd5b6000600190505b60038054905081101561110c57600060038281548110610fc657610fc5611bb3565b5b90600052602060002001549050600060028281548110610fe957610fe8611bb3565b5b90600052602060002090600a02019050603c816007015461100a9190611ced565b81600801546110199190611d2f565b4211156110f657600482908060018154018082558091505060019003906000526020600020016000909190919091505560008390505b60016003805490506110619190611c71565b8110156110c85760036001826110779190611d2f565b8154811061108857611087611bb3565b5b9060005260206000200154600382815481106110a7576110a6611bb3565b5b906000526020600020018190555080806110c090611ca5565b91505061104f565b5060038054806110db576110da61234d565b5b60019003818190600052602060002001600090559055611105565b828061110190611ca5565b9350505b5050610fa3565b50565b6004818154811061111f57600080fd5b906000526020600020016000915090505481565b600081836111419190611c71565b905092915050565b600081836111579190611d2f565b905092915050565b6000677fffffffffffffff82111561117657600080fd5b604082901b9050919050565b60008082600f0b121561119457600080fd5b6111a4604083600f0b901b611327565b9050919050565b60008082600f0b036111bc57600080fd5b600082600f0b604085600f0b901b816111d8576111d7611ee9565b5b0590507fffffffffffffffffffffffffffffffff80000000000000000000000000000000600f0b811215801561122157506f7fffffffffffffffffffffffffffffff600f0b8113155b61122a57600080fd5b8091505092915050565b600080604083600f0b85600f0b02901d90507fffffffffffffffffffffffffffffffff80000000000000000000000000000000600f0b811215801561128c57506f7fffffffffffffffffffffffffffffff600f0b8113155b61129557600080fd5b8091505092915050565b60008082600f0b84600f0b0190507fffffffffffffffffffffffffffffffff80000000000000000000000000000000600f0b81121580156112f357506f7fffffffffffffffffffffffffffffff600f0b8113155b6112fc57600080fd5b8091505092915050565b60008082600f0b121561131857600080fd5b604082600f0b901d9050919050565b600080820361133957600090506114d6565b6000829050600060019050700100000000000000000000000000000000821061136b57608082901c9150604081901b90505b68010000000000000000821061138a57604082901c9150602081901b90505b64010000000082106113a557602082901c9150601081901b90505b6201000082106113be57601082901c9150600881901b90505b61010082106113d657600882901c9150600481901b90505b601082106113ed57600482901c9150600281901b90505b600482106113fd57600181901b90505b600181858161140f5761140e611ee9565b5b048201901c9050600181858161142857611427611ee9565b5b048201901c9050600181858161144157611440611ee9565b5b048201901c9050600181858161145a57611459611ee9565b5b048201901c9050600181858161147357611472611ee9565b5b048201901c9050600181858161148c5761148b611ee9565b5b048201901c905060018185816114a5576114a4611ee9565b5b048201901c905060008185816114be576114bd611ee9565b5b0490508082106114ce57806114d0565b815b93505050505b919050565b6000604051905090565b600080fd5b600080fd5b6000819050919050565b611502816114ef565b811461150d57600080fd5b50565b60008135905061151f816114f9565b92915050565b6000806040838503121561153c5761153b6114e5565b5b600061154a85828601611510565b925050602061155b85828601611510565b9150509250929050565b600081519050919050565b600082825260208201905092915050565b60005b8381101561159f578082015181840152602081019050611584565b60008484015250505050565b6000601f19601f8301169050919050565b60006115c782611565565b6115d18185611570565b93506115e1818560208601611581565b6115ea816115ab565b840191505092915050565b6115fe816114ef565b82525050565b6000604082019050818103600083015261161e81856115bc565b905061162d60208301846115f5565b9392505050565b600060208201905061164960008301846115f5565b92915050565b600060208284031215611665576116646114e5565b5b600061167384828501611510565b91505092915050565b6000602082019050818103600083015261169681846115bc565b905092915050565b600073ffffffffffffffffffffffffffffffffffffffff82169050919050565b60006116c98261169e565b9050919050565b6116d9816116be565b82525050565b60006020820190506116f460008301846116d0565b92915050565b611703816116be565b811461170e57600080fd5b50565b600081359050611720816116fa565b92915050565b60008060006060848603121561173f5761173e6114e5565b5b600061174d86828701611510565b935050602061175e86828701611711565b925050604061176f86828701611510565b9150509250925092565b600080fd5b600080fd5b7f4e487b7100000000000000000000000000000000000000000000000000000000600052604160045260246000fd5b6117bb826115ab565b810181811067ffffffffffffffff821117156117da576117d9611783565b5b80604052505050565b60006117ed6114db565b90506117f982826117b2565b919050565b600067ffffffffffffffff82111561181957611818611783565b5b611822826115ab565b9050602081019050919050565b82818337600083830152505050565b600061185161184c846117fe565b6117e3565b90508281526020810184848401111561186d5761186c61177e565b5b61187884828561182f565b509392505050565b600082601f83011261189557611894611779565b5b81356118a584826020860161183e565b91505092915050565b600067ffffffffffffffff8211156118c9576118c8611783565b5b602082029050602081019050919050565b600080fd5b60006118f26118ed846118ae565b6117e3565b90508083825260208201905060208402830185811115611915576119146118da565b5b835b8181101561195c57803567ffffffffffffffff81111561193a57611939611779565b5b8086016119478982611880565b85526020850194505050602081019050611917565b5050509392505050565b600082601f83011261197b5761197a611779565b5b813561198b8482602086016118df565b91505092915050565b600080600080600080600060e0888a0312156119b3576119b26114e5565b5b600088013567ffffffffffffffff8111156119d1576119d06114ea565b5b6119dd8a828b01611880565b975050602088013567ffffffffffffffff8111156119fe576119fd6114ea565b5b611a0a8a828b01611880565b965050604088013567ffffffffffffffff811115611a2b57611a2a6114ea565b5b611a378a828b01611880565b9550506060611a488a828b01611510565b9450506080611a598a828b01611510565b93505060a0611a6a8a828b01611510565b92505060c088013567ffffffffffffffff811115611a8b57611a8a6114ea565b5b611a978a828b01611966565b91505092959891949750929550565b6000819050919050565b6000611acb611ac6611ac18461169e565b611aa6565b61169e565b9050919050565b6000611add82611ab0565b9050919050565b6000611aef82611ad2565b9050919050565b611aff81611ae4565b82525050565b6000602082019050611b1a6000830184611af6565b92915050565b6000610100820190508181036000830152611b3b818b6115bc565b90508181036020830152611b4f818a6115bc565b90508181036040830152611b6381896115bc565b9050611b7260608301886115f5565b611b7f60808301876115f5565b611b8c60a08301866115f5565b611b9960c08301856115f5565b611ba660e08301846115f5565b9998505050505050505050565b7f4e487b7100000000000000000000000000000000000000000000000000000000600052603260045260246000fd5b7f4e487b7100000000000000000000000000000000000000000000000000000000600052602260045260246000fd5b60006002820490506001821680611c2957607f821691505b602082108103611c3c57611c3b611be2565b5b50919050565b7f4e487b7100000000000000000000000000000000000000000000000000000000600052601160045260246000fd5b6000611c7c826114ef565b9150611c87836114ef565b9250828203905081811115611c9f57611c9e611c42565b5b92915050565b6000611cb0826114ef565b91507fffffffffffffffffffffffffffffffffffffffffffffffffffffffffffffffff8203611ce257611ce1611c42565b5b600182019050919050565b6000611cf8826114ef565b9150611d03836114ef565b9250828202611d11816114ef565b91508282048414831517611d2857611d27611c42565b5b5092915050565b6000611d3a826114ef565b9150611d45836114ef565b9250828201905080821115611d5d57611d5c611c42565b5b92915050565b7f566f74696e672074696d65206578706972656400000000000000000000000000600082015250565b6000611d99601383611570565b9150611da482611d63565b602082019050919050565b60006020820190508181036000830152611dc881611d8c565b9050919050565b7f416c726561647920766f74656400000000000000000000000000000000000000600082015250565b6000611e05600d83611570565b9150611e1082611dcf565b602082019050919050565b60006020820190508181036000830152611e3481611df8565b9050919050565b600081519050611e4a816114f9565b92915050565b600060208284031215611e6657611e656114e5565b5b6000611e7484828501611e3b565b91505092915050565b7f4e6f204b5542495820746f6b656e730000000000000000000000000000000000600082015250565b6000611eb3600f83611570565b9150611ebe82611e7d565b602082019050919050565b60006020820190508181036000830152611ee281611ea6565b9050919050565b7f4e487b7100000000000000000000000000000000000000000000000000000000600052601260045260246000fd5b6000611f23826114ef565b9150611f2e836114ef565b925082611f3e57611f3d611ee9565b5b828204905092915050565b7f4f6e6c792044414f2063616e2063616c6c20746869732066756e6374696f6e00600082015250565b6000611f7f601f83611570565b9150611f8a82611f49565b602082019050919050565b60006020820190508181036000830152611fae81611f72565b9050919050565b7f4d696e2062616c616e6365206d7573742062652067726561746572207468616e60008201527f2030000000000000000000000000000000000000000000000000000000000000602082015250565b6000612011602283611570565b915061201c82611fb5565b604082019050919050565b6000602082019050818103600083015261204081612004565b9050919050565b7f4d61782062616c616e6365206d7573742062652067726561746572207468616e60008201527f206d696e2062616c616e63650000000000000000000000000000000000000000602082015250565b60006120a3602c83611570565b91506120ae82612047565b604082019050919050565b600060208201905081810360008301526120d281612096565b9050919050565b60008190508160005260206000209050919050565b60006020601f8301049050919050565b600082821b905092915050565b60006008830261213b7fffffffffffffffffffffffffffffffffffffffffffffffffffffffffffffffff826120fe565b61214586836120fe565b95508019841693508086168417925050509392505050565b600061217861217361216e846114ef565b611aa6565b6114ef565b9050919050565b6000819050919050565b6121928361215d565b6121a661219e8261217f565b84845461210b565b825550505050565b600090565b6121bb6121ae565b6121c6818484612189565b505050565b5b818110156121ea576121df6000826121b3565b6001810190506121cc565b5050565b601f82111561222f57612200816120d9565b612209846120ee565b81016020851015612218578190505b61222c612224856120ee565b8301826121cb565b50505b505050565b600082821c905092915050565b600061225260001984600802612234565b1980831691505092915050565b600061226b8383612241565b9150826002028217905092915050565b61228482611565565b67ffffffffffffffff81111561229d5761229c611783565b5b6122a78254611c11565b6122b28282856121ee565b600060209050601f8311600181146122e557600084156122d3578287015190505b6122dd858261225f565b865550612345565b601f1984166122f3866120d9565b60005b8281101561231b578489015182556001820191506020850194506020810190506122f6565b868310156123385784890151612334601f891682612241565b8355505b6001600288020188555050505b505050505050565b7f4e487b7100000000000000000000000000000000000000000000000000000000600052603160045260246000fdfea264697066735822122063eb7a8d6a0f8f2d2e1d9a54e4de790969e91a11fdc287e15b9c6d4ecb10d6c464736f6c63430008120033",
  "linkReferences": {},
  "deployedLinkReferences": {}
}