{
  "_format": "hh-sol-artifact-1",
  "contractName": "KubixVoting",
  "sourceName": "contracts/KUBIXvoting.sol",
  "abi": [
    {
      "inputs": [
        {
          "internalType": "address",
          "name": "_kubixToken",
          "type": "address"
        },
        {
          "internalType": "address",
          "name": "_dao",
          "type": "address"
        }
      ],
      "stateMutability": "nonpayable",
      "type": "constructor"
    },
    {
      "anonymous": false,
      "inputs": [
        {
          "indexed": true,
          "internalType": "uint256",
          "name": "proposalId",
          "type": "uint256"
        },
        {
          "indexed": false,
          "internalType": "string",
          "name": "name",
          "type": "string"
        }
      ],
      "name": "NewProposal",
      "type": "event"
    },
    {
      "inputs": [
        {
          "internalType": "uint256",
          "name": "_proposalId",
          "type": "uint256"
        },
        {
          "internalType": "uint256",
          "name": "_balance",
          "type": "uint256"
        }
      ],
      "name": "calculateVoteWeight",
      "outputs": [
        {
          "internalType": "uint256",
          "name": "",
          "type": "uint256"
        }
      ],
      "stateMutability": "view",
      "type": "function"
    },
    {
      "inputs": [
        {
          "internalType": "string",
          "name": "_name",
          "type": "string"
        },
        {
          "internalType": "string",
          "name": "_description",
          "type": "string"
        },
        {
          "internalType": "string",
          "name": "_execution",
          "type": "string"
        },
        {
          "internalType": "uint256",
          "name": "_maxBalance",
          "type": "uint256"
        },
        {
          "internalType": "uint256",
          "name": "_minBalance",
          "type": "uint256"
        },
        {
          "internalType": "uint256",
          "name": "_timeInMinutes",
          "type": "uint256"
        },
        {
          "internalType": "string[]",
          "name": "_options",
          "type": "string[]"
        }
      ],
      "name": "createProposal",
      "outputs": [],
      "stateMutability": "nonpayable",
      "type": "function"
    },
    {
      "inputs": [],
      "name": "dao",
      "outputs": [
        {
          "internalType": "address",
          "name": "",
          "type": "address"
        }
      ],
      "stateMutability": "view",
      "type": "function"
    },
    {
      "inputs": [
        {
          "internalType": "uint256",
          "name": "_proposalId",
          "type": "uint256"
        }
      ],
      "name": "getWinner",
      "outputs": [
        {
          "internalType": "string",
          "name": "",
          "type": "string"
        }
      ],
      "stateMutability": "view",
      "type": "function"
    },
    {
      "inputs": [],
      "name": "kubixToken",
      "outputs": [
        {
          "internalType": "contract IERC20",
          "name": "",
          "type": "address"
        }
      ],
      "stateMutability": "view",
      "type": "function"
    },
    {
      "inputs": [
        {
          "internalType": "uint256",
          "name": "",
          "type": "uint256"
        }
      ],
      "name": "proposals",
      "outputs": [
        {
          "internalType": "string",
          "name": "name",
          "type": "string"
        },
        {
          "internalType": "string",
          "name": "description",
          "type": "string"
        },
        {
          "internalType": "string",
          "name": "execution",
          "type": "string"
        },
        {
          "internalType": "uint256",
          "name": "totalVotes",
          "type": "uint256"
        },
        {
          "internalType": "uint256",
          "name": "maxBalance",
          "type": "uint256"
        },
        {
          "internalType": "uint256",
          "name": "minBalance",
          "type": "uint256"
        },
        {
          "internalType": "uint256",
          "name": "timeInMinutes",
          "type": "uint256"
        },
        {
          "internalType": "uint256",
          "name": "creationTimestamp",
          "type": "uint256"
        }
      ],
      "stateMutability": "view",
      "type": "function"
    },
    {
      "inputs": [
        {
          "internalType": "uint256",
          "name": "_proposalId",
          "type": "uint256"
        },
        {
          "internalType": "address",
          "name": "_voter",
          "type": "address"
        },
        {
          "internalType": "uint256",
          "name": "_optionIndex",
          "type": "uint256"
        }
      ],
      "name": "vote",
      "outputs": [],
      "stateMutability": "nonpayable",
      "type": "function"
    }
  ],
  "bytecode": "0x60806040523480156200001157600080fd5b5060405162001b3c38038062001b3c83398181016040528101906200003791906200012a565b816000806101000a81548173ffffffffffffffffffffffffffffffffffffffff021916908373ffffffffffffffffffffffffffffffffffffffff16021790555080600160006101000a81548173ffffffffffffffffffffffffffffffffffffffff021916908373ffffffffffffffffffffffffffffffffffffffff160217905550505062000171565b600080fd5b600073ffffffffffffffffffffffffffffffffffffffff82169050919050565b6000620000f282620000c5565b9050919050565b6200010481620000e5565b81146200011057600080fd5b50565b6000815190506200012481620000f9565b92915050565b60008060408385031215620001445762000143620000c0565b5b6000620001548582860162000113565b9250506020620001678582860162000113565b9150509250929050565b6119bb80620001816000396000f3fe608060405234801561001057600080fd5b506004361061007d5760003560e01c80634de8737c1161005b5780634de8737c146101075780637775f7da14610123578063a52bc6e21461013f578063e0fdcc421461015d5761007d565b8063013cf08b146100825780634129b2c9146100b95780634162169f146100e9575b600080fd5b61009c60048036038101906100979190610b8d565b61018d565b6040516100b0989796959493929190610c59565b60405180910390f35b6100d360048036038101906100ce9190610b8d565b61037d565b6040516100e09190610cec565b60405180910390f35b6100f16104e8565b6040516100fe9190610d4f565b60405180910390f35b610121600480360381019061011c9190610d96565b61050e565b005b61013d60048036038101906101389190611004565b6107ee565b005b610147610a97565b6040516101549190611175565b60405180910390f35b61017760048036038101906101729190611190565b610abb565b60405161018491906111d0565b60405180910390f35b6002818154811061019d57600080fd5b90600052602060002090600a02016000915090508060000180546101c09061121a565b80601f01602080910402602001604051908101604052809291908181526020018280546101ec9061121a565b80156102395780601f1061020e57610100808354040283529160200191610239565b820191906000526020600020905b81548152906001019060200180831161021c57829003601f168201915b50505050509080600101805461024e9061121a565b80601f016020809104026020016040519081016040528092919081815260200182805461027a9061121a565b80156102c75780601f1061029c576101008083540402835291602001916102c7565b820191906000526020600020905b8154815290600101906020018083116102aa57829003601f168201915b5050505050908060020180546102dc9061121a565b80601f01602080910402602001604051908101604052809291908181526020018280546103089061121a565b80156103555780601f1061032a57610100808354040283529160200191610355565b820191906000526020600020905b81548152906001019060200180831161033857829003601f168201915b5050505050908060030154908060050154908060060154908060070154908060080154905088565b60606000600283815481106103955761039461124b565b5b90600052602060002090600a0201905060008080600090505b836009018054905081101561042d57828460090182815481106103d4576103d361124b565b5b906000526020600020906002020160010154111561041a578360090181815481106104025761040161124b565b5b90600052602060002090600202016001015492508091505b8080610425906112a9565b9150506103ae565b508260090181815481106104445761044361124b565b5b906000526020600020906002020160000180546104609061121a565b80601f016020809104026020016040519081016040528092919081815260200182805461048c9061121a565b80156104d95780601f106104ae576101008083540402835291602001916104d9565b820191906000526020600020905b8154815290600101906020018083116104bc57829003601f168201915b50505050509350505050919050565b600160009054906101000a900473ffffffffffffffffffffffffffffffffffffffff1681565b826000600282815481106105255761052461124b565b5b90600052602060002090600a02019050603c816007015461054691906112f1565b81600801546105559190611333565b421115610597576040517f08c379a000000000000000000000000000000000000000000000000000000000815260040161058e906113b3565b60405180910390fd5b6000600286815481106105ad576105ac61124b565b5b90600052602060002090600a0201905060008160040160008773ffffffffffffffffffffffffffffffffffffffff1673ffffffffffffffffffffffffffffffffffffffff1681526020019081526020016000205414610641576040517f08c379a00000000000000000000000000000000000000000000000000000000081526004016106389061141f565b60405180910390fd5b60008060009054906101000a900473ffffffffffffffffffffffffffffffffffffffff1673ffffffffffffffffffffffffffffffffffffffff166370a08231876040518263ffffffff1660e01b815260040161069d9190610d4f565b602060405180830381865afa1580156106ba573d6000803e3d6000fd5b505050506040513d601f19601f820116820180604052508101906106de9190611454565b905060008111610723576040517f08c379a000000000000000000000000000000000000000000000000000000000815260040161071a906114cd565b60405180910390fd5b816005015481111561073757816005015490505b60006107438883610abb565b9050808360030160008282546107599190611333565b92505081905550808360040160008973ffffffffffffffffffffffffffffffffffffffff1673ffffffffffffffffffffffffffffffffffffffff16815260200190815260200160002081905550808360090187815481106107bd576107bc61124b565b5b906000526020600020906002020160010160008282546107dd9190611333565b925050819055505050505050505050565b600160009054906101000a900473ffffffffffffffffffffffffffffffffffffffff1673ffffffffffffffffffffffffffffffffffffffff163373ffffffffffffffffffffffffffffffffffffffff161461087e576040517f08c379a000000000000000000000000000000000000000000000000000000000815260040161087590611539565b60405180910390fd5b600083116108c1576040517f08c379a00000000000000000000000000000000000000000000000000000000081526004016108b8906115cb565b60405180910390fd5b828411610903576040517f08c379a00000000000000000000000000000000000000000000000000000000081526004016108fa9061165d565b60405180910390fd5b600060028054905090506002600181600181540180825580915050039060005260206000209050506000600282815481106109415761094061124b565b5b90600052602060002090600a0201905088816000019081610962919061181f565b5087816001019081610974919061181f565b5086816002019081610986919061181f565b506000816003018190555085816005018190555084816006018190555083816007018190555042816008018190555060005b8351811015610a53578160090160405180604001604052808684815181106109e3576109e261124b565b5b60200260200101518152602001600081525090806001815401808255809150506001900390600052602060002090600202016000909190919091506000820151816000019081610a33919061181f565b506020820151816001015550508080610a4b906112a9565b9150506109b8565b50817fa9ef596c73fbcfb4a78bc139b1a19c35247c1f37d2489c0513ad2dd3eb7d8c6b8a604051610a849190610cec565b60405180910390a2505050505050505050565b60008054906101000a900473ffffffffffffffffffffffffffffffffffffffff1681565b60008060028481548110610ad257610ad161124b565b5b90600052602060002090600a02019050600081600601548260050154610af891906118f1565b90506000826006015485610b0c91906118f1565b90506000600183600384610b2091906112f1565b610b2a9190611954565b610b349190611333565b90508094505050505092915050565b6000604051905090565b600080fd5b600080fd5b6000819050919050565b610b6a81610b57565b8114610b7557600080fd5b50565b600081359050610b8781610b61565b92915050565b600060208284031215610ba357610ba2610b4d565b5b6000610bb184828501610b78565b91505092915050565b600081519050919050565b600082825260208201905092915050565b60005b83811015610bf4578082015181840152602081019050610bd9565b60008484015250505050565b6000601f19601f8301169050919050565b6000610c1c82610bba565b610c268185610bc5565b9350610c36818560208601610bd6565b610c3f81610c00565b840191505092915050565b610c5381610b57565b82525050565b6000610100820190508181036000830152610c74818b610c11565b90508181036020830152610c88818a610c11565b90508181036040830152610c9c8189610c11565b9050610cab6060830188610c4a565b610cb86080830187610c4a565b610cc560a0830186610c4a565b610cd260c0830185610c4a565b610cdf60e0830184610c4a565b9998505050505050505050565b60006020820190508181036000830152610d068184610c11565b905092915050565b600073ffffffffffffffffffffffffffffffffffffffff82169050919050565b6000610d3982610d0e565b9050919050565b610d4981610d2e565b82525050565b6000602082019050610d646000830184610d40565b92915050565b610d7381610d2e565b8114610d7e57600080fd5b50565b600081359050610d9081610d6a565b92915050565b600080600060608486031215610daf57610dae610b4d565b5b6000610dbd86828701610b78565b9350506020610dce86828701610d81565b9250506040610ddf86828701610b78565b9150509250925092565b600080fd5b600080fd5b7f4e487b7100000000000000000000000000000000000000000000000000000000600052604160045260246000fd5b610e2b82610c00565b810181811067ffffffffffffffff82111715610e4a57610e49610df3565b5b80604052505050565b6000610e5d610b43565b9050610e698282610e22565b919050565b600067ffffffffffffffff821115610e8957610e88610df3565b5b610e9282610c00565b9050602081019050919050565b82818337600083830152505050565b6000610ec1610ebc84610e6e565b610e53565b905082815260208101848484011115610edd57610edc610dee565b5b610ee8848285610e9f565b509392505050565b600082601f830112610f0557610f04610de9565b5b8135610f15848260208601610eae565b91505092915050565b600067ffffffffffffffff821115610f3957610f38610df3565b5b602082029050602081019050919050565b600080fd5b6000610f62610f5d84610f1e565b610e53565b90508083825260208201905060208402830185811115610f8557610f84610f4a565b5b835b81811015610fcc57803567ffffffffffffffff811115610faa57610fa9610de9565b5b808601610fb78982610ef0565b85526020850194505050602081019050610f87565b5050509392505050565b600082601f830112610feb57610fea610de9565b5b8135610ffb848260208601610f4f565b91505092915050565b600080600080600080600060e0888a03121561102357611022610b4d565b5b600088013567ffffffffffffffff81111561104157611040610b52565b5b61104d8a828b01610ef0565b975050602088013567ffffffffffffffff81111561106e5761106d610b52565b5b61107a8a828b01610ef0565b965050604088013567ffffffffffffffff81111561109b5761109a610b52565b5b6110a78a828b01610ef0565b95505060606110b88a828b01610b78565b94505060806110c98a828b01610b78565b93505060a06110da8a828b01610b78565b92505060c088013567ffffffffffffffff8111156110fb576110fa610b52565b5b6111078a828b01610fd6565b91505092959891949750929550565b6000819050919050565b600061113b61113661113184610d0e565b611116565b610d0e565b9050919050565b600061114d82611120565b9050919050565b600061115f82611142565b9050919050565b61116f81611154565b82525050565b600060208201905061118a6000830184611166565b92915050565b600080604083850312156111a7576111a6610b4d565b5b60006111b585828601610b78565b92505060206111c685828601610b78565b9150509250929050565b60006020820190506111e56000830184610c4a565b92915050565b7f4e487b7100000000000000000000000000000000000000000000000000000000600052602260045260246000fd5b6000600282049050600182168061123257607f821691505b602082108103611245576112446111eb565b5b50919050565b7f4e487b7100000000000000000000000000000000000000000000000000000000600052603260045260246000fd5b7f4e487b7100000000000000000000000000000000000000000000000000000000600052601160045260246000fd5b60006112b482610b57565b91507fffffffffffffffffffffffffffffffffffffffffffffffffffffffffffffffff82036112e6576112e561127a565b5b600182019050919050565b60006112fc82610b57565b915061130783610b57565b925082820261131581610b57565b9150828204841483151761132c5761132b61127a565b5b5092915050565b600061133e82610b57565b915061134983610b57565b92508282019050808211156113615761136061127a565b5b92915050565b7f566f74696e672074696d65206578706972656400000000000000000000000000600082015250565b600061139d601383610bc5565b91506113a882611367565b602082019050919050565b600060208201905081810360008301526113cc81611390565b9050919050565b7f416c726561647920766f74656400000000000000000000000000000000000000600082015250565b6000611409600d83610bc5565b9150611414826113d3565b602082019050919050565b60006020820190508181036000830152611438816113fc565b9050919050565b60008151905061144e81610b61565b92915050565b60006020828403121561146a57611469610b4d565b5b60006114788482850161143f565b91505092915050565b7f4e6f204b5542495820746f6b656e730000000000000000000000000000000000600082015250565b60006114b7600f83610bc5565b91506114c282611481565b602082019050919050565b600060208201905081810360008301526114e6816114aa565b9050919050565b7f4f6e6c792044414f2063616e2063616c6c20746869732066756e6374696f6e00600082015250565b6000611523601f83610bc5565b915061152e826114ed565b602082019050919050565b6000602082019050818103600083015261155281611516565b9050919050565b7f4d696e2062616c616e6365206d7573742062652067726561746572207468616e60008201527f2030000000000000000000000000000000000000000000000000000000000000602082015250565b60006115b5602283610bc5565b91506115c082611559565b604082019050919050565b600060208201905081810360008301526115e4816115a8565b9050919050565b7f4d61782062616c616e6365206d7573742062652067726561746572207468616e60008201527f206d696e2062616c616e63650000000000000000000000000000000000000000602082015250565b6000611647602c83610bc5565b9150611652826115eb565b604082019050919050565b600060208201905081810360008301526116768161163a565b9050919050565b60008190508160005260206000209050919050565b60006020601f8301049050919050565b600082821b905092915050565b6000600883026116df7fffffffffffffffffffffffffffffffffffffffffffffffffffffffffffffffff826116a2565b6116e986836116a2565b95508019841693508086168417925050509392505050565b600061171c61171761171284610b57565b611116565b610b57565b9050919050565b6000819050919050565b61173683611701565b61174a61174282611723565b8484546116af565b825550505050565b600090565b61175f611752565b61176a81848461172d565b505050565b5b8181101561178e57611783600082611757565b600181019050611770565b5050565b601f8211156117d3576117a48161167d565b6117ad84611692565b810160208510156117bc578190505b6117d06117c885611692565b83018261176f565b50505b505050565b600082821c905092915050565b60006117f6600019846008026117d8565b1980831691505092915050565b600061180f83836117e5565b9150826002028217905092915050565b61182882610bba565b67ffffffffffffffff81111561184157611840610df3565b5b61184b825461121a565b611856828285611792565b600060209050601f8311600181146118895760008415611877578287015190505b6118818582611803565b8655506118e9565b601f1984166118978661167d565b60005b828110156118bf5784890151825560018201915060208501945060208101905061189a565b868310156118dc57848901516118d8601f8916826117e5565b8355505b6001600288020188555050505b505050505050565b60006118fc82610b57565b915061190783610b57565b925082820390508181111561191f5761191e61127a565b5b92915050565b7f4e487b7100000000000000000000000000000000000000000000000000000000600052601260045260246000fd5b600061195f82610b57565b915061196a83610b57565b92508261197a57611979611925565b5b82820490509291505056fea264697066735822122063c14cafc96a8a4c2454fae557a4f983c59b91f61006beecc3c2a8725e4c9b6164736f6c63430008120033",
  "linkReferences": {},
  "deployedLinkReferences": {}
}