{
  "_format": "hh-sol-artifact-1",
  "contractName": "KubidVoting",
  "sourceName": "contracts/KUBIDvoting.sol",
  "abi": [
    {
      "inputs": [
        {
          "internalType": "address",
          "name": "_kubidToken",
          "type": "address"
        },
        {
          "internalType": "address",
          "name": "_dao",
          "type": "address"
        }
      ],
      "stateMutability": "nonpayable",
      "type": "constructor"
    },
    {
      "anonymous": false,
      "inputs": [
        {
          "indexed": true,
          "internalType": "uint256",
          "name": "proposalId",
          "type": "uint256"
        },
        {
          "indexed": false,
          "internalType": "string",
          "name": "name",
          "type": "string"
        }
      ],
      "name": "NewProposal",
      "type": "event"
    },
    {
      "inputs": [
        {
          "internalType": "uint256",
          "name": "",
          "type": "uint256"
        }
      ],
      "name": "activeProposalIndices",
      "outputs": [
        {
          "internalType": "uint256",
          "name": "",
          "type": "uint256"
        }
      ],
      "stateMutability": "view",
      "type": "function"
    },
    {
      "inputs": [
        {
          "internalType": "uint256",
          "name": "",
          "type": "uint256"
        }
      ],
      "name": "activeProposals",
      "outputs": [
        {
          "internalType": "string",
          "name": "name",
          "type": "string"
        },
        {
          "internalType": "string",
          "name": "description",
          "type": "string"
        },
        {
          "internalType": "string",
          "name": "execution",
          "type": "string"
        },
        {
          "internalType": "uint256",
          "name": "totalVotes",
          "type": "uint256"
        },
        {
          "internalType": "uint256",
          "name": "timeInMinutes",
          "type": "uint256"
        },
        {
          "internalType": "uint256",
          "name": "creationTimestamp",
          "type": "uint256"
        }
      ],
      "stateMutability": "view",
      "type": "function"
    },
    {
      "inputs": [],
      "name": "activeProposalsCount",
      "outputs": [
        {
          "internalType": "uint256",
          "name": "",
          "type": "uint256"
        }
      ],
      "stateMutability": "view",
      "type": "function"
    },
    {
      "inputs": [
        {
          "internalType": "uint256",
          "name": "",
          "type": "uint256"
        }
      ],
      "name": "completedProposalIndices",
      "outputs": [
        {
          "internalType": "uint256",
          "name": "",
          "type": "uint256"
        }
      ],
      "stateMutability": "view",
      "type": "function"
    },
    {
      "inputs": [],
      "name": "completedProposalsCount",
      "outputs": [
        {
          "internalType": "uint256",
          "name": "",
          "type": "uint256"
        }
      ],
      "stateMutability": "view",
      "type": "function"
    },
    {
      "inputs": [
        {
          "internalType": "string",
          "name": "_name",
          "type": "string"
        },
        {
          "internalType": "string",
          "name": "_description",
          "type": "string"
        },
        {
          "internalType": "string",
          "name": "_execution",
          "type": "string"
        },
        {
          "internalType": "uint256",
          "name": "_timeInMinutes",
          "type": "uint256"
        },
        {
          "internalType": "string[]",
          "name": "_options",
          "type": "string[]"
        }
      ],
      "name": "createProposal",
      "outputs": [],
      "stateMutability": "nonpayable",
      "type": "function"
    },
    {
      "inputs": [],
      "name": "dao",
      "outputs": [
        {
          "internalType": "address",
          "name": "",
          "type": "address"
        }
      ],
      "stateMutability": "view",
      "type": "function"
    },
    {
      "inputs": [
        {
          "internalType": "uint256",
          "name": "_proposalId",
          "type": "uint256"
        },
        {
          "internalType": "uint256",
          "name": "_optionIndex",
          "type": "uint256"
        }
      ],
      "name": "getOption",
      "outputs": [
        {
          "internalType": "string",
          "name": "optionName",
          "type": "string"
        },
        {
          "internalType": "uint256",
          "name": "votes",
          "type": "uint256"
        }
      ],
      "stateMutability": "view",
      "type": "function"
    },
    {
      "inputs": [
        {
          "internalType": "uint256",
          "name": "_proposalId",
          "type": "uint256"
        }
      ],
      "name": "getOptionsCount",
      "outputs": [
        {
          "internalType": "uint256",
          "name": "",
          "type": "uint256"
        }
      ],
      "stateMutability": "view",
      "type": "function"
    },
    {
      "inputs": [
        {
          "internalType": "uint256",
          "name": "_completedProposalIndex",
          "type": "uint256"
        }
      ],
      "name": "getWinner",
      "outputs": [
        {
          "internalType": "string",
          "name": "",
          "type": "string"
        }
      ],
      "stateMutability": "view",
      "type": "function"
    },
    {
      "inputs": [],
      "name": "kubidToken",
      "outputs": [
        {
          "internalType": "contract IERC20",
          "name": "",
          "type": "address"
        }
      ],
      "stateMutability": "view",
      "type": "function"
    },
    {
      "inputs": [],
      "name": "moveToCompleted",
      "outputs": [],
      "stateMutability": "nonpayable",
      "type": "function"
    },
    {
      "inputs": [
        {
          "internalType": "uint256",
          "name": "_proposalId",
          "type": "uint256"
        },
        {
          "internalType": "address",
          "name": "_voter",
          "type": "address"
        },
        {
          "internalType": "uint256",
          "name": "_optionIndex",
          "type": "uint256"
        }
      ],
      "name": "vote",
      "outputs": [],
      "stateMutability": "nonpayable",
      "type": "function"
    }
  ],
  "bytecode": "0x60806040523480156200001157600080fd5b5060405162001dbf38038062001dbf833981810160405281019062000037919062000154565b816000806101000a81548173ffffffffffffffffffffffffffffffffffffffff021916908373ffffffffffffffffffffffffffffffffffffffff16021790555080600160006101000a81548173ffffffffffffffffffffffffffffffffffffffff021916908373ffffffffffffffffffffffffffffffffffffffff16021790555060036000908060018154018082558091505060019003906000526020600020016000909190919091505550506200019b565b600080fd5b600073ffffffffffffffffffffffffffffffffffffffff82169050919050565b60006200011c82620000ef565b9050919050565b6200012e816200010f565b81146200013a57600080fd5b50565b6000815190506200014e8162000123565b92915050565b600080604083850312156200016e576200016d620000ea565b5b60006200017e858286016200013d565b925050602062000191858286016200013d565b9150509250929050565b611c1480620001ab6000396000f3fe608060405234801561001057600080fd5b50600436106100cf5760003560e01c8063517a62571161008c5780637f30b7c0116100665780637f30b7c014610227578063e40824f814610245578063f9232e1d1461027a578063fb0cb3ca14610284576100cf565b8063517a6257146101bd5780635c5dab67146101ed578063778d55471461020b576100cf565b80631ce30927146100d45780632116c347146101055780634129b2c9146101235780634162169f1461015357806342501dae146101715780634de8737c146101a1575b600080fd5b6100ee60048036038101906100e99190610f4f565b6102b4565b6040516100fc92919061102e565b60405180910390f35b61010d6103a7565b60405161011a919061105e565b60405180910390f35b61013d60048036038101906101389190611079565b6103c0565b60405161014a91906110a6565b60405180910390f35b61015b61054f565b6040516101689190611109565b60405180910390f35b61018b60048036038101906101869190611079565b610575565b604051610198919061105e565b60405180910390f35b6101bb60048036038101906101b69190611150565b610599565b005b6101d760048036038101906101d29190611079565b610859565b6040516101e4919061105e565b60405180910390f35b6101f5610890565b6040516102029190611202565b60405180910390f35b61022560048036038101906102209190611438565b6108b4565b005b61022f610aed565b60405161023c919061105e565b60405180910390f35b61025f600480360381019061025a9190611079565b610afa565b60405161027196959493929190611523565b60405180910390f35b610282610cde565b005b61029e60048036038101906102999190611079565b610ee1565b6040516102ab919061105e565b60405180910390f35b6060600080600285815481106102cd576102cc611599565b5b9060005260206000209060080201905060008160070185815481106102f5576102f4611599565b5b9060005260206000209060020201905080600001816001015481805461031a906115f7565b80601f0160208091040260200160405190810160405280929190818152602001828054610346906115f7565b80156103935780601f1061036857610100808354040283529160200191610393565b820191906000526020600020905b81548152906001019060200180831161037657829003601f168201915b505050505091509350935050509250929050565b600060016003805490506103bb9190611657565b905090565b60606000600483815481106103d8576103d7611599565b5b906000526020600020015490506000600282815481106103fb576103fa611599565b5b9060005260206000209060080201905060008080600090505b8360070180549050811015610493578284600701828154811061043a57610439611599565b5b90600052602060002090600202016001015411156104805783600701818154811061046857610467611599565b5b90600052602060002090600202016001015492508091505b808061048b9061168b565b915050610414565b508260070181815481106104aa576104a9611599565b5b906000526020600020906002020160000180546104c6906115f7565b80601f01602080910402602001604051908101604052809291908181526020018280546104f2906115f7565b801561053f5780601f106105145761010080835404028352916020019161053f565b820191906000526020600020905b81548152906001019060200180831161052257829003601f168201915b5050505050945050505050919050565b600160009054906101000a900473ffffffffffffffffffffffffffffffffffffffff1681565b6003818154811061058557600080fd5b906000526020600020016000915090505481565b826000600282815481106105b0576105af611599565b5b90600052602060002090600802019050603c81600501546105d191906116d3565b81600601546105e09190611715565b421115610622576040517f08c379a000000000000000000000000000000000000000000000000000000000815260040161061990611795565b60405180910390fd5b60006002868154811061063857610637611599565b5b9060005260206000209060080201905060008160040160008773ffffffffffffffffffffffffffffffffffffffff1673ffffffffffffffffffffffffffffffffffffffff16815260200190815260200160002054146106cc576040517f08c379a00000000000000000000000000000000000000000000000000000000081526004016106c390611801565b60405180910390fd5b60008060009054906101000a900473ffffffffffffffffffffffffffffffffffffffff1673ffffffffffffffffffffffffffffffffffffffff166370a08231876040518263ffffffff1660e01b81526004016107289190611109565b602060405180830381865afa158015610745573d6000803e3d6000fd5b505050506040513d601f19601f820116820180604052508101906107699190611836565b9050600081116107ae576040517f08c379a00000000000000000000000000000000000000000000000000000000081526004016107a5906118af565b60405180910390fd5b60018260040160008873ffffffffffffffffffffffffffffffffffffffff1673ffffffffffffffffffffffffffffffffffffffff16815260200190815260200160002081905550600182600301600082825461080a9190611715565b92505081905550600182600701868154811061082957610828611599565b5b906000526020600020906002020160010160008282546108499190611715565b9250508190555050505050505050565b600080600283815481106108705761086f611599565b5b906000526020600020906008020190508060070180549050915050919050565b60008054906101000a900473ffffffffffffffffffffffffffffffffffffffff1681565b600160009054906101000a900473ffffffffffffffffffffffffffffffffffffffff1673ffffffffffffffffffffffffffffffffffffffff163373ffffffffffffffffffffffffffffffffffffffff1614610944576040517f08c379a000000000000000000000000000000000000000000000000000000000815260040161093b9061191b565b60405180910390fd5b6000600280549050905060038190806001815401808255809150506001900390600052602060002001600090919091909150556002600181600181540180825580915050039060005260206000209050506000600282815481106109ab576109aa611599565b5b90600052602060002090600802019050868160000190816109cc9190611add565b50858160010190816109de9190611add565b50848160020190816109f09190611add565b506000816003018190555083816005018190555042816006018190555060005b8351811015610aab57816007016040518060400160405280868481518110610a3b57610a3a611599565b5b60200260200101518152602001600081525090806001815401808255809150506001900390600052602060002090600202016000909190919091506000820151816000019081610a8b9190611add565b506020820151816001015550508080610aa39061168b565b915050610a10565b50817fa9ef596c73fbcfb4a78bc139b1a19c35247c1f37d2489c0513ad2dd3eb7d8c6b88604051610adc91906110a6565b60405180910390a250505050505050565b6000600480549050905090565b60028181548110610b0a57600080fd5b9060005260206000209060080201600091509050806000018054610b2d906115f7565b80601f0160208091040260200160405190810160405280929190818152602001828054610b59906115f7565b8015610ba65780601f10610b7b57610100808354040283529160200191610ba6565b820191906000526020600020905b815481529060010190602001808311610b8957829003601f168201915b505050505090806001018054610bbb906115f7565b80601f0160208091040260200160405190810160405280929190818152602001828054610be7906115f7565b8015610c345780601f10610c0957610100808354040283529160200191610c34565b820191906000526020600020905b815481529060010190602001808311610c1757829003601f168201915b505050505090806002018054610c49906115f7565b80601f0160208091040260200160405190810160405280929190818152602001828054610c75906115f7565b8015610cc25780601f10610c9757610100808354040283529160200191610cc2565b820191906000526020600020905b815481529060010190602001808311610ca557829003601f168201915b5050505050908060030154908060050154908060060154905086565b600160009054906101000a900473ffffffffffffffffffffffffffffffffffffffff1673ffffffffffffffffffffffffffffffffffffffff163373ffffffffffffffffffffffffffffffffffffffff1614610d6e576040517f08c379a0000000000000000000000000000000000000000000000000000000008152600401610d659061191b565b60405180910390fd5b6000600190505b600380549050811015610ede57600060038281548110610d9857610d97611599565b5b90600052602060002001549050600060028281548110610dbb57610dba611599565b5b90600052602060002090600802019050603c8160050154610ddc91906116d3565b8160060154610deb9190611715565b421115610ec857600482908060018154018082558091505060019003906000526020600020016000909190919091505560008390505b6001600380549050610e339190611657565b811015610e9a576003600182610e499190611715565b81548110610e5a57610e59611599565b5b906000526020600020015460038281548110610e7957610e78611599565b5b90600052602060002001819055508080610e929061168b565b915050610e21565b506003805480610ead57610eac611baf565b5b60019003818190600052602060002001600090559055610ed7565b8280610ed39061168b565b9350505b5050610d75565b50565b60048181548110610ef157600080fd5b906000526020600020016000915090505481565b6000604051905090565b600080fd5b600080fd5b6000819050919050565b610f2c81610f19565b8114610f3757600080fd5b50565b600081359050610f4981610f23565b92915050565b60008060408385031215610f6657610f65610f0f565b5b6000610f7485828601610f3a565b9250506020610f8585828601610f3a565b9150509250929050565b600081519050919050565b600082825260208201905092915050565b60005b83811015610fc9578082015181840152602081019050610fae565b60008484015250505050565b6000601f19601f8301169050919050565b6000610ff182610f8f565b610ffb8185610f9a565b935061100b818560208601610fab565b61101481610fd5565b840191505092915050565b61102881610f19565b82525050565b600060408201905081810360008301526110488185610fe6565b9050611057602083018461101f565b9392505050565b6000602082019050611073600083018461101f565b92915050565b60006020828403121561108f5761108e610f0f565b5b600061109d84828501610f3a565b91505092915050565b600060208201905081810360008301526110c08184610fe6565b905092915050565b600073ffffffffffffffffffffffffffffffffffffffff82169050919050565b60006110f3826110c8565b9050919050565b611103816110e8565b82525050565b600060208201905061111e60008301846110fa565b92915050565b61112d816110e8565b811461113857600080fd5b50565b60008135905061114a81611124565b92915050565b60008060006060848603121561116957611168610f0f565b5b600061117786828701610f3a565b93505060206111888682870161113b565b925050604061119986828701610f3a565b9150509250925092565b6000819050919050565b60006111c86111c36111be846110c8565b6111a3565b6110c8565b9050919050565b60006111da826111ad565b9050919050565b60006111ec826111cf565b9050919050565b6111fc816111e1565b82525050565b600060208201905061121760008301846111f3565b92915050565b600080fd5b600080fd5b7f4e487b7100000000000000000000000000000000000000000000000000000000600052604160045260246000fd5b61125f82610fd5565b810181811067ffffffffffffffff8211171561127e5761127d611227565b5b80604052505050565b6000611291610f05565b905061129d8282611256565b919050565b600067ffffffffffffffff8211156112bd576112bc611227565b5b6112c682610fd5565b9050602081019050919050565b82818337600083830152505050565b60006112f56112f0846112a2565b611287565b90508281526020810184848401111561131157611310611222565b5b61131c8482856112d3565b509392505050565b600082601f8301126113395761133861121d565b5b81356113498482602086016112e2565b91505092915050565b600067ffffffffffffffff82111561136d5761136c611227565b5b602082029050602081019050919050565b600080fd5b600061139661139184611352565b611287565b905080838252602082019050602084028301858111156113b9576113b861137e565b5b835b8181101561140057803567ffffffffffffffff8111156113de576113dd61121d565b5b8086016113eb8982611324565b855260208501945050506020810190506113bb565b5050509392505050565b600082601f83011261141f5761141e61121d565b5b813561142f848260208601611383565b91505092915050565b600080600080600060a0868803121561145457611453610f0f565b5b600086013567ffffffffffffffff81111561147257611471610f14565b5b61147e88828901611324565b955050602086013567ffffffffffffffff81111561149f5761149e610f14565b5b6114ab88828901611324565b945050604086013567ffffffffffffffff8111156114cc576114cb610f14565b5b6114d888828901611324565b93505060606114e988828901610f3a565b925050608086013567ffffffffffffffff81111561150a57611509610f14565b5b6115168882890161140a565b9150509295509295909350565b600060c082019050818103600083015261153d8189610fe6565b905081810360208301526115518188610fe6565b905081810360408301526115658187610fe6565b9050611574606083018661101f565b611581608083018561101f565b61158e60a083018461101f565b979650505050505050565b7f4e487b7100000000000000000000000000000000000000000000000000000000600052603260045260246000fd5b7f4e487b7100000000000000000000000000000000000000000000000000000000600052602260045260246000fd5b6000600282049050600182168061160f57607f821691505b602082108103611622576116216115c8565b5b50919050565b7f4e487b7100000000000000000000000000000000000000000000000000000000600052601160045260246000fd5b600061166282610f19565b915061166d83610f19565b925082820390508181111561168557611684611628565b5b92915050565b600061169682610f19565b91507fffffffffffffffffffffffffffffffffffffffffffffffffffffffffffffffff82036116c8576116c7611628565b5b600182019050919050565b60006116de82610f19565b91506116e983610f19565b92508282026116f781610f19565b9150828204841483151761170e5761170d611628565b5b5092915050565b600061172082610f19565b915061172b83610f19565b925082820190508082111561174357611742611628565b5b92915050565b7f566f74696e672074696d65206578706972656400000000000000000000000000600082015250565b600061177f601383610f9a565b915061178a82611749565b602082019050919050565b600060208201905081810360008301526117ae81611772565b9050919050565b7f416c726561647920766f74656400000000000000000000000000000000000000600082015250565b60006117eb600d83610f9a565b91506117f6826117b5565b602082019050919050565b6000602082019050818103600083015261181a816117de565b9050919050565b60008151905061183081610f23565b92915050565b60006020828403121561184c5761184b610f0f565b5b600061185a84828501611821565b91505092915050565b7f4e6f204b5542494420746f6b656e730000000000000000000000000000000000600082015250565b6000611899600f83610f9a565b91506118a482611863565b602082019050919050565b600060208201905081810360008301526118c88161188c565b9050919050565b7f4f6e6c792044414f2063616e2063616c6c20746869732066756e6374696f6e00600082015250565b6000611905601f83610f9a565b9150611910826118cf565b602082019050919050565b60006020820190508181036000830152611934816118f8565b9050919050565b60008190508160005260206000209050919050565b60006020601f8301049050919050565b600082821b905092915050565b60006008830261199d7fffffffffffffffffffffffffffffffffffffffffffffffffffffffffffffffff82611960565b6119a78683611960565b95508019841693508086168417925050509392505050565b60006119da6119d56119d084610f19565b6111a3565b610f19565b9050919050565b6000819050919050565b6119f4836119bf565b611a08611a00826119e1565b84845461196d565b825550505050565b600090565b611a1d611a10565b611a288184846119eb565b505050565b5b81811015611a4c57611a41600082611a15565b600181019050611a2e565b5050565b601f821115611a9157611a628161193b565b611a6b84611950565b81016020851015611a7a578190505b611a8e611a8685611950565b830182611a2d565b50505b505050565b600082821c905092915050565b6000611ab460001984600802611a96565b1980831691505092915050565b6000611acd8383611aa3565b9150826002028217905092915050565b611ae682610f8f565b67ffffffffffffffff811115611aff57611afe611227565b5b611b0982546115f7565b611b14828285611a50565b600060209050601f831160018114611b475760008415611b35578287015190505b611b3f8582611ac1565b865550611ba7565b601f198416611b558661193b565b60005b82811015611b7d57848901518255600182019150602085019450602081019050611b58565b86831015611b9a5784890151611b96601f891682611aa3565b8355505b6001600288020188555050505b505050505050565b7f4e487b7100000000000000000000000000000000000000000000000000000000600052603160045260246000fdfea26469706673582212209935a1b51b7819079b320d01449a5e98831bc2470df9558965d8f238fa16a3dd64736f6c63430008120033",
  "linkReferences": {},
  "deployedLinkReferences": {}
}