{
  "_format": "hh-sol-artifact-1",
  "contractName": "KubidVoting",
  "sourceName": "contracts/KUBIDvoting.sol",
  "abi": [
    {
      "inputs": [
        {
          "internalType": "address",
          "name": "_kubidToken",
          "type": "address"
        },
        {
          "internalType": "address",
          "name": "_dao",
          "type": "address"
        }
      ],
      "stateMutability": "nonpayable",
      "type": "constructor"
    },
    {
      "anonymous": false,
      "inputs": [
        {
          "indexed": true,
          "internalType": "string",
          "name": "newHash",
          "type": "string"
        }
      ],
      "name": "NewIPFSHash",
      "type": "event"
    },
    {
      "anonymous": false,
      "inputs": [
        {
          "indexed": true,
          "internalType": "uint256",
          "name": "proposalId",
          "type": "uint256"
        },
        {
          "indexed": false,
          "internalType": "string",
          "name": "name",
          "type": "string"
        }
      ],
      "name": "NewProposal",
      "type": "event"
    },
    {
      "inputs": [
        {
          "internalType": "uint256",
          "name": "",
          "type": "uint256"
        }
      ],
      "name": "activeProposalIndices",
      "outputs": [
        {
          "internalType": "uint256",
          "name": "",
          "type": "uint256"
        }
      ],
      "stateMutability": "view",
      "type": "function"
    },
    {
      "inputs": [
        {
          "internalType": "uint256",
          "name": "",
          "type": "uint256"
        }
      ],
      "name": "activeProposals",
      "outputs": [
        {
          "internalType": "string",
          "name": "name",
          "type": "string"
        },
        {
          "internalType": "string",
          "name": "description",
          "type": "string"
        },
        {
          "internalType": "string",
          "name": "execution",
          "type": "string"
        },
        {
          "internalType": "uint256",
          "name": "totalVotes",
          "type": "uint256"
        },
        {
          "internalType": "uint256",
          "name": "timeInMinutes",
          "type": "uint256"
        },
        {
          "internalType": "uint256",
          "name": "creationTimestamp",
          "type": "uint256"
        }
      ],
      "stateMutability": "view",
      "type": "function"
    },
    {
      "inputs": [],
      "name": "activeProposalsCount",
      "outputs": [
        {
          "internalType": "uint256",
          "name": "",
          "type": "uint256"
        }
      ],
      "stateMutability": "view",
      "type": "function"
    },
    {
      "inputs": [
        {
          "internalType": "uint256",
          "name": "",
          "type": "uint256"
        }
      ],
      "name": "completedProposalIndices",
      "outputs": [
        {
          "internalType": "uint256",
          "name": "",
          "type": "uint256"
        }
      ],
      "stateMutability": "view",
      "type": "function"
    },
    {
      "inputs": [],
      "name": "completedProposalsCount",
      "outputs": [
        {
          "internalType": "uint256",
          "name": "",
          "type": "uint256"
        }
      ],
      "stateMutability": "view",
      "type": "function"
    },
    {
      "inputs": [
        {
          "internalType": "string",
          "name": "_name",
          "type": "string"
        },
        {
          "internalType": "string",
          "name": "_description",
          "type": "string"
        },
        {
          "internalType": "string",
          "name": "_execution",
          "type": "string"
        },
        {
          "internalType": "uint256",
          "name": "_timeInMinutes",
          "type": "uint256"
        },
        {
          "internalType": "string[]",
          "name": "_options",
          "type": "string[]"
        }
      ],
      "name": "createProposal",
      "outputs": [],
      "stateMutability": "nonpayable",
      "type": "function"
    },
    {
      "inputs": [],
      "name": "dao",
      "outputs": [
        {
          "internalType": "address",
          "name": "",
          "type": "address"
        }
      ],
      "stateMutability": "view",
      "type": "function"
    },
    {
      "inputs": [],
      "name": "getIPFSHash",
      "outputs": [
        {
          "internalType": "string",
          "name": "",
          "type": "string"
        }
      ],
      "stateMutability": "view",
      "type": "function"
    },
    {
      "inputs": [
        {
          "internalType": "uint256",
          "name": "_proposalId",
          "type": "uint256"
        },
        {
          "internalType": "uint256",
          "name": "_optionIndex",
          "type": "uint256"
        }
      ],
      "name": "getOption",
      "outputs": [
        {
          "internalType": "string",
          "name": "optionName",
          "type": "string"
        },
        {
          "internalType": "uint256",
          "name": "votes",
          "type": "uint256"
        }
      ],
      "stateMutability": "view",
      "type": "function"
    },
    {
      "inputs": [
        {
          "internalType": "uint256",
          "name": "_proposalId",
          "type": "uint256"
        }
      ],
      "name": "getOptionsCount",
      "outputs": [
        {
          "internalType": "uint256",
          "name": "",
          "type": "uint256"
        }
      ],
      "stateMutability": "view",
      "type": "function"
    },
    {
      "inputs": [
        {
          "internalType": "uint256",
          "name": "_completedProposalIndex",
          "type": "uint256"
        }
      ],
      "name": "getWinner",
      "outputs": [
        {
          "internalType": "string",
          "name": "",
          "type": "string"
        }
      ],
      "stateMutability": "view",
      "type": "function"
    },
    {
      "inputs": [],
      "name": "ipfsHash",
      "outputs": [
        {
          "internalType": "string",
          "name": "",
          "type": "string"
        }
      ],
      "stateMutability": "view",
      "type": "function"
    },
    {
      "inputs": [],
      "name": "kubidToken",
      "outputs": [
        {
          "internalType": "contract IERC20",
          "name": "",
          "type": "address"
        }
      ],
      "stateMutability": "view",
      "type": "function"
    },
    {
      "inputs": [],
      "name": "moveToCompleted",
      "outputs": [],
      "stateMutability": "nonpayable",
      "type": "function"
    },
    {
      "inputs": [
        {
          "internalType": "string",
          "name": "_ipfsHash",
          "type": "string"
        }
      ],
      "name": "setIPFSHash",
      "outputs": [],
      "stateMutability": "nonpayable",
      "type": "function"
    },
    {
      "inputs": [
        {
          "internalType": "uint256",
          "name": "_proposalId",
          "type": "uint256"
        },
        {
          "internalType": "address",
          "name": "_voter",
          "type": "address"
        },
        {
          "internalType": "uint256",
          "name": "_optionIndex",
          "type": "uint256"
        }
      ],
      "name": "vote",
      "outputs": [],
      "stateMutability": "nonpayable",
      "type": "function"
    }
  ],
  "bytecode": "0x60806040523480156200001157600080fd5b50604051620020e9380380620020e9833981810160405281019062000037919062000154565b816000806101000a81548173ffffffffffffffffffffffffffffffffffffffff021916908373ffffffffffffffffffffffffffffffffffffffff16021790555080600160006101000a81548173ffffffffffffffffffffffffffffffffffffffff021916908373ffffffffffffffffffffffffffffffffffffffff16021790555060046000908060018154018082558091505060019003906000526020600020016000909190919091505550506200019b565b600080fd5b600073ffffffffffffffffffffffffffffffffffffffff82169050919050565b60006200011c82620000ef565b9050919050565b6200012e816200010f565b81146200013a57600080fd5b50565b6000815190506200014e8162000123565b92915050565b600080604083850312156200016e576200016d620000ea565b5b60006200017e858286016200013d565b925050602062000191858286016200013d565b9150509250929050565b611f3e80620001ab6000396000f3fe608060405234801561001057600080fd5b50600436106101005760003560e01c80635c5dab6711610097578063c623674f11610066578063c623674f146102b0578063e40824f8146102ce578063f9232e1d14610303578063fb0cb3ca1461030d57610100565b80635c5dab671461023c578063778d55471461025a5780637f30b7c014610276578063b8a76f541461029457610100565b80634162169f116100d35780634162169f146101a257806342501dae146101c05780634de8737c146101f0578063517a62571461020c57610100565b80631ce309271461010557806320b28ade146101365780632116c347146101545780634129b2c914610172575b600080fd5b61011f600480360381019061011a91906111dd565b61033d565b60405161012d9291906112bc565b60405180910390f35b61013e610430565b60405161014b91906112ec565b60405180910390f35b61015c6104c2565b604051610169919061130e565b60405180910390f35b61018c60048036038101906101879190611329565b6104db565b60405161019991906112ec565b60405180910390f35b6101aa61066a565b6040516101b79190611397565b60405180910390f35b6101da60048036038101906101d59190611329565b610690565b6040516101e7919061130e565b60405180910390f35b61020a600480360381019061020591906113de565b6106b4565b005b61022660048036038101906102219190611329565b610974565b604051610233919061130e565b60405180910390f35b6102446109ab565b6040516102519190611490565b60405180910390f35b610274600480360381019061026f91906116c6565b6109cf565b005b61027e610c08565b60405161028b919061130e565b60405180910390f35b6102ae60048036038101906102a991906117b1565b610c15565b005b6102b8610cfa565b6040516102c591906112ec565b60405180910390f35b6102e860048036038101906102e39190611329565b610d88565b6040516102fa969594939291906117fa565b60405180910390f35b61030b610f6c565b005b61032760048036038101906103229190611329565b61116f565b604051610334919061130e565b60405180910390f35b60606000806003858154811061035657610355611870565b5b90600052602060002090600802019050600081600701858154811061037e5761037d611870565b5b906000526020600020906002020190508060000181600101548180546103a3906118ce565b80601f01602080910402602001604051908101604052809291908181526020018280546103cf906118ce565b801561041c5780601f106103f15761010080835404028352916020019161041c565b820191906000526020600020905b8154815290600101906020018083116103ff57829003601f168201915b505050505091509350935050509250929050565b60606002805461043f906118ce565b80601f016020809104026020016040519081016040528092919081815260200182805461046b906118ce565b80156104b85780601f1061048d576101008083540402835291602001916104b8565b820191906000526020600020905b81548152906001019060200180831161049b57829003601f168201915b5050505050905090565b600060016004805490506104d6919061192e565b905090565b60606000600583815481106104f3576104f2611870565b5b9060005260206000200154905060006003828154811061051657610515611870565b5b9060005260206000209060080201905060008080600090505b83600701805490508110156105ae578284600701828154811061055557610554611870565b5b906000526020600020906002020160010154111561059b5783600701818154811061058357610582611870565b5b90600052602060002090600202016001015492508091505b80806105a690611962565b91505061052f565b508260070181815481106105c5576105c4611870565b5b906000526020600020906002020160000180546105e1906118ce565b80601f016020809104026020016040519081016040528092919081815260200182805461060d906118ce565b801561065a5780601f1061062f5761010080835404028352916020019161065a565b820191906000526020600020905b81548152906001019060200180831161063d57829003601f168201915b5050505050945050505050919050565b600160009054906101000a900473ffffffffffffffffffffffffffffffffffffffff1681565b600481815481106106a057600080fd5b906000526020600020016000915090505481565b826000600382815481106106cb576106ca611870565b5b90600052602060002090600802019050603c81600501546106ec91906119aa565b81600601546106fb91906119ec565b42111561073d576040517f08c379a000000000000000000000000000000000000000000000000000000000815260040161073490611a6c565b60405180910390fd5b60006003868154811061075357610752611870565b5b9060005260206000209060080201905060008160040160008773ffffffffffffffffffffffffffffffffffffffff1673ffffffffffffffffffffffffffffffffffffffff16815260200190815260200160002054146107e7576040517f08c379a00000000000000000000000000000000000000000000000000000000081526004016107de90611ad8565b60405180910390fd5b60008060009054906101000a900473ffffffffffffffffffffffffffffffffffffffff1673ffffffffffffffffffffffffffffffffffffffff166370a08231876040518263ffffffff1660e01b81526004016108439190611397565b602060405180830381865afa158015610860573d6000803e3d6000fd5b505050506040513d601f19601f820116820180604052508101906108849190611b0d565b9050600081116108c9576040517f08c379a00000000000000000000000000000000000000000000000000000000081526004016108c090611b86565b60405180910390fd5b60018260040160008873ffffffffffffffffffffffffffffffffffffffff1673ffffffffffffffffffffffffffffffffffffffff16815260200190815260200160002081905550600182600301600082825461092591906119ec565b92505081905550600182600701868154811061094457610943611870565b5b9060005260206000209060020201600101600082825461096491906119ec565b9250508190555050505050505050565b6000806003838154811061098b5761098a611870565b5b906000526020600020906008020190508060070180549050915050919050565b60008054906101000a900473ffffffffffffffffffffffffffffffffffffffff1681565b600160009054906101000a900473ffffffffffffffffffffffffffffffffffffffff1673ffffffffffffffffffffffffffffffffffffffff163373ffffffffffffffffffffffffffffffffffffffff1614610a5f576040517f08c379a0000000000000000000000000000000000000000000000000000000008152600401610a5690611bf2565b60405180910390fd5b600060038054905090506004819080600181540180825580915050600190039060005260206000200160009091909190915055600360018160018154018082558091505003906000526020600020905050600060038281548110610ac657610ac5611870565b5b9060005260206000209060080201905086816000019081610ae79190611db4565b5085816001019081610af99190611db4565b5084816002019081610b0b9190611db4565b506000816003018190555083816005018190555042816006018190555060005b8351811015610bc657816007016040518060400160405280868481518110610b5657610b55611870565b5b60200260200101518152602001600081525090806001815401808255809150506001900390600052602060002090600202016000909190919091506000820151816000019081610ba69190611db4565b506020820151816001015550508080610bbe90611962565b915050610b2b565b50817fa9ef596c73fbcfb4a78bc139b1a19c35247c1f37d2489c0513ad2dd3eb7d8c6b88604051610bf791906112ec565b60405180910390a250505050505050565b6000600580549050905090565b600160009054906101000a900473ffffffffffffffffffffffffffffffffffffffff1673ffffffffffffffffffffffffffffffffffffffff163373ffffffffffffffffffffffffffffffffffffffff1614610ca5576040517f08c379a0000000000000000000000000000000000000000000000000000000008152600401610c9c90611bf2565b60405180910390fd5b8060029081610cb49190611db4565b5080604051610cc39190611ec2565b60405180910390207f37859dd8d1940a4cba3d502dd5409ffd529824471ca7cde7e604253be94f1eef60405160405180910390a250565b60028054610d07906118ce565b80601f0160208091040260200160405190810160405280929190818152602001828054610d33906118ce565b8015610d805780601f10610d5557610100808354040283529160200191610d80565b820191906000526020600020905b815481529060010190602001808311610d6357829003601f168201915b505050505081565b60038181548110610d9857600080fd5b9060005260206000209060080201600091509050806000018054610dbb906118ce565b80601f0160208091040260200160405190810160405280929190818152602001828054610de7906118ce565b8015610e345780601f10610e0957610100808354040283529160200191610e34565b820191906000526020600020905b815481529060010190602001808311610e1757829003601f168201915b505050505090806001018054610e49906118ce565b80601f0160208091040260200160405190810160405280929190818152602001828054610e75906118ce565b8015610ec25780601f10610e9757610100808354040283529160200191610ec2565b820191906000526020600020905b815481529060010190602001808311610ea557829003601f168201915b505050505090806002018054610ed7906118ce565b80601f0160208091040260200160405190810160405280929190818152602001828054610f03906118ce565b8015610f505780601f10610f2557610100808354040283529160200191610f50565b820191906000526020600020905b815481529060010190602001808311610f3357829003601f168201915b5050505050908060030154908060050154908060060154905086565b600160009054906101000a900473ffffffffffffffffffffffffffffffffffffffff1673ffffffffffffffffffffffffffffffffffffffff163373ffffffffffffffffffffffffffffffffffffffff1614610ffc576040517f08c379a0000000000000000000000000000000000000000000000000000000008152600401610ff390611bf2565b60405180910390fd5b6000600190505b60048054905081101561116c5760006004828154811061102657611025611870565b5b9060005260206000200154905060006003828154811061104957611048611870565b5b90600052602060002090600802019050603c816005015461106a91906119aa565b816006015461107991906119ec565b42111561115657600582908060018154018082558091505060019003906000526020600020016000909190919091505560008390505b60016004805490506110c1919061192e565b8110156111285760046001826110d791906119ec565b815481106110e8576110e7611870565b5b90600052602060002001546004828154811061110757611106611870565b5b9060005260206000200181905550808061112090611962565b9150506110af565b50600480548061113b5761113a611ed9565b5b60019003818190600052602060002001600090559055611165565b828061116190611962565b9350505b5050611003565b50565b6005818154811061117f57600080fd5b906000526020600020016000915090505481565b6000604051905090565b600080fd5b600080fd5b6000819050919050565b6111ba816111a7565b81146111c557600080fd5b50565b6000813590506111d7816111b1565b92915050565b600080604083850312156111f4576111f361119d565b5b6000611202858286016111c8565b9250506020611213858286016111c8565b9150509250929050565b600081519050919050565b600082825260208201905092915050565b60005b8381101561125757808201518184015260208101905061123c565b60008484015250505050565b6000601f19601f8301169050919050565b600061127f8261121d565b6112898185611228565b9350611299818560208601611239565b6112a281611263565b840191505092915050565b6112b6816111a7565b82525050565b600060408201905081810360008301526112d68185611274565b90506112e560208301846112ad565b9392505050565b600060208201905081810360008301526113068184611274565b905092915050565b600060208201905061132360008301846112ad565b92915050565b60006020828403121561133f5761133e61119d565b5b600061134d848285016111c8565b91505092915050565b600073ffffffffffffffffffffffffffffffffffffffff82169050919050565b600061138182611356565b9050919050565b61139181611376565b82525050565b60006020820190506113ac6000830184611388565b92915050565b6113bb81611376565b81146113c657600080fd5b50565b6000813590506113d8816113b2565b92915050565b6000806000606084860312156113f7576113f661119d565b5b6000611405868287016111c8565b9350506020611416868287016113c9565b9250506040611427868287016111c8565b9150509250925092565b6000819050919050565b600061145661145161144c84611356565b611431565b611356565b9050919050565b60006114688261143b565b9050919050565b600061147a8261145d565b9050919050565b61148a8161146f565b82525050565b60006020820190506114a56000830184611481565b92915050565b600080fd5b600080fd5b7f4e487b7100000000000000000000000000000000000000000000000000000000600052604160045260246000fd5b6114ed82611263565b810181811067ffffffffffffffff8211171561150c5761150b6114b5565b5b80604052505050565b600061151f611193565b905061152b82826114e4565b919050565b600067ffffffffffffffff82111561154b5761154a6114b5565b5b61155482611263565b9050602081019050919050565b82818337600083830152505050565b600061158361157e84611530565b611515565b90508281526020810184848401111561159f5761159e6114b0565b5b6115aa848285611561565b509392505050565b600082601f8301126115c7576115c66114ab565b5b81356115d7848260208601611570565b91505092915050565b600067ffffffffffffffff8211156115fb576115fa6114b5565b5b602082029050602081019050919050565b600080fd5b600061162461161f846115e0565b611515565b905080838252602082019050602084028301858111156116475761164661160c565b5b835b8181101561168e57803567ffffffffffffffff81111561166c5761166b6114ab565b5b80860161167989826115b2565b85526020850194505050602081019050611649565b5050509392505050565b600082601f8301126116ad576116ac6114ab565b5b81356116bd848260208601611611565b91505092915050565b600080600080600060a086880312156116e2576116e161119d565b5b600086013567ffffffffffffffff811115611700576116ff6111a2565b5b61170c888289016115b2565b955050602086013567ffffffffffffffff81111561172d5761172c6111a2565b5b611739888289016115b2565b945050604086013567ffffffffffffffff81111561175a576117596111a2565b5b611766888289016115b2565b9350506060611777888289016111c8565b925050608086013567ffffffffffffffff811115611798576117976111a2565b5b6117a488828901611698565b9150509295509295909350565b6000602082840312156117c7576117c661119d565b5b600082013567ffffffffffffffff8111156117e5576117e46111a2565b5b6117f1848285016115b2565b91505092915050565b600060c08201905081810360008301526118148189611274565b905081810360208301526118288188611274565b9050818103604083015261183c8187611274565b905061184b60608301866112ad565b61185860808301856112ad565b61186560a08301846112ad565b979650505050505050565b7f4e487b7100000000000000000000000000000000000000000000000000000000600052603260045260246000fd5b7f4e487b7100000000000000000000000000000000000000000000000000000000600052602260045260246000fd5b600060028204905060018216806118e657607f821691505b6020821081036118f9576118f861189f565b5b50919050565b7f4e487b7100000000000000000000000000000000000000000000000000000000600052601160045260246000fd5b6000611939826111a7565b9150611944836111a7565b925082820390508181111561195c5761195b6118ff565b5b92915050565b600061196d826111a7565b91507fffffffffffffffffffffffffffffffffffffffffffffffffffffffffffffffff820361199f5761199e6118ff565b5b600182019050919050565b60006119b5826111a7565b91506119c0836111a7565b92508282026119ce816111a7565b915082820484148315176119e5576119e46118ff565b5b5092915050565b60006119f7826111a7565b9150611a02836111a7565b9250828201905080821115611a1a57611a196118ff565b5b92915050565b7f566f74696e672074696d65206578706972656400000000000000000000000000600082015250565b6000611a56601383611228565b9150611a6182611a20565b602082019050919050565b60006020820190508181036000830152611a8581611a49565b9050919050565b7f416c726561647920766f74656400000000000000000000000000000000000000600082015250565b6000611ac2600d83611228565b9150611acd82611a8c565b602082019050919050565b60006020820190508181036000830152611af181611ab5565b9050919050565b600081519050611b07816111b1565b92915050565b600060208284031215611b2357611b2261119d565b5b6000611b3184828501611af8565b91505092915050565b7f4e6f204b5542494420746f6b656e730000000000000000000000000000000000600082015250565b6000611b70600f83611228565b9150611b7b82611b3a565b602082019050919050565b60006020820190508181036000830152611b9f81611b63565b9050919050565b7f4f6e6c792044414f2063616e2063616c6c20746869732066756e6374696f6e00600082015250565b6000611bdc601f83611228565b9150611be782611ba6565b602082019050919050565b60006020820190508181036000830152611c0b81611bcf565b9050919050565b60008190508160005260206000209050919050565b60006020601f8301049050919050565b600082821b905092915050565b600060088302611c747fffffffffffffffffffffffffffffffffffffffffffffffffffffffffffffffff82611c37565b611c7e8683611c37565b95508019841693508086168417925050509392505050565b6000611cb1611cac611ca7846111a7565b611431565b6111a7565b9050919050565b6000819050919050565b611ccb83611c96565b611cdf611cd782611cb8565b848454611c44565b825550505050565b600090565b611cf4611ce7565b611cff818484611cc2565b505050565b5b81811015611d2357611d18600082611cec565b600181019050611d05565b5050565b601f821115611d6857611d3981611c12565b611d4284611c27565b81016020851015611d51578190505b611d65611d5d85611c27565b830182611d04565b50505b505050565b600082821c905092915050565b6000611d8b60001984600802611d6d565b1980831691505092915050565b6000611da48383611d7a565b9150826002028217905092915050565b611dbd8261121d565b67ffffffffffffffff811115611dd657611dd56114b5565b5b611de082546118ce565b611deb828285611d27565b600060209050601f831160018114611e1e5760008415611e0c578287015190505b611e168582611d98565b865550611e7e565b601f198416611e2c86611c12565b60005b82811015611e5457848901518255600182019150602085019450602081019050611e2f565b86831015611e715784890151611e6d601f891682611d7a565b8355505b6001600288020188555050505b505050505050565b600081905092915050565b6000611e9c8261121d565b611ea68185611e86565b9350611eb6818560208601611239565b80840191505092915050565b6000611ece8284611e91565b915081905092915050565b7f4e487b7100000000000000000000000000000000000000000000000000000000600052603160045260246000fdfea2646970667358221220907fecebcaec4a3fa9f23f9635dd594cdbf1100660fed70c868d673a0be6b2ef64736f6c63430008120033",
  "linkReferences": {},
  "deployedLinkReferences": {}
}