{
  "_format": "hh-sol-artifact-1",
  "contractName": "KubidVoting",
  "sourceName": "contracts/KUBIDvoting.sol",
  "abi": [
    {
      "inputs": [
        {
          "internalType": "address",
          "name": "_kubidToken",
          "type": "address"
        },
        {
          "internalType": "address",
          "name": "_dao",
          "type": "address"
        }
      ],
      "stateMutability": "nonpayable",
      "type": "constructor"
    },
    {
      "anonymous": false,
      "inputs": [
        {
          "indexed": true,
          "internalType": "uint256",
          "name": "proposalId",
          "type": "uint256"
        },
        {
          "indexed": false,
          "internalType": "string",
          "name": "name",
          "type": "string"
        }
      ],
      "name": "NewProposal",
      "type": "event"
    },
    {
      "anonymous": false,
      "inputs": [
        {
          "indexed": true,
          "internalType": "uint256",
          "name": "proposalId",
          "type": "uint256"
        },
        {
          "indexed": false,
          "internalType": "uint256",
          "name": "winningOptionIndex",
          "type": "uint256"
        }
      ],
      "name": "ProposalFinished",
      "type": "event"
    },
    {
      "anonymous": false,
      "inputs": [
        {
          "indexed": true,
          "internalType": "uint256",
          "name": "proposalId",
          "type": "uint256"
        },
        {
          "indexed": true,
          "internalType": "address",
          "name": "voter",
          "type": "address"
        },
        {
          "indexed": true,
          "internalType": "uint256",
          "name": "optionIndex",
          "type": "uint256"
        },
        {
          "indexed": false,
          "internalType": "uint256",
          "name": "voteCount",
          "type": "uint256"
        }
      ],
      "name": "Voted",
      "type": "event"
    },
    {
      "inputs": [],
      "name": "activeProposalId",
      "outputs": [
        {
          "internalType": "uint256",
          "name": "",
          "type": "uint256"
        }
      ],
      "stateMutability": "view",
      "type": "function"
    },
    {
      "inputs": [
        {
          "internalType": "string",
          "name": "_name",
          "type": "string"
        },
        {
          "internalType": "string",
          "name": "_description",
          "type": "string"
        },
        {
          "internalType": "string",
          "name": "_execution",
          "type": "string"
        },
        {
          "internalType": "uint256",
          "name": "_timeInMinutes",
          "type": "uint256"
        },
        {
          "internalType": "string[]",
          "name": "_options",
          "type": "string[]"
        }
      ],
      "name": "createProposal",
      "outputs": [],
      "stateMutability": "nonpayable",
      "type": "function"
    },
    {
      "inputs": [],
      "name": "dao",
      "outputs": [
        {
          "internalType": "address",
          "name": "",
          "type": "address"
        }
      ],
      "stateMutability": "view",
      "type": "function"
    },
    {
      "inputs": [],
      "name": "endVoting",
      "outputs": [],
      "stateMutability": "nonpayable",
      "type": "function"
    },
    {
      "inputs": [
        {
          "internalType": "uint256",
          "name": "_proposalId",
          "type": "uint256"
        },
        {
          "internalType": "uint256",
          "name": "_optionIndex",
          "type": "uint256"
        }
      ],
      "name": "getOption",
      "outputs": [
        {
          "internalType": "string",
          "name": "optionName",
          "type": "string"
        },
        {
          "internalType": "uint256",
          "name": "votes",
          "type": "uint256"
        }
      ],
      "stateMutability": "view",
      "type": "function"
    },
    {
      "inputs": [
        {
          "internalType": "uint256",
          "name": "_proposalId",
          "type": "uint256"
        }
      ],
      "name": "getOptionsCount",
      "outputs": [
        {
          "internalType": "uint256",
          "name": "",
          "type": "uint256"
        }
      ],
      "stateMutability": "view",
      "type": "function"
    },
    {
      "inputs": [],
      "name": "getWinner",
      "outputs": [
        {
          "internalType": "string",
          "name": "",
          "type": "string"
        }
      ],
      "stateMutability": "view",
      "type": "function"
    },
    {
      "inputs": [],
      "name": "kubidToken",
      "outputs": [
        {
          "internalType": "contract IERC20",
          "name": "",
          "type": "address"
        }
      ],
      "stateMutability": "view",
      "type": "function"
    },
    {
      "inputs": [
        {
          "internalType": "uint256",
          "name": "",
          "type": "uint256"
        }
      ],
      "name": "proposals",
      "outputs": [
        {
          "internalType": "string",
          "name": "name",
          "type": "string"
        },
        {
          "internalType": "string",
          "name": "description",
          "type": "string"
        },
        {
          "internalType": "string",
          "name": "execution",
          "type": "string"
        },
        {
          "internalType": "uint256",
          "name": "totalVotes",
          "type": "uint256"
        },
        {
          "internalType": "uint256",
          "name": "creationTimestamp",
          "type": "uint256"
        },
        {
          "internalType": "uint256",
          "name": "timeInMinutes",
          "type": "uint256"
        }
      ],
      "stateMutability": "view",
      "type": "function"
    },
    {
      "inputs": [
        {
          "internalType": "uint256",
          "name": "_optionIndex",
          "type": "uint256"
        }
      ],
      "name": "vote",
      "outputs": [],
      "stateMutability": "nonpayable",
      "type": "function"
    }
  ],
  "bytecode": "0x60806040523480156200001157600080fd5b5060405162001c6238038062001c6283398181016040528101906200003791906200012a565b816000806101000a81548173ffffffffffffffffffffffffffffffffffffffff021916908373ffffffffffffffffffffffffffffffffffffffff16021790555080600160006101000a81548173ffffffffffffffffffffffffffffffffffffffff021916908373ffffffffffffffffffffffffffffffffffffffff160217905550505062000171565b600080fd5b600073ffffffffffffffffffffffffffffffffffffffff82169050919050565b6000620000f282620000c5565b9050919050565b6200010481620000e5565b81146200011057600080fd5b50565b6000815190506200012481620000f9565b92915050565b60008060408385031215620001445762000143620000c0565b5b6000620001548582860162000113565b9250506020620001678582860162000113565b9150509250929050565b611ae180620001816000396000f3fe608060405234801561001057600080fd5b506004361061009e5760003560e01c80635c5dab67116100665780635c5dab6714610173578063778d5547146101915780638e7ea5b2146101ad578063a81160c0146101cb578063c3403ddf146101e95761009e565b80630121b93f146100a3578063013cf08b146100bf5780631ce30927146100f45780634162169f14610125578063517a625714610143575b600080fd5b6100bd60048036038101906100b89190610e92565b6101f3565b005b6100d960048036038101906100d49190610e92565b610502565b6040516100eb96959493929190610f5e565b60405180910390f35b61010e60048036038101906101099190610fd4565b6106e6565b60405161011c929190611014565b60405180910390f35b61012d6107d9565b60405161013a9190611085565b60405180910390f35b61015d60048036038101906101589190610e92565b6107ff565b60405161016a91906110a0565b60405180910390f35b61017b610836565b604051610188919061111a565b60405180910390f35b6101ab60048036038101906101a69190611350565b61085a565b005b6101b5610a6f565b6040516101c2919061143b565b60405180910390f35b6101d3610bda565b6040516101e091906110a0565b60405180910390f35b6101f1610be0565b005b600060026003548154811061020b5761020a61145d565b5b90600052602060002090600802019050603c816007015461022c91906114bb565b816006015461023b91906114fd565b42111561027d576040517f08c379a00000000000000000000000000000000000000000000000000000000081526004016102749061157d565b60405180910390fd5b60006002600354815481106102955761029461145d565b5b9060005260206000209060080201905060008160040160003373ffffffffffffffffffffffffffffffffffffffff1673ffffffffffffffffffffffffffffffffffffffff1681526020019081526020016000205414610329576040517f08c379a0000000000000000000000000000000000000000000000000000000008152600401610320906115e9565b60405180910390fd5b60008060009054906101000a900473ffffffffffffffffffffffffffffffffffffffff1673ffffffffffffffffffffffffffffffffffffffff166370a08231336040518263ffffffff1660e01b81526004016103859190611085565b602060405180830381865afa1580156103a2573d6000803e3d6000fd5b505050506040513d601f19601f820116820180604052508101906103c6919061161e565b90506000811161040b576040517f08c379a000000000000000000000000000000000000000000000000000000000815260040161040290611697565b60405180910390fd5b8082600301600082825461041f91906114fd565b92505081905550808260040160003373ffffffffffffffffffffffffffffffffffffffff1673ffffffffffffffffffffffffffffffffffffffff16815260200190815260200160002081905550808260050185815481106104835761048261145d565b5b906000526020600020906002020160010160008282546104a391906114fd565b92505081905550833373ffffffffffffffffffffffffffffffffffffffff166003547fb4c54afd73915f9f756c8dee39fe0b311937871a92261a47747f7a3d32f63a0c846040516104f491906110a0565b60405180910390a450505050565b6002818154811061051257600080fd5b9060005260206000209060080201600091509050806000018054610535906116e6565b80601f0160208091040260200160405190810160405280929190818152602001828054610561906116e6565b80156105ae5780601f10610583576101008083540402835291602001916105ae565b820191906000526020600020905b81548152906001019060200180831161059157829003601f168201915b5050505050908060010180546105c3906116e6565b80601f01602080910402602001604051908101604052809291908181526020018280546105ef906116e6565b801561063c5780601f106106115761010080835404028352916020019161063c565b820191906000526020600020905b81548152906001019060200180831161061f57829003601f168201915b505050505090806002018054610651906116e6565b80601f016020809104026020016040519081016040528092919081815260200182805461067d906116e6565b80156106ca5780601f1061069f576101008083540402835291602001916106ca565b820191906000526020600020905b8154815290600101906020018083116106ad57829003601f168201915b5050505050908060030154908060060154908060070154905086565b6060600080600285815481106106ff576106fe61145d565b5b9060005260206000209060080201905060008160050185815481106107275761072661145d565b5b9060005260206000209060020201905080600001816001015481805461074c906116e6565b80601f0160208091040260200160405190810160405280929190818152602001828054610778906116e6565b80156107c55780601f1061079a576101008083540402835291602001916107c5565b820191906000526020600020905b8154815290600101906020018083116107a857829003601f168201915b505050505091509350935050509250929050565b600160009054906101000a900473ffffffffffffffffffffffffffffffffffffffff1681565b600080600283815481106108165761081561145d565b5b906000526020600020906008020190508060050180549050915050919050565b60008054906101000a900473ffffffffffffffffffffffffffffffffffffffff1681565b600160009054906101000a900473ffffffffffffffffffffffffffffffffffffffff1673ffffffffffffffffffffffffffffffffffffffff163373ffffffffffffffffffffffffffffffffffffffff16146108ea576040517f08c379a00000000000000000000000000000000000000000000000000000000081526004016108e190611763565b60405180910390fd5b600280549050600381905550600260018160018154018082558091505003906000526020600020905050600060026003548154811061092c5761092b61145d565b5b906000526020600020906008020190508581600001908161094d9190611925565b508481600101908161095f9190611925565b50838160020190816109719190611925565b506000816003018190555082816007018190555042816006018190555060005b8251811015610a2c578160050160405180604001604052808584815181106109bc576109bb61145d565b5b60200260200101518152602001600081525090806001815401808255809150506001900390600052602060002090600202016000909190919091506000820151816000019081610a0c9190611925565b506020820151816001015550508080610a24906119f7565b915050610991565b506003547fa9ef596c73fbcfb4a78bc139b1a19c35247c1f37d2489c0513ad2dd3eb7d8c6b87604051610a5f919061143b565b60405180910390a2505050505050565b60606000600260035481548110610a8957610a8861145d565b5b9060005260206000209060080201905060008080600090505b8360050180549050811015610b215782846005018281548110610ac857610ac761145d565b5b9060005260206000209060020201600101541115610b0e57836005018181548110610af657610af561145d565b5b90600052602060002090600202016001015492508091505b8080610b19906119f7565b915050610aa2565b50826005018181548110610b3857610b3761145d565b5b90600052602060002090600202016000018054610b54906116e6565b80601f0160208091040260200160405190810160405280929190818152602001828054610b80906116e6565b8015610bcd5780601f10610ba257610100808354040283529160200191610bcd565b820191906000526020600020905b815481529060010190602001808311610bb057829003601f168201915b5050505050935050505090565b60035481565b600160009054906101000a900473ffffffffffffffffffffffffffffffffffffffff1673ffffffffffffffffffffffffffffffffffffffff163373ffffffffffffffffffffffffffffffffffffffff1614610c70576040517f08c379a0000000000000000000000000000000000000000000000000000000008152600401610c6790611763565b60405180910390fd5b603c600260035481548110610c8857610c8761145d565b5b906000526020600020906008020160070154610ca491906114bb565b600260035481548110610cba57610cb961145d565b5b906000526020600020906008020160060154610cd691906114fd565b4211610d17576040517f08c379a0000000000000000000000000000000000000000000000000000000008152600401610d0e90611a8b565b60405180910390fd5b6000806000905060005b600260035481548110610d3757610d3661145d565b5b906000526020600020906008020160050180549050811015610e095781600260035481548110610d6a57610d6961145d565b5b90600052602060002090600802016005018281548110610d8d57610d8c61145d565b5b9060005260206000209060020201600101541115610df657600260035481548110610dbb57610dba61145d565b5b90600052602060002090600802016005018181548110610dde57610ddd61145d565b5b90600052602060002090600202016001015491508092505b8080610e01906119f7565b915050610d21565b506003547fcfd5c6c4de3db4c50517a62a113cfbcb9e4ae68a3e99865690c763b0a80fa3ff83604051610e3c91906110a0565b60405180910390a25050565b6000604051905090565b600080fd5b600080fd5b6000819050919050565b610e6f81610e5c565b8114610e7a57600080fd5b50565b600081359050610e8c81610e66565b92915050565b600060208284031215610ea857610ea7610e52565b5b6000610eb684828501610e7d565b91505092915050565b600081519050919050565b600082825260208201905092915050565b60005b83811015610ef9578082015181840152602081019050610ede565b60008484015250505050565b6000601f19601f8301169050919050565b6000610f2182610ebf565b610f2b8185610eca565b9350610f3b818560208601610edb565b610f4481610f05565b840191505092915050565b610f5881610e5c565b82525050565b600060c0820190508181036000830152610f788189610f16565b90508181036020830152610f8c8188610f16565b90508181036040830152610fa08187610f16565b9050610faf6060830186610f4f565b610fbc6080830185610f4f565b610fc960a0830184610f4f565b979650505050505050565b60008060408385031215610feb57610fea610e52565b5b6000610ff985828601610e7d565b925050602061100a85828601610e7d565b9150509250929050565b6000604082019050818103600083015261102e8185610f16565b905061103d6020830184610f4f565b9392505050565b600073ffffffffffffffffffffffffffffffffffffffff82169050919050565b600061106f82611044565b9050919050565b61107f81611064565b82525050565b600060208201905061109a6000830184611076565b92915050565b60006020820190506110b56000830184610f4f565b92915050565b6000819050919050565b60006110e06110db6110d684611044565b6110bb565b611044565b9050919050565b60006110f2826110c5565b9050919050565b6000611104826110e7565b9050919050565b611114816110f9565b82525050565b600060208201905061112f600083018461110b565b92915050565b600080fd5b600080fd5b7f4e487b7100000000000000000000000000000000000000000000000000000000600052604160045260246000fd5b61117782610f05565b810181811067ffffffffffffffff821117156111965761119561113f565b5b80604052505050565b60006111a9610e48565b90506111b5828261116e565b919050565b600067ffffffffffffffff8211156111d5576111d461113f565b5b6111de82610f05565b9050602081019050919050565b82818337600083830152505050565b600061120d611208846111ba565b61119f565b9050828152602081018484840111156112295761122861113a565b5b6112348482856111eb565b509392505050565b600082601f83011261125157611250611135565b5b81356112618482602086016111fa565b91505092915050565b600067ffffffffffffffff8211156112855761128461113f565b5b602082029050602081019050919050565b600080fd5b60006112ae6112a98461126a565b61119f565b905080838252602082019050602084028301858111156112d1576112d0611296565b5b835b8181101561131857803567ffffffffffffffff8111156112f6576112f5611135565b5b808601611303898261123c565b855260208501945050506020810190506112d3565b5050509392505050565b600082601f83011261133757611336611135565b5b813561134784826020860161129b565b91505092915050565b600080600080600060a0868803121561136c5761136b610e52565b5b600086013567ffffffffffffffff81111561138a57611389610e57565b5b6113968882890161123c565b955050602086013567ffffffffffffffff8111156113b7576113b6610e57565b5b6113c38882890161123c565b945050604086013567ffffffffffffffff8111156113e4576113e3610e57565b5b6113f08882890161123c565b935050606061140188828901610e7d565b925050608086013567ffffffffffffffff81111561142257611421610e57565b5b61142e88828901611322565b9150509295509295909350565b600060208201905081810360008301526114558184610f16565b905092915050565b7f4e487b7100000000000000000000000000000000000000000000000000000000600052603260045260246000fd5b7f4e487b7100000000000000000000000000000000000000000000000000000000600052601160045260246000fd5b60006114c682610e5c565b91506114d183610e5c565b92508282026114df81610e5c565b915082820484148315176114f6576114f561148c565b5b5092915050565b600061150882610e5c565b915061151383610e5c565b925082820190508082111561152b5761152a61148c565b5b92915050565b7f566f74696e672074696d65206578706972656400000000000000000000000000600082015250565b6000611567601383610eca565b915061157282611531565b602082019050919050565b600060208201905081810360008301526115968161155a565b9050919050565b7f416c726561647920766f74656400000000000000000000000000000000000000600082015250565b60006115d3600d83610eca565b91506115de8261159d565b602082019050919050565b60006020820190508181036000830152611602816115c6565b9050919050565b60008151905061161881610e66565b92915050565b60006020828403121561163457611633610e52565b5b600061164284828501611609565b91505092915050565b7f4e6f204b5542494420746f6b656e730000000000000000000000000000000000600082015250565b6000611681600f83610eca565b915061168c8261164b565b602082019050919050565b600060208201905081810360008301526116b081611674565b9050919050565b7f4e487b7100000000000000000000000000000000000000000000000000000000600052602260045260246000fd5b600060028204905060018216806116fe57607f821691505b602082108103611711576117106116b7565b5b50919050565b7f4f6e6c792044414f2063616e2063616c6c20746869732066756e6374696f6e00600082015250565b600061174d601f83610eca565b915061175882611717565b602082019050919050565b6000602082019050818103600083015261177c81611740565b9050919050565b60008190508160005260206000209050919050565b60006020601f8301049050919050565b600082821b905092915050565b6000600883026117e57fffffffffffffffffffffffffffffffffffffffffffffffffffffffffffffffff826117a8565b6117ef86836117a8565b95508019841693508086168417925050509392505050565b600061182261181d61181884610e5c565b6110bb565b610e5c565b9050919050565b6000819050919050565b61183c83611807565b61185061184882611829565b8484546117b5565b825550505050565b600090565b611865611858565b611870818484611833565b505050565b5b818110156118945761188960008261185d565b600181019050611876565b5050565b601f8211156118d9576118aa81611783565b6118b384611798565b810160208510156118c2578190505b6118d66118ce85611798565b830182611875565b50505b505050565b600082821c905092915050565b60006118fc600019846008026118de565b1980831691505092915050565b600061191583836118eb565b9150826002028217905092915050565b61192e82610ebf565b67ffffffffffffffff8111156119475761194661113f565b5b61195182546116e6565b61195c828285611898565b600060209050601f83116001811461198f576000841561197d578287015190505b6119878582611909565b8655506119ef565b601f19841661199d86611783565b60005b828110156119c5578489015182556001820191506020850194506020810190506119a0565b868310156119e257848901516119de601f8916826118eb565b8355505b6001600288020188555050505b505050505050565b6000611a0282610e5c565b91507fffffffffffffffffffffffffffffffffffffffffffffffffffffffffffffffff8203611a3457611a3361148c565b5b600182019050919050565b7f566f74696e672074696d65206e6f742079657420657870697265640000000000600082015250565b6000611a75601b83610eca565b9150611a8082611a3f565b602082019050919050565b60006020820190508181036000830152611aa481611a68565b905091905056fea2646970667358221220b0def90f3b7551b3be0f5313c41ab2e8c36e4d8d8375a5fd84a991eefc10e6a664736f6c63430008120033",
  "linkReferences": {},
  "deployedLinkReferences": {}
}