{
  "_format": "hh-sol-artifact-1",
  "contractName": "KubixVoting",
  "sourceName": "contracts/KUBIXvoting.sol",
  "abi": [
    {
      "inputs": [
        {
          "internalType": "address",
          "name": "_kubixToken",
          "type": "address"
        },
        {
          "internalType": "address",
          "name": "_dao",
          "type": "address"
        }
      ],
      "stateMutability": "nonpayable",
      "type": "constructor"
    },
    {
      "anonymous": false,
      "inputs": [
        {
          "indexed": true,
          "internalType": "uint256",
          "name": "proposalId",
          "type": "uint256"
        },
        {
          "indexed": false,
          "internalType": "string",
          "name": "name",
          "type": "string"
        }
      ],
      "name": "NewProposal",
      "type": "event"
    },
    {
      "inputs": [
        {
          "internalType": "uint256",
          "name": "",
          "type": "uint256"
        }
      ],
      "name": "activeProposalIndices",
      "outputs": [
        {
          "internalType": "uint256",
          "name": "",
          "type": "uint256"
        }
      ],
      "stateMutability": "view",
      "type": "function"
    },
    {
      "inputs": [
        {
          "internalType": "uint256",
          "name": "",
          "type": "uint256"
        }
      ],
      "name": "activeProposals",
      "outputs": [
        {
          "internalType": "string",
          "name": "name",
          "type": "string"
        },
        {
          "internalType": "string",
          "name": "description",
          "type": "string"
        },
        {
          "internalType": "string",
          "name": "execution",
          "type": "string"
        },
        {
          "internalType": "uint256",
          "name": "totalVotes",
          "type": "uint256"
        },
        {
          "internalType": "uint256",
          "name": "maxBalance",
          "type": "uint256"
        },
        {
          "internalType": "uint256",
          "name": "minBalance",
          "type": "uint256"
        },
        {
          "internalType": "uint256",
          "name": "timeInMinutes",
          "type": "uint256"
        },
        {
          "internalType": "uint256",
          "name": "creationTimestamp",
          "type": "uint256"
        }
      ],
      "stateMutability": "view",
      "type": "function"
    },
    {
      "inputs": [],
      "name": "activeProposalsCount",
      "outputs": [
        {
          "internalType": "uint256",
          "name": "",
          "type": "uint256"
        }
      ],
      "stateMutability": "view",
      "type": "function"
    },
    {
      "inputs": [
        {
          "internalType": "uint256",
          "name": "_proposalId",
          "type": "uint256"
        },
        {
          "internalType": "uint256",
          "name": "_balance",
          "type": "uint256"
        }
      ],
      "name": "calculateVoteWeight",
      "outputs": [
        {
          "internalType": "uint256",
          "name": "",
          "type": "uint256"
        }
      ],
      "stateMutability": "view",
      "type": "function"
    },
    {
      "inputs": [
        {
          "internalType": "uint256",
          "name": "",
          "type": "uint256"
        }
      ],
      "name": "completedProposalIndices",
      "outputs": [
        {
          "internalType": "uint256",
          "name": "",
          "type": "uint256"
        }
      ],
      "stateMutability": "view",
      "type": "function"
    },
    {
      "inputs": [],
      "name": "completedProposalsCount",
      "outputs": [
        {
          "internalType": "uint256",
          "name": "",
          "type": "uint256"
        }
      ],
      "stateMutability": "view",
      "type": "function"
    },
    {
      "inputs": [
        {
          "internalType": "string",
          "name": "_name",
          "type": "string"
        },
        {
          "internalType": "string",
          "name": "_description",
          "type": "string"
        },
        {
          "internalType": "string",
          "name": "_execution",
          "type": "string"
        },
        {
          "internalType": "uint256",
          "name": "_maxBalance",
          "type": "uint256"
        },
        {
          "internalType": "uint256",
          "name": "_minBalance",
          "type": "uint256"
        },
        {
          "internalType": "uint256",
          "name": "_timeInMinutes",
          "type": "uint256"
        },
        {
          "internalType": "string[]",
          "name": "_options",
          "type": "string[]"
        }
      ],
      "name": "createProposal",
      "outputs": [],
      "stateMutability": "nonpayable",
      "type": "function"
    },
    {
      "inputs": [],
      "name": "dao",
      "outputs": [
        {
          "internalType": "address",
          "name": "",
          "type": "address"
        }
      ],
      "stateMutability": "view",
      "type": "function"
    },
    {
      "inputs": [
        {
          "internalType": "uint256",
          "name": "_proposalId",
          "type": "uint256"
        },
        {
          "internalType": "uint256",
          "name": "_optionIndex",
          "type": "uint256"
        }
      ],
      "name": "getOption",
      "outputs": [
        {
          "internalType": "string",
          "name": "optionName",
          "type": "string"
        },
        {
          "internalType": "uint256",
          "name": "votes",
          "type": "uint256"
        }
      ],
      "stateMutability": "view",
      "type": "function"
    },
    {
      "inputs": [
        {
          "internalType": "uint256",
          "name": "_proposalId",
          "type": "uint256"
        }
      ],
      "name": "getOptionsCount",
      "outputs": [
        {
          "internalType": "uint256",
          "name": "",
          "type": "uint256"
        }
      ],
      "stateMutability": "view",
      "type": "function"
    },
    {
      "inputs": [
        {
          "internalType": "uint256",
          "name": "_completedProposalIndex",
          "type": "uint256"
        }
      ],
      "name": "getWinner",
      "outputs": [
        {
          "internalType": "string",
          "name": "",
          "type": "string"
        }
      ],
      "stateMutability": "view",
      "type": "function"
    },
    {
      "inputs": [],
      "name": "kubixToken",
      "outputs": [
        {
          "internalType": "contract IERC20",
          "name": "",
          "type": "address"
        }
      ],
      "stateMutability": "view",
      "type": "function"
    },
    {
      "inputs": [],
      "name": "moveToCompleted",
      "outputs": [],
      "stateMutability": "nonpayable",
      "type": "function"
    },
    {
      "inputs": [
        {
          "internalType": "uint256",
          "name": "_proposalId",
          "type": "uint256"
        },
        {
          "internalType": "address",
          "name": "_voter",
          "type": "address"
        },
        {
          "internalType": "uint256",
          "name": "_optionIndex",
          "type": "uint256"
        }
      ],
      "name": "vote",
      "outputs": [],
      "stateMutability": "nonpayable",
      "type": "function"
    }
  ],
  "bytecode": "0x60806040523480156200001157600080fd5b506040516200219c3803806200219c833981810160405281019062000037919062000154565b816000806101000a81548173ffffffffffffffffffffffffffffffffffffffff021916908373ffffffffffffffffffffffffffffffffffffffff16021790555080600160006101000a81548173ffffffffffffffffffffffffffffffffffffffff021916908373ffffffffffffffffffffffffffffffffffffffff16021790555060036000908060018154018082558091505060019003906000526020600020016000909190919091505550506200019b565b600080fd5b600073ffffffffffffffffffffffffffffffffffffffff82169050919050565b60006200011c82620000ef565b9050919050565b6200012e816200010f565b81146200013a57600080fd5b50565b6000815190506200014e8162000123565b92915050565b600080604083850312156200016e576200016d620000ea565b5b60006200017e858286016200013d565b925050602062000191858286016200013d565b9150509250929050565b611ff180620001ab6000396000f3fe608060405234801561001057600080fd5b50600436106100ea5760003560e01c80637775f7da1161008c578063e0fdcc4211610066578063e0fdcc4214610260578063e40824f814610290578063f9232e1d146102c7578063fb0cb3ca146102d1576100ea565b80637775f7da146102085780637f30b7c014610224578063a52bc6e214610242576100ea565b80634162169f116100c85780634162169f1461016e57806342501dae1461018c5780634de8737c146101bc578063517a6257146101d8576100ea565b80631ce30927146100ef5780632116c347146101205780634129b2c91461013e575b600080fd5b61010960048036038101906101049190611164565b610301565b604051610117929190611243565b60405180910390f35b6101286103f4565b6040516101359190611273565b60405180910390f35b6101586004803603810190610153919061128e565b61040d565b60405161016591906112bb565b60405180910390f35b61017661059c565b604051610183919061131e565b60405180910390f35b6101a660048036038101906101a1919061128e565b6105c2565b6040516101b39190611273565b60405180910390f35b6101d660048036038101906101d19190611365565b6105e6565b005b6101f260048036038101906101ed919061128e565b6108c6565b6040516101ff9190611273565b60405180910390f35b610222600480360381019061021d91906115d3565b6108fd565b005b61022c610bcf565b6040516102399190611273565b60405180910390f35b61024a610bdc565b6040516102579190611744565b60405180910390f35b61027a60048036038101906102759190611164565b610c00565b6040516102879190611273565b60405180910390f35b6102aa60048036038101906102a5919061128e565b610cab565b6040516102be98979695949392919061175f565b60405180910390f35b6102cf610e9b565b005b6102eb60048036038101906102e6919061128e565b61109e565b6040516102f89190611273565b60405180910390f35b60606000806002858154811061031a576103196117f2565b5b90600052602060002090600a020190506000816009018581548110610342576103416117f2565b5b9060005260206000209060020201905080600001816001015481805461036790611850565b80601f016020809104026020016040519081016040528092919081815260200182805461039390611850565b80156103e05780601f106103b5576101008083540402835291602001916103e0565b820191906000526020600020905b8154815290600101906020018083116103c357829003601f168201915b505050505091509350935050509250929050565b6000600160038054905061040891906118b0565b905090565b6060600060048381548110610425576104246117f2565b5b90600052602060002001549050600060028281548110610448576104476117f2565b5b90600052602060002090600a0201905060008080600090505b83600901805490508110156104e05782846009018281548110610487576104866117f2565b5b90600052602060002090600202016001015411156104cd578360090181815481106104b5576104b46117f2565b5b90600052602060002090600202016001015492508091505b80806104d8906118e4565b915050610461565b508260090181815481106104f7576104f66117f2565b5b9060005260206000209060020201600001805461051390611850565b80601f016020809104026020016040519081016040528092919081815260200182805461053f90611850565b801561058c5780601f106105615761010080835404028352916020019161058c565b820191906000526020600020905b81548152906001019060200180831161056f57829003601f168201915b5050505050945050505050919050565b600160009054906101000a900473ffffffffffffffffffffffffffffffffffffffff1681565b600381815481106105d257600080fd5b906000526020600020016000915090505481565b826000600282815481106105fd576105fc6117f2565b5b90600052602060002090600a02019050603c816007015461061e919061192c565b816008015461062d919061196e565b42111561066f576040517f08c379a0000000000000000000000000000000000000000000000000000000008152600401610666906119ee565b60405180910390fd5b600060028681548110610685576106846117f2565b5b90600052602060002090600a0201905060008160040160008773ffffffffffffffffffffffffffffffffffffffff1673ffffffffffffffffffffffffffffffffffffffff1681526020019081526020016000205414610719576040517f08c379a000000000000000000000000000000000000000000000000000000000815260040161071090611a5a565b60405180910390fd5b60008060009054906101000a900473ffffffffffffffffffffffffffffffffffffffff1673ffffffffffffffffffffffffffffffffffffffff166370a08231876040518263ffffffff1660e01b8152600401610775919061131e565b602060405180830381865afa158015610792573d6000803e3d6000fd5b505050506040513d601f19601f820116820180604052508101906107b69190611a8f565b9050600081116107fb576040517f08c379a00000000000000000000000000000000000000000000000000000000081526004016107f290611b08565b60405180910390fd5b816005015481111561080f57816005015490505b600061081b8883610c00565b905080836003016000828254610831919061196e565b92505081905550808360040160008973ffffffffffffffffffffffffffffffffffffffff1673ffffffffffffffffffffffffffffffffffffffff1681526020019081526020016000208190555080836009018781548110610895576108946117f2565b5b906000526020600020906002020160010160008282546108b5919061196e565b925050819055505050505050505050565b600080600283815481106108dd576108dc6117f2565b5b90600052602060002090600a020190508060090180549050915050919050565b600160009054906101000a900473ffffffffffffffffffffffffffffffffffffffff1673ffffffffffffffffffffffffffffffffffffffff163373ffffffffffffffffffffffffffffffffffffffff161461098d576040517f08c379a000000000000000000000000000000000000000000000000000000000815260040161098490611b74565b60405180910390fd5b600083116109d0576040517f08c379a00000000000000000000000000000000000000000000000000000000081526004016109c790611c06565b60405180910390fd5b828411610a12576040517f08c379a0000000000000000000000000000000000000000000000000000000008152600401610a0990611c98565b60405180910390fd5b600060028054905090506003819080600181540180825580915050600190039060005260206000200160009091909190915055600260018160018154018082558091505003906000526020600020905050600060028281548110610a7957610a786117f2565b5b90600052602060002090600a0201905088816000019081610a9a9190611e5a565b5087816001019081610aac9190611e5a565b5086816002019081610abe9190611e5a565b506000816003018190555085816005018190555084816006018190555083816007018190555042816008018190555060005b8351811015610b8b57816009016040518060400160405280868481518110610b1b57610b1a6117f2565b5b60200260200101518152602001600081525090806001815401808255809150506001900390600052602060002090600202016000909190919091506000820151816000019081610b6b9190611e5a565b506020820151816001015550508080610b83906118e4565b915050610af0565b50817fa9ef596c73fbcfb4a78bc139b1a19c35247c1f37d2489c0513ad2dd3eb7d8c6b8a604051610bbc91906112bb565b60405180910390a2505050505050505050565b6000600480549050905090565b60008054906101000a900473ffffffffffffffffffffffffffffffffffffffff1681565b60008060028481548110610c1757610c166117f2565b5b90600052602060002090600a020190506000610c44826006015483600501546110c290919063ffffffff16565b90506000610c5f8360060154866110c290919063ffffffff16565b90506000610c9c6001610c8e85610c806003876110d890919063ffffffff16565b6110ee90919063ffffffff16565b61110490919063ffffffff16565b90508094505050505092915050565b60028181548110610cbb57600080fd5b90600052602060002090600a0201600091509050806000018054610cde90611850565b80601f0160208091040260200160405190810160405280929190818152602001828054610d0a90611850565b8015610d575780601f10610d2c57610100808354040283529160200191610d57565b820191906000526020600020905b815481529060010190602001808311610d3a57829003601f168201915b505050505090806001018054610d6c90611850565b80601f0160208091040260200160405190810160405280929190818152602001828054610d9890611850565b8015610de55780601f10610dba57610100808354040283529160200191610de5565b820191906000526020600020905b815481529060010190602001808311610dc857829003601f168201915b505050505090806002018054610dfa90611850565b80601f0160208091040260200160405190810160405280929190818152602001828054610e2690611850565b8015610e735780601f10610e4857610100808354040283529160200191610e73565b820191906000526020600020905b815481529060010190602001808311610e5657829003601f168201915b5050505050908060030154908060050154908060060154908060070154908060080154905088565b600160009054906101000a900473ffffffffffffffffffffffffffffffffffffffff1673ffffffffffffffffffffffffffffffffffffffff163373ffffffffffffffffffffffffffffffffffffffff1614610f2b576040517f08c379a0000000000000000000000000000000000000000000000000000000008152600401610f2290611b74565b60405180910390fd5b6000600190505b60038054905081101561109b57600060038281548110610f5557610f546117f2565b5b90600052602060002001549050600060028281548110610f7857610f776117f2565b5b90600052602060002090600a02019050603c8160070154610f99919061192c565b8160080154610fa8919061196e565b42111561108557600482908060018154018082558091505060019003906000526020600020016000909190919091505560008390505b6001600380549050610ff091906118b0565b811015611057576003600182611006919061196e565b81548110611017576110166117f2565b5b906000526020600020015460038281548110611036576110356117f2565b5b9060005260206000200181905550808061104f906118e4565b915050610fde565b50600380548061106a57611069611f2c565b5b60019003818190600052602060002001600090559055611094565b8280611090906118e4565b9350505b5050610f32565b50565b600481815481106110ae57600080fd5b906000526020600020016000915090505481565b600081836110d091906118b0565b905092915050565b600081836110e6919061192c565b905092915050565b600081836110fc9190611f8a565b905092915050565b60008183611112919061196e565b905092915050565b6000604051905090565b600080fd5b600080fd5b6000819050919050565b6111418161112e565b811461114c57600080fd5b50565b60008135905061115e81611138565b92915050565b6000806040838503121561117b5761117a611124565b5b60006111898582860161114f565b925050602061119a8582860161114f565b9150509250929050565b600081519050919050565b600082825260208201905092915050565b60005b838110156111de5780820151818401526020810190506111c3565b60008484015250505050565b6000601f19601f8301169050919050565b6000611206826111a4565b61121081856111af565b93506112208185602086016111c0565b611229816111ea565b840191505092915050565b61123d8161112e565b82525050565b6000604082019050818103600083015261125d81856111fb565b905061126c6020830184611234565b9392505050565b60006020820190506112886000830184611234565b92915050565b6000602082840312156112a4576112a3611124565b5b60006112b28482850161114f565b91505092915050565b600060208201905081810360008301526112d581846111fb565b905092915050565b600073ffffffffffffffffffffffffffffffffffffffff82169050919050565b6000611308826112dd565b9050919050565b611318816112fd565b82525050565b6000602082019050611333600083018461130f565b92915050565b611342816112fd565b811461134d57600080fd5b50565b60008135905061135f81611339565b92915050565b60008060006060848603121561137e5761137d611124565b5b600061138c8682870161114f565b935050602061139d86828701611350565b92505060406113ae8682870161114f565b9150509250925092565b600080fd5b600080fd5b7f4e487b7100000000000000000000000000000000000000000000000000000000600052604160045260246000fd5b6113fa826111ea565b810181811067ffffffffffffffff82111715611419576114186113c2565b5b80604052505050565b600061142c61111a565b905061143882826113f1565b919050565b600067ffffffffffffffff821115611458576114576113c2565b5b611461826111ea565b9050602081019050919050565b82818337600083830152505050565b600061149061148b8461143d565b611422565b9050828152602081018484840111156114ac576114ab6113bd565b5b6114b784828561146e565b509392505050565b600082601f8301126114d4576114d36113b8565b5b81356114e484826020860161147d565b91505092915050565b600067ffffffffffffffff821115611508576115076113c2565b5b602082029050602081019050919050565b600080fd5b600061153161152c846114ed565b611422565b9050808382526020820190506020840283018581111561155457611553611519565b5b835b8181101561159b57803567ffffffffffffffff811115611579576115786113b8565b5b80860161158689826114bf565b85526020850194505050602081019050611556565b5050509392505050565b600082601f8301126115ba576115b96113b8565b5b81356115ca84826020860161151e565b91505092915050565b600080600080600080600060e0888a0312156115f2576115f1611124565b5b600088013567ffffffffffffffff8111156116105761160f611129565b5b61161c8a828b016114bf565b975050602088013567ffffffffffffffff81111561163d5761163c611129565b5b6116498a828b016114bf565b965050604088013567ffffffffffffffff81111561166a57611669611129565b5b6116768a828b016114bf565b95505060606116878a828b0161114f565b94505060806116988a828b0161114f565b93505060a06116a98a828b0161114f565b92505060c088013567ffffffffffffffff8111156116ca576116c9611129565b5b6116d68a828b016115a5565b91505092959891949750929550565b6000819050919050565b600061170a611705611700846112dd565b6116e5565b6112dd565b9050919050565b600061171c826116ef565b9050919050565b600061172e82611711565b9050919050565b61173e81611723565b82525050565b60006020820190506117596000830184611735565b92915050565b600061010082019050818103600083015261177a818b6111fb565b9050818103602083015261178e818a6111fb565b905081810360408301526117a281896111fb565b90506117b16060830188611234565b6117be6080830187611234565b6117cb60a0830186611234565b6117d860c0830185611234565b6117e560e0830184611234565b9998505050505050505050565b7f4e487b7100000000000000000000000000000000000000000000000000000000600052603260045260246000fd5b7f4e487b7100000000000000000000000000000000000000000000000000000000600052602260045260246000fd5b6000600282049050600182168061186857607f821691505b60208210810361187b5761187a611821565b5b50919050565b7f4e487b7100000000000000000000000000000000000000000000000000000000600052601160045260246000fd5b60006118bb8261112e565b91506118c68361112e565b92508282039050818111156118de576118dd611881565b5b92915050565b60006118ef8261112e565b91507fffffffffffffffffffffffffffffffffffffffffffffffffffffffffffffffff820361192157611920611881565b5b600182019050919050565b60006119378261112e565b91506119428361112e565b92508282026119508161112e565b9150828204841483151761196757611966611881565b5b5092915050565b60006119798261112e565b91506119848361112e565b925082820190508082111561199c5761199b611881565b5b92915050565b7f566f74696e672074696d65206578706972656400000000000000000000000000600082015250565b60006119d86013836111af565b91506119e3826119a2565b602082019050919050565b60006020820190508181036000830152611a07816119cb565b9050919050565b7f416c726561647920766f74656400000000000000000000000000000000000000600082015250565b6000611a44600d836111af565b9150611a4f82611a0e565b602082019050919050565b60006020820190508181036000830152611a7381611a37565b9050919050565b600081519050611a8981611138565b92915050565b600060208284031215611aa557611aa4611124565b5b6000611ab384828501611a7a565b91505092915050565b7f4e6f204b5542495820746f6b656e730000000000000000000000000000000000600082015250565b6000611af2600f836111af565b9150611afd82611abc565b602082019050919050565b60006020820190508181036000830152611b2181611ae5565b9050919050565b7f4f6e6c792044414f2063616e2063616c6c20746869732066756e6374696f6e00600082015250565b6000611b5e601f836111af565b9150611b6982611b28565b602082019050919050565b60006020820190508181036000830152611b8d81611b51565b9050919050565b7f4d696e2062616c616e6365206d7573742062652067726561746572207468616e60008201527f2030000000000000000000000000000000000000000000000000000000000000602082015250565b6000611bf06022836111af565b9150611bfb82611b94565b604082019050919050565b60006020820190508181036000830152611c1f81611be3565b9050919050565b7f4d61782062616c616e6365206d7573742062652067726561746572207468616e60008201527f206d696e2062616c616e63650000000000000000000000000000000000000000602082015250565b6000611c82602c836111af565b9150611c8d82611c26565b604082019050919050565b60006020820190508181036000830152611cb181611c75565b9050919050565b60008190508160005260206000209050919050565b60006020601f8301049050919050565b600082821b905092915050565b600060088302611d1a7fffffffffffffffffffffffffffffffffffffffffffffffffffffffffffffffff82611cdd565b611d248683611cdd565b95508019841693508086168417925050509392505050565b6000611d57611d52611d4d8461112e565b6116e5565b61112e565b9050919050565b6000819050919050565b611d7183611d3c565b611d85611d7d82611d5e565b848454611cea565b825550505050565b600090565b611d9a611d8d565b611da5818484611d68565b505050565b5b81811015611dc957611dbe600082611d92565b600181019050611dab565b5050565b601f821115611e0e57611ddf81611cb8565b611de884611ccd565b81016020851015611df7578190505b611e0b611e0385611ccd565b830182611daa565b50505b505050565b600082821c905092915050565b6000611e3160001984600802611e13565b1980831691505092915050565b6000611e4a8383611e20565b9150826002028217905092915050565b611e63826111a4565b67ffffffffffffffff811115611e7c57611e7b6113c2565b5b611e868254611850565b611e91828285611dcd565b600060209050601f831160018114611ec45760008415611eb2578287015190505b611ebc8582611e3e565b865550611f24565b601f198416611ed286611cb8565b60005b82811015611efa57848901518255600182019150602085019450602081019050611ed5565b86831015611f175784890151611f13601f891682611e20565b8355505b6001600288020188555050505b505050505050565b7f4e487b7100000000000000000000000000000000000000000000000000000000600052603160045260246000fd5b7f4e487b7100000000000000000000000000000000000000000000000000000000600052601260045260246000fd5b6000611f958261112e565b9150611fa08361112e565b925082611fb057611faf611f5b565b5b82820490509291505056fea2646970667358221220badc090f1cdb381e5f1df79f58b70978404b6b3982032d861e20777e6db19a0264736f6c63430008120033",
  "linkReferences": {},
  "deployedLinkReferences": {}
}