{
  "_format": "hh-sol-artifact-1",
  "contractName": "KubidVoting",
  "sourceName": "contracts/KUBIDvoting.sol",
  "abi": [
    {
      "inputs": [
        {
          "internalType": "address",
          "name": "_kubidToken",
          "type": "address"
        },
        {
          "internalType": "address",
          "name": "_dao",
          "type": "address"
        },
        {
          "internalType": "string",
          "name": "_ipfsHash",
          "type": "string"
        }
      ],
      "stateMutability": "nonpayable",
      "type": "constructor"
    },
    {
      "anonymous": false,
      "inputs": [
        {
          "indexed": true,
          "internalType": "string",
          "name": "newHash",
          "type": "string"
        }
      ],
      "name": "NewIPFSHash",
      "type": "event"
    },
    {
      "anonymous": false,
      "inputs": [
        {
          "indexed": true,
          "internalType": "uint256",
          "name": "proposalId",
          "type": "uint256"
        },
        {
          "indexed": false,
          "internalType": "string",
          "name": "name",
          "type": "string"
        }
      ],
      "name": "NewProposal",
      "type": "event"
    },
    {
      "anonymous": false,
      "inputs": [
        {
          "indexed": true,
          "internalType": "uint256",
          "name": "proposalId",
          "type": "uint256"
        }
      ],
      "name": "ProposalCompleted",
      "type": "event"
    },
    {
      "anonymous": false,
      "inputs": [
        {
          "indexed": true,
          "internalType": "uint256",
          "name": "proposalId",
          "type": "uint256"
        },
        {
          "indexed": true,
          "internalType": "address",
          "name": "voter",
          "type": "address"
        },
        {
          "indexed": false,
          "internalType": "uint256",
          "name": "optionIndex",
          "type": "uint256"
        }
      ],
      "name": "Voted",
      "type": "event"
    },
    {
      "inputs": [
        {
          "internalType": "uint256",
          "name": "",
          "type": "uint256"
        }
      ],
      "name": "activeProposalIndices",
      "outputs": [
        {
          "internalType": "uint256",
          "name": "",
          "type": "uint256"
        }
      ],
      "stateMutability": "view",
      "type": "function"
    },
    {
      "inputs": [
        {
          "internalType": "uint256",
          "name": "",
          "type": "uint256"
        }
      ],
      "name": "activeProposals",
      "outputs": [
        {
          "internalType": "string",
          "name": "name",
          "type": "string"
        },
        {
          "internalType": "string",
          "name": "description",
          "type": "string"
        },
        {
          "internalType": "string",
          "name": "execution",
          "type": "string"
        },
        {
          "internalType": "uint256",
          "name": "totalVotes",
          "type": "uint256"
        },
        {
          "internalType": "uint256",
          "name": "timeInMinutes",
          "type": "uint256"
        },
        {
          "internalType": "uint256",
          "name": "creationTimestamp",
          "type": "uint256"
        }
      ],
      "stateMutability": "view",
      "type": "function"
    },
    {
      "inputs": [],
      "name": "activeProposalsCount",
      "outputs": [
        {
          "internalType": "uint256",
          "name": "",
          "type": "uint256"
        }
      ],
      "stateMutability": "view",
      "type": "function"
    },
    {
      "inputs": [
        {
          "internalType": "address",
          "name": "_newOwner",
          "type": "address"
        }
      ],
      "name": "addOwner",
      "outputs": [],
      "stateMutability": "nonpayable",
      "type": "function"
    },
    {
      "inputs": [
        {
          "internalType": "uint256",
          "name": "",
          "type": "uint256"
        }
      ],
      "name": "completedProposalIndices",
      "outputs": [
        {
          "internalType": "uint256",
          "name": "",
          "type": "uint256"
        }
      ],
      "stateMutability": "view",
      "type": "function"
    },
    {
      "inputs": [],
      "name": "completedProposalsCount",
      "outputs": [
        {
          "internalType": "uint256",
          "name": "",
          "type": "uint256"
        }
      ],
      "stateMutability": "view",
      "type": "function"
    },
    {
      "inputs": [
        {
          "internalType": "string",
          "name": "_name",
          "type": "string"
        },
        {
          "internalType": "string",
          "name": "_description",
          "type": "string"
        },
        {
          "internalType": "string",
          "name": "_execution",
          "type": "string"
        },
        {
          "internalType": "uint256",
          "name": "_timeInMinutes",
          "type": "uint256"
        },
        {
          "internalType": "string[]",
          "name": "_options",
          "type": "string[]"
        }
      ],
      "name": "createProposal",
      "outputs": [],
      "stateMutability": "nonpayable",
      "type": "function"
    },
    {
      "inputs": [],
      "name": "dao",
      "outputs": [
        {
          "internalType": "address",
          "name": "",
          "type": "address"
        }
      ],
      "stateMutability": "view",
      "type": "function"
    },
    {
      "inputs": [],
      "name": "getIPFSHash",
      "outputs": [
        {
          "internalType": "string",
          "name": "",
          "type": "string"
        }
      ],
      "stateMutability": "view",
      "type": "function"
    },
    {
      "inputs": [
        {
          "internalType": "uint256",
          "name": "_proposalId",
          "type": "uint256"
        },
        {
          "internalType": "uint256",
          "name": "_optionIndex",
          "type": "uint256"
        }
      ],
      "name": "getOption",
      "outputs": [
        {
          "internalType": "string",
          "name": "optionName",
          "type": "string"
        },
        {
          "internalType": "uint256",
          "name": "votes",
          "type": "uint256"
        }
      ],
      "stateMutability": "view",
      "type": "function"
    },
    {
      "inputs": [
        {
          "internalType": "uint256",
          "name": "_proposalId",
          "type": "uint256"
        }
      ],
      "name": "getOptionsCount",
      "outputs": [
        {
          "internalType": "uint256",
          "name": "",
          "type": "uint256"
        }
      ],
      "stateMutability": "view",
      "type": "function"
    },
    {
      "inputs": [
        {
          "internalType": "uint256",
          "name": "_completedProposalIndex",
          "type": "uint256"
        }
      ],
      "name": "getWinner",
      "outputs": [
        {
          "internalType": "string",
          "name": "",
          "type": "string"
        }
      ],
      "stateMutability": "view",
      "type": "function"
    },
    {
      "inputs": [],
      "name": "ipfsHash",
      "outputs": [
        {
          "internalType": "string",
          "name": "",
          "type": "string"
        }
      ],
      "stateMutability": "view",
      "type": "function"
    },
    {
      "inputs": [
        {
          "internalType": "address",
          "name": "",
          "type": "address"
        }
      ],
      "name": "isOwner",
      "outputs": [
        {
          "internalType": "bool",
          "name": "",
          "type": "bool"
        }
      ],
      "stateMutability": "view",
      "type": "function"
    },
    {
      "inputs": [],
      "name": "kubidToken",
      "outputs": [
        {
          "internalType": "contract IERC20",
          "name": "",
          "type": "address"
        }
      ],
      "stateMutability": "view",
      "type": "function"
    },
    {
      "inputs": [],
      "name": "moveToCompleted",
      "outputs": [],
      "stateMutability": "nonpayable",
      "type": "function"
    },
    {
      "inputs": [
        {
          "internalType": "address",
          "name": "_owner",
          "type": "address"
        }
      ],
      "name": "removeOwner",
      "outputs": [],
      "stateMutability": "nonpayable",
      "type": "function"
    },
    {
      "inputs": [
        {
          "internalType": "string",
          "name": "_ipfsHash",
          "type": "string"
        }
      ],
      "name": "setIPFSHash",
      "outputs": [],
      "stateMutability": "nonpayable",
      "type": "function"
    },
    {
      "inputs": [
        {
          "internalType": "uint256",
          "name": "_proposalId",
          "type": "uint256"
        },
        {
          "internalType": "address",
          "name": "_voter",
          "type": "address"
        },
        {
          "internalType": "uint256",
          "name": "_optionIndex",
          "type": "uint256"
        }
      ],
      "name": "vote",
      "outputs": [],
      "stateMutability": "nonpayable",
      "type": "function"
    }
  ],
  "bytecode": "0x60806040523480156200001157600080fd5b50604051620029923803806200299283398181016040528101906200003791906200034d565b826000806101000a81548173ffffffffffffffffffffffffffffffffffffffff021916908373ffffffffffffffffffffffffffffffffffffffff16021790555081600160006101000a81548173ffffffffffffffffffffffffffffffffffffffff021916908373ffffffffffffffffffffffffffffffffffffffff1602179055508060029081620000c9919062000613565b506001600660003373ffffffffffffffffffffffffffffffffffffffff1673ffffffffffffffffffffffffffffffffffffffff16815260200190815260200160002060006101000a81548160ff021916908315150217905550600460009080600181540180825580915050600190039060005260206000200160009091909190915055505050620006fa565b6000604051905090565b600080fd5b600080fd5b600073ffffffffffffffffffffffffffffffffffffffff82169050919050565b6000620001968262000169565b9050919050565b620001a88162000189565b8114620001b457600080fd5b50565b600081519050620001c8816200019d565b92915050565b600080fd5b600080fd5b6000601f19601f8301169050919050565b7f4e487b7100000000000000000000000000000000000000000000000000000000600052604160045260246000fd5b6200022382620001d8565b810181811067ffffffffffffffff82111715620002455762000244620001e9565b5b80604052505050565b60006200025a62000155565b905062000268828262000218565b919050565b600067ffffffffffffffff8211156200028b576200028a620001e9565b5b6200029682620001d8565b9050602081019050919050565b60005b83811015620002c3578082015181840152602081019050620002a6565b60008484015250505050565b6000620002e6620002e0846200026d565b6200024e565b905082815260208101848484011115620003055762000304620001d3565b5b62000312848285620002a3565b509392505050565b600082601f830112620003325762000331620001ce565b5b815162000344848260208601620002cf565b91505092915050565b6000806000606084860312156200036957620003686200015f565b5b60006200037986828701620001b7565b93505060206200038c86828701620001b7565b925050604084015167ffffffffffffffff811115620003b057620003af62000164565b5b620003be868287016200031a565b9150509250925092565b600081519050919050565b7f4e487b7100000000000000000000000000000000000000000000000000000000600052602260045260246000fd5b600060028204905060018216806200041b57607f821691505b602082108103620004315762000430620003d3565b5b50919050565b60008190508160005260206000209050919050565b60006020601f8301049050919050565b600082821b905092915050565b6000600883026200049b7fffffffffffffffffffffffffffffffffffffffffffffffffffffffffffffffff826200045c565b620004a786836200045c565b95508019841693508086168417925050509392505050565b6000819050919050565b6000819050919050565b6000620004f4620004ee620004e884620004bf565b620004c9565b620004bf565b9050919050565b6000819050919050565b6200051083620004d3565b620005286200051f82620004fb565b84845462000469565b825550505050565b600090565b6200053f62000530565b6200054c81848462000505565b505050565b5b8181101562000574576200056860008262000535565b60018101905062000552565b5050565b601f821115620005c3576200058d8162000437565b62000598846200044c565b81016020851015620005a8578190505b620005c0620005b7856200044c565b83018262000551565b50505b505050565b600082821c905092915050565b6000620005e860001984600802620005c8565b1980831691505092915050565b6000620006038383620005d5565b9150826002028217905092915050565b6200061e82620003c8565b67ffffffffffffffff8111156200063a5762000639620001e9565b5b62000646825462000402565b6200065382828562000578565b600060209050601f8311600181146200068b576000841562000676578287015190505b620006828582620005f5565b865550620006f2565b601f1984166200069b8662000437565b60005b82811015620006c5578489015182556001820191506020850194506020810190506200069e565b86831015620006e55784890151620006e1601f891682620005d5565b8355505b6001600288020188555050505b505050505050565b612288806200070a6000396000f3fe608060405234801561001057600080fd5b50600436106101215760003560e01c8063517a6257116100ad578063b8a76f5411610071578063b8a76f541461031d578063c623674f14610339578063e40824f814610357578063f9232e1d1461038c578063fb0cb3ca1461039657610121565b8063517a6257146102795780635c5dab67146102a95780637065cb48146102c7578063778d5547146102e35780637f30b7c0146102ff57610121565b80632f54bf6e116100f45780632f54bf6e146101af5780634129b2c9146101df5780634162169f1461020f57806342501dae1461022d5780634de8737c1461025d57610121565b8063173825d9146101265780631ce309271461014257806320b28ade146101735780632116c34714610191575b600080fd5b610140600480360381019061013b91906114ec565b6103c6565b005b61015c6004803603810190610157919061154f565b6104ad565b60405161016a92919061162e565b60405180910390f35b61017b6105a0565b604051610188919061165e565b60405180910390f35b610199610632565b6040516101a69190611680565b60405180910390f35b6101c960048036038101906101c491906114ec565b61064b565b6040516101d691906116b6565b60405180910390f35b6101f960048036038101906101f491906116d1565b61066b565b604051610206919061165e565b60405180910390f35b6102176107fa565b604051610224919061170d565b60405180910390f35b610247600480360381019061024291906116d1565b610820565b6040516102549190611680565b60405180910390f35b61027760048036038101906102729190611728565b610844565b005b610293600480360381019061028e91906116d1565b610b53565b6040516102a09190611680565b60405180910390f35b6102b1610b8a565b6040516102be91906117da565b60405180910390f35b6102e160048036038101906102dc91906114ec565b610bae565b005b6102fd60048036038101906102f89190611a10565b610c95565b005b610307610eca565b6040516103149190611680565b60405180910390f35b61033760048036038101906103329190611afb565b610ed7565b005b610341610fb8565b60405161034e919061165e565b60405180910390f35b610371600480360381019061036c91906116d1565b611046565b60405161038396959493929190611b44565b60405180910390f35b61039461122a565b005b6103b060048036038101906103ab91906116d1565b611456565b6040516103bd9190611680565b60405180910390f35b600660003373ffffffffffffffffffffffffffffffffffffffff1673ffffffffffffffffffffffffffffffffffffffff16815260200190815260200160002060009054906101000a900460ff16610452576040517f08c379a000000000000000000000000000000000000000000000000000000000815260040161044990611c06565b60405180910390fd5b6000600660008373ffffffffffffffffffffffffffffffffffffffff1673ffffffffffffffffffffffffffffffffffffffff16815260200190815260200160002060006101000a81548160ff02191690831515021790555050565b6060600080600385815481106104c6576104c5611c26565b5b9060005260206000209060080201905060008160070185815481106104ee576104ed611c26565b5b9060005260206000209060020201905080600001816001015481805461051390611c84565b80601f016020809104026020016040519081016040528092919081815260200182805461053f90611c84565b801561058c5780601f106105615761010080835404028352916020019161058c565b820191906000526020600020905b81548152906001019060200180831161056f57829003601f168201915b505050505091509350935050509250929050565b6060600280546105af90611c84565b80601f01602080910402602001604051908101604052809291908181526020018280546105db90611c84565b80156106285780601f106105fd57610100808354040283529160200191610628565b820191906000526020600020905b81548152906001019060200180831161060b57829003601f168201915b5050505050905090565b600060016004805490506106469190611ce4565b905090565b60066020528060005260406000206000915054906101000a900460ff1681565b606060006005838154811061068357610682611c26565b5b906000526020600020015490506000600382815481106106a6576106a5611c26565b5b9060005260206000209060080201905060008080600090505b836007018054905081101561073e57828460070182815481106106e5576106e4611c26565b5b906000526020600020906002020160010154111561072b5783600701818154811061071357610712611c26565b5b90600052602060002090600202016001015492508091505b808061073690611d18565b9150506106bf565b5082600701818154811061075557610754611c26565b5b9060005260206000209060020201600001805461077190611c84565b80601f016020809104026020016040519081016040528092919081815260200182805461079d90611c84565b80156107ea5780601f106107bf576101008083540402835291602001916107ea565b820191906000526020600020905b8154815290600101906020018083116107cd57829003601f168201915b5050505050945050505050919050565b600160009054906101000a900473ffffffffffffffffffffffffffffffffffffffff1681565b6004818154811061083057600080fd5b906000526020600020016000915090505481565b8260006003828154811061085b5761085a611c26565b5b90600052602060002090600802019050603c816005015461087c9190611d60565b816006015461088b9190611da2565b4211156108cd576040517f08c379a00000000000000000000000000000000000000000000000000000000081526004016108c490611e22565b60405180910390fd5b6000600386815481106108e3576108e2611c26565b5b9060005260206000209060080201905060008160040160008773ffffffffffffffffffffffffffffffffffffffff1673ffffffffffffffffffffffffffffffffffffffff1681526020019081526020016000205414610977576040517f08c379a000000000000000000000000000000000000000000000000000000000815260040161096e90611e8e565b60405180910390fd5b60008060009054906101000a900473ffffffffffffffffffffffffffffffffffffffff1673ffffffffffffffffffffffffffffffffffffffff166370a08231876040518263ffffffff1660e01b81526004016109d3919061170d565b602060405180830381865afa1580156109f0573d6000803e3d6000fd5b505050506040513d601f19601f82011682018060405250810190610a149190611ec3565b905060008111610a59576040517f08c379a0000000000000000000000000000000000000000000000000000000008152600401610a5090611f3c565b60405180910390fd5b60018260040160008873ffffffffffffffffffffffffffffffffffffffff1673ffffffffffffffffffffffffffffffffffffffff168152602001908152602001600020819055506001826003016000828254610ab59190611da2565b925050819055506001826007018681548110610ad457610ad3611c26565b5b90600052602060002090600202016001016000828254610af49190611da2565b925050819055508573ffffffffffffffffffffffffffffffffffffffff16877f1abe610cf2bf87e57dcc1181fcf5ac0934e843d8344ab9eed6e86c799f62585e87604051610b429190611680565b60405180910390a350505050505050565b60008060038381548110610b6a57610b69611c26565b5b906000526020600020906008020190508060070180549050915050919050565b60008054906101000a900473ffffffffffffffffffffffffffffffffffffffff1681565b600660003373ffffffffffffffffffffffffffffffffffffffff1673ffffffffffffffffffffffffffffffffffffffff16815260200190815260200160002060009054906101000a900460ff16610c3a576040517f08c379a0000000000000000000000000000000000000000000000000000000008152600401610c3190611c06565b60405180910390fd5b6001600660008373ffffffffffffffffffffffffffffffffffffffff1673ffffffffffffffffffffffffffffffffffffffff16815260200190815260200160002060006101000a81548160ff02191690831515021790555050565b600660003373ffffffffffffffffffffffffffffffffffffffff1673ffffffffffffffffffffffffffffffffffffffff16815260200190815260200160002060009054906101000a900460ff16610d21576040517f08c379a0000000000000000000000000000000000000000000000000000000008152600401610d1890611c06565b60405180910390fd5b600060038054905090506004819080600181540180825580915050600190039060005260206000200160009091909190915055600360018160018154018082558091505003906000526020600020905050600060038281548110610d8857610d87611c26565b5b9060005260206000209060080201905086816000019081610da991906120fe565b5085816001019081610dbb91906120fe565b5084816002019081610dcd91906120fe565b506000816003018190555083816005018190555042816006018190555060005b8351811015610e8857816007016040518060400160405280868481518110610e1857610e17611c26565b5b60200260200101518152602001600081525090806001815401808255809150506001900390600052602060002090600202016000909190919091506000820151816000019081610e6891906120fe565b506020820151816001015550508080610e8090611d18565b915050610ded565b50817fa9ef596c73fbcfb4a78bc139b1a19c35247c1f37d2489c0513ad2dd3eb7d8c6b88604051610eb9919061165e565b60405180910390a250505050505050565b6000600580549050905090565b600660003373ffffffffffffffffffffffffffffffffffffffff1673ffffffffffffffffffffffffffffffffffffffff16815260200190815260200160002060009054906101000a900460ff16610f63576040517f08c379a0000000000000000000000000000000000000000000000000000000008152600401610f5a90611c06565b60405180910390fd5b8060029081610f7291906120fe565b5080604051610f81919061220c565b60405180910390207f37859dd8d1940a4cba3d502dd5409ffd529824471ca7cde7e604253be94f1eef60405160405180910390a250565b60028054610fc590611c84565b80601f0160208091040260200160405190810160405280929190818152602001828054610ff190611c84565b801561103e5780601f106110135761010080835404028352916020019161103e565b820191906000526020600020905b81548152906001019060200180831161102157829003601f168201915b505050505081565b6003818154811061105657600080fd5b906000526020600020906008020160009150905080600001805461107990611c84565b80601f01602080910402602001604051908101604052809291908181526020018280546110a590611c84565b80156110f25780601f106110c7576101008083540402835291602001916110f2565b820191906000526020600020905b8154815290600101906020018083116110d557829003601f168201915b50505050509080600101805461110790611c84565b80601f016020809104026020016040519081016040528092919081815260200182805461113390611c84565b80156111805780601f1061115557610100808354040283529160200191611180565b820191906000526020600020905b81548152906001019060200180831161116357829003601f168201915b50505050509080600201805461119590611c84565b80601f01602080910402602001604051908101604052809291908181526020018280546111c190611c84565b801561120e5780601f106111e35761010080835404028352916020019161120e565b820191906000526020600020905b8154815290600101906020018083116111f157829003601f168201915b5050505050908060030154908060050154908060060154905086565b600660003373ffffffffffffffffffffffffffffffffffffffff1673ffffffffffffffffffffffffffffffffffffffff16815260200190815260200160002060009054906101000a900460ff166112b6576040517f08c379a00000000000000000000000000000000000000000000000000000000081526004016112ad90611c06565b60405180910390fd5b6000600190505b600480549050811015611453576000600482815481106112e0576112df611c26565b5b9060005260206000200154905060006003828154811061130357611302611c26565b5b90600052602060002090600802019050603c81600501546113249190611d60565b81600601546113339190611da2565b42111561143d576005829080600181540180825580915050600190039060005260206000200160009091909190915055817f71611adb0c8d2eea43359b2e41e5fdf96309ce734ed1eb78ceb763198c1b896760405160405180910390a260008390505b60016004805490506113a89190611ce4565b81101561140f5760046001826113be9190611da2565b815481106113cf576113ce611c26565b5b9060005260206000200154600482815481106113ee576113ed611c26565b5b9060005260206000200181905550808061140790611d18565b915050611396565b50600480548061142257611421612223565b5b6001900381819060005260206000200160009055905561144c565b828061144890611d18565b9350505b50506112bd565b50565b6005818154811061146657600080fd5b906000526020600020016000915090505481565b6000604051905090565b600080fd5b600080fd5b600073ffffffffffffffffffffffffffffffffffffffff82169050919050565b60006114b98261148e565b9050919050565b6114c9816114ae565b81146114d457600080fd5b50565b6000813590506114e6816114c0565b92915050565b60006020828403121561150257611501611484565b5b6000611510848285016114d7565b91505092915050565b6000819050919050565b61152c81611519565b811461153757600080fd5b50565b60008135905061154981611523565b92915050565b6000806040838503121561156657611565611484565b5b60006115748582860161153a565b92505060206115858582860161153a565b9150509250929050565b600081519050919050565b600082825260208201905092915050565b60005b838110156115c95780820151818401526020810190506115ae565b60008484015250505050565b6000601f19601f8301169050919050565b60006115f18261158f565b6115fb818561159a565b935061160b8185602086016115ab565b611614816115d5565b840191505092915050565b61162881611519565b82525050565b6000604082019050818103600083015261164881856115e6565b9050611657602083018461161f565b9392505050565b6000602082019050818103600083015261167881846115e6565b905092915050565b6000602082019050611695600083018461161f565b92915050565b60008115159050919050565b6116b08161169b565b82525050565b60006020820190506116cb60008301846116a7565b92915050565b6000602082840312156116e7576116e6611484565b5b60006116f58482850161153a565b91505092915050565b611707816114ae565b82525050565b600060208201905061172260008301846116fe565b92915050565b60008060006060848603121561174157611740611484565b5b600061174f8682870161153a565b9350506020611760868287016114d7565b92505060406117718682870161153a565b9150509250925092565b6000819050919050565b60006117a061179b6117968461148e565b61177b565b61148e565b9050919050565b60006117b282611785565b9050919050565b60006117c4826117a7565b9050919050565b6117d4816117b9565b82525050565b60006020820190506117ef60008301846117cb565b92915050565b600080fd5b600080fd5b7f4e487b7100000000000000000000000000000000000000000000000000000000600052604160045260246000fd5b611837826115d5565b810181811067ffffffffffffffff82111715611856576118556117ff565b5b80604052505050565b600061186961147a565b9050611875828261182e565b919050565b600067ffffffffffffffff821115611895576118946117ff565b5b61189e826115d5565b9050602081019050919050565b82818337600083830152505050565b60006118cd6118c88461187a565b61185f565b9050828152602081018484840111156118e9576118e86117fa565b5b6118f48482856118ab565b509392505050565b600082601f830112611911576119106117f5565b5b81356119218482602086016118ba565b91505092915050565b600067ffffffffffffffff821115611945576119446117ff565b5b602082029050602081019050919050565b600080fd5b600061196e6119698461192a565b61185f565b9050808382526020820190506020840283018581111561199157611990611956565b5b835b818110156119d857803567ffffffffffffffff8111156119b6576119b56117f5565b5b8086016119c389826118fc565b85526020850194505050602081019050611993565b5050509392505050565b600082601f8301126119f7576119f66117f5565b5b8135611a0784826020860161195b565b91505092915050565b600080600080600060a08688031215611a2c57611a2b611484565b5b600086013567ffffffffffffffff811115611a4a57611a49611489565b5b611a56888289016118fc565b955050602086013567ffffffffffffffff811115611a7757611a76611489565b5b611a83888289016118fc565b945050604086013567ffffffffffffffff811115611aa457611aa3611489565b5b611ab0888289016118fc565b9350506060611ac18882890161153a565b925050608086013567ffffffffffffffff811115611ae257611ae1611489565b5b611aee888289016119e2565b9150509295509295909350565b600060208284031215611b1157611b10611484565b5b600082013567ffffffffffffffff811115611b2f57611b2e611489565b5b611b3b848285016118fc565b91505092915050565b600060c0820190508181036000830152611b5e81896115e6565b90508181036020830152611b7281886115e6565b90508181036040830152611b8681876115e6565b9050611b95606083018661161f565b611ba2608083018561161f565b611baf60a083018461161f565b979650505050505050565b7f43616c6c6572206973206e6f7420616e206f776e657200000000000000000000600082015250565b6000611bf060168361159a565b9150611bfb82611bba565b602082019050919050565b60006020820190508181036000830152611c1f81611be3565b9050919050565b7f4e487b7100000000000000000000000000000000000000000000000000000000600052603260045260246000fd5b7f4e487b7100000000000000000000000000000000000000000000000000000000600052602260045260246000fd5b60006002820490506001821680611c9c57607f821691505b602082108103611caf57611cae611c55565b5b50919050565b7f4e487b7100000000000000000000000000000000000000000000000000000000600052601160045260246000fd5b6000611cef82611519565b9150611cfa83611519565b9250828203905081811115611d1257611d11611cb5565b5b92915050565b6000611d2382611519565b91507fffffffffffffffffffffffffffffffffffffffffffffffffffffffffffffffff8203611d5557611d54611cb5565b5b600182019050919050565b6000611d6b82611519565b9150611d7683611519565b9250828202611d8481611519565b91508282048414831517611d9b57611d9a611cb5565b5b5092915050565b6000611dad82611519565b9150611db883611519565b9250828201905080821115611dd057611dcf611cb5565b5b92915050565b7f566f74696e672074696d65206578706972656400000000000000000000000000600082015250565b6000611e0c60138361159a565b9150611e1782611dd6565b602082019050919050565b60006020820190508181036000830152611e3b81611dff565b9050919050565b7f416c726561647920766f74656400000000000000000000000000000000000000600082015250565b6000611e78600d8361159a565b9150611e8382611e42565b602082019050919050565b60006020820190508181036000830152611ea781611e6b565b9050919050565b600081519050611ebd81611523565b92915050565b600060208284031215611ed957611ed8611484565b5b6000611ee784828501611eae565b91505092915050565b7f4e6f204b5542494420746f6b656e730000000000000000000000000000000000600082015250565b6000611f26600f8361159a565b9150611f3182611ef0565b602082019050919050565b60006020820190508181036000830152611f5581611f19565b9050919050565b60008190508160005260206000209050919050565b60006020601f8301049050919050565b600082821b905092915050565b600060088302611fbe7fffffffffffffffffffffffffffffffffffffffffffffffffffffffffffffffff82611f81565b611fc88683611f81565b95508019841693508086168417925050509392505050565b6000611ffb611ff6611ff184611519565b61177b565b611519565b9050919050565b6000819050919050565b61201583611fe0565b61202961202182612002565b848454611f8e565b825550505050565b600090565b61203e612031565b61204981848461200c565b505050565b5b8181101561206d57612062600082612036565b60018101905061204f565b5050565b601f8211156120b25761208381611f5c565b61208c84611f71565b8101602085101561209b578190505b6120af6120a785611f71565b83018261204e565b50505b505050565b600082821c905092915050565b60006120d5600019846008026120b7565b1980831691505092915050565b60006120ee83836120c4565b9150826002028217905092915050565b6121078261158f565b67ffffffffffffffff8111156121205761211f6117ff565b5b61212a8254611c84565b612135828285612071565b600060209050601f8311600181146121685760008415612156578287015190505b61216085826120e2565b8655506121c8565b601f19841661217686611f5c565b60005b8281101561219e57848901518255600182019150602085019450602081019050612179565b868310156121bb57848901516121b7601f8916826120c4565b8355505b6001600288020188555050505b505050505050565b600081905092915050565b60006121e68261158f565b6121f081856121d0565b93506122008185602086016115ab565b80840191505092915050565b600061221882846121db565b915081905092915050565b7f4e487b7100000000000000000000000000000000000000000000000000000000600052603160045260246000fdfea264697066735822122042128d763e52de01219df14fee4a9b6177e7a153ede931d68b197b7160e143a164736f6c63430008120033",
  "linkReferences": {},
  "deployedLinkReferences": {}
}