{
  "_format": "hh-sol-artifact-1",
  "contractName": "KubixVoting",
  "sourceName": "contracts/KUBIXvoting.sol",
  "abi": [
    {
      "inputs": [
        {
          "internalType": "address",
          "name": "_kubixToken",
          "type": "address"
        },
        {
          "internalType": "address",
          "name": "_dao",
          "type": "address"
        }
      ],
      "stateMutability": "nonpayable",
      "type": "constructor"
    },
    {
      "anonymous": false,
      "inputs": [
        {
          "indexed": true,
          "internalType": "uint256",
          "name": "proposalId",
          "type": "uint256"
        },
        {
          "indexed": false,
          "internalType": "string",
          "name": "name",
          "type": "string"
        }
      ],
      "name": "NewProposal",
      "type": "event"
    },
    {
      "inputs": [
        {
          "internalType": "uint256",
          "name": "_proposalId",
          "type": "uint256"
        },
        {
          "internalType": "uint256",
          "name": "_balance",
          "type": "uint256"
        }
      ],
      "name": "calculateVoteWeight",
      "outputs": [
        {
          "internalType": "uint256",
          "name": "",
          "type": "uint256"
        }
      ],
      "stateMutability": "view",
      "type": "function"
    },
    {
      "inputs": [
        {
          "internalType": "string",
          "name": "_name",
          "type": "string"
        },
        {
          "internalType": "string",
          "name": "_description",
          "type": "string"
        },
        {
          "internalType": "string",
          "name": "_execution",
          "type": "string"
        },
        {
          "internalType": "uint256",
          "name": "_maxBalance",
          "type": "uint256"
        },
        {
          "internalType": "uint256",
          "name": "_minBalance",
          "type": "uint256"
        },
        {
          "internalType": "uint256",
          "name": "_timeInMinutes",
          "type": "uint256"
        },
        {
          "internalType": "string[]",
          "name": "_options",
          "type": "string[]"
        }
      ],
      "name": "createProposal",
      "outputs": [],
      "stateMutability": "nonpayable",
      "type": "function"
    },
    {
      "inputs": [],
      "name": "dao",
      "outputs": [
        {
          "internalType": "address",
          "name": "",
          "type": "address"
        }
      ],
      "stateMutability": "view",
      "type": "function"
    },
    {
      "inputs": [
        {
          "internalType": "uint256",
          "name": "_proposalId",
          "type": "uint256"
        }
      ],
      "name": "getWinner",
      "outputs": [
        {
          "internalType": "string",
          "name": "",
          "type": "string"
        }
      ],
      "stateMutability": "view",
      "type": "function"
    },
    {
      "inputs": [],
      "name": "kubixToken",
      "outputs": [
        {
          "internalType": "contract IERC20",
          "name": "",
          "type": "address"
        }
      ],
      "stateMutability": "view",
      "type": "function"
    },
    {
      "inputs": [
        {
          "internalType": "uint256",
          "name": "",
          "type": "uint256"
        }
      ],
      "name": "proposals",
      "outputs": [
        {
          "internalType": "string",
          "name": "name",
          "type": "string"
        },
        {
          "internalType": "string",
          "name": "description",
          "type": "string"
        },
        {
          "internalType": "string",
          "name": "execution",
          "type": "string"
        },
        {
          "internalType": "uint256",
          "name": "totalVotes",
          "type": "uint256"
        },
        {
          "internalType": "uint256",
          "name": "maxBalance",
          "type": "uint256"
        },
        {
          "internalType": "uint256",
          "name": "minBalance",
          "type": "uint256"
        },
        {
          "internalType": "uint256",
          "name": "timeInMinutes",
          "type": "uint256"
        },
        {
          "internalType": "uint256",
          "name": "creationTimestamp",
          "type": "uint256"
        }
      ],
      "stateMutability": "view",
      "type": "function"
    },
    {
      "inputs": [],
      "name": "proposalsCount",
      "outputs": [
        {
          "internalType": "uint256",
          "name": "",
          "type": "uint256"
        }
      ],
      "stateMutability": "view",
      "type": "function"
    },
    {
      "inputs": [
        {
          "internalType": "uint256",
          "name": "_proposalId",
          "type": "uint256"
        },
        {
          "internalType": "address",
          "name": "_voter",
          "type": "address"
        },
        {
          "internalType": "uint256",
          "name": "_optionIndex",
          "type": "uint256"
        }
      ],
      "name": "vote",
      "outputs": [],
      "stateMutability": "nonpayable",
      "type": "function"
    }
  ],
  "bytecode": "0x60806040523480156200001157600080fd5b5060405162001b7238038062001b7283398181016040528101906200003791906200012a565b816000806101000a81548173ffffffffffffffffffffffffffffffffffffffff021916908373ffffffffffffffffffffffffffffffffffffffff16021790555080600160006101000a81548173ffffffffffffffffffffffffffffffffffffffff021916908373ffffffffffffffffffffffffffffffffffffffff160217905550505062000171565b600080fd5b600073ffffffffffffffffffffffffffffffffffffffff82169050919050565b6000620000f282620000c5565b9050919050565b6200010481620000e5565b81146200011057600080fd5b50565b6000815190506200012481620000f9565b92915050565b60008060408385031215620001445762000143620000c0565b5b6000620001548582860162000113565b9250506020620001678582860162000113565b9150509250929050565b6119f180620001816000396000f3fe608060405234801561001057600080fd5b50600436106100885760003560e01c80634de8737c1161005b5780634de8737c146101305780637775f7da1461014c578063a52bc6e214610168578063e0fdcc421461018657610088565b8063013cf08b1461008d5780630a9f46ad146100c45780634129b2c9146100e25780634162169f14610112575b600080fd5b6100a760048036038101906100a29190610bc3565b6101b6565b6040516100bb989796959493929190610c8f565b60405180910390f35b6100cc6103a6565b6040516100d99190610d22565b60405180910390f35b6100fc60048036038101906100f79190610bc3565b6103b3565b6040516101099190610d3d565b60405180910390f35b61011a61051e565b6040516101279190610da0565b60405180910390f35b61014a60048036038101906101459190610de7565b610544565b005b61016660048036038101906101619190611055565b610824565b005b610170610acd565b60405161017d91906111c6565b60405180910390f35b6101a0600480360381019061019b91906111e1565b610af1565b6040516101ad9190610d22565b60405180910390f35b600281815481106101c657600080fd5b90600052602060002090600a02016000915090508060000180546101e990611250565b80601f016020809104026020016040519081016040528092919081815260200182805461021590611250565b80156102625780601f1061023757610100808354040283529160200191610262565b820191906000526020600020905b81548152906001019060200180831161024557829003601f168201915b50505050509080600101805461027790611250565b80601f01602080910402602001604051908101604052809291908181526020018280546102a390611250565b80156102f05780601f106102c5576101008083540402835291602001916102f0565b820191906000526020600020905b8154815290600101906020018083116102d357829003601f168201915b50505050509080600201805461030590611250565b80601f016020809104026020016040519081016040528092919081815260200182805461033190611250565b801561037e5780601f106103535761010080835404028352916020019161037e565b820191906000526020600020905b81548152906001019060200180831161036157829003601f168201915b5050505050908060030154908060050154908060060154908060070154908060080154905088565b6000600280549050905090565b60606000600283815481106103cb576103ca611281565b5b90600052602060002090600a0201905060008080600090505b8360090180549050811015610463578284600901828154811061040a57610409611281565b5b90600052602060002090600202016001015411156104505783600901818154811061043857610437611281565b5b90600052602060002090600202016001015492508091505b808061045b906112df565b9150506103e4565b5082600901818154811061047a57610479611281565b5b9060005260206000209060020201600001805461049690611250565b80601f01602080910402602001604051908101604052809291908181526020018280546104c290611250565b801561050f5780601f106104e45761010080835404028352916020019161050f565b820191906000526020600020905b8154815290600101906020018083116104f257829003601f168201915b50505050509350505050919050565b600160009054906101000a900473ffffffffffffffffffffffffffffffffffffffff1681565b8260006002828154811061055b5761055a611281565b5b90600052602060002090600a02019050603c816007015461057c9190611327565b816008015461058b9190611369565b4211156105cd576040517f08c379a00000000000000000000000000000000000000000000000000000000081526004016105c4906113e9565b60405180910390fd5b6000600286815481106105e3576105e2611281565b5b90600052602060002090600a0201905060008160040160008773ffffffffffffffffffffffffffffffffffffffff1673ffffffffffffffffffffffffffffffffffffffff1681526020019081526020016000205414610677576040517f08c379a000000000000000000000000000000000000000000000000000000000815260040161066e90611455565b60405180910390fd5b60008060009054906101000a900473ffffffffffffffffffffffffffffffffffffffff1673ffffffffffffffffffffffffffffffffffffffff166370a08231876040518263ffffffff1660e01b81526004016106d39190610da0565b602060405180830381865afa1580156106f0573d6000803e3d6000fd5b505050506040513d601f19601f82011682018060405250810190610714919061148a565b905060008111610759576040517f08c379a000000000000000000000000000000000000000000000000000000000815260040161075090611503565b60405180910390fd5b816005015481111561076d57816005015490505b60006107798883610af1565b90508083600301600082825461078f9190611369565b92505081905550808360040160008973ffffffffffffffffffffffffffffffffffffffff1673ffffffffffffffffffffffffffffffffffffffff16815260200190815260200160002081905550808360090187815481106107f3576107f2611281565b5b906000526020600020906002020160010160008282546108139190611369565b925050819055505050505050505050565b600160009054906101000a900473ffffffffffffffffffffffffffffffffffffffff1673ffffffffffffffffffffffffffffffffffffffff163373ffffffffffffffffffffffffffffffffffffffff16146108b4576040517f08c379a00000000000000000000000000000000000000000000000000000000081526004016108ab9061156f565b60405180910390fd5b600083116108f7576040517f08c379a00000000000000000000000000000000000000000000000000000000081526004016108ee90611601565b60405180910390fd5b828411610939576040517f08c379a000000000000000000000000000000000000000000000000000000000815260040161093090611693565b60405180910390fd5b6000600280549050905060026001816001815401808255809150500390600052602060002090505060006002828154811061097757610976611281565b5b90600052602060002090600a02019050888160000190816109989190611855565b50878160010190816109aa9190611855565b50868160020190816109bc9190611855565b506000816003018190555085816005018190555084816006018190555083816007018190555042816008018190555060005b8351811015610a8957816009016040518060400160405280868481518110610a1957610a18611281565b5b60200260200101518152602001600081525090806001815401808255809150506001900390600052602060002090600202016000909190919091506000820151816000019081610a699190611855565b506020820151816001015550508080610a81906112df565b9150506109ee565b50817fa9ef596c73fbcfb4a78bc139b1a19c35247c1f37d2489c0513ad2dd3eb7d8c6b8a604051610aba9190610d3d565b60405180910390a2505050505050505050565b60008054906101000a900473ffffffffffffffffffffffffffffffffffffffff1681565b60008060028481548110610b0857610b07611281565b5b90600052602060002090600a02019050600081600601548260050154610b2e9190611927565b90506000826006015485610b429190611927565b90506000600183600384610b569190611327565b610b60919061198a565b610b6a9190611369565b90508094505050505092915050565b6000604051905090565b600080fd5b600080fd5b6000819050919050565b610ba081610b8d565b8114610bab57600080fd5b50565b600081359050610bbd81610b97565b92915050565b600060208284031215610bd957610bd8610b83565b5b6000610be784828501610bae565b91505092915050565b600081519050919050565b600082825260208201905092915050565b60005b83811015610c2a578082015181840152602081019050610c0f565b60008484015250505050565b6000601f19601f8301169050919050565b6000610c5282610bf0565b610c5c8185610bfb565b9350610c6c818560208601610c0c565b610c7581610c36565b840191505092915050565b610c8981610b8d565b82525050565b6000610100820190508181036000830152610caa818b610c47565b90508181036020830152610cbe818a610c47565b90508181036040830152610cd28189610c47565b9050610ce16060830188610c80565b610cee6080830187610c80565b610cfb60a0830186610c80565b610d0860c0830185610c80565b610d1560e0830184610c80565b9998505050505050505050565b6000602082019050610d376000830184610c80565b92915050565b60006020820190508181036000830152610d578184610c47565b905092915050565b600073ffffffffffffffffffffffffffffffffffffffff82169050919050565b6000610d8a82610d5f565b9050919050565b610d9a81610d7f565b82525050565b6000602082019050610db56000830184610d91565b92915050565b610dc481610d7f565b8114610dcf57600080fd5b50565b600081359050610de181610dbb565b92915050565b600080600060608486031215610e0057610dff610b83565b5b6000610e0e86828701610bae565b9350506020610e1f86828701610dd2565b9250506040610e3086828701610bae565b9150509250925092565b600080fd5b600080fd5b7f4e487b7100000000000000000000000000000000000000000000000000000000600052604160045260246000fd5b610e7c82610c36565b810181811067ffffffffffffffff82111715610e9b57610e9a610e44565b5b80604052505050565b6000610eae610b79565b9050610eba8282610e73565b919050565b600067ffffffffffffffff821115610eda57610ed9610e44565b5b610ee382610c36565b9050602081019050919050565b82818337600083830152505050565b6000610f12610f0d84610ebf565b610ea4565b905082815260208101848484011115610f2e57610f2d610e3f565b5b610f39848285610ef0565b509392505050565b600082601f830112610f5657610f55610e3a565b5b8135610f66848260208601610eff565b91505092915050565b600067ffffffffffffffff821115610f8a57610f89610e44565b5b602082029050602081019050919050565b600080fd5b6000610fb3610fae84610f6f565b610ea4565b90508083825260208201905060208402830185811115610fd657610fd5610f9b565b5b835b8181101561101d57803567ffffffffffffffff811115610ffb57610ffa610e3a565b5b8086016110088982610f41565b85526020850194505050602081019050610fd8565b5050509392505050565b600082601f83011261103c5761103b610e3a565b5b813561104c848260208601610fa0565b91505092915050565b600080600080600080600060e0888a03121561107457611073610b83565b5b600088013567ffffffffffffffff81111561109257611091610b88565b5b61109e8a828b01610f41565b975050602088013567ffffffffffffffff8111156110bf576110be610b88565b5b6110cb8a828b01610f41565b965050604088013567ffffffffffffffff8111156110ec576110eb610b88565b5b6110f88a828b01610f41565b95505060606111098a828b01610bae565b945050608061111a8a828b01610bae565b93505060a061112b8a828b01610bae565b92505060c088013567ffffffffffffffff81111561114c5761114b610b88565b5b6111588a828b01611027565b91505092959891949750929550565b6000819050919050565b600061118c61118761118284610d5f565b611167565b610d5f565b9050919050565b600061119e82611171565b9050919050565b60006111b082611193565b9050919050565b6111c0816111a5565b82525050565b60006020820190506111db60008301846111b7565b92915050565b600080604083850312156111f8576111f7610b83565b5b600061120685828601610bae565b925050602061121785828601610bae565b9150509250929050565b7f4e487b7100000000000000000000000000000000000000000000000000000000600052602260045260246000fd5b6000600282049050600182168061126857607f821691505b60208210810361127b5761127a611221565b5b50919050565b7f4e487b7100000000000000000000000000000000000000000000000000000000600052603260045260246000fd5b7f4e487b7100000000000000000000000000000000000000000000000000000000600052601160045260246000fd5b60006112ea82610b8d565b91507fffffffffffffffffffffffffffffffffffffffffffffffffffffffffffffffff820361131c5761131b6112b0565b5b600182019050919050565b600061133282610b8d565b915061133d83610b8d565b925082820261134b81610b8d565b91508282048414831517611362576113616112b0565b5b5092915050565b600061137482610b8d565b915061137f83610b8d565b9250828201905080821115611397576113966112b0565b5b92915050565b7f566f74696e672074696d65206578706972656400000000000000000000000000600082015250565b60006113d3601383610bfb565b91506113de8261139d565b602082019050919050565b60006020820190508181036000830152611402816113c6565b9050919050565b7f416c726561647920766f74656400000000000000000000000000000000000000600082015250565b600061143f600d83610bfb565b915061144a82611409565b602082019050919050565b6000602082019050818103600083015261146e81611432565b9050919050565b60008151905061148481610b97565b92915050565b6000602082840312156114a05761149f610b83565b5b60006114ae84828501611475565b91505092915050565b7f4e6f204b5542495820746f6b656e730000000000000000000000000000000000600082015250565b60006114ed600f83610bfb565b91506114f8826114b7565b602082019050919050565b6000602082019050818103600083015261151c816114e0565b9050919050565b7f4f6e6c792044414f2063616e2063616c6c20746869732066756e6374696f6e00600082015250565b6000611559601f83610bfb565b915061156482611523565b602082019050919050565b600060208201905081810360008301526115888161154c565b9050919050565b7f4d696e2062616c616e6365206d7573742062652067726561746572207468616e60008201527f2030000000000000000000000000000000000000000000000000000000000000602082015250565b60006115eb602283610bfb565b91506115f68261158f565b604082019050919050565b6000602082019050818103600083015261161a816115de565b9050919050565b7f4d61782062616c616e6365206d7573742062652067726561746572207468616e60008201527f206d696e2062616c616e63650000000000000000000000000000000000000000602082015250565b600061167d602c83610bfb565b915061168882611621565b604082019050919050565b600060208201905081810360008301526116ac81611670565b9050919050565b60008190508160005260206000209050919050565b60006020601f8301049050919050565b600082821b905092915050565b6000600883026117157fffffffffffffffffffffffffffffffffffffffffffffffffffffffffffffffff826116d8565b61171f86836116d8565b95508019841693508086168417925050509392505050565b600061175261174d61174884610b8d565b611167565b610b8d565b9050919050565b6000819050919050565b61176c83611737565b61178061177882611759565b8484546116e5565b825550505050565b600090565b611795611788565b6117a0818484611763565b505050565b5b818110156117c4576117b960008261178d565b6001810190506117a6565b5050565b601f821115611809576117da816116b3565b6117e3846116c8565b810160208510156117f2578190505b6118066117fe856116c8565b8301826117a5565b50505b505050565b600082821c905092915050565b600061182c6000198460080261180e565b1980831691505092915050565b6000611845838361181b565b9150826002028217905092915050565b61185e82610bf0565b67ffffffffffffffff81111561187757611876610e44565b5b6118818254611250565b61188c8282856117c8565b600060209050601f8311600181146118bf57600084156118ad578287015190505b6118b78582611839565b86555061191f565b601f1984166118cd866116b3565b60005b828110156118f5578489015182556001820191506020850194506020810190506118d0565b86831015611912578489015161190e601f89168261181b565b8355505b6001600288020188555050505b505050505050565b600061193282610b8d565b915061193d83610b8d565b9250828203905081811115611955576119546112b0565b5b92915050565b7f4e487b7100000000000000000000000000000000000000000000000000000000600052601260045260246000fd5b600061199582610b8d565b91506119a083610b8d565b9250826119b0576119af61195b565b5b82820490509291505056fea2646970667358221220251857c6c856a3e8eca53e5021f08b8515a7eec30caabf6a8ba77e629000d9cc64736f6c63430008120033",
  "linkReferences": {},
  "deployedLinkReferences": {}
}