{
  "_format": "hh-sol-artifact-1",
  "contractName": "KUBIExecutiveNFT",
  "sourceName": "contracts/KUBIExecutiveNFT.sol",
  "abi": [
    {
      "inputs": [
        {
          "internalType": "string",
          "name": "_baseTokenURI",
          "type": "string"
        }
      ],
      "stateMutability": "nonpayable",
      "type": "constructor"
    },
    {
      "anonymous": false,
      "inputs": [
        {
          "indexed": true,
          "internalType": "address",
          "name": "owner",
          "type": "address"
        },
        {
          "indexed": true,
          "internalType": "address",
          "name": "approved",
          "type": "address"
        },
        {
          "indexed": true,
          "internalType": "uint256",
          "name": "tokenId",
          "type": "uint256"
        }
      ],
      "name": "Approval",
      "type": "event"
    },
    {
      "anonymous": false,
      "inputs": [
        {
          "indexed": true,
          "internalType": "address",
          "name": "owner",
          "type": "address"
        },
        {
          "indexed": true,
          "internalType": "address",
          "name": "operator",
          "type": "address"
        },
        {
          "indexed": false,
          "internalType": "bool",
          "name": "approved",
          "type": "bool"
        }
      ],
      "name": "ApprovalForAll",
      "type": "event"
    },
    {
      "anonymous": false,
      "inputs": [
        {
          "indexed": true,
          "internalType": "address",
          "name": "previousOwner",
          "type": "address"
        },
        {
          "indexed": true,
          "internalType": "address",
          "name": "newOwner",
          "type": "address"
        }
      ],
      "name": "OwnershipTransferred",
      "type": "event"
    },
    {
      "anonymous": false,
      "inputs": [
        {
          "indexed": true,
          "internalType": "address",
          "name": "from",
          "type": "address"
        },
        {
          "indexed": true,
          "internalType": "address",
          "name": "to",
          "type": "address"
        },
        {
          "indexed": true,
          "internalType": "uint256",
          "name": "tokenId",
          "type": "uint256"
        }
      ],
      "name": "Transfer",
      "type": "event"
    },
    {
      "inputs": [
        {
          "internalType": "address",
          "name": "",
          "type": "address"
        },
        {
          "internalType": "uint256",
          "name": "",
          "type": "uint256"
        }
      ],
      "name": "approve",
      "outputs": [],
      "stateMutability": "nonpayable",
      "type": "function"
    },
    {
      "inputs": [
        {
          "internalType": "address",
          "name": "owner",
          "type": "address"
        }
      ],
      "name": "balanceOf",
      "outputs": [
        {
          "internalType": "uint256",
          "name": "",
          "type": "uint256"
        }
      ],
      "stateMutability": "view",
      "type": "function"
    },
    {
      "inputs": [
        {
          "internalType": "uint256",
          "name": "tokenId",
          "type": "uint256"
        }
      ],
      "name": "getApproved",
      "outputs": [
        {
          "internalType": "address",
          "name": "",
          "type": "address"
        }
      ],
      "stateMutability": "view",
      "type": "function"
    },
    {
      "inputs": [
        {
          "internalType": "address",
          "name": "_address",
          "type": "address"
        }
      ],
      "name": "getTermLimit",
      "outputs": [
        {
          "internalType": "uint256",
          "name": "",
          "type": "uint256"
        }
      ],
      "stateMutability": "view",
      "type": "function"
    },
    {
      "inputs": [
        {
          "internalType": "address",
          "name": "owner",
          "type": "address"
        },
        {
          "internalType": "address",
          "name": "operator",
          "type": "address"
        }
      ],
      "name": "isApprovedForAll",
      "outputs": [
        {
          "internalType": "bool",
          "name": "",
          "type": "bool"
        }
      ],
      "stateMutability": "view",
      "type": "function"
    },
    {
      "inputs": [
        {
          "internalType": "address",
          "name": "_address",
          "type": "address"
        }
      ],
      "name": "mint",
      "outputs": [],
      "stateMutability": "nonpayable",
      "type": "function"
    },
    {
      "inputs": [],
      "name": "name",
      "outputs": [
        {
          "internalType": "string",
          "name": "",
          "type": "string"
        }
      ],
      "stateMutability": "view",
      "type": "function"
    },
    {
      "inputs": [],
      "name": "owner",
      "outputs": [
        {
          "internalType": "address",
          "name": "",
          "type": "address"
        }
      ],
      "stateMutability": "view",
      "type": "function"
    },
    {
      "inputs": [
        {
          "internalType": "uint256",
          "name": "tokenId",
          "type": "uint256"
        }
      ],
      "name": "ownerOf",
      "outputs": [
        {
          "internalType": "address",
          "name": "",
          "type": "address"
        }
      ],
      "stateMutability": "view",
      "type": "function"
    },
    {
      "inputs": [],
      "name": "renounceOwnership",
      "outputs": [],
      "stateMutability": "nonpayable",
      "type": "function"
    },
    {
      "inputs": [
        {
          "internalType": "address",
          "name": "from",
          "type": "address"
        },
        {
          "internalType": "address",
          "name": "to",
          "type": "address"
        },
        {
          "internalType": "uint256",
          "name": "tokenId",
          "type": "uint256"
        }
      ],
      "name": "safeTransferFrom",
      "outputs": [],
      "stateMutability": "nonpayable",
      "type": "function"
    },
    {
      "inputs": [
        {
          "internalType": "address",
          "name": "from",
          "type": "address"
        },
        {
          "internalType": "address",
          "name": "to",
          "type": "address"
        },
        {
          "internalType": "uint256",
          "name": "tokenId",
          "type": "uint256"
        },
        {
          "internalType": "bytes",
          "name": "data",
          "type": "bytes"
        }
      ],
      "name": "safeTransferFrom",
      "outputs": [],
      "stateMutability": "nonpayable",
      "type": "function"
    },
    {
      "inputs": [
        {
          "internalType": "address",
          "name": "",
          "type": "address"
        },
        {
          "internalType": "bool",
          "name": "",
          "type": "bool"
        }
      ],
      "name": "setApprovalForAll",
      "outputs": [],
      "stateMutability": "nonpayable",
      "type": "function"
    },
    {
      "inputs": [
        {
          "internalType": "bytes4",
          "name": "interfaceId",
          "type": "bytes4"
        }
      ],
      "name": "supportsInterface",
      "outputs": [
        {
          "internalType": "bool",
          "name": "",
          "type": "bool"
        }
      ],
      "stateMutability": "view",
      "type": "function"
    },
    {
      "inputs": [],
      "name": "symbol",
      "outputs": [
        {
          "internalType": "string",
          "name": "",
          "type": "string"
        }
      ],
      "stateMutability": "view",
      "type": "function"
    },
    {
      "inputs": [
        {
          "internalType": "uint256",
          "name": "tokenId",
          "type": "uint256"
        }
      ],
      "name": "tokenURI",
      "outputs": [
        {
          "internalType": "string",
          "name": "",
          "type": "string"
        }
      ],
      "stateMutability": "view",
      "type": "function"
    },
    {
      "inputs": [
        {
          "internalType": "address",
          "name": "",
          "type": "address"
        },
        {
          "internalType": "address",
          "name": "",
          "type": "address"
        },
        {
          "internalType": "uint256",
          "name": "",
          "type": "uint256"
        }
      ],
      "name": "transferFrom",
      "outputs": [],
      "stateMutability": "nonpayable",
      "type": "function"
    },
    {
      "inputs": [
        {
          "internalType": "address",
          "name": "newOwner",
          "type": "address"
        }
      ],
      "name": "transferOwnership",
      "outputs": [],
      "stateMutability": "nonpayable",
      "type": "function"
    }
  ],
  "bytecode": "0x608060405260006009553480156200001657600080fd5b5060405162002df338038062002df383398181016040528101906200003c919062000366565b6040518060400160405280600d81526020017f4b554249457865637574697665000000000000000000000000000000000000008152506040518060400160405280600681526020017f4b55424945780000000000000000000000000000000000000000000000000000815250620000c8620000bc6200010760201b60201c565b6200010f60201b60201c565b8160019081620000d9919062000602565b508060029081620000eb919062000602565b50505080600a9081620000ff919062000602565b5050620006e9565b600033905090565b60008060009054906101000a900473ffffffffffffffffffffffffffffffffffffffff169050816000806101000a81548173ffffffffffffffffffffffffffffffffffffffff021916908373ffffffffffffffffffffffffffffffffffffffff1602179055508173ffffffffffffffffffffffffffffffffffffffff168173ffffffffffffffffffffffffffffffffffffffff167f8be0079c531659141344cd1fd0a4f28419497f9722a3daafe3b4186f6b6457e060405160405180910390a35050565b6000604051905090565b600080fd5b600080fd5b600080fd5b600080fd5b6000601f19601f8301169050919050565b7f4e487b7100000000000000000000000000000000000000000000000000000000600052604160045260246000fd5b6200023c82620001f1565b810181811067ffffffffffffffff821117156200025e576200025d62000202565b5b80604052505050565b600062000273620001d3565b905062000281828262000231565b919050565b600067ffffffffffffffff821115620002a457620002a362000202565b5b620002af82620001f1565b9050602081019050919050565b60005b83811015620002dc578082015181840152602081019050620002bf565b60008484015250505050565b6000620002ff620002f98462000286565b62000267565b9050828152602081018484840111156200031e576200031d620001ec565b5b6200032b848285620002bc565b509392505050565b600082601f8301126200034b576200034a620001e7565b5b81516200035d848260208601620002e8565b91505092915050565b6000602082840312156200037f576200037e620001dd565b5b600082015167ffffffffffffffff811115620003a0576200039f620001e2565b5b620003ae8482850162000333565b91505092915050565b600081519050919050565b7f4e487b7100000000000000000000000000000000000000000000000000000000600052602260045260246000fd5b600060028204905060018216806200040a57607f821691505b60208210810362000420576200041f620003c2565b5b50919050565b60008190508160005260206000209050919050565b60006020601f8301049050919050565b600082821b905092915050565b6000600883026200048a7fffffffffffffffffffffffffffffffffffffffffffffffffffffffffffffffff826200044b565b6200049686836200044b565b95508019841693508086168417925050509392505050565b6000819050919050565b6000819050919050565b6000620004e3620004dd620004d784620004ae565b620004b8565b620004ae565b9050919050565b6000819050919050565b620004ff83620004c2565b620005176200050e82620004ea565b84845462000458565b825550505050565b600090565b6200052e6200051f565b6200053b818484620004f4565b505050565b5b8181101562000563576200055760008262000524565b60018101905062000541565b5050565b601f821115620005b2576200057c8162000426565b62000587846200043b565b8101602085101562000597578190505b620005af620005a6856200043b565b83018262000540565b50505b505050565b600082821c905092915050565b6000620005d760001984600802620005b7565b1980831691505092915050565b6000620005f28383620005c4565b9150826002028217905092915050565b6200060d82620003b7565b67ffffffffffffffff81111562000629576200062862000202565b5b620006358254620003f1565b6200064282828562000567565b600060209050601f8311600181146200067a576000841562000665578287015190505b620006718582620005e4565b865550620006e1565b601f1984166200068a8662000426565b60005b82811015620006b4578489015182556001820191506020850194506020810190506200068d565b86831015620006d45784890151620006d0601f891682620005c4565b8355505b6001600288020188555050505b505050505050565b6126fa80620006f96000396000f3fe608060405234801561001057600080fd5b50600436106101165760003560e01c8063715018a6116100a2578063a22cb46511610071578063a22cb465146102df578063b88d4fde146102fb578063c87b56dd14610317578063e985e9c514610347578063f2fde38b1461037757610116565b8063715018a6146102695780638da5cb5b1461027357806395d89b41146102915780639815c0bd146102af57610116565b806323b872dd116100e957806323b872dd146101b557806342842e0e146101d15780636352211e146101ed5780636a6278421461021d57806370a082311461023957610116565b806301ffc9a71461011b57806306fdde031461014b578063081812fc14610169578063095ea7b314610199575b600080fd5b610135600480360381019061013091906118e1565b610393565b6040516101429190611929565b60405180910390f35b610153610475565b60405161016091906119d4565b60405180910390f35b610183600480360381019061017e9190611a2c565b610507565b6040516101909190611a9a565b60405180910390f35b6101b360048036038101906101ae9190611ae1565b61054d565b005b6101cf60048036038101906101ca9190611b21565b610588565b005b6101eb60048036038101906101e69190611b21565b6105c3565b005b61020760048036038101906102029190611a2c565b6105e3565b6040516102149190611a9a565b60405180910390f35b61023760048036038101906102329190611b74565b610669565b005b610253600480360381019061024e9190611b74565b610772565b6040516102609190611bb0565b60405180910390f35b610271610829565b005b61027b61083d565b6040516102889190611a9a565b60405180910390f35b610299610866565b6040516102a691906119d4565b60405180910390f35b6102c960048036038101906102c49190611b74565b6108f8565b6040516102d69190611bb0565b60405180910390f35b6102f960048036038101906102f49190611bf7565b61096e565b005b61031560048036038101906103109190611d6c565b6109a9565b005b610331600480360381019061032c9190611a2c565b610a0b565b60405161033e91906119d4565b60405180910390f35b610361600480360381019061035c9190611def565b610a73565b60405161036e9190611929565b60405180910390f35b610391600480360381019061038c9190611b74565b610b07565b005b60007f80ac58cd000000000000000000000000000000000000000000000000000000007bffffffffffffffffffffffffffffffffffffffffffffffffffffffff1916827bffffffffffffffffffffffffffffffffffffffffffffffffffffffff1916148061045e57507f5b5e139f000000000000000000000000000000000000000000000000000000007bffffffffffffffffffffffffffffffffffffffffffffffffffffffff1916827bffffffffffffffffffffffffffffffffffffffffffffffffffffffff1916145b8061046e575061046d82610b8a565b5b9050919050565b60606001805461048490611e5e565b80601f01602080910402602001604051908101604052809291908181526020018280546104b090611e5e565b80156104fd5780601f106104d2576101008083540402835291602001916104fd565b820191906000526020600020905b8154815290600101906020018083116104e057829003601f168201915b5050505050905090565b600061051282610bf4565b6005600083815260200190815260200160002060009054906101000a900473ffffffffffffffffffffffffffffffffffffffff169050919050565b6040517f08c379a000000000000000000000000000000000000000000000000000000000815260040161057f90611edb565b60405180910390fd5b6040517f08c379a00000000000000000000000000000000000000000000000000000000081526004016105ba90611f47565b60405180910390fd5b6105de838383604051806020016040528060008152506109a9565b505050565b6000806105ef83610c3f565b9050600073ffffffffffffffffffffffffffffffffffffffff168173ffffffffffffffffffffffffffffffffffffffff1603610660576040517f08c379a000000000000000000000000000000000000000000000000000000000815260040161065790611fb3565b60405180910390fd5b80915050919050565b610671610c7c565b6001600960008282546106849190612002565b9250508190555061069781600954610cfa565b8073ffffffffffffffffffffffffffffffffffffffff166106b96009546105e3565b73ffffffffffffffffffffffffffffffffffffffff161461070f576040517f08c379a000000000000000000000000000000000000000000000000000000000815260040161070690612082565b60405180910390fd5b4260076000600954815260200190815260200160002081905550600954600860008373ffffffffffffffffffffffffffffffffffffffff1673ffffffffffffffffffffffffffffffffffffffff1681526020019081526020016000208190555050565b60008073ffffffffffffffffffffffffffffffffffffffff168273ffffffffffffffffffffffffffffffffffffffff16036107e2576040517f08c379a00000000000000000000000000000000000000000000000000000000081526004016107d990612114565b60405180910390fd5b600460008373ffffffffffffffffffffffffffffffffffffffff1673ffffffffffffffffffffffffffffffffffffffff168152602001908152602001600020549050919050565b610831610c7c565b61083b6000610d18565b565b60008060009054906101000a900473ffffffffffffffffffffffffffffffffffffffff16905090565b60606002805461087590611e5e565b80601f01602080910402602001604051908101604052809291908181526020018280546108a190611e5e565b80156108ee5780601f106108c3576101008083540402835291602001916108ee565b820191906000526020600020905b8154815290600101906020018083116108d157829003601f168201915b5050505050905090565b600080600860008473ffffffffffffffffffffffffffffffffffffffff1673ffffffffffffffffffffffffffffffffffffffff1681526020019081526020016000205490506000600760008381526020019081526020016000205490506301e13380816109659190612002565b92505050919050565b6040517f08c379a00000000000000000000000000000000000000000000000000000000081526004016109a090611edb565b60405180910390fd5b6109ba6109b4610ddc565b83610de4565b6109f9576040517f08c379a00000000000000000000000000000000000000000000000000000000081526004016109f0906121a6565b60405180910390fd5b610a0584848484610e79565b50505050565b6060610a1682610bf4565b6000610a20610ed5565b90506000815111610a405760405180602001604052806000815250610a6b565b80610a4a84610eec565b604051602001610a5b929190612202565b6040516020818303038152906040525b915050919050565b6000600660008473ffffffffffffffffffffffffffffffffffffffff1673ffffffffffffffffffffffffffffffffffffffff16815260200190815260200160002060008373ffffffffffffffffffffffffffffffffffffffff1673ffffffffffffffffffffffffffffffffffffffff16815260200190815260200160002060009054906101000a900460ff16905092915050565b610b0f610c7c565b600073ffffffffffffffffffffffffffffffffffffffff168173ffffffffffffffffffffffffffffffffffffffff1603610b7e576040517f08c379a0000000000000000000000000000000000000000000000000000000008152600401610b7590612298565b60405180910390fd5b610b8781610d18565b50565b60007f01ffc9a7000000000000000000000000000000000000000000000000000000007bffffffffffffffffffffffffffffffffffffffffffffffffffffffff1916827bffffffffffffffffffffffffffffffffffffffffffffffffffffffff1916149050919050565b610bfd81610fba565b610c3c576040517f08c379a0000000000000000000000000000000000000000000000000000000008152600401610c3390611fb3565b60405180910390fd5b50565b60006003600083815260200190815260200160002060009054906101000a900473ffffffffffffffffffffffffffffffffffffffff169050919050565b610c84610ddc565b73ffffffffffffffffffffffffffffffffffffffff16610ca261083d565b73ffffffffffffffffffffffffffffffffffffffff1614610cf8576040517f08c379a0000000000000000000000000000000000000000000000000000000008152600401610cef90612304565b60405180910390fd5b565b610d14828260405180602001604052806000815250610ffb565b5050565b60008060009054906101000a900473ffffffffffffffffffffffffffffffffffffffff169050816000806101000a81548173ffffffffffffffffffffffffffffffffffffffff021916908373ffffffffffffffffffffffffffffffffffffffff1602179055508173ffffffffffffffffffffffffffffffffffffffff168173ffffffffffffffffffffffffffffffffffffffff167f8be0079c531659141344cd1fd0a4f28419497f9722a3daafe3b4186f6b6457e060405160405180910390a35050565b600033905090565b600080610df0836105e3565b90508073ffffffffffffffffffffffffffffffffffffffff168473ffffffffffffffffffffffffffffffffffffffff161480610e325750610e318185610a73565b5b80610e7057508373ffffffffffffffffffffffffffffffffffffffff16610e5884610507565b73ffffffffffffffffffffffffffffffffffffffff16145b91505092915050565b610e84848484611056565b610e908484848461134f565b610ecf576040517f08c379a0000000000000000000000000000000000000000000000000000000008152600401610ec690612396565b60405180910390fd5b50505050565b606060405180602001604052806000815250905090565b606060006001610efb846114d6565b01905060008167ffffffffffffffff811115610f1a57610f19611c41565b5b6040519080825280601f01601f191660200182016040528015610f4c5781602001600182028036833780820191505090505b509050600082602001820190505b600115610faf578080600190039150507f3031323334353637383961626364656600000000000000000000000000000000600a86061a8153600a8581610fa357610fa26123b6565b5b04945060008503610f5a575b819350505050919050565b60008073ffffffffffffffffffffffffffffffffffffffff16610fdc83610c3f565b73ffffffffffffffffffffffffffffffffffffffff1614159050919050565b6110058383611629565b611012600084848461134f565b611051576040517f08c379a000000000000000000000000000000000000000000000000000000000815260040161104890612396565b60405180910390fd5b505050565b8273ffffffffffffffffffffffffffffffffffffffff16611076826105e3565b73ffffffffffffffffffffffffffffffffffffffff16146110cc576040517f08c379a00000000000000000000000000000000000000000000000000000000081526004016110c390612457565b60405180910390fd5b600073ffffffffffffffffffffffffffffffffffffffff168273ffffffffffffffffffffffffffffffffffffffff160361113b576040517f08c379a0000000000000000000000000000000000000000000000000000000008152600401611132906124e9565b60405180910390fd5b6111488383836001611846565b8273ffffffffffffffffffffffffffffffffffffffff16611168826105e3565b73ffffffffffffffffffffffffffffffffffffffff16146111be576040517f08c379a00000000000000000000000000000000000000000000000000000000081526004016111b590612457565b60405180910390fd5b6005600082815260200190815260200160002060006101000a81549073ffffffffffffffffffffffffffffffffffffffff02191690556001600460008573ffffffffffffffffffffffffffffffffffffffff1673ffffffffffffffffffffffffffffffffffffffff168152602001908152602001600020600082825403925050819055506001600460008473ffffffffffffffffffffffffffffffffffffffff1673ffffffffffffffffffffffffffffffffffffffff16815260200190815260200160002060008282540192505081905550816003600083815260200190815260200160002060006101000a81548173ffffffffffffffffffffffffffffffffffffffff021916908373ffffffffffffffffffffffffffffffffffffffff160217905550808273ffffffffffffffffffffffffffffffffffffffff168473ffffffffffffffffffffffffffffffffffffffff167fddf252ad1be2c89b69c2b068fc378daa952ba7f163c4a11628f55a4df523b3ef60405160405180910390a461134a838383600161184c565b505050565b60006113708473ffffffffffffffffffffffffffffffffffffffff16611852565b156114c9578373ffffffffffffffffffffffffffffffffffffffff1663150b7a02611399610ddc565b8786866040518563ffffffff1660e01b81526004016113bb949392919061255e565b6020604051808303816000875af19250505080156113f757506040513d601f19601f820116820180604052508101906113f491906125bf565b60015b611479573d8060008114611427576040519150601f19603f3d011682016040523d82523d6000602084013e61142c565b606091505b506000815103611471576040517f08c379a000000000000000000000000000000000000000000000000000000000815260040161146890612396565b60405180910390fd5b805181602001fd5b63150b7a0260e01b7bffffffffffffffffffffffffffffffffffffffffffffffffffffffff1916817bffffffffffffffffffffffffffffffffffffffffffffffffffffffff1916149150506114ce565b600190505b949350505050565b600080600090507a184f03e93ff9f4daa797ed6e38ed64bf6a1f0100000000000000008310611534577a184f03e93ff9f4daa797ed6e38ed64bf6a1f010000000000000000838161152a576115296123b6565b5b0492506040810190505b6d04ee2d6d415b85acef81000000008310611571576d04ee2d6d415b85acef81000000008381611567576115666123b6565b5b0492506020810190505b662386f26fc1000083106115a057662386f26fc100008381611596576115956123b6565b5b0492506010810190505b6305f5e10083106115c9576305f5e10083816115bf576115be6123b6565b5b0492506008810190505b61271083106115ee5761271083816115e4576115e36123b6565b5b0492506004810190505b606483106116115760648381611607576116066123b6565b5b0492506002810190505b600a8310611620576001810190505b80915050919050565b600073ffffffffffffffffffffffffffffffffffffffff168273ffffffffffffffffffffffffffffffffffffffff1603611698576040517f08c379a000000000000000000000000000000000000000000000000000000000815260040161168f90612638565b60405180910390fd5b6116a181610fba565b156116e1576040517f08c379a00000000000000000000000000000000000000000000000000000000081526004016116d8906126a4565b60405180910390fd5b6116ef600083836001611846565b6116f881610fba565b15611738576040517f08c379a000000000000000000000000000000000000000000000000000000000815260040161172f906126a4565b60405180910390fd5b6001600460008473ffffffffffffffffffffffffffffffffffffffff1673ffffffffffffffffffffffffffffffffffffffff16815260200190815260200160002060008282540192505081905550816003600083815260200190815260200160002060006101000a81548173ffffffffffffffffffffffffffffffffffffffff021916908373ffffffffffffffffffffffffffffffffffffffff160217905550808273ffffffffffffffffffffffffffffffffffffffff16600073ffffffffffffffffffffffffffffffffffffffff167fddf252ad1be2c89b69c2b068fc378daa952ba7f163c4a11628f55a4df523b3ef60405160405180910390a461184260008383600161184c565b5050565b50505050565b50505050565b6000808273ffffffffffffffffffffffffffffffffffffffff163b119050919050565b6000604051905090565b600080fd5b600080fd5b60007fffffffff0000000000000000000000000000000000000000000000000000000082169050919050565b6118be81611889565b81146118c957600080fd5b50565b6000813590506118db816118b5565b92915050565b6000602082840312156118f7576118f661187f565b5b6000611905848285016118cc565b91505092915050565b60008115159050919050565b6119238161190e565b82525050565b600060208201905061193e600083018461191a565b92915050565b600081519050919050565b600082825260208201905092915050565b60005b8381101561197e578082015181840152602081019050611963565b60008484015250505050565b6000601f19601f8301169050919050565b60006119a682611944565b6119b0818561194f565b93506119c0818560208601611960565b6119c98161198a565b840191505092915050565b600060208201905081810360008301526119ee818461199b565b905092915050565b6000819050919050565b611a09816119f6565b8114611a1457600080fd5b50565b600081359050611a2681611a00565b92915050565b600060208284031215611a4257611a4161187f565b5b6000611a5084828501611a17565b91505092915050565b600073ffffffffffffffffffffffffffffffffffffffff82169050919050565b6000611a8482611a59565b9050919050565b611a9481611a79565b82525050565b6000602082019050611aaf6000830184611a8b565b92915050565b611abe81611a79565b8114611ac957600080fd5b50565b600081359050611adb81611ab5565b92915050565b60008060408385031215611af857611af761187f565b5b6000611b0685828601611acc565b9250506020611b1785828601611a17565b9150509250929050565b600080600060608486031215611b3a57611b3961187f565b5b6000611b4886828701611acc565b9350506020611b5986828701611acc565b9250506040611b6a86828701611a17565b9150509250925092565b600060208284031215611b8a57611b8961187f565b5b6000611b9884828501611acc565b91505092915050565b611baa816119f6565b82525050565b6000602082019050611bc56000830184611ba1565b92915050565b611bd48161190e565b8114611bdf57600080fd5b50565b600081359050611bf181611bcb565b92915050565b60008060408385031215611c0e57611c0d61187f565b5b6000611c1c85828601611acc565b9250506020611c2d85828601611be2565b9150509250929050565b600080fd5b600080fd5b7f4e487b7100000000000000000000000000000000000000000000000000000000600052604160045260246000fd5b611c798261198a565b810181811067ffffffffffffffff82111715611c9857611c97611c41565b5b80604052505050565b6000611cab611875565b9050611cb78282611c70565b919050565b600067ffffffffffffffff821115611cd757611cd6611c41565b5b611ce08261198a565b9050602081019050919050565b82818337600083830152505050565b6000611d0f611d0a84611cbc565b611ca1565b905082815260208101848484011115611d2b57611d2a611c3c565b5b611d36848285611ced565b509392505050565b600082601f830112611d5357611d52611c37565b5b8135611d63848260208601611cfc565b91505092915050565b60008060008060808587031215611d8657611d8561187f565b5b6000611d9487828801611acc565b9450506020611da587828801611acc565b9350506040611db687828801611a17565b925050606085013567ffffffffffffffff811115611dd757611dd6611884565b5b611de387828801611d3e565b91505092959194509250565b60008060408385031215611e0657611e0561187f565b5b6000611e1485828601611acc565b9250506020611e2585828601611acc565b9150509250929050565b7f4e487b7100000000000000000000000000000000000000000000000000000000600052602260045260246000fd5b60006002820490506001821680611e7657607f821691505b602082108103611e8957611e88611e2f565b5b50919050565b7f5468697320746f6b656e206973206e6f6e2d616c6c6f7761626c650000000000600082015250565b6000611ec5601b8361194f565b9150611ed082611e8f565b602082019050919050565b60006020820190508181036000830152611ef481611eb8565b9050919050565b7f5468697320746f6b656e206973206e6f6e2d7472616e7366657261626c650000600082015250565b6000611f31601e8361194f565b9150611f3c82611efb565b602082019050919050565b60006020820190508181036000830152611f6081611f24565b9050919050565b7f4552433732313a20696e76616c696420746f6b656e2049440000000000000000600082015250565b6000611f9d60188361194f565b9150611fa882611f67565b602082019050919050565b60006020820190508181036000830152611fcc81611f90565b9050919050565b7f4e487b7100000000000000000000000000000000000000000000000000000000600052601160045260246000fd5b600061200d826119f6565b9150612018836119f6565b92508282019050808211156120305761202f611fd3565b5b92915050565b7f4e4654204661696c656420746f204d696e740000000000000000000000000000600082015250565b600061206c60128361194f565b915061207782612036565b602082019050919050565b6000602082019050818103600083015261209b8161205f565b9050919050565b7f4552433732313a2061646472657373207a65726f206973206e6f74206120766160008201527f6c6964206f776e65720000000000000000000000000000000000000000000000602082015250565b60006120fe60298361194f565b9150612109826120a2565b604082019050919050565b6000602082019050818103600083015261212d816120f1565b9050919050565b7f4552433732313a2063616c6c6572206973206e6f7420746f6b656e206f776e6560008201527f72206f7220617070726f76656400000000000000000000000000000000000000602082015250565b6000612190602d8361194f565b915061219b82612134565b604082019050919050565b600060208201905081810360008301526121bf81612183565b9050919050565b600081905092915050565b60006121dc82611944565b6121e681856121c6565b93506121f6818560208601611960565b80840191505092915050565b600061220e82856121d1565b915061221a82846121d1565b91508190509392505050565b7f4f776e61626c653a206e6577206f776e657220697320746865207a65726f206160008201527f6464726573730000000000000000000000000000000000000000000000000000602082015250565b600061228260268361194f565b915061228d82612226565b604082019050919050565b600060208201905081810360008301526122b181612275565b9050919050565b7f4f776e61626c653a2063616c6c6572206973206e6f7420746865206f776e6572600082015250565b60006122ee60208361194f565b91506122f9826122b8565b602082019050919050565b6000602082019050818103600083015261231d816122e1565b9050919050565b7f4552433732313a207472616e7366657220746f206e6f6e20455243373231526560008201527f63656976657220696d706c656d656e7465720000000000000000000000000000602082015250565b600061238060328361194f565b915061238b82612324565b604082019050919050565b600060208201905081810360008301526123af81612373565b9050919050565b7f4e487b7100000000000000000000000000000000000000000000000000000000600052601260045260246000fd5b7f4552433732313a207472616e736665722066726f6d20696e636f72726563742060008201527f6f776e6572000000000000000000000000000000000000000000000000000000602082015250565b600061244160258361194f565b915061244c826123e5565b604082019050919050565b6000602082019050818103600083015261247081612434565b9050919050565b7f4552433732313a207472616e7366657220746f20746865207a65726f2061646460008201527f7265737300000000000000000000000000000000000000000000000000000000602082015250565b60006124d360248361194f565b91506124de82612477565b604082019050919050565b60006020820190508181036000830152612502816124c6565b9050919050565b600081519050919050565b600082825260208201905092915050565b600061253082612509565b61253a8185612514565b935061254a818560208601611960565b6125538161198a565b840191505092915050565b60006080820190506125736000830187611a8b565b6125806020830186611a8b565b61258d6040830185611ba1565b818103606083015261259f8184612525565b905095945050505050565b6000815190506125b9816118b5565b92915050565b6000602082840312156125d5576125d461187f565b5b60006125e3848285016125aa565b91505092915050565b7f4552433732313a206d696e7420746f20746865207a65726f2061646472657373600082015250565b600061262260208361194f565b915061262d826125ec565b602082019050919050565b6000602082019050818103600083015261265181612615565b9050919050565b7f4552433732313a20746f6b656e20616c7265616479206d696e74656400000000600082015250565b600061268e601c8361194f565b915061269982612658565b602082019050919050565b600060208201905081810360008301526126bd81612681565b905091905056fea26469706673582212205acc2ecfd8f66e97107d80735ed5b4a4e87fdfa8ddcb5d3dea4f89a40a77494964736f6c63430008120033",
  "linkReferences": {},
  "deployedLinkReferences": {}
}