{
  "_format": "hh-sol-artifact-1",
  "contractName": "KubixVoting",
  "sourceName": "contracts/KUBIXvoting.sol",
  "abi": [
    {
      "inputs": [
        {
          "internalType": "address",
          "name": "_kubixToken",
          "type": "address"
        },
        {
          "internalType": "address",
          "name": "_dao",
          "type": "address"
        }
      ],
      "stateMutability": "nonpayable",
      "type": "constructor"
    },
    {
      "anonymous": false,
      "inputs": [
        {
          "indexed": true,
          "internalType": "uint256",
          "name": "proposalId",
          "type": "uint256"
        },
        {
          "indexed": false,
          "internalType": "string",
          "name": "name",
          "type": "string"
        }
      ],
      "name": "NewProposal",
      "type": "event"
    },
    {
      "inputs": [
        {
          "internalType": "uint256",
          "name": "",
          "type": "uint256"
        }
      ],
      "name": "activeProposalIndices",
      "outputs": [
        {
          "internalType": "uint256",
          "name": "",
          "type": "uint256"
        }
      ],
      "stateMutability": "view",
      "type": "function"
    },
    {
      "inputs": [
        {
          "internalType": "uint256",
          "name": "",
          "type": "uint256"
        }
      ],
      "name": "activeProposals",
      "outputs": [
        {
          "internalType": "string",
          "name": "name",
          "type": "string"
        },
        {
          "internalType": "string",
          "name": "description",
          "type": "string"
        },
        {
          "internalType": "string",
          "name": "execution",
          "type": "string"
        },
        {
          "internalType": "uint256",
          "name": "totalVotes",
          "type": "uint256"
        },
        {
          "internalType": "uint256",
          "name": "maxBalance",
          "type": "uint256"
        },
        {
          "internalType": "uint256",
          "name": "minBalance",
          "type": "uint256"
        },
        {
          "internalType": "uint256",
          "name": "timeInMinutes",
          "type": "uint256"
        },
        {
          "internalType": "uint256",
          "name": "creationTimestamp",
          "type": "uint256"
        }
      ],
      "stateMutability": "view",
      "type": "function"
    },
    {
      "inputs": [],
      "name": "activeProposalsCount",
      "outputs": [
        {
          "internalType": "uint256",
          "name": "",
          "type": "uint256"
        }
      ],
      "stateMutability": "nonpayable",
      "type": "function"
    },
    {
      "inputs": [
        {
          "internalType": "uint256",
          "name": "_proposalId",
          "type": "uint256"
        },
        {
          "internalType": "uint256",
          "name": "_balance",
          "type": "uint256"
        }
      ],
      "name": "calculateVoteWeight",
      "outputs": [
        {
          "internalType": "uint256",
          "name": "",
          "type": "uint256"
        }
      ],
      "stateMutability": "view",
      "type": "function"
    },
    {
      "inputs": [
        {
          "internalType": "uint256",
          "name": "",
          "type": "uint256"
        }
      ],
      "name": "completedProposalIndices",
      "outputs": [
        {
          "internalType": "uint256",
          "name": "",
          "type": "uint256"
        }
      ],
      "stateMutability": "view",
      "type": "function"
    },
    {
      "inputs": [],
      "name": "completedProposalsCount",
      "outputs": [
        {
          "internalType": "uint256",
          "name": "",
          "type": "uint256"
        }
      ],
      "stateMutability": "view",
      "type": "function"
    },
    {
      "inputs": [
        {
          "internalType": "string",
          "name": "_name",
          "type": "string"
        },
        {
          "internalType": "string",
          "name": "_description",
          "type": "string"
        },
        {
          "internalType": "string",
          "name": "_execution",
          "type": "string"
        },
        {
          "internalType": "uint256",
          "name": "_maxBalance",
          "type": "uint256"
        },
        {
          "internalType": "uint256",
          "name": "_minBalance",
          "type": "uint256"
        },
        {
          "internalType": "uint256",
          "name": "_timeInMinutes",
          "type": "uint256"
        },
        {
          "internalType": "string[]",
          "name": "_options",
          "type": "string[]"
        }
      ],
      "name": "createProposal",
      "outputs": [],
      "stateMutability": "nonpayable",
      "type": "function"
    },
    {
      "inputs": [],
      "name": "dao",
      "outputs": [
        {
          "internalType": "address",
          "name": "",
          "type": "address"
        }
      ],
      "stateMutability": "view",
      "type": "function"
    },
    {
      "inputs": [
        {
          "internalType": "uint256",
          "name": "_completedProposalIndex",
          "type": "uint256"
        }
      ],
      "name": "getWinner",
      "outputs": [
        {
          "internalType": "string",
          "name": "",
          "type": "string"
        }
      ],
      "stateMutability": "view",
      "type": "function"
    },
    {
      "inputs": [],
      "name": "kubixToken",
      "outputs": [
        {
          "internalType": "contract IERC20",
          "name": "",
          "type": "address"
        }
      ],
      "stateMutability": "view",
      "type": "function"
    },
    {
      "inputs": [
        {
          "internalType": "uint256",
          "name": "_proposalId",
          "type": "uint256"
        },
        {
          "internalType": "address",
          "name": "_voter",
          "type": "address"
        },
        {
          "internalType": "uint256",
          "name": "_optionIndex",
          "type": "uint256"
        }
      ],
      "name": "vote",
      "outputs": [],
      "stateMutability": "nonpayable",
      "type": "function"
    }
  ],
  "bytecode": "0x60806040523480156200001157600080fd5b5060405162001f9e38038062001f9e833981810160405281019062000037919062000154565b816000806101000a81548173ffffffffffffffffffffffffffffffffffffffff021916908373ffffffffffffffffffffffffffffffffffffffff16021790555080600160006101000a81548173ffffffffffffffffffffffffffffffffffffffff021916908373ffffffffffffffffffffffffffffffffffffffff16021790555060036000908060018154018082558091505060019003906000526020600020016000909190919091505550506200019b565b600080fd5b600073ffffffffffffffffffffffffffffffffffffffff82169050919050565b60006200011c82620000ef565b9050919050565b6200012e816200010f565b81146200013a57600080fd5b50565b6000815190506200014e8162000123565b92915050565b600080604083850312156200016e576200016d620000ea565b5b60006200017e858286016200013d565b925050602062000191858286016200013d565b9150509250929050565b611df380620001ab6000396000f3fe608060405234801561001057600080fd5b50600436106100a95760003560e01c80637775f7da116100715780637775f7da146101665780637f30b7c014610182578063a52bc6e2146101a0578063e0fdcc42146101be578063e40824f8146101ee578063fb0cb3ca14610225576100a9565b80632116c347146100ae5780634129b2c9146100cc5780634162169f146100fc57806342501dae1461011a5780634de8737c1461014a575b600080fd5b6100b6610255565b6040516100c39190610f65565b60405180910390f35b6100e660048036038101906100e19190610fc0565b610276565b6040516100f3919061107d565b60405180910390f35b610104610405565b60405161011191906110e0565b60405180910390f35b610134600480360381019061012f9190610fc0565b61042b565b6040516101419190610f65565b60405180910390f35b610164600480360381019061015f9190611127565b61044f565b005b610180600480360381019061017b9190611395565b61072f565b005b61018a610a01565b6040516101979190610f65565b60405180910390f35b6101a8610a0e565b6040516101b59190611506565b60405180910390f35b6101d860048036038101906101d39190611521565b610a32565b6040516101e59190610f65565b60405180910390f35b61020860048036038101906102039190610fc0565b610add565b60405161021c989796959493929190611561565b60405180910390f35b61023f600480360381019061023a9190610fc0565b610ccd565b60405161024c9190610f65565b60405180910390f35b600061025f610cf1565b60016003805490506102719190611623565b905090565b606060006004838154811061028e5761028d611657565b5b906000526020600020015490506000600282815481106102b1576102b0611657565b5b90600052602060002090600a0201905060008080600090505b836009018054905081101561034957828460090182815481106102f0576102ef611657565b5b90600052602060002090600202016001015411156103365783600901818154811061031e5761031d611657565b5b90600052602060002090600202016001015492508091505b808061034190611686565b9150506102ca565b508260090181815481106103605761035f611657565b5b9060005260206000209060020201600001805461037c906116fd565b80601f01602080910402602001604051908101604052809291908181526020018280546103a8906116fd565b80156103f55780601f106103ca576101008083540402835291602001916103f5565b820191906000526020600020905b8154815290600101906020018083116103d857829003601f168201915b5050505050945050505050919050565b600160009054906101000a900473ffffffffffffffffffffffffffffffffffffffff1681565b6003818154811061043b57600080fd5b906000526020600020016000915090505481565b8260006002828154811061046657610465611657565b5b90600052602060002090600a02019050603c8160070154610487919061172e565b81600801546104969190611770565b4211156104d8576040517f08c379a00000000000000000000000000000000000000000000000000000000081526004016104cf906117f0565b60405180910390fd5b6000600286815481106104ee576104ed611657565b5b90600052602060002090600a0201905060008160040160008773ffffffffffffffffffffffffffffffffffffffff1673ffffffffffffffffffffffffffffffffffffffff1681526020019081526020016000205414610582576040517f08c379a00000000000000000000000000000000000000000000000000000000081526004016105799061185c565b60405180910390fd5b60008060009054906101000a900473ffffffffffffffffffffffffffffffffffffffff1673ffffffffffffffffffffffffffffffffffffffff166370a08231876040518263ffffffff1660e01b81526004016105de91906110e0565b602060405180830381865afa1580156105fb573d6000803e3d6000fd5b505050506040513d601f19601f8201168201806040525081019061061f9190611891565b905060008111610664576040517f08c379a000000000000000000000000000000000000000000000000000000000815260040161065b9061190a565b60405180910390fd5b816005015481111561067857816005015490505b60006106848883610a32565b90508083600301600082825461069a9190611770565b92505081905550808360040160008973ffffffffffffffffffffffffffffffffffffffff1673ffffffffffffffffffffffffffffffffffffffff16815260200190815260200160002081905550808360090187815481106106fe576106fd611657565b5b9060005260206000209060020201600101600082825461071e9190611770565b925050819055505050505050505050565b600160009054906101000a900473ffffffffffffffffffffffffffffffffffffffff1673ffffffffffffffffffffffffffffffffffffffff163373ffffffffffffffffffffffffffffffffffffffff16146107bf576040517f08c379a00000000000000000000000000000000000000000000000000000000081526004016107b690611976565b60405180910390fd5b60008311610802576040517f08c379a00000000000000000000000000000000000000000000000000000000081526004016107f990611a08565b60405180910390fd5b828411610844576040517f08c379a000000000000000000000000000000000000000000000000000000000815260040161083b90611a9a565b60405180910390fd5b6000600280549050905060038190806001815401808255809150506001900390600052602060002001600090919091909150556002600181600181540180825580915050039060005260206000209050506000600282815481106108ab576108aa611657565b5b90600052602060002090600a02019050888160000190816108cc9190611c5c565b50878160010190816108de9190611c5c565b50868160020190816108f09190611c5c565b506000816003018190555085816005018190555084816006018190555083816007018190555042816008018190555060005b83518110156109bd5781600901604051806040016040528086848151811061094d5761094c611657565b5b6020026020010151815260200160008152509080600181540180825580915050600190039060005260206000209060020201600090919091909150600082015181600001908161099d9190611c5c565b5060208201518160010155505080806109b590611686565b915050610922565b50817fa9ef596c73fbcfb4a78bc139b1a19c35247c1f37d2489c0513ad2dd3eb7d8c6b8a6040516109ee919061107d565b60405180910390a2505050505050505050565b6000600480549050905090565b60008054906101000a900473ffffffffffffffffffffffffffffffffffffffff1681565b60008060028481548110610a4957610a48611657565b5b90600052602060002090600a020190506000610a7682600601548360050154610ef490919063ffffffff16565b90506000610a91836006015486610ef490919063ffffffff16565b90506000610ace6001610ac085610ab2600387610f0a90919063ffffffff16565b610f2090919063ffffffff16565b610f3690919063ffffffff16565b90508094505050505092915050565b60028181548110610aed57600080fd5b90600052602060002090600a0201600091509050806000018054610b10906116fd565b80601f0160208091040260200160405190810160405280929190818152602001828054610b3c906116fd565b8015610b895780601f10610b5e57610100808354040283529160200191610b89565b820191906000526020600020905b815481529060010190602001808311610b6c57829003601f168201915b505050505090806001018054610b9e906116fd565b80601f0160208091040260200160405190810160405280929190818152602001828054610bca906116fd565b8015610c175780601f10610bec57610100808354040283529160200191610c17565b820191906000526020600020905b815481529060010190602001808311610bfa57829003601f168201915b505050505090806002018054610c2c906116fd565b80601f0160208091040260200160405190810160405280929190818152602001828054610c58906116fd565b8015610ca55780601f10610c7a57610100808354040283529160200191610ca5565b820191906000526020600020905b815481529060010190602001808311610c8857829003601f168201915b5050505050908060030154908060050154908060060154908060070154908060080154905088565b60048181548110610cdd57600080fd5b906000526020600020016000915090505481565b600160009054906101000a900473ffffffffffffffffffffffffffffffffffffffff1673ffffffffffffffffffffffffffffffffffffffff163373ffffffffffffffffffffffffffffffffffffffff1614610d81576040517f08c379a0000000000000000000000000000000000000000000000000000000008152600401610d7890611976565b60405180910390fd5b6000600190505b600380549050811015610ef157600060038281548110610dab57610daa611657565b5b90600052602060002001549050600060028281548110610dce57610dcd611657565b5b90600052602060002090600a02019050603c8160070154610def919061172e565b8160080154610dfe9190611770565b421115610edb57600482908060018154018082558091505060019003906000526020600020016000909190919091505560008390505b6001600380549050610e469190611623565b811015610ead576003600182610e5c9190611770565b81548110610e6d57610e6c611657565b5b906000526020600020015460038281548110610e8c57610e8b611657565b5b90600052602060002001819055508080610ea590611686565b915050610e34565b506003805480610ec057610ebf611d2e565b5b60019003818190600052602060002001600090559055610eea565b8280610ee690611686565b9350505b5050610d88565b50565b60008183610f029190611623565b905092915050565b60008183610f18919061172e565b905092915050565b60008183610f2e9190611d8c565b905092915050565b60008183610f449190611770565b905092915050565b6000819050919050565b610f5f81610f4c565b82525050565b6000602082019050610f7a6000830184610f56565b92915050565b6000604051905090565b600080fd5b600080fd5b610f9d81610f4c565b8114610fa857600080fd5b50565b600081359050610fba81610f94565b92915050565b600060208284031215610fd657610fd5610f8a565b5b6000610fe484828501610fab565b91505092915050565b600081519050919050565b600082825260208201905092915050565b60005b8381101561102757808201518184015260208101905061100c565b60008484015250505050565b6000601f19601f8301169050919050565b600061104f82610fed565b6110598185610ff8565b9350611069818560208601611009565b61107281611033565b840191505092915050565b600060208201905081810360008301526110978184611044565b905092915050565b600073ffffffffffffffffffffffffffffffffffffffff82169050919050565b60006110ca8261109f565b9050919050565b6110da816110bf565b82525050565b60006020820190506110f560008301846110d1565b92915050565b611104816110bf565b811461110f57600080fd5b50565b600081359050611121816110fb565b92915050565b6000806000606084860312156111405761113f610f8a565b5b600061114e86828701610fab565b935050602061115f86828701611112565b925050604061117086828701610fab565b9150509250925092565b600080fd5b600080fd5b7f4e487b7100000000000000000000000000000000000000000000000000000000600052604160045260246000fd5b6111bc82611033565b810181811067ffffffffffffffff821117156111db576111da611184565b5b80604052505050565b60006111ee610f80565b90506111fa82826111b3565b919050565b600067ffffffffffffffff82111561121a57611219611184565b5b61122382611033565b9050602081019050919050565b82818337600083830152505050565b600061125261124d846111ff565b6111e4565b90508281526020810184848401111561126e5761126d61117f565b5b611279848285611230565b509392505050565b600082601f8301126112965761129561117a565b5b81356112a684826020860161123f565b91505092915050565b600067ffffffffffffffff8211156112ca576112c9611184565b5b602082029050602081019050919050565b600080fd5b60006112f36112ee846112af565b6111e4565b90508083825260208201905060208402830185811115611316576113156112db565b5b835b8181101561135d57803567ffffffffffffffff81111561133b5761133a61117a565b5b8086016113488982611281565b85526020850194505050602081019050611318565b5050509392505050565b600082601f83011261137c5761137b61117a565b5b813561138c8482602086016112e0565b91505092915050565b600080600080600080600060e0888a0312156113b4576113b3610f8a565b5b600088013567ffffffffffffffff8111156113d2576113d1610f8f565b5b6113de8a828b01611281565b975050602088013567ffffffffffffffff8111156113ff576113fe610f8f565b5b61140b8a828b01611281565b965050604088013567ffffffffffffffff81111561142c5761142b610f8f565b5b6114388a828b01611281565b95505060606114498a828b01610fab565b945050608061145a8a828b01610fab565b93505060a061146b8a828b01610fab565b92505060c088013567ffffffffffffffff81111561148c5761148b610f8f565b5b6114988a828b01611367565b91505092959891949750929550565b6000819050919050565b60006114cc6114c76114c28461109f565b6114a7565b61109f565b9050919050565b60006114de826114b1565b9050919050565b60006114f0826114d3565b9050919050565b611500816114e5565b82525050565b600060208201905061151b60008301846114f7565b92915050565b6000806040838503121561153857611537610f8a565b5b600061154685828601610fab565b925050602061155785828601610fab565b9150509250929050565b600061010082019050818103600083015261157c818b611044565b90508181036020830152611590818a611044565b905081810360408301526115a48189611044565b90506115b36060830188610f56565b6115c06080830187610f56565b6115cd60a0830186610f56565b6115da60c0830185610f56565b6115e760e0830184610f56565b9998505050505050505050565b7f4e487b7100000000000000000000000000000000000000000000000000000000600052601160045260246000fd5b600061162e82610f4c565b915061163983610f4c565b9250828203905081811115611651576116506115f4565b5b92915050565b7f4e487b7100000000000000000000000000000000000000000000000000000000600052603260045260246000fd5b600061169182610f4c565b91507fffffffffffffffffffffffffffffffffffffffffffffffffffffffffffffffff82036116c3576116c26115f4565b5b600182019050919050565b7f4e487b7100000000000000000000000000000000000000000000000000000000600052602260045260246000fd5b6000600282049050600182168061171557607f821691505b602082108103611728576117276116ce565b5b50919050565b600061173982610f4c565b915061174483610f4c565b925082820261175281610f4c565b91508282048414831517611769576117686115f4565b5b5092915050565b600061177b82610f4c565b915061178683610f4c565b925082820190508082111561179e5761179d6115f4565b5b92915050565b7f566f74696e672074696d65206578706972656400000000000000000000000000600082015250565b60006117da601383610ff8565b91506117e5826117a4565b602082019050919050565b60006020820190508181036000830152611809816117cd565b9050919050565b7f416c726561647920766f74656400000000000000000000000000000000000000600082015250565b6000611846600d83610ff8565b915061185182611810565b602082019050919050565b6000602082019050818103600083015261187581611839565b9050919050565b60008151905061188b81610f94565b92915050565b6000602082840312156118a7576118a6610f8a565b5b60006118b58482850161187c565b91505092915050565b7f4e6f204b5542495820746f6b656e730000000000000000000000000000000000600082015250565b60006118f4600f83610ff8565b91506118ff826118be565b602082019050919050565b60006020820190508181036000830152611923816118e7565b9050919050565b7f4f6e6c792044414f2063616e2063616c6c20746869732066756e6374696f6e00600082015250565b6000611960601f83610ff8565b915061196b8261192a565b602082019050919050565b6000602082019050818103600083015261198f81611953565b9050919050565b7f4d696e2062616c616e6365206d7573742062652067726561746572207468616e60008201527f2030000000000000000000000000000000000000000000000000000000000000602082015250565b60006119f2602283610ff8565b91506119fd82611996565b604082019050919050565b60006020820190508181036000830152611a21816119e5565b9050919050565b7f4d61782062616c616e6365206d7573742062652067726561746572207468616e60008201527f206d696e2062616c616e63650000000000000000000000000000000000000000602082015250565b6000611a84602c83610ff8565b9150611a8f82611a28565b604082019050919050565b60006020820190508181036000830152611ab381611a77565b9050919050565b60008190508160005260206000209050919050565b60006020601f8301049050919050565b600082821b905092915050565b600060088302611b1c7fffffffffffffffffffffffffffffffffffffffffffffffffffffffffffffffff82611adf565b611b268683611adf565b95508019841693508086168417925050509392505050565b6000611b59611b54611b4f84610f4c565b6114a7565b610f4c565b9050919050565b6000819050919050565b611b7383611b3e565b611b87611b7f82611b60565b848454611aec565b825550505050565b600090565b611b9c611b8f565b611ba7818484611b6a565b505050565b5b81811015611bcb57611bc0600082611b94565b600181019050611bad565b5050565b601f821115611c1057611be181611aba565b611bea84611acf565b81016020851015611bf9578190505b611c0d611c0585611acf565b830182611bac565b50505b505050565b600082821c905092915050565b6000611c3360001984600802611c15565b1980831691505092915050565b6000611c4c8383611c22565b9150826002028217905092915050565b611c6582610fed565b67ffffffffffffffff811115611c7e57611c7d611184565b5b611c8882546116fd565b611c93828285611bcf565b600060209050601f831160018114611cc65760008415611cb4578287015190505b611cbe8582611c40565b865550611d26565b601f198416611cd486611aba565b60005b82811015611cfc57848901518255600182019150602085019450602081019050611cd7565b86831015611d195784890151611d15601f891682611c22565b8355505b6001600288020188555050505b505050505050565b7f4e487b7100000000000000000000000000000000000000000000000000000000600052603160045260246000fd5b7f4e487b7100000000000000000000000000000000000000000000000000000000600052601260045260246000fd5b6000611d9782610f4c565b9150611da283610f4c565b925082611db257611db1611d5d565b5b82820490509291505056fea264697066735822122085f860bedc40152b6c421dc787fa1ffbf5e397bc457d8e7f4f9bf8129fe5bc9d64736f6c63430008120033",
  "linkReferences": {},
  "deployedLinkReferences": {}
}