{
  "_format": "hh-sol-artifact-1",
  "contractName": "KubidVoting",
  "sourceName": "contracts/KUBIDvoting.sol",
  "abi": [
    {
      "inputs": [
        {
          "internalType": "address",
          "name": "_kubidToken",
          "type": "address"
        },
        {
          "internalType": "address",
          "name": "_dao",
          "type": "address"
        },
        {
          "internalType": "address",
          "name": "_owner1",
          "type": "address"
        },
        {
          "internalType": "address",
          "name": "_owner2",
          "type": "address"
        }
      ],
      "stateMutability": "nonpayable",
      "type": "constructor"
    },
    {
      "anonymous": false,
      "inputs": [
        {
          "indexed": true,
          "internalType": "uint256",
          "name": "proposalId",
          "type": "uint256"
        },
        {
          "indexed": false,
          "internalType": "string",
          "name": "name",
          "type": "string"
        },
        {
          "indexed": false,
          "internalType": "string",
          "name": "description",
          "type": "string"
        },
        {
          "indexed": false,
          "internalType": "string",
          "name": "execution",
          "type": "string"
        },
        {
          "indexed": false,
          "internalType": "uint256",
          "name": "timeInMinutes",
          "type": "uint256"
        },
        {
          "indexed": false,
          "internalType": "uint256",
          "name": "creationTimestamp",
          "type": "uint256"
        }
      ],
      "name": "NewProposal",
      "type": "event"
    },
    {
      "anonymous": false,
      "inputs": [
        {
          "indexed": true,
          "internalType": "uint256",
          "name": "proposalId",
          "type": "uint256"
        },
        {
          "indexed": true,
          "internalType": "uint256",
          "name": "optionIndex",
          "type": "uint256"
        },
        {
          "indexed": false,
          "internalType": "string",
          "name": "name",
          "type": "string"
        }
      ],
      "name": "PollOptionNames",
      "type": "event"
    },
    {
      "anonymous": false,
      "inputs": [
        {
          "indexed": true,
          "internalType": "uint256",
          "name": "proposalId",
          "type": "uint256"
        },
        {
          "indexed": true,
          "internalType": "address",
          "name": "voter",
          "type": "address"
        },
        {
          "indexed": false,
          "internalType": "uint256",
          "name": "optionIndex",
          "type": "uint256"
        }
      ],
      "name": "Voted",
      "type": "event"
    },
    {
      "inputs": [
        {
          "internalType": "address",
          "name": "_newOwner",
          "type": "address"
        }
      ],
      "name": "addOwner",
      "outputs": [],
      "stateMutability": "nonpayable",
      "type": "function"
    },
    {
      "inputs": [
        {
          "internalType": "string",
          "name": "_name",
          "type": "string"
        },
        {
          "internalType": "string",
          "name": "_description",
          "type": "string"
        },
        {
          "internalType": "string",
          "name": "_execution",
          "type": "string"
        },
        {
          "internalType": "uint256",
          "name": "_timeInMinutes",
          "type": "uint256"
        },
        {
          "internalType": "string[]",
          "name": "_optionNames",
          "type": "string[]"
        }
      ],
      "name": "createProposal",
      "outputs": [],
      "stateMutability": "nonpayable",
      "type": "function"
    },
    {
      "inputs": [],
      "name": "dao",
      "outputs": [
        {
          "internalType": "address",
          "name": "",
          "type": "address"
        }
      ],
      "stateMutability": "view",
      "type": "function"
    },
    {
      "inputs": [
        {
          "internalType": "uint256",
          "name": "_proposalId",
          "type": "uint256"
        },
        {
          "internalType": "uint256",
          "name": "_optionIndex",
          "type": "uint256"
        }
      ],
      "name": "getOptionVotes",
      "outputs": [
        {
          "internalType": "uint256",
          "name": "votes",
          "type": "uint256"
        }
      ],
      "stateMutability": "view",
      "type": "function"
    },
    {
      "inputs": [
        {
          "internalType": "uint256",
          "name": "_proposalId",
          "type": "uint256"
        }
      ],
      "name": "getOptionsCount",
      "outputs": [
        {
          "internalType": "uint256",
          "name": "",
          "type": "uint256"
        }
      ],
      "stateMutability": "view",
      "type": "function"
    },
    {
      "inputs": [
        {
          "internalType": "uint256",
          "name": "_proposalId",
          "type": "uint256"
        }
      ],
      "name": "getWinner",
      "outputs": [
        {
          "internalType": "uint256",
          "name": "winningOptionIndex",
          "type": "uint256"
        }
      ],
      "stateMutability": "view",
      "type": "function"
    },
    {
      "inputs": [
        {
          "internalType": "address",
          "name": "",
          "type": "address"
        }
      ],
      "name": "isOwner",
      "outputs": [
        {
          "internalType": "bool",
          "name": "",
          "type": "bool"
        }
      ],
      "stateMutability": "view",
      "type": "function"
    },
    {
      "inputs": [],
      "name": "kubidToken",
      "outputs": [
        {
          "internalType": "contract IERC20",
          "name": "",
          "type": "address"
        }
      ],
      "stateMutability": "view",
      "type": "function"
    },
    {
      "inputs": [
        {
          "internalType": "address",
          "name": "_owner",
          "type": "address"
        }
      ],
      "name": "removeOwner",
      "outputs": [],
      "stateMutability": "nonpayable",
      "type": "function"
    },
    {
      "inputs": [
        {
          "internalType": "uint256",
          "name": "_proposalId",
          "type": "uint256"
        },
        {
          "internalType": "address",
          "name": "_voter",
          "type": "address"
        },
        {
          "internalType": "uint256",
          "name": "_optionIndex",
          "type": "uint256"
        }
      ],
      "name": "vote",
      "outputs": [],
      "stateMutability": "nonpayable",
      "type": "function"
    }
  ],
  "bytecode": "0x60806040523480156200001157600080fd5b50604051620019f6380380620019f6833981810160405281019062000037919062000234565b836000806101000a81548173ffffffffffffffffffffffffffffffffffffffff021916908373ffffffffffffffffffffffffffffffffffffffff16021790555082600160006101000a81548173ffffffffffffffffffffffffffffffffffffffff021916908373ffffffffffffffffffffffffffffffffffffffff1602179055506001600360003373ffffffffffffffffffffffffffffffffffffffff1673ffffffffffffffffffffffffffffffffffffffff16815260200190815260200160002060006101000a81548160ff0219169083151502179055506001600360008473ffffffffffffffffffffffffffffffffffffffff1673ffffffffffffffffffffffffffffffffffffffff16815260200190815260200160002060006101000a81548160ff0219169083151502179055506001600360008373ffffffffffffffffffffffffffffffffffffffff1673ffffffffffffffffffffffffffffffffffffffff16815260200190815260200160002060006101000a81548160ff02191690831515021790555050505050620002a6565b600080fd5b600073ffffffffffffffffffffffffffffffffffffffff82169050919050565b6000620001fc82620001cf565b9050919050565b6200020e81620001ef565b81146200021a57600080fd5b50565b6000815190506200022e8162000203565b92915050565b60008060008060808587031215620002515762000250620001ca565b5b600062000261878288016200021d565b945050602062000274878288016200021d565b935050604062000287878288016200021d565b92505060606200029a878288016200021d565b91505092959194509250565b61174080620002b66000396000f3fe608060405234801561001057600080fd5b506004361061009e5760003560e01c8063517a625711610066578063517a6257146101595780635c5dab67146101895780637065cb48146101a7578063778d5547146101c3578063e7ea088f146101df5761009e565b8063173825d9146100a35780632f54bf6e146100bf5780634129b2c9146100ef5780634162169f1461011f5780634de8737c1461013d575b600080fd5b6100bd60048036038101906100b89190610ca9565b61020f565b005b6100d960048036038101906100d49190610ca9565b6102f6565b6040516100e69190610cf1565b60405180910390f35b61010960048036038101906101049190610d42565b610316565b6040516101169190610d7e565b60405180910390f35b610127610408565b6040516101349190610da8565b60405180910390f35b61015760048036038101906101529190610dc3565b61042e565b005b610173600480360381019061016e9190610d42565b6107e5565b6040516101809190610d7e565b60405180910390f35b610191610864565b60405161019e9190610e75565b60405180910390f35b6101c160048036038101906101bc9190610ca9565b610888565b005b6101dd60048036038101906101d891906110bc565b61096f565b005b6101f960048036038101906101f491906111a7565b610b52565b6040516102069190610d7e565b60405180910390f35b600360003373ffffffffffffffffffffffffffffffffffffffff1673ffffffffffffffffffffffffffffffffffffffff16815260200190815260200160002060009054906101000a900460ff1661029b576040517f08c379a000000000000000000000000000000000000000000000000000000000815260040161029290611244565b60405180910390fd5b6000600360008373ffffffffffffffffffffffffffffffffffffffff1673ffffffffffffffffffffffffffffffffffffffff16815260200190815260200160002060006101000a81548160ff02191690831515021790555050565b60036020528060005260406000206000915054906101000a900460ff1681565b6000600280549050821061035f576040517f08c379a0000000000000000000000000000000000000000000000000000000008152600401610356906112b0565b60405180910390fd5b600060028381548110610375576103746112d0565b5b906000526020600020906005020190506000805b826004018054905081101561040057818360040182815481106103af576103ae6112d0565b5b906000526020600020016000015411156103ed578260040181815481106103d9576103d86112d0565b5b906000526020600020016000015491508093505b80806103f89061132e565b915050610389565b505050919050565b600160009054906101000a900473ffffffffffffffffffffffffffffffffffffffff1681565b826002805490508110610476576040517f08c379a000000000000000000000000000000000000000000000000000000000815260040161046d906112b0565b60405180910390fd5b60006002828154811061048c5761048b6112d0565b5b90600052602060002090600502019050603c81600201546104ad9190611376565b81600301546104bc91906113b8565b4211156104fe576040517f08c379a00000000000000000000000000000000000000000000000000000000081526004016104f590611438565b60405180910390fd5b6002805490508510610545576040517f08c379a000000000000000000000000000000000000000000000000000000000815260040161053c906112b0565b60405180910390fd5b60006002868154811061055b5761055a6112d0565b5b906000526020600020906005020190508060010160008673ffffffffffffffffffffffffffffffffffffffff1673ffffffffffffffffffffffffffffffffffffffff16815260200190815260200160002060009054906101000a900460ff16156105fa576040517f08c379a00000000000000000000000000000000000000000000000000000000081526004016105f1906114a4565b60405180910390fd5b60008060009054906101000a900473ffffffffffffffffffffffffffffffffffffffff1673ffffffffffffffffffffffffffffffffffffffff166370a08231876040518263ffffffff1660e01b81526004016106569190610da8565b602060405180830381865afa158015610673573d6000803e3d6000fd5b505050506040513d601f19601f8201168201806040525081019061069791906114d9565b9050600081116106dc576040517f08c379a00000000000000000000000000000000000000000000000000000000081526004016106d390611552565b60405180910390fd5b60018260010160008873ffffffffffffffffffffffffffffffffffffffff1673ffffffffffffffffffffffffffffffffffffffff16815260200190815260200160002060006101000a81548160ff021916908315150217905550600182600001600082825461074b91906113b8565b92505081905550600182600401868154811061076a576107696112d0565b5b90600052602060002001600001600082825461078691906113b8565b925050819055508573ffffffffffffffffffffffffffffffffffffffff16877f1abe610cf2bf87e57dcc1181fcf5ac0934e843d8344ab9eed6e86c799f62585e876040516107d49190610d7e565b60405180910390a350505050505050565b6000600280549050821061082e576040517f08c379a0000000000000000000000000000000000000000000000000000000008152600401610825906112b0565b60405180910390fd5b600060028381548110610844576108436112d0565b5b906000526020600020906005020190508060040180549050915050919050565b60008054906101000a900473ffffffffffffffffffffffffffffffffffffffff1681565b600360003373ffffffffffffffffffffffffffffffffffffffff1673ffffffffffffffffffffffffffffffffffffffff16815260200190815260200160002060009054906101000a900460ff16610914576040517f08c379a000000000000000000000000000000000000000000000000000000000815260040161090b90611244565b60405180910390fd5b6001600360008373ffffffffffffffffffffffffffffffffffffffff1673ffffffffffffffffffffffffffffffffffffffff16815260200190815260200160002060006101000a81548160ff02191690831515021790555050565b600360003373ffffffffffffffffffffffffffffffffffffffff1673ffffffffffffffffffffffffffffffffffffffff16815260200190815260200160002060009054906101000a900460ff166109fb576040517f08c379a00000000000000000000000000000000000000000000000000000000081526004016109f290611244565b60405180910390fd5b6000600260018160018154018082558091505003906000526020600020906005020190506000816000018190555082816002018190555042816003018190555060006001600280549050610a4f9190611572565b9050807f3720bdc6284a997df2fcbd6d07223003008fa8f862ab89cd44bd5974bcf8344c8888888842604051610a89959493929190611614565b60405180910390a260005b8351811015610b485782600401604051806020016040528060008152509080600181540180825580915050600190039060005260206000200160009091909190915060008201518160000155505080827fd3b5cef521b08344b2f3822456355f6c2603e7f00a271d0215ac4760a401fc48868481518110610b1857610b176112d0565b5b6020026020010151604051610b2d919061167c565b60405180910390a38080610b409061132e565b915050610a94565b5050505050505050565b60006002805490508310610b9b576040517f08c379a0000000000000000000000000000000000000000000000000000000008152600401610b92906112b0565b60405180910390fd5b600060028481548110610bb157610bb06112d0565b5b9060005260206000209060050201905080600401805490508310610c0a576040517f08c379a0000000000000000000000000000000000000000000000000000000008152600401610c01906116ea565b60405180910390fd5b806004018381548110610c2057610c1f6112d0565b5b906000526020600020016000015491505092915050565b6000604051905090565b600080fd5b600080fd5b600073ffffffffffffffffffffffffffffffffffffffff82169050919050565b6000610c7682610c4b565b9050919050565b610c8681610c6b565b8114610c9157600080fd5b50565b600081359050610ca381610c7d565b92915050565b600060208284031215610cbf57610cbe610c41565b5b6000610ccd84828501610c94565b91505092915050565b60008115159050919050565b610ceb81610cd6565b82525050565b6000602082019050610d066000830184610ce2565b92915050565b6000819050919050565b610d1f81610d0c565b8114610d2a57600080fd5b50565b600081359050610d3c81610d16565b92915050565b600060208284031215610d5857610d57610c41565b5b6000610d6684828501610d2d565b91505092915050565b610d7881610d0c565b82525050565b6000602082019050610d936000830184610d6f565b92915050565b610da281610c6b565b82525050565b6000602082019050610dbd6000830184610d99565b92915050565b600080600060608486031215610ddc57610ddb610c41565b5b6000610dea86828701610d2d565b9350506020610dfb86828701610c94565b9250506040610e0c86828701610d2d565b9150509250925092565b6000819050919050565b6000610e3b610e36610e3184610c4b565b610e16565b610c4b565b9050919050565b6000610e4d82610e20565b9050919050565b6000610e5f82610e42565b9050919050565b610e6f81610e54565b82525050565b6000602082019050610e8a6000830184610e66565b92915050565b600080fd5b600080fd5b6000601f19601f8301169050919050565b7f4e487b7100000000000000000000000000000000000000000000000000000000600052604160045260246000fd5b610ee382610e9a565b810181811067ffffffffffffffff82111715610f0257610f01610eab565b5b80604052505050565b6000610f15610c37565b9050610f218282610eda565b919050565b600067ffffffffffffffff821115610f4157610f40610eab565b5b610f4a82610e9a565b9050602081019050919050565b82818337600083830152505050565b6000610f79610f7484610f26565b610f0b565b905082815260208101848484011115610f9557610f94610e95565b5b610fa0848285610f57565b509392505050565b600082601f830112610fbd57610fbc610e90565b5b8135610fcd848260208601610f66565b91505092915050565b600067ffffffffffffffff821115610ff157610ff0610eab565b5b602082029050602081019050919050565b600080fd5b600061101a61101584610fd6565b610f0b565b9050808382526020820190506020840283018581111561103d5761103c611002565b5b835b8181101561108457803567ffffffffffffffff81111561106257611061610e90565b5b80860161106f8982610fa8565b8552602085019450505060208101905061103f565b5050509392505050565b600082601f8301126110a3576110a2610e90565b5b81356110b3848260208601611007565b91505092915050565b600080600080600060a086880312156110d8576110d7610c41565b5b600086013567ffffffffffffffff8111156110f6576110f5610c46565b5b61110288828901610fa8565b955050602086013567ffffffffffffffff81111561112357611122610c46565b5b61112f88828901610fa8565b945050604086013567ffffffffffffffff8111156111505761114f610c46565b5b61115c88828901610fa8565b935050606061116d88828901610d2d565b925050608086013567ffffffffffffffff81111561118e5761118d610c46565b5b61119a8882890161108e565b9150509295509295909350565b600080604083850312156111be576111bd610c41565b5b60006111cc85828601610d2d565b92505060206111dd85828601610d2d565b9150509250929050565b600082825260208201905092915050565b7f43616c6c6572206973206e6f7420616e206f776e657200000000000000000000600082015250565b600061122e6016836111e7565b9150611239826111f8565b602082019050919050565b6000602082019050818103600083015261125d81611221565b9050919050565b7f496e76616c69642070726f706f73616c20494400000000000000000000000000600082015250565b600061129a6013836111e7565b91506112a582611264565b602082019050919050565b600060208201905081810360008301526112c98161128d565b9050919050565b7f4e487b7100000000000000000000000000000000000000000000000000000000600052603260045260246000fd5b7f4e487b7100000000000000000000000000000000000000000000000000000000600052601160045260246000fd5b600061133982610d0c565b91507fffffffffffffffffffffffffffffffffffffffffffffffffffffffffffffffff820361136b5761136a6112ff565b5b600182019050919050565b600061138182610d0c565b915061138c83610d0c565b925082820261139a81610d0c565b915082820484148315176113b1576113b06112ff565b5b5092915050565b60006113c382610d0c565b91506113ce83610d0c565b92508282019050808211156113e6576113e56112ff565b5b92915050565b7f566f74696e672074696d65206578706972656400000000000000000000000000600082015250565b60006114226013836111e7565b915061142d826113ec565b602082019050919050565b6000602082019050818103600083015261145181611415565b9050919050565b7f416c726561647920766f74656400000000000000000000000000000000000000600082015250565b600061148e600d836111e7565b915061149982611458565b602082019050919050565b600060208201905081810360008301526114bd81611481565b9050919050565b6000815190506114d381610d16565b92915050565b6000602082840312156114ef576114ee610c41565b5b60006114fd848285016114c4565b91505092915050565b7f4e6f204b5542494420746f6b656e730000000000000000000000000000000000600082015250565b600061153c600f836111e7565b915061154782611506565b602082019050919050565b6000602082019050818103600083015261156b8161152f565b9050919050565b600061157d82610d0c565b915061158883610d0c565b92508282039050818111156115a05761159f6112ff565b5b92915050565b600081519050919050565b60005b838110156115cf5780820151818401526020810190506115b4565b60008484015250505050565b60006115e6826115a6565b6115f081856111e7565b93506116008185602086016115b1565b61160981610e9a565b840191505092915050565b600060a082019050818103600083015261162e81886115db565b9050818103602083015261164281876115db565b9050818103604083015261165681866115db565b90506116656060830185610d6f565b6116726080830184610d6f565b9695505050505050565b6000602082019050818103600083015261169681846115db565b905092915050565b7f496e76616c6964206f7074696f6e20696e646578000000000000000000000000600082015250565b60006116d46014836111e7565b91506116df8261169e565b602082019050919050565b60006020820190508181036000830152611703816116c7565b905091905056fea2646970667358221220e418750a3a4fc91070fbcd2c7418654d88b5734e7fe2f961794404d8a5314f2864736f6c63430008120033",
  "linkReferences": {},
  "deployedLinkReferences": {}
}