{
  "_format": "hh-sol-artifact-1",
  "contractName": "KubidVoting",
  "sourceName": "contracts/KUBIDvoting.sol",
  "abi": [
    {
      "inputs": [
        {
          "internalType": "address",
          "name": "_kubidToken",
          "type": "address"
        },
        {
          "internalType": "address",
          "name": "_dao",
          "type": "address"
        }
      ],
      "stateMutability": "nonpayable",
      "type": "constructor"
    },
    {
      "anonymous": false,
      "inputs": [
        {
          "indexed": true,
          "internalType": "string",
          "name": "newHash",
          "type": "string"
        }
      ],
      "name": "NewIPFSHash",
      "type": "event"
    },
    {
      "anonymous": false,
      "inputs": [
        {
          "indexed": true,
          "internalType": "uint256",
          "name": "proposalId",
          "type": "uint256"
        },
        {
          "indexed": false,
          "internalType": "string",
          "name": "name",
          "type": "string"
        }
      ],
      "name": "NewProposal",
      "type": "event"
    },
    {
      "anonymous": false,
      "inputs": [
        {
          "indexed": true,
          "internalType": "uint256",
          "name": "proposalId",
          "type": "uint256"
        }
      ],
      "name": "ProposalCompleted",
      "type": "event"
    },
    {
      "anonymous": false,
      "inputs": [
        {
          "indexed": true,
          "internalType": "uint256",
          "name": "proposalId",
          "type": "uint256"
        },
        {
          "indexed": true,
          "internalType": "address",
          "name": "voter",
          "type": "address"
        },
        {
          "indexed": false,
          "internalType": "uint256",
          "name": "optionIndex",
          "type": "uint256"
        }
      ],
      "name": "Voted",
      "type": "event"
    },
    {
      "inputs": [
        {
          "internalType": "uint256",
          "name": "",
          "type": "uint256"
        }
      ],
      "name": "activeProposalIndices",
      "outputs": [
        {
          "internalType": "uint256",
          "name": "",
          "type": "uint256"
        }
      ],
      "stateMutability": "view",
      "type": "function"
    },
    {
      "inputs": [
        {
          "internalType": "uint256",
          "name": "",
          "type": "uint256"
        }
      ],
      "name": "activeProposals",
      "outputs": [
        {
          "internalType": "string",
          "name": "name",
          "type": "string"
        },
        {
          "internalType": "string",
          "name": "description",
          "type": "string"
        },
        {
          "internalType": "string",
          "name": "execution",
          "type": "string"
        },
        {
          "internalType": "uint256",
          "name": "totalVotes",
          "type": "uint256"
        },
        {
          "internalType": "uint256",
          "name": "timeInMinutes",
          "type": "uint256"
        },
        {
          "internalType": "uint256",
          "name": "creationTimestamp",
          "type": "uint256"
        }
      ],
      "stateMutability": "view",
      "type": "function"
    },
    {
      "inputs": [],
      "name": "activeProposalsCount",
      "outputs": [
        {
          "internalType": "uint256",
          "name": "",
          "type": "uint256"
        }
      ],
      "stateMutability": "view",
      "type": "function"
    },
    {
      "inputs": [
        {
          "internalType": "uint256",
          "name": "",
          "type": "uint256"
        }
      ],
      "name": "completedProposalIndices",
      "outputs": [
        {
          "internalType": "uint256",
          "name": "",
          "type": "uint256"
        }
      ],
      "stateMutability": "view",
      "type": "function"
    },
    {
      "inputs": [],
      "name": "completedProposalsCount",
      "outputs": [
        {
          "internalType": "uint256",
          "name": "",
          "type": "uint256"
        }
      ],
      "stateMutability": "view",
      "type": "function"
    },
    {
      "inputs": [
        {
          "internalType": "string",
          "name": "_name",
          "type": "string"
        },
        {
          "internalType": "string",
          "name": "_description",
          "type": "string"
        },
        {
          "internalType": "string",
          "name": "_execution",
          "type": "string"
        },
        {
          "internalType": "uint256",
          "name": "_timeInMinutes",
          "type": "uint256"
        },
        {
          "internalType": "string[]",
          "name": "_options",
          "type": "string[]"
        }
      ],
      "name": "createProposal",
      "outputs": [],
      "stateMutability": "nonpayable",
      "type": "function"
    },
    {
      "inputs": [],
      "name": "dao",
      "outputs": [
        {
          "internalType": "address",
          "name": "",
          "type": "address"
        }
      ],
      "stateMutability": "view",
      "type": "function"
    },
    {
      "inputs": [],
      "name": "getIPFSHash",
      "outputs": [
        {
          "internalType": "string",
          "name": "",
          "type": "string"
        }
      ],
      "stateMutability": "view",
      "type": "function"
    },
    {
      "inputs": [
        {
          "internalType": "uint256",
          "name": "_proposalId",
          "type": "uint256"
        },
        {
          "internalType": "uint256",
          "name": "_optionIndex",
          "type": "uint256"
        }
      ],
      "name": "getOption",
      "outputs": [
        {
          "internalType": "string",
          "name": "optionName",
          "type": "string"
        },
        {
          "internalType": "uint256",
          "name": "votes",
          "type": "uint256"
        }
      ],
      "stateMutability": "view",
      "type": "function"
    },
    {
      "inputs": [
        {
          "internalType": "uint256",
          "name": "_proposalId",
          "type": "uint256"
        }
      ],
      "name": "getOptionsCount",
      "outputs": [
        {
          "internalType": "uint256",
          "name": "",
          "type": "uint256"
        }
      ],
      "stateMutability": "view",
      "type": "function"
    },
    {
      "inputs": [
        {
          "internalType": "uint256",
          "name": "_completedProposalIndex",
          "type": "uint256"
        }
      ],
      "name": "getWinner",
      "outputs": [
        {
          "internalType": "string",
          "name": "",
          "type": "string"
        }
      ],
      "stateMutability": "view",
      "type": "function"
    },
    {
      "inputs": [],
      "name": "ipfsHash",
      "outputs": [
        {
          "internalType": "string",
          "name": "",
          "type": "string"
        }
      ],
      "stateMutability": "view",
      "type": "function"
    },
    {
      "inputs": [],
      "name": "kubidToken",
      "outputs": [
        {
          "internalType": "contract IERC20",
          "name": "",
          "type": "address"
        }
      ],
      "stateMutability": "view",
      "type": "function"
    },
    {
      "inputs": [],
      "name": "moveToCompleted",
      "outputs": [],
      "stateMutability": "nonpayable",
      "type": "function"
    },
    {
      "inputs": [
        {
          "internalType": "string",
          "name": "_ipfsHash",
          "type": "string"
        }
      ],
      "name": "setIPFSHash",
      "outputs": [],
      "stateMutability": "nonpayable",
      "type": "function"
    },
    {
      "inputs": [
        {
          "internalType": "uint256",
          "name": "_proposalId",
          "type": "uint256"
        },
        {
          "internalType": "address",
          "name": "_voter",
          "type": "address"
        },
        {
          "internalType": "uint256",
          "name": "_optionIndex",
          "type": "uint256"
        }
      ],
      "name": "vote",
      "outputs": [],
      "stateMutability": "nonpayable",
      "type": "function"
    }
  ],
  "bytecode": "0x60806040523480156200001157600080fd5b506040516200216538038062002165833981810160405281019062000037919062000154565b816000806101000a81548173ffffffffffffffffffffffffffffffffffffffff021916908373ffffffffffffffffffffffffffffffffffffffff16021790555080600160006101000a81548173ffffffffffffffffffffffffffffffffffffffff021916908373ffffffffffffffffffffffffffffffffffffffff16021790555060046000908060018154018082558091505060019003906000526020600020016000909190919091505550506200019b565b600080fd5b600073ffffffffffffffffffffffffffffffffffffffff82169050919050565b60006200011c82620000ef565b9050919050565b6200012e816200010f565b81146200013a57600080fd5b50565b6000815190506200014e8162000123565b92915050565b600080604083850312156200016e576200016d620000ea565b5b60006200017e858286016200013d565b925050602062000191858286016200013d565b9150509250929050565b611fba80620001ab6000396000f3fe608060405234801561001057600080fd5b50600436106101005760003560e01c80635c5dab6711610097578063c623674f11610066578063c623674f146102b0578063e40824f8146102ce578063f9232e1d14610303578063fb0cb3ca1461030d57610100565b80635c5dab671461023c578063778d55471461025a5780637f30b7c014610276578063b8a76f541461029457610100565b80634162169f116100d35780634162169f146101a257806342501dae146101c05780634de8737c146101f0578063517a62571461020c57610100565b80631ce309271461010557806320b28ade146101365780632116c347146101545780634129b2c914610172575b600080fd5b61011f600480360381019061011a9190611259565b61033d565b60405161012d929190611338565b60405180910390f35b61013e610430565b60405161014b9190611368565b60405180910390f35b61015c6104c2565b604051610169919061138a565b60405180910390f35b61018c600480360381019061018791906113a5565b6104db565b6040516101999190611368565b60405180910390f35b6101aa61066a565b6040516101b79190611413565b60405180910390f35b6101da60048036038101906101d591906113a5565b610690565b6040516101e7919061138a565b60405180910390f35b61020a6004803603810190610205919061145a565b6106b4565b005b610226600480360381019061022191906113a5565b6109c3565b604051610233919061138a565b60405180910390f35b6102446109fa565b604051610251919061150c565b60405180910390f35b610274600480360381019061026f9190611742565b610a1e565b005b61027e610c57565b60405161028b919061138a565b60405180910390f35b6102ae60048036038101906102a9919061182d565b610c64565b005b6102b8610d49565b6040516102c59190611368565b60405180910390f35b6102e860048036038101906102e391906113a5565b610dd7565b6040516102fa96959493929190611876565b60405180910390f35b61030b610fbb565b005b610327600480360381019061032291906113a5565b6111eb565b604051610334919061138a565b60405180910390f35b606060008060038581548110610356576103556118ec565b5b90600052602060002090600802019050600081600701858154811061037e5761037d6118ec565b5b906000526020600020906002020190508060000181600101548180546103a39061194a565b80601f01602080910402602001604051908101604052809291908181526020018280546103cf9061194a565b801561041c5780601f106103f15761010080835404028352916020019161041c565b820191906000526020600020905b8154815290600101906020018083116103ff57829003601f168201915b505050505091509350935050509250929050565b60606002805461043f9061194a565b80601f016020809104026020016040519081016040528092919081815260200182805461046b9061194a565b80156104b85780601f1061048d576101008083540402835291602001916104b8565b820191906000526020600020905b81548152906001019060200180831161049b57829003601f168201915b5050505050905090565b600060016004805490506104d691906119aa565b905090565b60606000600583815481106104f3576104f26118ec565b5b90600052602060002001549050600060038281548110610516576105156118ec565b5b9060005260206000209060080201905060008080600090505b83600701805490508110156105ae5782846007018281548110610555576105546118ec565b5b906000526020600020906002020160010154111561059b57836007018181548110610583576105826118ec565b5b90600052602060002090600202016001015492508091505b80806105a6906119de565b91505061052f565b508260070181815481106105c5576105c46118ec565b5b906000526020600020906002020160000180546105e19061194a565b80601f016020809104026020016040519081016040528092919081815260200182805461060d9061194a565b801561065a5780601f1061062f5761010080835404028352916020019161065a565b820191906000526020600020905b81548152906001019060200180831161063d57829003601f168201915b5050505050945050505050919050565b600160009054906101000a900473ffffffffffffffffffffffffffffffffffffffff1681565b600481815481106106a057600080fd5b906000526020600020016000915090505481565b826000600382815481106106cb576106ca6118ec565b5b90600052602060002090600802019050603c81600501546106ec9190611a26565b81600601546106fb9190611a68565b42111561073d576040517f08c379a000000000000000000000000000000000000000000000000000000000815260040161073490611ae8565b60405180910390fd5b600060038681548110610753576107526118ec565b5b9060005260206000209060080201905060008160040160008773ffffffffffffffffffffffffffffffffffffffff1673ffffffffffffffffffffffffffffffffffffffff16815260200190815260200160002054146107e7576040517f08c379a00000000000000000000000000000000000000000000000000000000081526004016107de90611b54565b60405180910390fd5b60008060009054906101000a900473ffffffffffffffffffffffffffffffffffffffff1673ffffffffffffffffffffffffffffffffffffffff166370a08231876040518263ffffffff1660e01b81526004016108439190611413565b602060405180830381865afa158015610860573d6000803e3d6000fd5b505050506040513d601f19601f820116820180604052508101906108849190611b89565b9050600081116108c9576040517f08c379a00000000000000000000000000000000000000000000000000000000081526004016108c090611c02565b60405180910390fd5b60018260040160008873ffffffffffffffffffffffffffffffffffffffff1673ffffffffffffffffffffffffffffffffffffffff1681526020019081526020016000208190555060018260030160008282546109259190611a68565b925050819055506001826007018681548110610944576109436118ec565b5b906000526020600020906002020160010160008282546109649190611a68565b925050819055508573ffffffffffffffffffffffffffffffffffffffff16877f1abe610cf2bf87e57dcc1181fcf5ac0934e843d8344ab9eed6e86c799f62585e876040516109b2919061138a565b60405180910390a350505050505050565b600080600383815481106109da576109d96118ec565b5b906000526020600020906008020190508060070180549050915050919050565b60008054906101000a900473ffffffffffffffffffffffffffffffffffffffff1681565b600160009054906101000a900473ffffffffffffffffffffffffffffffffffffffff1673ffffffffffffffffffffffffffffffffffffffff163373ffffffffffffffffffffffffffffffffffffffff1614610aae576040517f08c379a0000000000000000000000000000000000000000000000000000000008152600401610aa590611c6e565b60405180910390fd5b600060038054905090506004819080600181540180825580915050600190039060005260206000200160009091909190915055600360018160018154018082558091505003906000526020600020905050600060038281548110610b1557610b146118ec565b5b9060005260206000209060080201905086816000019081610b369190611e30565b5085816001019081610b489190611e30565b5084816002019081610b5a9190611e30565b506000816003018190555083816005018190555042816006018190555060005b8351811015610c1557816007016040518060400160405280868481518110610ba557610ba46118ec565b5b60200260200101518152602001600081525090806001815401808255809150506001900390600052602060002090600202016000909190919091506000820151816000019081610bf59190611e30565b506020820151816001015550508080610c0d906119de565b915050610b7a565b50817fa9ef596c73fbcfb4a78bc139b1a19c35247c1f37d2489c0513ad2dd3eb7d8c6b88604051610c469190611368565b60405180910390a250505050505050565b6000600580549050905090565b600160009054906101000a900473ffffffffffffffffffffffffffffffffffffffff1673ffffffffffffffffffffffffffffffffffffffff163373ffffffffffffffffffffffffffffffffffffffff1614610cf4576040517f08c379a0000000000000000000000000000000000000000000000000000000008152600401610ceb90611c6e565b60405180910390fd5b8060029081610d039190611e30565b5080604051610d129190611f3e565b60405180910390207f37859dd8d1940a4cba3d502dd5409ffd529824471ca7cde7e604253be94f1eef60405160405180910390a250565b60028054610d569061194a565b80601f0160208091040260200160405190810160405280929190818152602001828054610d829061194a565b8015610dcf5780601f10610da457610100808354040283529160200191610dcf565b820191906000526020600020905b815481529060010190602001808311610db257829003601f168201915b505050505081565b60038181548110610de757600080fd5b9060005260206000209060080201600091509050806000018054610e0a9061194a565b80601f0160208091040260200160405190810160405280929190818152602001828054610e369061194a565b8015610e835780601f10610e5857610100808354040283529160200191610e83565b820191906000526020600020905b815481529060010190602001808311610e6657829003601f168201915b505050505090806001018054610e989061194a565b80601f0160208091040260200160405190810160405280929190818152602001828054610ec49061194a565b8015610f115780601f10610ee657610100808354040283529160200191610f11565b820191906000526020600020905b815481529060010190602001808311610ef457829003601f168201915b505050505090806002018054610f269061194a565b80601f0160208091040260200160405190810160405280929190818152602001828054610f529061194a565b8015610f9f5780601f10610f7457610100808354040283529160200191610f9f565b820191906000526020600020905b815481529060010190602001808311610f8257829003601f168201915b5050505050908060030154908060050154908060060154905086565b600160009054906101000a900473ffffffffffffffffffffffffffffffffffffffff1673ffffffffffffffffffffffffffffffffffffffff163373ffffffffffffffffffffffffffffffffffffffff161461104b576040517f08c379a000000000000000000000000000000000000000000000000000000000815260040161104290611c6e565b60405180910390fd5b6000600190505b6004805490508110156111e857600060048281548110611075576110746118ec565b5b90600052602060002001549050600060038281548110611098576110976118ec565b5b90600052602060002090600802019050603c81600501546110b99190611a26565b81600601546110c89190611a68565b4211156111d2576005829080600181540180825580915050600190039060005260206000200160009091909190915055817f71611adb0c8d2eea43359b2e41e5fdf96309ce734ed1eb78ceb763198c1b896760405160405180910390a260008390505b600160048054905061113d91906119aa565b8110156111a45760046001826111539190611a68565b81548110611164576111636118ec565b5b906000526020600020015460048281548110611183576111826118ec565b5b9060005260206000200181905550808061119c906119de565b91505061112b565b5060048054806111b7576111b6611f55565b5b600190038181906000526020600020016000905590556111e1565b82806111dd906119de565b9350505b5050611052565b50565b600581815481106111fb57600080fd5b906000526020600020016000915090505481565b6000604051905090565b600080fd5b600080fd5b6000819050919050565b61123681611223565b811461124157600080fd5b50565b6000813590506112538161122d565b92915050565b600080604083850312156112705761126f611219565b5b600061127e85828601611244565b925050602061128f85828601611244565b9150509250929050565b600081519050919050565b600082825260208201905092915050565b60005b838110156112d35780820151818401526020810190506112b8565b60008484015250505050565b6000601f19601f8301169050919050565b60006112fb82611299565b61130581856112a4565b93506113158185602086016112b5565b61131e816112df565b840191505092915050565b61133281611223565b82525050565b6000604082019050818103600083015261135281856112f0565b90506113616020830184611329565b9392505050565b6000602082019050818103600083015261138281846112f0565b905092915050565b600060208201905061139f6000830184611329565b92915050565b6000602082840312156113bb576113ba611219565b5b60006113c984828501611244565b91505092915050565b600073ffffffffffffffffffffffffffffffffffffffff82169050919050565b60006113fd826113d2565b9050919050565b61140d816113f2565b82525050565b60006020820190506114286000830184611404565b92915050565b611437816113f2565b811461144257600080fd5b50565b6000813590506114548161142e565b92915050565b60008060006060848603121561147357611472611219565b5b600061148186828701611244565b935050602061149286828701611445565b92505060406114a386828701611244565b9150509250925092565b6000819050919050565b60006114d26114cd6114c8846113d2565b6114ad565b6113d2565b9050919050565b60006114e4826114b7565b9050919050565b60006114f6826114d9565b9050919050565b611506816114eb565b82525050565b600060208201905061152160008301846114fd565b92915050565b600080fd5b600080fd5b7f4e487b7100000000000000000000000000000000000000000000000000000000600052604160045260246000fd5b611569826112df565b810181811067ffffffffffffffff8211171561158857611587611531565b5b80604052505050565b600061159b61120f565b90506115a78282611560565b919050565b600067ffffffffffffffff8211156115c7576115c6611531565b5b6115d0826112df565b9050602081019050919050565b82818337600083830152505050565b60006115ff6115fa846115ac565b611591565b90508281526020810184848401111561161b5761161a61152c565b5b6116268482856115dd565b509392505050565b600082601f83011261164357611642611527565b5b81356116538482602086016115ec565b91505092915050565b600067ffffffffffffffff82111561167757611676611531565b5b602082029050602081019050919050565b600080fd5b60006116a061169b8461165c565b611591565b905080838252602082019050602084028301858111156116c3576116c2611688565b5b835b8181101561170a57803567ffffffffffffffff8111156116e8576116e7611527565b5b8086016116f5898261162e565b855260208501945050506020810190506116c5565b5050509392505050565b600082601f83011261172957611728611527565b5b813561173984826020860161168d565b91505092915050565b600080600080600060a0868803121561175e5761175d611219565b5b600086013567ffffffffffffffff81111561177c5761177b61121e565b5b6117888882890161162e565b955050602086013567ffffffffffffffff8111156117a9576117a861121e565b5b6117b58882890161162e565b945050604086013567ffffffffffffffff8111156117d6576117d561121e565b5b6117e28882890161162e565b93505060606117f388828901611244565b925050608086013567ffffffffffffffff8111156118145761181361121e565b5b61182088828901611714565b9150509295509295909350565b60006020828403121561184357611842611219565b5b600082013567ffffffffffffffff8111156118615761186061121e565b5b61186d8482850161162e565b91505092915050565b600060c082019050818103600083015261189081896112f0565b905081810360208301526118a481886112f0565b905081810360408301526118b881876112f0565b90506118c76060830186611329565b6118d46080830185611329565b6118e160a0830184611329565b979650505050505050565b7f4e487b7100000000000000000000000000000000000000000000000000000000600052603260045260246000fd5b7f4e487b7100000000000000000000000000000000000000000000000000000000600052602260045260246000fd5b6000600282049050600182168061196257607f821691505b6020821081036119755761197461191b565b5b50919050565b7f4e487b7100000000000000000000000000000000000000000000000000000000600052601160045260246000fd5b60006119b582611223565b91506119c083611223565b92508282039050818111156119d8576119d761197b565b5b92915050565b60006119e982611223565b91507fffffffffffffffffffffffffffffffffffffffffffffffffffffffffffffffff8203611a1b57611a1a61197b565b5b600182019050919050565b6000611a3182611223565b9150611a3c83611223565b9250828202611a4a81611223565b91508282048414831517611a6157611a6061197b565b5b5092915050565b6000611a7382611223565b9150611a7e83611223565b9250828201905080821115611a9657611a9561197b565b5b92915050565b7f566f74696e672074696d65206578706972656400000000000000000000000000600082015250565b6000611ad26013836112a4565b9150611add82611a9c565b602082019050919050565b60006020820190508181036000830152611b0181611ac5565b9050919050565b7f416c726561647920766f74656400000000000000000000000000000000000000600082015250565b6000611b3e600d836112a4565b9150611b4982611b08565b602082019050919050565b60006020820190508181036000830152611b6d81611b31565b9050919050565b600081519050611b838161122d565b92915050565b600060208284031215611b9f57611b9e611219565b5b6000611bad84828501611b74565b91505092915050565b7f4e6f204b5542494420746f6b656e730000000000000000000000000000000000600082015250565b6000611bec600f836112a4565b9150611bf782611bb6565b602082019050919050565b60006020820190508181036000830152611c1b81611bdf565b9050919050565b7f4f6e6c792044414f2063616e2063616c6c20746869732066756e6374696f6e00600082015250565b6000611c58601f836112a4565b9150611c6382611c22565b602082019050919050565b60006020820190508181036000830152611c8781611c4b565b9050919050565b60008190508160005260206000209050919050565b60006020601f8301049050919050565b600082821b905092915050565b600060088302611cf07fffffffffffffffffffffffffffffffffffffffffffffffffffffffffffffffff82611cb3565b611cfa8683611cb3565b95508019841693508086168417925050509392505050565b6000611d2d611d28611d2384611223565b6114ad565b611223565b9050919050565b6000819050919050565b611d4783611d12565b611d5b611d5382611d34565b848454611cc0565b825550505050565b600090565b611d70611d63565b611d7b818484611d3e565b505050565b5b81811015611d9f57611d94600082611d68565b600181019050611d81565b5050565b601f821115611de457611db581611c8e565b611dbe84611ca3565b81016020851015611dcd578190505b611de1611dd985611ca3565b830182611d80565b50505b505050565b600082821c905092915050565b6000611e0760001984600802611de9565b1980831691505092915050565b6000611e208383611df6565b9150826002028217905092915050565b611e3982611299565b67ffffffffffffffff811115611e5257611e51611531565b5b611e5c825461194a565b611e67828285611da3565b600060209050601f831160018114611e9a5760008415611e88578287015190505b611e928582611e14565b865550611efa565b601f198416611ea886611c8e565b60005b82811015611ed057848901518255600182019150602085019450602081019050611eab565b86831015611eed5784890151611ee9601f891682611df6565b8355505b6001600288020188555050505b505050505050565b600081905092915050565b6000611f1882611299565b611f228185611f02565b9350611f328185602086016112b5565b80840191505092915050565b6000611f4a8284611f0d565b915081905092915050565b7f4e487b7100000000000000000000000000000000000000000000000000000000600052603160045260246000fdfea2646970667358221220a9722d44e66366012023af7c0a11c4e8324a5eadeba9baf6048cb1eeda94f85164736f6c63430008120033",
  "linkReferences": {},
  "deployedLinkReferences": {}
}