{
  "_format": "hh-sol-artifact-1",
  "contractName": "KUBIMembershipNFT",
  "sourceName": "contracts/KUBImemberNFT.sol",
  "abi": [
    {
      "inputs": [],
      "stateMutability": "nonpayable",
      "type": "constructor"
    },
    {
      "anonymous": false,
      "inputs": [
        {
          "indexed": true,
          "internalType": "address",
          "name": "owner",
          "type": "address"
        },
        {
          "indexed": true,
          "internalType": "address",
          "name": "approved",
          "type": "address"
        },
        {
          "indexed": true,
          "internalType": "uint256",
          "name": "tokenId",
          "type": "uint256"
        }
      ],
      "name": "Approval",
      "type": "event"
    },
    {
      "anonymous": false,
      "inputs": [
        {
          "indexed": true,
          "internalType": "address",
          "name": "owner",
          "type": "address"
        },
        {
          "indexed": true,
          "internalType": "address",
          "name": "operator",
          "type": "address"
        },
        {
          "indexed": false,
          "internalType": "bool",
          "name": "approved",
          "type": "bool"
        }
      ],
      "name": "ApprovalForAll",
      "type": "event"
    },
    {
      "anonymous": false,
      "inputs": [
        {
          "indexed": true,
          "internalType": "address",
          "name": "previousOwner",
          "type": "address"
        },
        {
          "indexed": true,
          "internalType": "address",
          "name": "newOwner",
          "type": "address"
        }
      ],
      "name": "OwnershipTransferred",
      "type": "event"
    },
    {
      "anonymous": false,
      "inputs": [
        {
          "indexed": true,
          "internalType": "address",
          "name": "from",
          "type": "address"
        },
        {
          "indexed": true,
          "internalType": "address",
          "name": "to",
          "type": "address"
        },
        {
          "indexed": true,
          "internalType": "uint256",
          "name": "tokenId",
          "type": "uint256"
        }
      ],
      "name": "Transfer",
      "type": "event"
    },
    {
      "inputs": [
        {
          "internalType": "address",
          "name": "to",
          "type": "address"
        },
        {
          "internalType": "uint256",
          "name": "tokenId",
          "type": "uint256"
        }
      ],
      "name": "approve",
      "outputs": [],
      "stateMutability": "nonpayable",
      "type": "function"
    },
    {
      "inputs": [
        {
          "internalType": "address",
          "name": "owner",
          "type": "address"
        }
      ],
      "name": "balanceOf",
      "outputs": [
        {
          "internalType": "uint256",
          "name": "",
          "type": "uint256"
        }
      ],
      "stateMutability": "view",
      "type": "function"
    },
    {
      "inputs": [
        {
          "internalType": "uint256",
          "name": "tokenId",
          "type": "uint256"
        }
      ],
      "name": "getApproved",
      "outputs": [
        {
          "internalType": "address",
          "name": "",
          "type": "address"
        }
      ],
      "stateMutability": "view",
      "type": "function"
    },
    {
      "inputs": [
        {
          "internalType": "address",
          "name": "owner",
          "type": "address"
        }
      ],
      "name": "getMembershipDetails",
      "outputs": [
        {
          "internalType": "uint256",
          "name": "id",
          "type": "uint256"
        },
        {
          "internalType": "uint256",
          "name": "schoolYear",
          "type": "uint256"
        },
        {
          "internalType": "uint256",
          "name": "tier",
          "type": "uint256"
        }
      ],
      "stateMutability": "view",
      "type": "function"
    },
    {
      "inputs": [
        {
          "internalType": "address",
          "name": "owner",
          "type": "address"
        },
        {
          "internalType": "address",
          "name": "operator",
          "type": "address"
        }
      ],
      "name": "isApprovedForAll",
      "outputs": [
        {
          "internalType": "bool",
          "name": "",
          "type": "bool"
        }
      ],
      "stateMutability": "view",
      "type": "function"
    },
    {
      "inputs": [
        {
          "internalType": "address",
          "name": "to",
          "type": "address"
        },
        {
          "internalType": "uint256",
          "name": "schoolYear",
          "type": "uint256"
        },
        {
          "internalType": "uint256",
          "name": "tier",
          "type": "uint256"
        },
        {
          "internalType": "string",
          "name": "ipfsLink",
          "type": "string"
        }
      ],
      "name": "mintMembershipNFT",
      "outputs": [],
      "stateMutability": "nonpayable",
      "type": "function"
    },
    {
      "inputs": [],
      "name": "name",
      "outputs": [
        {
          "internalType": "string",
          "name": "",
          "type": "string"
        }
      ],
      "stateMutability": "view",
      "type": "function"
    },
    {
      "inputs": [],
      "name": "owner",
      "outputs": [
        {
          "internalType": "address",
          "name": "",
          "type": "address"
        }
      ],
      "stateMutability": "view",
      "type": "function"
    },
    {
      "inputs": [
        {
          "internalType": "uint256",
          "name": "tokenId",
          "type": "uint256"
        }
      ],
      "name": "ownerOf",
      "outputs": [
        {
          "internalType": "address",
          "name": "",
          "type": "address"
        }
      ],
      "stateMutability": "view",
      "type": "function"
    },
    {
      "inputs": [],
      "name": "renounceOwnership",
      "outputs": [],
      "stateMutability": "nonpayable",
      "type": "function"
    },
    {
      "inputs": [
        {
          "internalType": "address",
          "name": "from",
          "type": "address"
        },
        {
          "internalType": "address",
          "name": "to",
          "type": "address"
        },
        {
          "internalType": "uint256",
          "name": "tokenId",
          "type": "uint256"
        }
      ],
      "name": "safeTransferFrom",
      "outputs": [],
      "stateMutability": "nonpayable",
      "type": "function"
    },
    {
      "inputs": [
        {
          "internalType": "address",
          "name": "from",
          "type": "address"
        },
        {
          "internalType": "address",
          "name": "to",
          "type": "address"
        },
        {
          "internalType": "uint256",
          "name": "tokenId",
          "type": "uint256"
        },
        {
          "internalType": "bytes",
          "name": "_data",
          "type": "bytes"
        }
      ],
      "name": "safeTransferFrom",
      "outputs": [],
      "stateMutability": "nonpayable",
      "type": "function"
    },
    {
      "inputs": [
        {
          "internalType": "address",
          "name": "operator",
          "type": "address"
        },
        {
          "internalType": "bool",
          "name": "approved",
          "type": "bool"
        }
      ],
      "name": "setApprovalForAll",
      "outputs": [],
      "stateMutability": "nonpayable",
      "type": "function"
    },
    {
      "inputs": [
        {
          "internalType": "bytes4",
          "name": "interfaceId",
          "type": "bytes4"
        }
      ],
      "name": "supportsInterface",
      "outputs": [
        {
          "internalType": "bool",
          "name": "",
          "type": "bool"
        }
      ],
      "stateMutability": "view",
      "type": "function"
    },
    {
      "inputs": [],
      "name": "symbol",
      "outputs": [
        {
          "internalType": "string",
          "name": "",
          "type": "string"
        }
      ],
      "stateMutability": "view",
      "type": "function"
    },
    {
      "inputs": [
        {
          "internalType": "uint256",
          "name": "tokenId",
          "type": "uint256"
        }
      ],
      "name": "tokenURI",
      "outputs": [
        {
          "internalType": "string",
          "name": "",
          "type": "string"
        }
      ],
      "stateMutability": "view",
      "type": "function"
    },
    {
      "inputs": [
        {
          "internalType": "address",
          "name": "from",
          "type": "address"
        },
        {
          "internalType": "address",
          "name": "to",
          "type": "address"
        },
        {
          "internalType": "uint256",
          "name": "tokenId",
          "type": "uint256"
        }
      ],
      "name": "transferFrom",
      "outputs": [],
      "stateMutability": "nonpayable",
      "type": "function"
    },
    {
      "inputs": [
        {
          "internalType": "address",
          "name": "newOwner",
          "type": "address"
        }
      ],
      "name": "transferOwnership",
      "outputs": [],
      "stateMutability": "nonpayable",
      "type": "function"
    }
  ],
  "bytecode": "0x60806040523480156200001157600080fd5b506040518060400160405280600d81526020017f4d656d626572736869704e4654000000000000000000000000000000000000008152506040518060400160405280600481526020017f4d4e46540000000000000000000000000000000000000000000000000000000081525081600090816200008f91906200041a565b508060019081620000a191906200041a565b505050620000c4620000b8620000d260201b60201c565b620000da60201b60201c565b6001600a8190555062000501565b600033905090565b6000600760009054906101000a900473ffffffffffffffffffffffffffffffffffffffff16905081600760006101000a81548173ffffffffffffffffffffffffffffffffffffffff021916908373ffffffffffffffffffffffffffffffffffffffff1602179055508173ffffffffffffffffffffffffffffffffffffffff168173ffffffffffffffffffffffffffffffffffffffff167f8be0079c531659141344cd1fd0a4f28419497f9722a3daafe3b4186f6b6457e060405160405180910390a35050565b600081519050919050565b7f4e487b7100000000000000000000000000000000000000000000000000000000600052604160045260246000fd5b7f4e487b7100000000000000000000000000000000000000000000000000000000600052602260045260246000fd5b600060028204905060018216806200022257607f821691505b602082108103620002385762000237620001da565b5b50919050565b60008190508160005260206000209050919050565b60006020601f8301049050919050565b600082821b905092915050565b600060088302620002a27fffffffffffffffffffffffffffffffffffffffffffffffffffffffffffffffff8262000263565b620002ae868362000263565b95508019841693508086168417925050509392505050565b6000819050919050565b6000819050919050565b6000620002fb620002f5620002ef84620002c6565b620002d0565b620002c6565b9050919050565b6000819050919050565b6200031783620002da565b6200032f620003268262000302565b84845462000270565b825550505050565b600090565b6200034662000337565b620003538184846200030c565b505050565b5b818110156200037b576200036f6000826200033c565b60018101905062000359565b5050565b601f821115620003ca5762000394816200023e565b6200039f8462000253565b81016020851015620003af578190505b620003c7620003be8562000253565b83018262000358565b50505b505050565b600082821c905092915050565b6000620003ef60001984600802620003cf565b1980831691505092915050565b60006200040a8383620003dc565b9150826002028217905092915050565b6200042582620001a0565b67ffffffffffffffff811115620004415762000440620001ab565b5b6200044d825462000209565b6200045a8282856200037f565b600060209050601f8311600181146200049257600084156200047d578287015190505b620004898582620003fc565b865550620004f9565b601f198416620004a2866200023e565b60005b82811015620004cc57848901518255600182019150602085019450602081019050620004a5565b86831015620004ec5784890151620004e8601f891682620003dc565b8355505b6001600288020188555050505b505050505050565b612c3b80620005116000396000f3fe608060405234801561001057600080fd5b50600436106101165760003560e01c8063715018a6116100a2578063a26e928011610071578063a26e9280146102e1578063b88d4fde146102fd578063c87b56dd14610319578063e985e9c514610349578063f2fde38b1461037957610116565b8063715018a61461027f5780638da5cb5b1461028957806395d89b41146102a7578063a22cb465146102c557610116565b806323b872dd116100e957806323b872dd146101b557806342842e0e146101d15780635ef808a3146101ed5780636352211e1461021f57806370a082311461024f57610116565b806301ffc9a71461011b57806306fdde031461014b578063081812fc14610169578063095ea7b314610199575b600080fd5b610135600480360381019061013091906119fd565b610395565b6040516101429190611a45565b60405180910390f35b610153610477565b6040516101609190611af0565b60405180910390f35b610183600480360381019061017e9190611b48565b610509565b6040516101909190611bb6565b60405180910390f35b6101b360048036038101906101ae9190611bfd565b61054f565b005b6101cf60048036038101906101ca9190611c3d565b610666565b005b6101eb60048036038101906101e69190611c3d565b6106a1565b005b61020760048036038101906102029190611c90565b6106dc565b60405161021693929190611ccc565b60405180910390f35b61023960048036038101906102349190611b48565b610769565b6040516102469190611bb6565b60405180910390f35b61026960048036038101906102649190611c90565b6107ef565b6040516102769190611d03565b60405180910390f35b6102876108a6565b005b6102916108ba565b60405161029e9190611bb6565b60405180910390f35b6102af6108e4565b6040516102bc9190611af0565b60405180910390f35b6102df60048036038101906102da9190611d4a565b610976565b005b6102fb60048036038101906102f69190611ebf565b61098c565b005b61031760048036038101906103129190611fe3565b610b30565b005b610333600480360381019061032e9190611b48565b610b6b565b6040516103409190611af0565b60405180910390f35b610363600480360381019061035e9190612066565b610c7d565b6040516103709190611a45565b60405180910390f35b610393600480360381019061038e9190611c90565b610d11565b005b60007f80ac58cd000000000000000000000000000000000000000000000000000000007bffffffffffffffffffffffffffffffffffffffffffffffffffffffff1916827bffffffffffffffffffffffffffffffffffffffffffffffffffffffff1916148061046057507f5b5e139f000000000000000000000000000000000000000000000000000000007bffffffffffffffffffffffffffffffffffffffffffffffffffffffff1916827bffffffffffffffffffffffffffffffffffffffffffffffffffffffff1916145b80610470575061046f82610d94565b5b9050919050565b606060008054610486906120d5565b80601f01602080910402602001604051908101604052809291908181526020018280546104b2906120d5565b80156104ff5780601f106104d4576101008083540402835291602001916104ff565b820191906000526020600020905b8154815290600101906020018083116104e257829003601f168201915b5050505050905090565b600061051482610dfe565b6004600083815260200190815260200160002060009054906101000a900473ffffffffffffffffffffffffffffffffffffffff169050919050565b600061055a82610769565b90508073ffffffffffffffffffffffffffffffffffffffff168373ffffffffffffffffffffffffffffffffffffffff16036105ca576040517f08c379a00000000000000000000000000000000000000000000000000000000081526004016105c190612178565b60405180910390fd5b8073ffffffffffffffffffffffffffffffffffffffff166105e9610e49565b73ffffffffffffffffffffffffffffffffffffffff161480610618575061061781610612610e49565b610c7d565b5b610657576040517f08c379a000000000000000000000000000000000000000000000000000000000815260040161064e9061220a565b60405180910390fd5b6106618383610e51565b505050565b6040517f08c379a00000000000000000000000000000000000000000000000000000000081526004016106989061229c565b60405180910390fd5b6040517f08c379a00000000000000000000000000000000000000000000000000000000081526004016106d39061229c565b60405180910390fd5b600080600080600860008673ffffffffffffffffffffffffffffffffffffffff1673ffffffffffffffffffffffffffffffffffffffff16815260200190815260200160002060405180606001604052908160008201548152602001600182015481526020016002820154815250509050806000015181602001518260400151935093509350509193909250565b60008061077583610f0a565b9050600073ffffffffffffffffffffffffffffffffffffffff168173ffffffffffffffffffffffffffffffffffffffff16036107e6576040517f08c379a00000000000000000000000000000000000000000000000000000000081526004016107dd90612308565b60405180910390fd5b80915050919050565b60008073ffffffffffffffffffffffffffffffffffffffff168273ffffffffffffffffffffffffffffffffffffffff160361085f576040517f08c379a00000000000000000000000000000000000000000000000000000000081526004016108569061239a565b60405180910390fd5b600360008373ffffffffffffffffffffffffffffffffffffffff1673ffffffffffffffffffffffffffffffffffffffff168152602001908152602001600020549050919050565b6108ae610f47565b6108b86000610fc5565b565b6000600760009054906101000a900473ffffffffffffffffffffffffffffffffffffffff16905090565b6060600180546108f3906120d5565b80601f016020809104026020016040519081016040528092919081815260200182805461091f906120d5565b801561096c5780601f106109415761010080835404028352916020019161096c565b820191906000526020600020905b81548152906001019060200180831161094f57829003601f168201915b5050505050905090565b610988610981610e49565b838361108b565b5050565b610994610f47565b600960008573ffffffffffffffffffffffffffffffffffffffff1673ffffffffffffffffffffffffffffffffffffffff16815260200190815260200160002060009054906101000a900460ff1615610a21576040517f08c379a0000000000000000000000000000000000000000000000000000000008152600401610a189061242c565b60405180910390fd5b6000600a5490506001600a6000828254610a3b919061247b565b92505081905550610a4c85826111f7565b610a568183611215565b604051806060016040528082815260200185815260200184815250600860008773ffffffffffffffffffffffffffffffffffffffff1673ffffffffffffffffffffffffffffffffffffffff1681526020019081526020016000206000820151816000015560208201518160010155604082015181600201559050506001600960008773ffffffffffffffffffffffffffffffffffffffff1673ffffffffffffffffffffffffffffffffffffffff16815260200190815260200160002060006101000a81548160ff0219169083151502179055505050505050565b6040517f08c379a0000000000000000000000000000000000000000000000000000000008152600401610b629061229c565b60405180910390fd5b6060610b7682610dfe565b6000600660008481526020019081526020016000208054610b96906120d5565b80601f0160208091040260200160405190810160405280929190818152602001828054610bc2906120d5565b8015610c0f5780601f10610be457610100808354040283529160200191610c0f565b820191906000526020600020905b815481529060010190602001808311610bf257829003601f168201915b505050505090506000610c20611282565b90506000815103610c35578192505050610c78565b600082511115610c6a578082604051602001610c529291906124eb565b60405160208183030381529060405292505050610c78565b610c7384611299565b925050505b919050565b6000600560008473ffffffffffffffffffffffffffffffffffffffff1673ffffffffffffffffffffffffffffffffffffffff16815260200190815260200160002060008373ffffffffffffffffffffffffffffffffffffffff1673ffffffffffffffffffffffffffffffffffffffff16815260200190815260200160002060009054906101000a900460ff16905092915050565b610d19610f47565b600073ffffffffffffffffffffffffffffffffffffffff168173ffffffffffffffffffffffffffffffffffffffff1603610d88576040517f08c379a0000000000000000000000000000000000000000000000000000000008152600401610d7f90612581565b60405180910390fd5b610d9181610fc5565b50565b60007f01ffc9a7000000000000000000000000000000000000000000000000000000007bffffffffffffffffffffffffffffffffffffffffffffffffffffffff1916827bffffffffffffffffffffffffffffffffffffffffffffffffffffffff1916149050919050565b610e0781611301565b610e46576040517f08c379a0000000000000000000000000000000000000000000000000000000008152600401610e3d90612308565b60405180910390fd5b50565b600033905090565b816004600083815260200190815260200160002060006101000a81548173ffffffffffffffffffffffffffffffffffffffff021916908373ffffffffffffffffffffffffffffffffffffffff160217905550808273ffffffffffffffffffffffffffffffffffffffff16610ec483610769565b73ffffffffffffffffffffffffffffffffffffffff167f8c5be1e5ebec7d5bd14f71427d1e84f3dd0314c0f7b2291e5b200ac8c7c3b92560405160405180910390a45050565b60006002600083815260200190815260200160002060009054906101000a900473ffffffffffffffffffffffffffffffffffffffff169050919050565b610f4f610e49565b73ffffffffffffffffffffffffffffffffffffffff16610f6d6108ba565b73ffffffffffffffffffffffffffffffffffffffff1614610fc3576040517f08c379a0000000000000000000000000000000000000000000000000000000008152600401610fba906125ed565b60405180910390fd5b565b6000600760009054906101000a900473ffffffffffffffffffffffffffffffffffffffff16905081600760006101000a81548173ffffffffffffffffffffffffffffffffffffffff021916908373ffffffffffffffffffffffffffffffffffffffff1602179055508173ffffffffffffffffffffffffffffffffffffffff168173ffffffffffffffffffffffffffffffffffffffff167f8be0079c531659141344cd1fd0a4f28419497f9722a3daafe3b4186f6b6457e060405160405180910390a35050565b8173ffffffffffffffffffffffffffffffffffffffff168373ffffffffffffffffffffffffffffffffffffffff16036110f9576040517f08c379a00000000000000000000000000000000000000000000000000000000081526004016110f090612659565b60405180910390fd5b80600560008573ffffffffffffffffffffffffffffffffffffffff1673ffffffffffffffffffffffffffffffffffffffff16815260200190815260200160002060008473ffffffffffffffffffffffffffffffffffffffff1673ffffffffffffffffffffffffffffffffffffffff16815260200190815260200160002060006101000a81548160ff0219169083151502179055508173ffffffffffffffffffffffffffffffffffffffff168373ffffffffffffffffffffffffffffffffffffffff167f17307eab39ab6107e8899845ad3d59bd9653f200f220920489ca2b5937696c31836040516111ea9190611a45565b60405180910390a3505050565b611211828260405180602001604052806000815250611342565b5050565b61121e82611301565b61125d576040517f08c379a0000000000000000000000000000000000000000000000000000000008152600401611254906126eb565b60405180910390fd5b8060066000848152602001908152602001600020908161127d91906128b7565b505050565b606060405180602001604052806000815250905090565b60606112a482610dfe565b60006112ae611282565b905060008151116112ce57604051806020016040528060008152506112f9565b806112d88461139d565b6040516020016112e99291906124eb565b6040516020818303038152906040525b915050919050565b60008073ffffffffffffffffffffffffffffffffffffffff1661132383610f0a565b73ffffffffffffffffffffffffffffffffffffffff1614159050919050565b61134c838361146b565b6113596000848484611688565b611398576040517f08c379a000000000000000000000000000000000000000000000000000000000815260040161138f906129fb565b60405180910390fd5b505050565b6060600060016113ac8461180f565b01905060008167ffffffffffffffff8111156113cb576113ca611d94565b5b6040519080825280601f01601f1916602001820160405280156113fd5781602001600182028036833780820191505090505b509050600082602001820190505b600115611460578080600190039150507f3031323334353637383961626364656600000000000000000000000000000000600a86061a8153600a858161145457611453612a1b565b5b0494506000850361140b575b819350505050919050565b600073ffffffffffffffffffffffffffffffffffffffff168273ffffffffffffffffffffffffffffffffffffffff16036114da576040517f08c379a00000000000000000000000000000000000000000000000000000000081526004016114d190612a96565b60405180910390fd5b6114e381611301565b15611523576040517f08c379a000000000000000000000000000000000000000000000000000000000815260040161151a90612b02565b60405180910390fd5b611531600083836001611962565b61153a81611301565b1561157a576040517f08c379a000000000000000000000000000000000000000000000000000000000815260040161157190612b02565b60405180910390fd5b6001600360008473ffffffffffffffffffffffffffffffffffffffff1673ffffffffffffffffffffffffffffffffffffffff16815260200190815260200160002060008282540192505081905550816002600083815260200190815260200160002060006101000a81548173ffffffffffffffffffffffffffffffffffffffff021916908373ffffffffffffffffffffffffffffffffffffffff160217905550808273ffffffffffffffffffffffffffffffffffffffff16600073ffffffffffffffffffffffffffffffffffffffff167fddf252ad1be2c89b69c2b068fc378daa952ba7f163c4a11628f55a4df523b3ef60405160405180910390a4611684600083836001611968565b5050565b60006116a98473ffffffffffffffffffffffffffffffffffffffff1661196e565b15611802578373ffffffffffffffffffffffffffffffffffffffff1663150b7a026116d2610e49565b8786866040518563ffffffff1660e01b81526004016116f49493929190612b77565b6020604051808303816000875af192505050801561173057506040513d601f19601f8201168201806040525081019061172d9190612bd8565b60015b6117b2573d8060008114611760576040519150601f19603f3d011682016040523d82523d6000602084013e611765565b606091505b5060008151036117aa576040517f08c379a00000000000000000000000000000000000000000000000000000000081526004016117a1906129fb565b60405180910390fd5b805181602001fd5b63150b7a0260e01b7bffffffffffffffffffffffffffffffffffffffffffffffffffffffff1916817bffffffffffffffffffffffffffffffffffffffffffffffffffffffff191614915050611807565b600190505b949350505050565b600080600090507a184f03e93ff9f4daa797ed6e38ed64bf6a1f010000000000000000831061186d577a184f03e93ff9f4daa797ed6e38ed64bf6a1f010000000000000000838161186357611862612a1b565b5b0492506040810190505b6d04ee2d6d415b85acef810000000083106118aa576d04ee2d6d415b85acef810000000083816118a05761189f612a1b565b5b0492506020810190505b662386f26fc1000083106118d957662386f26fc1000083816118cf576118ce612a1b565b5b0492506010810190505b6305f5e1008310611902576305f5e10083816118f8576118f7612a1b565b5b0492506008810190505b612710831061192757612710838161191d5761191c612a1b565b5b0492506004810190505b6064831061194a57606483816119405761193f612a1b565b5b0492506002810190505b600a8310611959576001810190505b80915050919050565b50505050565b50505050565b6000808273ffffffffffffffffffffffffffffffffffffffff163b119050919050565b6000604051905090565b600080fd5b600080fd5b60007fffffffff0000000000000000000000000000000000000000000000000000000082169050919050565b6119da816119a5565b81146119e557600080fd5b50565b6000813590506119f7816119d1565b92915050565b600060208284031215611a1357611a1261199b565b5b6000611a21848285016119e8565b91505092915050565b60008115159050919050565b611a3f81611a2a565b82525050565b6000602082019050611a5a6000830184611a36565b92915050565b600081519050919050565b600082825260208201905092915050565b60005b83811015611a9a578082015181840152602081019050611a7f565b60008484015250505050565b6000601f19601f8301169050919050565b6000611ac282611a60565b611acc8185611a6b565b9350611adc818560208601611a7c565b611ae581611aa6565b840191505092915050565b60006020820190508181036000830152611b0a8184611ab7565b905092915050565b6000819050919050565b611b2581611b12565b8114611b3057600080fd5b50565b600081359050611b4281611b1c565b92915050565b600060208284031215611b5e57611b5d61199b565b5b6000611b6c84828501611b33565b91505092915050565b600073ffffffffffffffffffffffffffffffffffffffff82169050919050565b6000611ba082611b75565b9050919050565b611bb081611b95565b82525050565b6000602082019050611bcb6000830184611ba7565b92915050565b611bda81611b95565b8114611be557600080fd5b50565b600081359050611bf781611bd1565b92915050565b60008060408385031215611c1457611c1361199b565b5b6000611c2285828601611be8565b9250506020611c3385828601611b33565b9150509250929050565b600080600060608486031215611c5657611c5561199b565b5b6000611c6486828701611be8565b9350506020611c7586828701611be8565b9250506040611c8686828701611b33565b9150509250925092565b600060208284031215611ca657611ca561199b565b5b6000611cb484828501611be8565b91505092915050565b611cc681611b12565b82525050565b6000606082019050611ce16000830186611cbd565b611cee6020830185611cbd565b611cfb6040830184611cbd565b949350505050565b6000602082019050611d186000830184611cbd565b92915050565b611d2781611a2a565b8114611d3257600080fd5b50565b600081359050611d4481611d1e565b92915050565b60008060408385031215611d6157611d6061199b565b5b6000611d6f85828601611be8565b9250506020611d8085828601611d35565b9150509250929050565b600080fd5b600080fd5b7f4e487b7100000000000000000000000000000000000000000000000000000000600052604160045260246000fd5b611dcc82611aa6565b810181811067ffffffffffffffff82111715611deb57611dea611d94565b5b80604052505050565b6000611dfe611991565b9050611e0a8282611dc3565b919050565b600067ffffffffffffffff821115611e2a57611e29611d94565b5b611e3382611aa6565b9050602081019050919050565b82818337600083830152505050565b6000611e62611e5d84611e0f565b611df4565b905082815260208101848484011115611e7e57611e7d611d8f565b5b611e89848285611e40565b509392505050565b600082601f830112611ea657611ea5611d8a565b5b8135611eb6848260208601611e4f565b91505092915050565b60008060008060808587031215611ed957611ed861199b565b5b6000611ee787828801611be8565b9450506020611ef887828801611b33565b9350506040611f0987828801611b33565b925050606085013567ffffffffffffffff811115611f2a57611f296119a0565b5b611f3687828801611e91565b91505092959194509250565b600067ffffffffffffffff821115611f5d57611f5c611d94565b5b611f6682611aa6565b9050602081019050919050565b6000611f86611f8184611f42565b611df4565b905082815260208101848484011115611fa257611fa1611d8f565b5b611fad848285611e40565b509392505050565b600082601f830112611fca57611fc9611d8a565b5b8135611fda848260208601611f73565b91505092915050565b60008060008060808587031215611ffd57611ffc61199b565b5b600061200b87828801611be8565b945050602061201c87828801611be8565b935050604061202d87828801611b33565b925050606085013567ffffffffffffffff81111561204e5761204d6119a0565b5b61205a87828801611fb5565b91505092959194509250565b6000806040838503121561207d5761207c61199b565b5b600061208b85828601611be8565b925050602061209c85828601611be8565b9150509250929050565b7f4e487b7100000000000000000000000000000000000000000000000000000000600052602260045260246000fd5b600060028204905060018216806120ed57607f821691505b602082108103612100576120ff6120a6565b5b50919050565b7f4552433732313a20617070726f76616c20746f2063757272656e74206f776e6560008201527f7200000000000000000000000000000000000000000000000000000000000000602082015250565b6000612162602183611a6b565b915061216d82612106565b604082019050919050565b6000602082019050818103600083015261219181612155565b9050919050565b7f4552433732313a20617070726f76652063616c6c6572206973206e6f7420746f60008201527f6b656e206f776e6572206f7220617070726f76656420666f7220616c6c000000602082015250565b60006121f4603d83611a6b565b91506121ff82612198565b604082019050919050565b60006020820190508181036000830152612223816121e7565b9050919050565b7f4d656d62657273686970204e46547320617265206e6f6e2d7472616e7366657260008201527f61626c6500000000000000000000000000000000000000000000000000000000602082015250565b6000612286602483611a6b565b91506122918261222a565b604082019050919050565b600060208201905081810360008301526122b581612279565b9050919050565b7f4552433732313a20696e76616c696420746f6b656e2049440000000000000000600082015250565b60006122f2601883611a6b565b91506122fd826122bc565b602082019050919050565b60006020820190508181036000830152612321816122e5565b9050919050565b7f4552433732313a2061646472657373207a65726f206973206e6f74206120766160008201527f6c6964206f776e65720000000000000000000000000000000000000000000000602082015250565b6000612384602983611a6b565b915061238f82612328565b604082019050919050565b600060208201905081810360008301526123b381612377565b9050919050565b7f45616368206163636f756e742063616e206f6e6c79206f776e206f6e65204d6560008201527f6d62657273686970204e46540000000000000000000000000000000000000000602082015250565b6000612416602c83611a6b565b9150612421826123ba565b604082019050919050565b6000602082019050818103600083015261244581612409565b9050919050565b7f4e487b7100000000000000000000000000000000000000000000000000000000600052601160045260246000fd5b600061248682611b12565b915061249183611b12565b92508282019050808211156124a9576124a861244c565b5b92915050565b600081905092915050565b60006124c582611a60565b6124cf81856124af565b93506124df818560208601611a7c565b80840191505092915050565b60006124f782856124ba565b915061250382846124ba565b91508190509392505050565b7f4f776e61626c653a206e6577206f776e657220697320746865207a65726f206160008201527f6464726573730000000000000000000000000000000000000000000000000000602082015250565b600061256b602683611a6b565b91506125768261250f565b604082019050919050565b6000602082019050818103600083015261259a8161255e565b9050919050565b7f4f776e61626c653a2063616c6c6572206973206e6f7420746865206f776e6572600082015250565b60006125d7602083611a6b565b91506125e2826125a1565b602082019050919050565b60006020820190508181036000830152612606816125ca565b9050919050565b7f4552433732313a20617070726f766520746f2063616c6c657200000000000000600082015250565b6000612643601983611a6b565b915061264e8261260d565b602082019050919050565b6000602082019050818103600083015261267281612636565b9050919050565b7f45524337323155524953746f726167653a2055524920736574206f66206e6f6e60008201527f6578697374656e7420746f6b656e000000000000000000000000000000000000602082015250565b60006126d5602e83611a6b565b91506126e082612679565b604082019050919050565b60006020820190508181036000830152612704816126c8565b9050919050565b60008190508160005260206000209050919050565b60006020601f8301049050919050565b600082821b905092915050565b60006008830261276d7fffffffffffffffffffffffffffffffffffffffffffffffffffffffffffffffff82612730565b6127778683612730565b95508019841693508086168417925050509392505050565b6000819050919050565b60006127b46127af6127aa84611b12565b61278f565b611b12565b9050919050565b6000819050919050565b6127ce83612799565b6127e26127da826127bb565b84845461273d565b825550505050565b600090565b6127f76127ea565b6128028184846127c5565b505050565b5b818110156128265761281b6000826127ef565b600181019050612808565b5050565b601f82111561286b5761283c8161270b565b61284584612720565b81016020851015612854578190505b61286861286085612720565b830182612807565b50505b505050565b600082821c905092915050565b600061288e60001984600802612870565b1980831691505092915050565b60006128a7838361287d565b9150826002028217905092915050565b6128c082611a60565b67ffffffffffffffff8111156128d9576128d8611d94565b5b6128e382546120d5565b6128ee82828561282a565b600060209050601f831160018114612921576000841561290f578287015190505b612919858261289b565b865550612981565b601f19841661292f8661270b565b60005b8281101561295757848901518255600182019150602085019450602081019050612932565b868310156129745784890151612970601f89168261287d565b8355505b6001600288020188555050505b505050505050565b7f4552433732313a207472616e7366657220746f206e6f6e20455243373231526560008201527f63656976657220696d706c656d656e7465720000000000000000000000000000602082015250565b60006129e5603283611a6b565b91506129f082612989565b604082019050919050565b60006020820190508181036000830152612a14816129d8565b9050919050565b7f4e487b7100000000000000000000000000000000000000000000000000000000600052601260045260246000fd5b7f4552433732313a206d696e7420746f20746865207a65726f2061646472657373600082015250565b6000612a80602083611a6b565b9150612a8b82612a4a565b602082019050919050565b60006020820190508181036000830152612aaf81612a73565b9050919050565b7f4552433732313a20746f6b656e20616c7265616479206d696e74656400000000600082015250565b6000612aec601c83611a6b565b9150612af782612ab6565b602082019050919050565b60006020820190508181036000830152612b1b81612adf565b9050919050565b600081519050919050565b600082825260208201905092915050565b6000612b4982612b22565b612b538185612b2d565b9350612b63818560208601611a7c565b612b6c81611aa6565b840191505092915050565b6000608082019050612b8c6000830187611ba7565b612b996020830186611ba7565b612ba66040830185611cbd565b8181036060830152612bb88184612b3e565b905095945050505050565b600081519050612bd2816119d1565b92915050565b600060208284031215612bee57612bed61199b565b5b6000612bfc84828501612bc3565b9150509291505056fea26469706673582212209b126c610977a0a5e7a04116957df43c5ec4cc4ca10bb26d8773836d5f93a70064736f6c63430008120033",
  "linkReferences": {},
  "deployedLinkReferences": {}
}