{
  "_format": "hh-sol-artifact-1",
  "contractName": "KubixVoting",
  "sourceName": "contracts/KUBIXvoting.sol",
  "abi": [
    {
      "inputs": [
        {
          "internalType": "address",
          "name": "_kubixToken",
          "type": "address"
        },
        {
          "internalType": "address",
          "name": "_dao",
          "type": "address"
        }
      ],
      "stateMutability": "nonpayable",
      "type": "constructor"
    },
    {
      "anonymous": false,
      "inputs": [
        {
          "indexed": true,
          "internalType": "string",
          "name": "newHash",
          "type": "string"
        }
      ],
      "name": "NewIPFSHash",
      "type": "event"
    },
    {
      "anonymous": false,
      "inputs": [
        {
          "indexed": true,
          "internalType": "uint256",
          "name": "proposalId",
          "type": "uint256"
        },
        {
          "indexed": false,
          "internalType": "string",
          "name": "name",
          "type": "string"
        }
      ],
      "name": "NewProposal",
      "type": "event"
    },
    {
      "inputs": [
        {
          "internalType": "uint256",
          "name": "",
          "type": "uint256"
        }
      ],
      "name": "activeProposalIndices",
      "outputs": [
        {
          "internalType": "uint256",
          "name": "",
          "type": "uint256"
        }
      ],
      "stateMutability": "view",
      "type": "function"
    },
    {
      "inputs": [
        {
          "internalType": "uint256",
          "name": "",
          "type": "uint256"
        }
      ],
      "name": "activeProposals",
      "outputs": [
        {
          "internalType": "string",
          "name": "name",
          "type": "string"
        },
        {
          "internalType": "string",
          "name": "description",
          "type": "string"
        },
        {
          "internalType": "string",
          "name": "execution",
          "type": "string"
        },
        {
          "internalType": "uint256",
          "name": "totalVotes",
          "type": "uint256"
        },
        {
          "internalType": "uint256",
          "name": "maxBalance",
          "type": "uint256"
        },
        {
          "internalType": "uint256",
          "name": "minBalance",
          "type": "uint256"
        },
        {
          "internalType": "uint256",
          "name": "timeInMinutes",
          "type": "uint256"
        },
        {
          "internalType": "uint256",
          "name": "creationTimestamp",
          "type": "uint256"
        }
      ],
      "stateMutability": "view",
      "type": "function"
    },
    {
      "inputs": [],
      "name": "activeProposalsCount",
      "outputs": [
        {
          "internalType": "uint256",
          "name": "",
          "type": "uint256"
        }
      ],
      "stateMutability": "view",
      "type": "function"
    },
    {
      "inputs": [
        {
          "internalType": "uint256",
          "name": "_proposalId",
          "type": "uint256"
        },
        {
          "internalType": "uint256",
          "name": "_balance",
          "type": "uint256"
        }
      ],
      "name": "calculateVoteWeight",
      "outputs": [
        {
          "internalType": "uint256",
          "name": "",
          "type": "uint256"
        }
      ],
      "stateMutability": "view",
      "type": "function"
    },
    {
      "inputs": [
        {
          "internalType": "uint256",
          "name": "",
          "type": "uint256"
        }
      ],
      "name": "completedProposalIndices",
      "outputs": [
        {
          "internalType": "uint256",
          "name": "",
          "type": "uint256"
        }
      ],
      "stateMutability": "view",
      "type": "function"
    },
    {
      "inputs": [],
      "name": "completedProposalsCount",
      "outputs": [
        {
          "internalType": "uint256",
          "name": "",
          "type": "uint256"
        }
      ],
      "stateMutability": "view",
      "type": "function"
    },
    {
      "inputs": [
        {
          "internalType": "string",
          "name": "_name",
          "type": "string"
        },
        {
          "internalType": "string",
          "name": "_description",
          "type": "string"
        },
        {
          "internalType": "string",
          "name": "_execution",
          "type": "string"
        },
        {
          "internalType": "uint256",
          "name": "_maxBalance",
          "type": "uint256"
        },
        {
          "internalType": "uint256",
          "name": "_minBalance",
          "type": "uint256"
        },
        {
          "internalType": "uint256",
          "name": "_timeInMinutes",
          "type": "uint256"
        },
        {
          "internalType": "string[]",
          "name": "_options",
          "type": "string[]"
        }
      ],
      "name": "createProposal",
      "outputs": [],
      "stateMutability": "nonpayable",
      "type": "function"
    },
    {
      "inputs": [],
      "name": "dao",
      "outputs": [
        {
          "internalType": "address",
          "name": "",
          "type": "address"
        }
      ],
      "stateMutability": "view",
      "type": "function"
    },
    {
      "inputs": [],
      "name": "getIPFSHash",
      "outputs": [
        {
          "internalType": "string",
          "name": "",
          "type": "string"
        }
      ],
      "stateMutability": "view",
      "type": "function"
    },
    {
      "inputs": [
        {
          "internalType": "uint256",
          "name": "_proposalId",
          "type": "uint256"
        },
        {
          "internalType": "uint256",
          "name": "_optionIndex",
          "type": "uint256"
        }
      ],
      "name": "getOption",
      "outputs": [
        {
          "internalType": "string",
          "name": "optionName",
          "type": "string"
        },
        {
          "internalType": "uint256",
          "name": "votes",
          "type": "uint256"
        }
      ],
      "stateMutability": "view",
      "type": "function"
    },
    {
      "inputs": [
        {
          "internalType": "uint256",
          "name": "_proposalId",
          "type": "uint256"
        }
      ],
      "name": "getOptionsCount",
      "outputs": [
        {
          "internalType": "uint256",
          "name": "",
          "type": "uint256"
        }
      ],
      "stateMutability": "view",
      "type": "function"
    },
    {
      "inputs": [
        {
          "internalType": "uint256",
          "name": "_completedProposalIndex",
          "type": "uint256"
        }
      ],
      "name": "getWinner",
      "outputs": [
        {
          "internalType": "string",
          "name": "",
          "type": "string"
        }
      ],
      "stateMutability": "view",
      "type": "function"
    },
    {
      "inputs": [],
      "name": "ipfsHash",
      "outputs": [
        {
          "internalType": "string",
          "name": "",
          "type": "string"
        }
      ],
      "stateMutability": "view",
      "type": "function"
    },
    {
      "inputs": [],
      "name": "kubixToken",
      "outputs": [
        {
          "internalType": "contract IERC20",
          "name": "",
          "type": "address"
        }
      ],
      "stateMutability": "view",
      "type": "function"
    },
    {
      "inputs": [],
      "name": "moveToCompleted",
      "outputs": [],
      "stateMutability": "nonpayable",
      "type": "function"
    },
    {
      "inputs": [
        {
          "internalType": "string",
          "name": "_ipfsHash",
          "type": "string"
        }
      ],
      "name": "setIPFSHash",
      "outputs": [],
      "stateMutability": "nonpayable",
      "type": "function"
    },
    {
      "inputs": [
        {
          "internalType": "uint256",
          "name": "_proposalId",
          "type": "uint256"
        },
        {
          "internalType": "address",
          "name": "_voter",
          "type": "address"
        },
        {
          "internalType": "uint256",
          "name": "_optionIndex",
          "type": "uint256"
        }
      ],
      "name": "vote",
      "outputs": [],
      "stateMutability": "nonpayable",
      "type": "function"
    }
  ],
  "bytecode": "0x60806040523480156200001157600080fd5b506040516200287738038062002877833981810160405281019062000037919062000154565b816000806101000a81548173ffffffffffffffffffffffffffffffffffffffff021916908373ffffffffffffffffffffffffffffffffffffffff16021790555080600160006101000a81548173ffffffffffffffffffffffffffffffffffffffff021916908373ffffffffffffffffffffffffffffffffffffffff16021790555060046000908060018154018082558091505060019003906000526020600020016000909190919091505550506200019b565b600080fd5b600073ffffffffffffffffffffffffffffffffffffffff82169050919050565b60006200011c82620000ef565b9050919050565b6200012e816200010f565b81146200013a57600080fd5b50565b6000815190506200014e8162000123565b92915050565b600080604083850312156200016e576200016d620000ea565b5b60006200017e858286016200013d565b925050602062000191858286016200013d565b9150509250929050565b6126cc80620001ab6000396000f3fe608060405234801561001057600080fd5b506004361061010b5760003560e01c80637775f7da116100a2578063c623674f11610071578063c623674f146102bb578063e0fdcc42146102d9578063e40824f814610309578063f9232e1d14610340578063fb0cb3ca1461034a5761010b565b80637775f7da146102475780637f30b7c014610263578063a52bc6e214610281578063b8a76f541461029f5761010b565b80634162169f116100de5780634162169f146101ad57806342501dae146101cb5780634de8737c146101fb578063517a6257146102175761010b565b80631ce309271461011057806320b28ade146101415780632116c3471461015f5780634129b2c91461017d575b600080fd5b61012a600480360381019061012591906117a3565b61037a565b604051610138929190611882565b60405180910390f35b61014961046d565b60405161015691906118b2565b60405180910390f35b6101676104ff565b60405161017491906118d4565b60405180910390f35b610197600480360381019061019291906118ef565b610518565b6040516101a491906118b2565b60405180910390f35b6101b56106a7565b6040516101c2919061195d565b60405180910390f35b6101e560048036038101906101e091906118ef565b6106cd565b6040516101f291906118d4565b60405180910390f35b610215600480360381019061021091906119a4565b6106f1565b005b610231600480360381019061022c91906118ef565b6109ea565b60405161023e91906118d4565b60405180910390f35b610261600480360381019061025c9190611c12565b610a21565b005b61026b610cf3565b60405161027891906118d4565b60405180910390f35b610289610d00565b6040516102969190611d83565b60405180910390f35b6102b960048036038101906102b49190611d9e565b610d24565b005b6102c3610e09565b6040516102d091906118b2565b60405180910390f35b6102f360048036038101906102ee91906117a3565b610e97565b60405161030091906118d4565b60405180910390f35b610323600480360381019061031e91906118ef565b610f9a565b604051610337989796959493929190611de7565b60405180910390f35b61034861118a565b005b610364600480360381019061035f91906118ef565b61138d565b60405161037191906118d4565b60405180910390f35b60606000806003858154811061039357610392611e7a565b5b90600052602060002090600a0201905060008160090185815481106103bb576103ba611e7a565b5b906000526020600020906002020190508060000181600101548180546103e090611ed8565b80601f016020809104026020016040519081016040528092919081815260200182805461040c90611ed8565b80156104595780601f1061042e57610100808354040283529160200191610459565b820191906000526020600020905b81548152906001019060200180831161043c57829003601f168201915b505050505091509350935050509250929050565b60606002805461047c90611ed8565b80601f01602080910402602001604051908101604052809291908181526020018280546104a890611ed8565b80156104f55780601f106104ca576101008083540402835291602001916104f5565b820191906000526020600020905b8154815290600101906020018083116104d857829003601f168201915b5050505050905090565b600060016004805490506105139190611f38565b905090565b60606000600583815481106105305761052f611e7a565b5b9060005260206000200154905060006003828154811061055357610552611e7a565b5b90600052602060002090600a0201905060008080600090505b83600901805490508110156105eb578284600901828154811061059257610591611e7a565b5b90600052602060002090600202016001015411156105d8578360090181815481106105c0576105bf611e7a565b5b90600052602060002090600202016001015492508091505b80806105e390611f6c565b91505061056c565b5082600901818154811061060257610601611e7a565b5b9060005260206000209060020201600001805461061e90611ed8565b80601f016020809104026020016040519081016040528092919081815260200182805461064a90611ed8565b80156106975780601f1061066c57610100808354040283529160200191610697565b820191906000526020600020905b81548152906001019060200180831161067a57829003601f168201915b5050505050945050505050919050565b600160009054906101000a900473ffffffffffffffffffffffffffffffffffffffff1681565b600481815481106106dd57600080fd5b906000526020600020016000915090505481565b8260006003828154811061070857610707611e7a565b5b90600052602060002090600a02019050603c81600701546107299190611fb4565b81600801546107389190611ff6565b42111561077a576040517f08c379a000000000000000000000000000000000000000000000000000000000815260040161077190612076565b60405180910390fd5b6000600386815481106107905761078f611e7a565b5b90600052602060002090600a0201905060008160040160008773ffffffffffffffffffffffffffffffffffffffff1673ffffffffffffffffffffffffffffffffffffffff1681526020019081526020016000205414610824576040517f08c379a000000000000000000000000000000000000000000000000000000000815260040161081b906120e2565b60405180910390fd5b60008060009054906101000a900473ffffffffffffffffffffffffffffffffffffffff1673ffffffffffffffffffffffffffffffffffffffff166370a08231876040518263ffffffff1660e01b8152600401610880919061195d565b602060405180830381865afa15801561089d573d6000803e3d6000fd5b505050506040513d601f19601f820116820180604052508101906108c19190612117565b905060008111610906576040517f08c379a00000000000000000000000000000000000000000000000000000000081526004016108fd90612190565b60405180910390fd5b6000670de0b6b3a76400008261091c91906121df565b9050826005015481111561093257826005015490505b600061093e8983610e97565b9050808460030160008282546109549190611ff6565b92505081905550808460040160008a73ffffffffffffffffffffffffffffffffffffffff1673ffffffffffffffffffffffffffffffffffffffff16815260200190815260200160002081905550808460090188815481106109b8576109b7611e7a565b5b906000526020600020906002020160010160008282546109d89190611ff6565b92505081905550505050505050505050565b60008060038381548110610a0157610a00611e7a565b5b90600052602060002090600a020190508060090180549050915050919050565b600160009054906101000a900473ffffffffffffffffffffffffffffffffffffffff1673ffffffffffffffffffffffffffffffffffffffff163373ffffffffffffffffffffffffffffffffffffffff1614610ab1576040517f08c379a0000000000000000000000000000000000000000000000000000000008152600401610aa89061225c565b60405180910390fd5b60008311610af4576040517f08c379a0000000000000000000000000000000000000000000000000000000008152600401610aeb906122ee565b60405180910390fd5b828411610b36576040517f08c379a0000000000000000000000000000000000000000000000000000000008152600401610b2d90612380565b60405180910390fd5b600060038054905090506004819080600181540180825580915050600190039060005260206000200160009091909190915055600360018160018154018082558091505003906000526020600020905050600060038281548110610b9d57610b9c611e7a565b5b90600052602060002090600a0201905088816000019081610bbe9190612542565b5087816001019081610bd09190612542565b5086816002019081610be29190612542565b506000816003018190555085816005018190555084816006018190555083816007018190555042816008018190555060005b8351811015610caf57816009016040518060400160405280868481518110610c3f57610c3e611e7a565b5b60200260200101518152602001600081525090806001815401808255809150506001900390600052602060002090600202016000909190919091506000820151816000019081610c8f9190612542565b506020820151816001015550508080610ca790611f6c565b915050610c14565b50817fa9ef596c73fbcfb4a78bc139b1a19c35247c1f37d2489c0513ad2dd3eb7d8c6b8a604051610ce091906118b2565b60405180910390a2505050505050505050565b6000600580549050905090565b60008054906101000a900473ffffffffffffffffffffffffffffffffffffffff1681565b600160009054906101000a900473ffffffffffffffffffffffffffffffffffffffff1673ffffffffffffffffffffffffffffffffffffffff163373ffffffffffffffffffffffffffffffffffffffff1614610db4576040517f08c379a0000000000000000000000000000000000000000000000000000000008152600401610dab9061225c565b60405180910390fd5b8060029081610dc39190612542565b5080604051610dd29190612650565b60405180910390207f37859dd8d1940a4cba3d502dd5409ffd529824471ca7cde7e604253be94f1eef60405160405180910390a250565b60028054610e1690611ed8565b80601f0160208091040260200160405190810160405280929190818152602001828054610e4290611ed8565b8015610e8f5780601f10610e6457610100808354040283529160200191610e8f565b820191906000526020600020905b815481529060010190602001808311610e7257829003601f168201915b505050505081565b60008060038481548110610eae57610ead611e7a565b5b90600052602060002090600a020190506000610edb826006015483600501546113b190919063ffffffff16565b90506000610f096001610efb8560060154886113b190919063ffffffff16565b6113c790919063ffffffff16565b90506000610f16836113dd565b90506000610f23836113dd565b90506000610f3083611400565b90506000610f3d83611400565b90506000610f6f610f60610f5a610f5460096113dd565b86611429565b846114b2565b610f6a60016113dd565b61151d565b90506000610f7c82611584565b67ffffffffffffffff16905080995050505050505050505092915050565b60038181548110610faa57600080fd5b90600052602060002090600a0201600091509050806000018054610fcd90611ed8565b80601f0160208091040260200160405190810160405280929190818152602001828054610ff990611ed8565b80156110465780601f1061101b57610100808354040283529160200191611046565b820191906000526020600020905b81548152906001019060200180831161102957829003601f168201915b50505050509080600101805461105b90611ed8565b80601f016020809104026020016040519081016040528092919081815260200182805461108790611ed8565b80156110d45780601f106110a9576101008083540402835291602001916110d4565b820191906000526020600020905b8154815290600101906020018083116110b757829003601f168201915b5050505050908060020180546110e990611ed8565b80601f016020809104026020016040519081016040528092919081815260200182805461111590611ed8565b80156111625780601f1061113757610100808354040283529160200191611162565b820191906000526020600020905b81548152906001019060200180831161114557829003601f168201915b5050505050908060030154908060050154908060060154908060070154908060080154905088565b600160009054906101000a900473ffffffffffffffffffffffffffffffffffffffff1673ffffffffffffffffffffffffffffffffffffffff163373ffffffffffffffffffffffffffffffffffffffff161461121a576040517f08c379a00000000000000000000000000000000000000000000000000000000081526004016112119061225c565b60405180910390fd5b6000600190505b60048054905081101561138a5760006004828154811061124457611243611e7a565b5b9060005260206000200154905060006003828154811061126757611266611e7a565b5b90600052602060002090600a02019050603c81600701546112889190611fb4565b81600801546112979190611ff6565b42111561137457600582908060018154018082558091505060019003906000526020600020016000909190919091505560008390505b60016004805490506112df9190611f38565b8110156113465760046001826112f59190611ff6565b8154811061130657611305611e7a565b5b90600052602060002001546004828154811061132557611324611e7a565b5b9060005260206000200181905550808061133e90611f6c565b9150506112cd565b50600480548061135957611358612667565b5b60019003818190600052602060002001600090559055611383565b828061137f90611f6c565b9350505b5050611221565b50565b6005818154811061139d57600080fd5b906000526020600020016000915090505481565b600081836113bf9190611f38565b905092915050565b600081836113d59190611ff6565b905092915050565b6000677fffffffffffffff8211156113f457600080fd5b604082901b9050919050565b60008082600f0b121561141257600080fd5b611422604083600f0b901b6115a5565b9050919050565b60008082600f0b0361143a57600080fd5b600082600f0b604085600f0b901b81611456576114556121b0565b5b0590507fffffffffffffffffffffffffffffffff80000000000000000000000000000000600f0b811215801561149f57506f7fffffffffffffffffffffffffffffff600f0b8113155b6114a857600080fd5b8091505092915050565b600080604083600f0b85600f0b02901d90507fffffffffffffffffffffffffffffffff80000000000000000000000000000000600f0b811215801561150a57506f7fffffffffffffffffffffffffffffff600f0b8113155b61151357600080fd5b8091505092915050565b60008082600f0b84600f0b0190507fffffffffffffffffffffffffffffffff80000000000000000000000000000000600f0b811215801561157157506f7fffffffffffffffffffffffffffffff600f0b8113155b61157a57600080fd5b8091505092915050565b60008082600f0b121561159657600080fd5b604082600f0b901d9050919050565b60008082036115b75760009050611754565b600082905060006001905070010000000000000000000000000000000082106115e957608082901c9150604081901b90505b68010000000000000000821061160857604082901c9150602081901b90505b640100000000821061162357602082901c9150601081901b90505b62010000821061163c57601082901c9150600881901b90505b610100821061165457600882901c9150600481901b90505b6010821061166b57600482901c9150600281901b90505b6004821061167b57600181901b90505b600181858161168d5761168c6121b0565b5b048201901c905060018185816116a6576116a56121b0565b5b048201901c905060018185816116bf576116be6121b0565b5b048201901c905060018185816116d8576116d76121b0565b5b048201901c905060018185816116f1576116f06121b0565b5b048201901c9050600181858161170a576117096121b0565b5b048201901c90506001818581611723576117226121b0565b5b048201901c9050600081858161173c5761173b6121b0565b5b04905080821061174c578061174e565b815b93505050505b919050565b6000604051905090565b600080fd5b600080fd5b6000819050919050565b6117808161176d565b811461178b57600080fd5b50565b60008135905061179d81611777565b92915050565b600080604083850312156117ba576117b9611763565b5b60006117c88582860161178e565b92505060206117d98582860161178e565b9150509250929050565b600081519050919050565b600082825260208201905092915050565b60005b8381101561181d578082015181840152602081019050611802565b60008484015250505050565b6000601f19601f8301169050919050565b6000611845826117e3565b61184f81856117ee565b935061185f8185602086016117ff565b61186881611829565b840191505092915050565b61187c8161176d565b82525050565b6000604082019050818103600083015261189c818561183a565b90506118ab6020830184611873565b9392505050565b600060208201905081810360008301526118cc818461183a565b905092915050565b60006020820190506118e96000830184611873565b92915050565b60006020828403121561190557611904611763565b5b60006119138482850161178e565b91505092915050565b600073ffffffffffffffffffffffffffffffffffffffff82169050919050565b60006119478261191c565b9050919050565b6119578161193c565b82525050565b6000602082019050611972600083018461194e565b92915050565b6119818161193c565b811461198c57600080fd5b50565b60008135905061199e81611978565b92915050565b6000806000606084860312156119bd576119bc611763565b5b60006119cb8682870161178e565b93505060206119dc8682870161198f565b92505060406119ed8682870161178e565b9150509250925092565b600080fd5b600080fd5b7f4e487b7100000000000000000000000000000000000000000000000000000000600052604160045260246000fd5b611a3982611829565b810181811067ffffffffffffffff82111715611a5857611a57611a01565b5b80604052505050565b6000611a6b611759565b9050611a778282611a30565b919050565b600067ffffffffffffffff821115611a9757611a96611a01565b5b611aa082611829565b9050602081019050919050565b82818337600083830152505050565b6000611acf611aca84611a7c565b611a61565b905082815260208101848484011115611aeb57611aea6119fc565b5b611af6848285611aad565b509392505050565b600082601f830112611b1357611b126119f7565b5b8135611b23848260208601611abc565b91505092915050565b600067ffffffffffffffff821115611b4757611b46611a01565b5b602082029050602081019050919050565b600080fd5b6000611b70611b6b84611b2c565b611a61565b90508083825260208201905060208402830185811115611b9357611b92611b58565b5b835b81811015611bda57803567ffffffffffffffff811115611bb857611bb76119f7565b5b808601611bc58982611afe565b85526020850194505050602081019050611b95565b5050509392505050565b600082601f830112611bf957611bf86119f7565b5b8135611c09848260208601611b5d565b91505092915050565b600080600080600080600060e0888a031215611c3157611c30611763565b5b600088013567ffffffffffffffff811115611c4f57611c4e611768565b5b611c5b8a828b01611afe565b975050602088013567ffffffffffffffff811115611c7c57611c7b611768565b5b611c888a828b01611afe565b965050604088013567ffffffffffffffff811115611ca957611ca8611768565b5b611cb58a828b01611afe565b9550506060611cc68a828b0161178e565b9450506080611cd78a828b0161178e565b93505060a0611ce88a828b0161178e565b92505060c088013567ffffffffffffffff811115611d0957611d08611768565b5b611d158a828b01611be4565b91505092959891949750929550565b6000819050919050565b6000611d49611d44611d3f8461191c565b611d24565b61191c565b9050919050565b6000611d5b82611d2e565b9050919050565b6000611d6d82611d50565b9050919050565b611d7d81611d62565b82525050565b6000602082019050611d986000830184611d74565b92915050565b600060208284031215611db457611db3611763565b5b600082013567ffffffffffffffff811115611dd257611dd1611768565b5b611dde84828501611afe565b91505092915050565b6000610100820190508181036000830152611e02818b61183a565b90508181036020830152611e16818a61183a565b90508181036040830152611e2a818961183a565b9050611e396060830188611873565b611e466080830187611873565b611e5360a0830186611873565b611e6060c0830185611873565b611e6d60e0830184611873565b9998505050505050505050565b7f4e487b7100000000000000000000000000000000000000000000000000000000600052603260045260246000fd5b7f4e487b7100000000000000000000000000000000000000000000000000000000600052602260045260246000fd5b60006002820490506001821680611ef057607f821691505b602082108103611f0357611f02611ea9565b5b50919050565b7f4e487b7100000000000000000000000000000000000000000000000000000000600052601160045260246000fd5b6000611f438261176d565b9150611f4e8361176d565b9250828203905081811115611f6657611f65611f09565b5b92915050565b6000611f778261176d565b91507fffffffffffffffffffffffffffffffffffffffffffffffffffffffffffffffff8203611fa957611fa8611f09565b5b600182019050919050565b6000611fbf8261176d565b9150611fca8361176d565b9250828202611fd88161176d565b91508282048414831517611fef57611fee611f09565b5b5092915050565b60006120018261176d565b915061200c8361176d565b925082820190508082111561202457612023611f09565b5b92915050565b7f566f74696e672074696d65206578706972656400000000000000000000000000600082015250565b60006120606013836117ee565b915061206b8261202a565b602082019050919050565b6000602082019050818103600083015261208f81612053565b9050919050565b7f416c726561647920766f74656400000000000000000000000000000000000000600082015250565b60006120cc600d836117ee565b91506120d782612096565b602082019050919050565b600060208201905081810360008301526120fb816120bf565b9050919050565b60008151905061211181611777565b92915050565b60006020828403121561212d5761212c611763565b5b600061213b84828501612102565b91505092915050565b7f4e6f204b5542495820746f6b656e730000000000000000000000000000000000600082015250565b600061217a600f836117ee565b915061218582612144565b602082019050919050565b600060208201905081810360008301526121a98161216d565b9050919050565b7f4e487b7100000000000000000000000000000000000000000000000000000000600052601260045260246000fd5b60006121ea8261176d565b91506121f58361176d565b925082612205576122046121b0565b5b828204905092915050565b7f4f6e6c792044414f2063616e2063616c6c20746869732066756e6374696f6e00600082015250565b6000612246601f836117ee565b915061225182612210565b602082019050919050565b6000602082019050818103600083015261227581612239565b9050919050565b7f4d696e2062616c616e6365206d7573742062652067726561746572207468616e60008201527f2030000000000000000000000000000000000000000000000000000000000000602082015250565b60006122d86022836117ee565b91506122e38261227c565b604082019050919050565b60006020820190508181036000830152612307816122cb565b9050919050565b7f4d61782062616c616e6365206d7573742062652067726561746572207468616e60008201527f206d696e2062616c616e63650000000000000000000000000000000000000000602082015250565b600061236a602c836117ee565b91506123758261230e565b604082019050919050565b600060208201905081810360008301526123998161235d565b9050919050565b60008190508160005260206000209050919050565b60006020601f8301049050919050565b600082821b905092915050565b6000600883026124027fffffffffffffffffffffffffffffffffffffffffffffffffffffffffffffffff826123c5565b61240c86836123c5565b95508019841693508086168417925050509392505050565b600061243f61243a6124358461176d565b611d24565b61176d565b9050919050565b6000819050919050565b61245983612424565b61246d61246582612446565b8484546123d2565b825550505050565b600090565b612482612475565b61248d818484612450565b505050565b5b818110156124b1576124a660008261247a565b600181019050612493565b5050565b601f8211156124f6576124c7816123a0565b6124d0846123b5565b810160208510156124df578190505b6124f36124eb856123b5565b830182612492565b50505b505050565b600082821c905092915050565b6000612519600019846008026124fb565b1980831691505092915050565b60006125328383612508565b9150826002028217905092915050565b61254b826117e3565b67ffffffffffffffff81111561256457612563611a01565b5b61256e8254611ed8565b6125798282856124b5565b600060209050601f8311600181146125ac576000841561259a578287015190505b6125a48582612526565b86555061260c565b601f1984166125ba866123a0565b60005b828110156125e2578489015182556001820191506020850194506020810190506125bd565b868310156125ff57848901516125fb601f891682612508565b8355505b6001600288020188555050505b505050505050565b600081905092915050565b600061262a826117e3565b6126348185612614565b93506126448185602086016117ff565b80840191505092915050565b600061265c828461261f565b915081905092915050565b7f4e487b7100000000000000000000000000000000000000000000000000000000600052603160045260246000fdfea2646970667358221220d4b25d5857e6014f6283a630fb5a219b4b396d6f06cf98882f03395d942a517264736f6c63430008120033",
  "linkReferences": {},
  "deployedLinkReferences": {}
}