{
  "_format": "hh-sol-artifact-1",
  "contractName": "KubidVoting",
  "sourceName": "contracts/KUBIDvoting.sol",
  "abi": [
    {
      "inputs": [
        {
          "internalType": "address",
          "name": "_kubidToken",
          "type": "address"
        },
        {
          "internalType": "address",
          "name": "_dao",
          "type": "address"
        },
        {
          "internalType": "address",
          "name": "_owner1",
          "type": "address"
        },
        {
          "internalType": "address",
          "name": "_owner2",
          "type": "address"
        }
      ],
      "stateMutability": "nonpayable",
      "type": "constructor"
    },
    {
      "anonymous": false,
      "inputs": [
        {
          "indexed": true,
          "internalType": "uint256",
          "name": "proposalId",
          "type": "uint256"
        },
        {
          "indexed": false,
          "internalType": "string",
          "name": "name",
          "type": "string"
        },
        {
          "indexed": false,
          "internalType": "string",
          "name": "description",
          "type": "string"
        },
        {
          "indexed": false,
          "internalType": "string",
          "name": "execution",
          "type": "string"
        },
        {
          "indexed": false,
          "internalType": "uint256",
          "name": "timeInMinutes",
          "type": "uint256"
        },
        {
          "indexed": false,
          "internalType": "uint256",
          "name": "creationTimestamp",
          "type": "uint256"
        }
      ],
      "name": "NewProposal",
      "type": "event"
    },
    {
      "anonymous": false,
      "inputs": [
        {
          "indexed": true,
          "internalType": "uint256",
          "name": "proposalId",
          "type": "uint256"
        },
        {
          "indexed": true,
          "internalType": "uint256",
          "name": "optionIndex",
          "type": "uint256"
        },
        {
          "indexed": false,
          "internalType": "string",
          "name": "name",
          "type": "string"
        }
      ],
      "name": "PollOptionNames",
      "type": "event"
    },
    {
      "anonymous": false,
      "inputs": [
        {
          "indexed": true,
          "internalType": "uint256",
          "name": "proposalId",
          "type": "uint256"
        },
        {
          "indexed": true,
          "internalType": "address",
          "name": "voter",
          "type": "address"
        },
        {
          "indexed": false,
          "internalType": "uint256",
          "name": "optionIndex",
          "type": "uint256"
        }
      ],
      "name": "Voted",
      "type": "event"
    },
    {
      "anonymous": false,
      "inputs": [
        {
          "indexed": true,
          "internalType": "uint256",
          "name": "proposalId",
          "type": "uint256"
        },
        {
          "indexed": false,
          "internalType": "uint256",
          "name": "winningOptionIndex",
          "type": "uint256"
        }
      ],
      "name": "WinnerAnnounced",
      "type": "event"
    },
    {
      "inputs": [
        {
          "internalType": "address",
          "name": "_newOwner",
          "type": "address"
        }
      ],
      "name": "addOwner",
      "outputs": [],
      "stateMutability": "nonpayable",
      "type": "function"
    },
    {
      "inputs": [
        {
          "internalType": "uint256",
          "name": "_proposalId",
          "type": "uint256"
        }
      ],
      "name": "announceWinner",
      "outputs": [],
      "stateMutability": "nonpayable",
      "type": "function"
    },
    {
      "inputs": [
        {
          "internalType": "string",
          "name": "_name",
          "type": "string"
        },
        {
          "internalType": "string",
          "name": "_description",
          "type": "string"
        },
        {
          "internalType": "string",
          "name": "_execution",
          "type": "string"
        },
        {
          "internalType": "uint256",
          "name": "_timeInMinutes",
          "type": "uint256"
        },
        {
          "internalType": "string[]",
          "name": "_optionNames",
          "type": "string[]"
        }
      ],
      "name": "createProposal",
      "outputs": [],
      "stateMutability": "nonpayable",
      "type": "function"
    },
    {
      "inputs": [],
      "name": "dao",
      "outputs": [
        {
          "internalType": "address",
          "name": "",
          "type": "address"
        }
      ],
      "stateMutability": "view",
      "type": "function"
    },
    {
      "inputs": [
        {
          "internalType": "uint256",
          "name": "_proposalId",
          "type": "uint256"
        },
        {
          "internalType": "uint256",
          "name": "_optionIndex",
          "type": "uint256"
        }
      ],
      "name": "getOptionVotes",
      "outputs": [
        {
          "internalType": "uint256",
          "name": "votes",
          "type": "uint256"
        }
      ],
      "stateMutability": "view",
      "type": "function"
    },
    {
      "inputs": [
        {
          "internalType": "uint256",
          "name": "_proposalId",
          "type": "uint256"
        }
      ],
      "name": "getOptionsCount",
      "outputs": [
        {
          "internalType": "uint256",
          "name": "",
          "type": "uint256"
        }
      ],
      "stateMutability": "view",
      "type": "function"
    },
    {
      "inputs": [
        {
          "internalType": "address",
          "name": "",
          "type": "address"
        }
      ],
      "name": "isOwner",
      "outputs": [
        {
          "internalType": "bool",
          "name": "",
          "type": "bool"
        }
      ],
      "stateMutability": "view",
      "type": "function"
    },
    {
      "inputs": [],
      "name": "kubidToken",
      "outputs": [
        {
          "internalType": "contract IERC20",
          "name": "",
          "type": "address"
        }
      ],
      "stateMutability": "view",
      "type": "function"
    },
    {
      "inputs": [
        {
          "internalType": "address",
          "name": "_owner",
          "type": "address"
        }
      ],
      "name": "removeOwner",
      "outputs": [],
      "stateMutability": "nonpayable",
      "type": "function"
    },
    {
      "inputs": [
        {
          "internalType": "uint256",
          "name": "_proposalId",
          "type": "uint256"
        },
        {
          "internalType": "address",
          "name": "_voter",
          "type": "address"
        },
        {
          "internalType": "uint256",
          "name": "_optionIndex",
          "type": "uint256"
        }
      ],
      "name": "vote",
      "outputs": [],
      "stateMutability": "nonpayable",
      "type": "function"
    }
  ],
  "bytecode": "0x60806040523480156200001157600080fd5b5060405162001cc338038062001cc3833981810160405281019062000037919062000234565b836000806101000a81548173ffffffffffffffffffffffffffffffffffffffff021916908373ffffffffffffffffffffffffffffffffffffffff16021790555082600160006101000a81548173ffffffffffffffffffffffffffffffffffffffff021916908373ffffffffffffffffffffffffffffffffffffffff1602179055506001600360003373ffffffffffffffffffffffffffffffffffffffff1673ffffffffffffffffffffffffffffffffffffffff16815260200190815260200160002060006101000a81548160ff0219169083151502179055506001600360008473ffffffffffffffffffffffffffffffffffffffff1673ffffffffffffffffffffffffffffffffffffffff16815260200190815260200160002060006101000a81548160ff0219169083151502179055506001600360008373ffffffffffffffffffffffffffffffffffffffff1673ffffffffffffffffffffffffffffffffffffffff16815260200190815260200160002060006101000a81548160ff02191690831515021790555050505050620002a6565b600080fd5b600073ffffffffffffffffffffffffffffffffffffffff82169050919050565b6000620001fc82620001cf565b9050919050565b6200020e81620001ef565b81146200021a57600080fd5b50565b6000815190506200022e8162000203565b92915050565b60008060008060808587031215620002515762000250620001ca565b5b600062000261878288016200021d565b945050602062000274878288016200021d565b935050604062000287878288016200021d565b92505060606200029a878288016200021d565b91505092959194509250565b611a0d80620002b66000396000f3fe608060405234801561001057600080fd5b506004361061009e5760003560e01c8063517a625711610066578063517a6257146101455780635c5dab67146101755780637065cb4814610193578063778d5547146101af578063e7ea088f146101cb5761009e565b8063173825d9146100a35780632f54bf6e146100bf5780633a6e157b146100ef5780634162169f1461010b5780634de8737c14610129575b600080fd5b6100bd60048036038101906100b89190610f0a565b6101fb565b005b6100d960048036038101906100d49190610f0a565b6102e2565b6040516100e69190610f52565b60405180910390f35b61010960048036038101906101049190610fa3565b610302565b005b6101136104eb565b6040516101209190610fdf565b60405180910390f35b610143600480360381019061013e9190610ffa565b610511565b005b61015f600480360381019061015a9190610fa3565b610954565b60405161016c919061105c565b60405180910390f35b61017d6109d3565b60405161018a91906110d6565b60405180910390f35b6101ad60048036038101906101a89190610f0a565b6109f7565b005b6101c960048036038101906101c4919061131d565b610ade565b005b6101e560048036038101906101e09190611408565b610cc1565b6040516101f2919061105c565b60405180910390f35b600360003373ffffffffffffffffffffffffffffffffffffffff1673ffffffffffffffffffffffffffffffffffffffff16815260200190815260200160002060009054906101000a900460ff16610287576040517f08c379a000000000000000000000000000000000000000000000000000000000815260040161027e906114a5565b60405180910390fd5b6000600360008373ffffffffffffffffffffffffffffffffffffffff1673ffffffffffffffffffffffffffffffffffffffff16815260200190815260200160002060006101000a81548160ff02191690831515021790555050565b60036020528060005260406000206000915054906101000a900460ff1681565b80600280549050811061034a576040517f08c379a000000000000000000000000000000000000000000000000000000000815260040161034190611511565b60405180910390fd5b6000600282815481106103605761035f611531565b5b90600052602060002090600502019050603c8160020154610381919061158f565b816003015461039091906115d1565b42116103d1576040517f08c379a00000000000000000000000000000000000000000000000000000000081526004016103c890611651565b60405180910390fd5b6002805490508310610418576040517f08c379a000000000000000000000000000000000000000000000000000000000815260040161040f90611511565b60405180910390fd5b60006002848154811061042e5761042d611531565b5b90600052602060002090600502019050603c816002015461044f919061158f565b816003015461045e91906115d1565b421161049f576040517f08c379a000000000000000000000000000000000000000000000000000000000815260040161049690611651565b60405180910390fd5b60006104aa85610da6565b9050847f50e0ee70ebbb985b1aeb034bbf712119ad5ed3e707f7b33cd8e00694b0c2550c826040516104dc919061105c565b60405180910390a25050505050565b600160009054906101000a900473ffffffffffffffffffffffffffffffffffffffff1681565b600360003373ffffffffffffffffffffffffffffffffffffffff1673ffffffffffffffffffffffffffffffffffffffff16815260200190815260200160002060009054906101000a900460ff1661059d576040517f08c379a0000000000000000000000000000000000000000000000000000000008152600401610594906114a5565b60405180910390fd5b8260028054905081106105e5576040517f08c379a00000000000000000000000000000000000000000000000000000000081526004016105dc90611511565b60405180910390fd5b6000600282815481106105fb576105fa611531565b5b90600052602060002090600502019050603c816002015461061c919061158f565b816003015461062b91906115d1565b42111561066d576040517f08c379a0000000000000000000000000000000000000000000000000000000008152600401610664906116bd565b60405180910390fd5b60028054905085106106b4576040517f08c379a00000000000000000000000000000000000000000000000000000000081526004016106ab90611511565b60405180910390fd5b6000600286815481106106ca576106c9611531565b5b906000526020600020906005020190508060010160008673ffffffffffffffffffffffffffffffffffffffff1673ffffffffffffffffffffffffffffffffffffffff16815260200190815260200160002060009054906101000a900460ff1615610769576040517f08c379a000000000000000000000000000000000000000000000000000000000815260040161076090611729565b60405180910390fd5b60008060009054906101000a900473ffffffffffffffffffffffffffffffffffffffff1673ffffffffffffffffffffffffffffffffffffffff166370a08231876040518263ffffffff1660e01b81526004016107c59190610fdf565b602060405180830381865afa1580156107e2573d6000803e3d6000fd5b505050506040513d601f19601f82011682018060405250810190610806919061175e565b90506000811161084b576040517f08c379a0000000000000000000000000000000000000000000000000000000008152600401610842906117d7565b60405180910390fd5b60018260010160008873ffffffffffffffffffffffffffffffffffffffff1673ffffffffffffffffffffffffffffffffffffffff16815260200190815260200160002060006101000a81548160ff02191690831515021790555060018260000160008282546108ba91906115d1565b9250508190555060018260040186815481106108d9576108d8611531565b5b9060005260206000200160000160008282546108f591906115d1565b925050819055508573ffffffffffffffffffffffffffffffffffffffff16877f1abe610cf2bf87e57dcc1181fcf5ac0934e843d8344ab9eed6e86c799f62585e87604051610943919061105c565b60405180910390a350505050505050565b6000600280549050821061099d576040517f08c379a000000000000000000000000000000000000000000000000000000000815260040161099490611511565b60405180910390fd5b6000600283815481106109b3576109b2611531565b5b906000526020600020906005020190508060040180549050915050919050565b60008054906101000a900473ffffffffffffffffffffffffffffffffffffffff1681565b600360003373ffffffffffffffffffffffffffffffffffffffff1673ffffffffffffffffffffffffffffffffffffffff16815260200190815260200160002060009054906101000a900460ff16610a83576040517f08c379a0000000000000000000000000000000000000000000000000000000008152600401610a7a906114a5565b60405180910390fd5b6001600360008373ffffffffffffffffffffffffffffffffffffffff1673ffffffffffffffffffffffffffffffffffffffff16815260200190815260200160002060006101000a81548160ff02191690831515021790555050565b600360003373ffffffffffffffffffffffffffffffffffffffff1673ffffffffffffffffffffffffffffffffffffffff16815260200190815260200160002060009054906101000a900460ff16610b6a576040517f08c379a0000000000000000000000000000000000000000000000000000000008152600401610b61906114a5565b60405180910390fd5b6000600260018160018154018082558091505003906000526020600020906005020190506000816000018190555082816002018190555042816003018190555060006001600280549050610bbe91906117f7565b9050807f3720bdc6284a997df2fcbd6d07223003008fa8f862ab89cd44bd5974bcf8344c8888888842604051610bf8959493929190611899565b60405180910390a260005b8351811015610cb75782600401604051806020016040528060008152509080600181540180825580915050600190039060005260206000200160009091909190915060008201518160000155505080827fd3b5cef521b08344b2f3822456355f6c2603e7f00a271d0215ac4760a401fc48868481518110610c8757610c86611531565b5b6020026020010151604051610c9c9190611901565b60405180910390a38080610caf90611923565b915050610c03565b5050505050505050565b60006002805490508310610d0a576040517f08c379a0000000000000000000000000000000000000000000000000000000008152600401610d0190611511565b60405180910390fd5b600060028481548110610d2057610d1f611531565b5b9060005260206000209060050201905080600401805490508310610d79576040517f08c379a0000000000000000000000000000000000000000000000000000000008152600401610d70906119b7565b60405180910390fd5b806004018381548110610d8f57610d8e611531565b5b906000526020600020016000015491505092915050565b60006002805490508210610def576040517f08c379a0000000000000000000000000000000000000000000000000000000008152600401610de690611511565b60405180910390fd5b600060028381548110610e0557610e04611531565b5b906000526020600020906005020190506000805b8260040180549050811015610e905781836004018281548110610e3f57610e3e611531565b5b90600052602060002001600001541115610e7d57826004018181548110610e6957610e68611531565b5b906000526020600020016000015491508093505b8080610e8890611923565b915050610e19565b505050919050565b6000604051905090565b600080fd5b600080fd5b600073ffffffffffffffffffffffffffffffffffffffff82169050919050565b6000610ed782610eac565b9050919050565b610ee781610ecc565b8114610ef257600080fd5b50565b600081359050610f0481610ede565b92915050565b600060208284031215610f2057610f1f610ea2565b5b6000610f2e84828501610ef5565b91505092915050565b60008115159050919050565b610f4c81610f37565b82525050565b6000602082019050610f676000830184610f43565b92915050565b6000819050919050565b610f8081610f6d565b8114610f8b57600080fd5b50565b600081359050610f9d81610f77565b92915050565b600060208284031215610fb957610fb8610ea2565b5b6000610fc784828501610f8e565b91505092915050565b610fd981610ecc565b82525050565b6000602082019050610ff46000830184610fd0565b92915050565b60008060006060848603121561101357611012610ea2565b5b600061102186828701610f8e565b935050602061103286828701610ef5565b925050604061104386828701610f8e565b9150509250925092565b61105681610f6d565b82525050565b6000602082019050611071600083018461104d565b92915050565b6000819050919050565b600061109c61109761109284610eac565b611077565b610eac565b9050919050565b60006110ae82611081565b9050919050565b60006110c0826110a3565b9050919050565b6110d0816110b5565b82525050565b60006020820190506110eb60008301846110c7565b92915050565b600080fd5b600080fd5b6000601f19601f8301169050919050565b7f4e487b7100000000000000000000000000000000000000000000000000000000600052604160045260246000fd5b611144826110fb565b810181811067ffffffffffffffff821117156111635761116261110c565b5b80604052505050565b6000611176610e98565b9050611182828261113b565b919050565b600067ffffffffffffffff8211156111a2576111a161110c565b5b6111ab826110fb565b9050602081019050919050565b82818337600083830152505050565b60006111da6111d584611187565b61116c565b9050828152602081018484840111156111f6576111f56110f6565b5b6112018482856111b8565b509392505050565b600082601f83011261121e5761121d6110f1565b5b813561122e8482602086016111c7565b91505092915050565b600067ffffffffffffffff8211156112525761125161110c565b5b602082029050602081019050919050565b600080fd5b600061127b61127684611237565b61116c565b9050808382526020820190506020840283018581111561129e5761129d611263565b5b835b818110156112e557803567ffffffffffffffff8111156112c3576112c26110f1565b5b8086016112d08982611209565b855260208501945050506020810190506112a0565b5050509392505050565b600082601f830112611304576113036110f1565b5b8135611314848260208601611268565b91505092915050565b600080600080600060a0868803121561133957611338610ea2565b5b600086013567ffffffffffffffff81111561135757611356610ea7565b5b61136388828901611209565b955050602086013567ffffffffffffffff81111561138457611383610ea7565b5b61139088828901611209565b945050604086013567ffffffffffffffff8111156113b1576113b0610ea7565b5b6113bd88828901611209565b93505060606113ce88828901610f8e565b925050608086013567ffffffffffffffff8111156113ef576113ee610ea7565b5b6113fb888289016112ef565b9150509295509295909350565b6000806040838503121561141f5761141e610ea2565b5b600061142d85828601610f8e565b925050602061143e85828601610f8e565b9150509250929050565b600082825260208201905092915050565b7f43616c6c6572206973206e6f7420616e206f776e657200000000000000000000600082015250565b600061148f601683611448565b915061149a82611459565b602082019050919050565b600060208201905081810360008301526114be81611482565b9050919050565b7f496e76616c69642070726f706f73616c20494400000000000000000000000000600082015250565b60006114fb601383611448565b9150611506826114c5565b602082019050919050565b6000602082019050818103600083015261152a816114ee565b9050919050565b7f4e487b7100000000000000000000000000000000000000000000000000000000600052603260045260246000fd5b7f4e487b7100000000000000000000000000000000000000000000000000000000600052601160045260246000fd5b600061159a82610f6d565b91506115a583610f6d565b92508282026115b381610f6d565b915082820484148315176115ca576115c9611560565b5b5092915050565b60006115dc82610f6d565b91506115e783610f6d565b92508282019050808211156115ff576115fe611560565b5b92915050565b7f566f74696e67206973206e6f742079657420636c6f7365640000000000000000600082015250565b600061163b601883611448565b915061164682611605565b602082019050919050565b6000602082019050818103600083015261166a8161162e565b9050919050565b7f566f74696e672074696d65206578706972656400000000000000000000000000600082015250565b60006116a7601383611448565b91506116b282611671565b602082019050919050565b600060208201905081810360008301526116d68161169a565b9050919050565b7f416c726561647920766f74656400000000000000000000000000000000000000600082015250565b6000611713600d83611448565b915061171e826116dd565b602082019050919050565b6000602082019050818103600083015261174281611706565b9050919050565b60008151905061175881610f77565b92915050565b60006020828403121561177457611773610ea2565b5b600061178284828501611749565b91505092915050565b7f4e6f204b5542494420746f6b656e730000000000000000000000000000000000600082015250565b60006117c1600f83611448565b91506117cc8261178b565b602082019050919050565b600060208201905081810360008301526117f0816117b4565b9050919050565b600061180282610f6d565b915061180d83610f6d565b925082820390508181111561182557611824611560565b5b92915050565b600081519050919050565b60005b83811015611854578082015181840152602081019050611839565b60008484015250505050565b600061186b8261182b565b6118758185611448565b9350611885818560208601611836565b61188e816110fb565b840191505092915050565b600060a08201905081810360008301526118b38188611860565b905081810360208301526118c78187611860565b905081810360408301526118db8186611860565b90506118ea606083018561104d565b6118f7608083018461104d565b9695505050505050565b6000602082019050818103600083015261191b8184611860565b905092915050565b600061192e82610f6d565b91507fffffffffffffffffffffffffffffffffffffffffffffffffffffffffffffffff82036119605761195f611560565b5b600182019050919050565b7f496e76616c6964206f7074696f6e20696e646578000000000000000000000000600082015250565b60006119a1601483611448565b91506119ac8261196b565b602082019050919050565b600060208201905081810360008301526119d081611994565b905091905056fea26469706673582212204bc4b53ef1cf08bb1492f3b43fe1941528d9b25efca66db8e2819806dc88f5f464736f6c63430008120033",
  "linkReferences": {},
  "deployedLinkReferences": {}
}