{
  "_format": "hh-sol-artifact-1",
  "contractName": "MembershipNFT",
  "sourceName": "contracts/KUBImemberNFT.sol",
  "abi": [
    {
      "inputs": [],
      "stateMutability": "nonpayable",
      "type": "constructor"
    },
    {
      "anonymous": false,
      "inputs": [
        {
          "indexed": true,
          "internalType": "address",
          "name": "owner",
          "type": "address"
        },
        {
          "indexed": true,
          "internalType": "address",
          "name": "approved",
          "type": "address"
        },
        {
          "indexed": true,
          "internalType": "uint256",
          "name": "tokenId",
          "type": "uint256"
        }
      ],
      "name": "Approval",
      "type": "event"
    },
    {
      "anonymous": false,
      "inputs": [
        {
          "indexed": true,
          "internalType": "address",
          "name": "owner",
          "type": "address"
        },
        {
          "indexed": true,
          "internalType": "address",
          "name": "operator",
          "type": "address"
        },
        {
          "indexed": false,
          "internalType": "bool",
          "name": "approved",
          "type": "bool"
        }
      ],
      "name": "ApprovalForAll",
      "type": "event"
    },
    {
      "anonymous": false,
      "inputs": [
        {
          "indexed": true,
          "internalType": "address",
          "name": "previousOwner",
          "type": "address"
        },
        {
          "indexed": true,
          "internalType": "address",
          "name": "newOwner",
          "type": "address"
        }
      ],
      "name": "OwnershipTransferred",
      "type": "event"
    },
    {
      "anonymous": false,
      "inputs": [
        {
          "indexed": true,
          "internalType": "address",
          "name": "from",
          "type": "address"
        },
        {
          "indexed": true,
          "internalType": "address",
          "name": "to",
          "type": "address"
        },
        {
          "indexed": true,
          "internalType": "uint256",
          "name": "tokenId",
          "type": "uint256"
        }
      ],
      "name": "Transfer",
      "type": "event"
    },
    {
      "inputs": [
        {
          "internalType": "address",
          "name": "to",
          "type": "address"
        },
        {
          "internalType": "uint256",
          "name": "tokenId",
          "type": "uint256"
        }
      ],
      "name": "approve",
      "outputs": [],
      "stateMutability": "nonpayable",
      "type": "function"
    },
    {
      "inputs": [
        {
          "internalType": "address",
          "name": "owner",
          "type": "address"
        }
      ],
      "name": "balanceOf",
      "outputs": [
        {
          "internalType": "uint256",
          "name": "",
          "type": "uint256"
        }
      ],
      "stateMutability": "view",
      "type": "function"
    },
    {
      "inputs": [
        {
          "internalType": "uint256",
          "name": "tokenId",
          "type": "uint256"
        }
      ],
      "name": "getApproved",
      "outputs": [
        {
          "internalType": "address",
          "name": "",
          "type": "address"
        }
      ],
      "stateMutability": "view",
      "type": "function"
    },
    {
      "inputs": [
        {
          "internalType": "address",
          "name": "owner",
          "type": "address"
        }
      ],
      "name": "getMembershipDetails",
      "outputs": [
        {
          "internalType": "uint256",
          "name": "id",
          "type": "uint256"
        },
        {
          "internalType": "uint256",
          "name": "schoolYear",
          "type": "uint256"
        },
        {
          "internalType": "uint256",
          "name": "tier",
          "type": "uint256"
        }
      ],
      "stateMutability": "view",
      "type": "function"
    },
    {
      "inputs": [
        {
          "internalType": "address",
          "name": "owner",
          "type": "address"
        },
        {
          "internalType": "address",
          "name": "operator",
          "type": "address"
        }
      ],
      "name": "isApprovedForAll",
      "outputs": [
        {
          "internalType": "bool",
          "name": "",
          "type": "bool"
        }
      ],
      "stateMutability": "view",
      "type": "function"
    },
    {
      "inputs": [
        {
          "internalType": "address",
          "name": "to",
          "type": "address"
        },
        {
          "internalType": "uint256",
          "name": "id",
          "type": "uint256"
        },
        {
          "internalType": "uint256",
          "name": "schoolYear",
          "type": "uint256"
        },
        {
          "internalType": "uint256",
          "name": "tier",
          "type": "uint256"
        },
        {
          "internalType": "string",
          "name": "ipfsLink",
          "type": "string"
        }
      ],
      "name": "mintMembershipNFT",
      "outputs": [],
      "stateMutability": "nonpayable",
      "type": "function"
    },
    {
      "inputs": [],
      "name": "name",
      "outputs": [
        {
          "internalType": "string",
          "name": "",
          "type": "string"
        }
      ],
      "stateMutability": "view",
      "type": "function"
    },
    {
      "inputs": [],
      "name": "owner",
      "outputs": [
        {
          "internalType": "address",
          "name": "",
          "type": "address"
        }
      ],
      "stateMutability": "view",
      "type": "function"
    },
    {
      "inputs": [
        {
          "internalType": "uint256",
          "name": "tokenId",
          "type": "uint256"
        }
      ],
      "name": "ownerOf",
      "outputs": [
        {
          "internalType": "address",
          "name": "",
          "type": "address"
        }
      ],
      "stateMutability": "view",
      "type": "function"
    },
    {
      "inputs": [],
      "name": "renounceOwnership",
      "outputs": [],
      "stateMutability": "nonpayable",
      "type": "function"
    },
    {
      "inputs": [
        {
          "internalType": "address",
          "name": "from",
          "type": "address"
        },
        {
          "internalType": "address",
          "name": "to",
          "type": "address"
        },
        {
          "internalType": "uint256",
          "name": "tokenId",
          "type": "uint256"
        }
      ],
      "name": "safeTransferFrom",
      "outputs": [],
      "stateMutability": "nonpayable",
      "type": "function"
    },
    {
      "inputs": [
        {
          "internalType": "address",
          "name": "from",
          "type": "address"
        },
        {
          "internalType": "address",
          "name": "to",
          "type": "address"
        },
        {
          "internalType": "uint256",
          "name": "tokenId",
          "type": "uint256"
        },
        {
          "internalType": "bytes",
          "name": "_data",
          "type": "bytes"
        }
      ],
      "name": "safeTransferFrom",
      "outputs": [],
      "stateMutability": "nonpayable",
      "type": "function"
    },
    {
      "inputs": [
        {
          "internalType": "address",
          "name": "operator",
          "type": "address"
        },
        {
          "internalType": "bool",
          "name": "approved",
          "type": "bool"
        }
      ],
      "name": "setApprovalForAll",
      "outputs": [],
      "stateMutability": "nonpayable",
      "type": "function"
    },
    {
      "inputs": [
        {
          "internalType": "bytes4",
          "name": "interfaceId",
          "type": "bytes4"
        }
      ],
      "name": "supportsInterface",
      "outputs": [
        {
          "internalType": "bool",
          "name": "",
          "type": "bool"
        }
      ],
      "stateMutability": "view",
      "type": "function"
    },
    {
      "inputs": [],
      "name": "symbol",
      "outputs": [
        {
          "internalType": "string",
          "name": "",
          "type": "string"
        }
      ],
      "stateMutability": "view",
      "type": "function"
    },
    {
      "inputs": [
        {
          "internalType": "uint256",
          "name": "tokenId",
          "type": "uint256"
        }
      ],
      "name": "tokenURI",
      "outputs": [
        {
          "internalType": "string",
          "name": "",
          "type": "string"
        }
      ],
      "stateMutability": "view",
      "type": "function"
    },
    {
      "inputs": [
        {
          "internalType": "address",
          "name": "from",
          "type": "address"
        },
        {
          "internalType": "address",
          "name": "to",
          "type": "address"
        },
        {
          "internalType": "uint256",
          "name": "tokenId",
          "type": "uint256"
        }
      ],
      "name": "transferFrom",
      "outputs": [],
      "stateMutability": "nonpayable",
      "type": "function"
    },
    {
      "inputs": [
        {
          "internalType": "address",
          "name": "newOwner",
          "type": "address"
        }
      ],
      "name": "transferOwnership",
      "outputs": [],
      "stateMutability": "nonpayable",
      "type": "function"
    }
  ],
  "bytecode": "0x60806040523480156200001157600080fd5b506040518060400160405280600d81526020017f4d656d626572736869704e4654000000000000000000000000000000000000008152506040518060400160405280600481526020017f4d4e46540000000000000000000000000000000000000000000000000000000081525081600090816200008f919062000412565b508060019081620000a1919062000412565b505050620000c4620000b8620000ca60201b60201c565b620000d260201b60201c565b620004f9565b600033905090565b6000600760009054906101000a900473ffffffffffffffffffffffffffffffffffffffff16905081600760006101000a81548173ffffffffffffffffffffffffffffffffffffffff021916908373ffffffffffffffffffffffffffffffffffffffff1602179055508173ffffffffffffffffffffffffffffffffffffffff168173ffffffffffffffffffffffffffffffffffffffff167f8be0079c531659141344cd1fd0a4f28419497f9722a3daafe3b4186f6b6457e060405160405180910390a35050565b600081519050919050565b7f4e487b7100000000000000000000000000000000000000000000000000000000600052604160045260246000fd5b7f4e487b7100000000000000000000000000000000000000000000000000000000600052602260045260246000fd5b600060028204905060018216806200021a57607f821691505b60208210810362000230576200022f620001d2565b5b50919050565b60008190508160005260206000209050919050565b60006020601f8301049050919050565b600082821b905092915050565b6000600883026200029a7fffffffffffffffffffffffffffffffffffffffffffffffffffffffffffffffff826200025b565b620002a686836200025b565b95508019841693508086168417925050509392505050565b6000819050919050565b6000819050919050565b6000620002f3620002ed620002e784620002be565b620002c8565b620002be565b9050919050565b6000819050919050565b6200030f83620002d2565b620003276200031e82620002fa565b84845462000268565b825550505050565b600090565b6200033e6200032f565b6200034b81848462000304565b505050565b5b8181101562000373576200036760008262000334565b60018101905062000351565b5050565b601f821115620003c2576200038c8162000236565b62000397846200024b565b81016020851015620003a7578190505b620003bf620003b6856200024b565b83018262000350565b50505b505050565b600082821c905092915050565b6000620003e760001984600802620003c7565b1980831691505092915050565b6000620004028383620003d4565b9150826002028217905092915050565b6200041d8262000198565b67ffffffffffffffff811115620004395762000438620001a3565b5b62000445825462000201565b6200045282828562000377565b600060209050601f8311600181146200048a576000841562000475578287015190505b620004818582620003f4565b865550620004f1565b601f1984166200049a8662000236565b60005b82811015620004c4578489015182556001820191506020850194506020810190506200049d565b86831015620004e45784890151620004e0601f891682620003d4565b8355505b6001600288020188555050505b505050505050565b612bcb80620005096000396000f3fe608060405234801561001057600080fd5b50600436106101165760003560e01c806370a08231116100a2578063a22cb46511610071578063a22cb465146102e1578063b88d4fde146102fd578063c87b56dd14610319578063e985e9c514610349578063f2fde38b1461037957610116565b806370a082311461026b578063715018a61461029b5780638da5cb5b146102a557806395d89b41146102c357610116565b80631bdae632116100e95780631bdae632146101b557806323b872dd146101d157806342842e0e146101ed5780635ef808a3146102095780636352211e1461023b57610116565b806301ffc9a71461011b57806306fdde031461014b578063081812fc14610169578063095ea7b314610199575b600080fd5b610135600480360381019061013091906119dc565b610395565b6040516101429190611a24565b60405180910390f35b610153610477565b6040516101609190611acf565b60405180910390f35b610183600480360381019061017e9190611b27565b610509565b6040516101909190611b95565b60405180910390f35b6101b360048036038101906101ae9190611bdc565b61054f565b005b6101cf60048036038101906101ca9190611d51565b610666565b005b6101eb60048036038101906101e69190611de8565b6107e9565b005b61020760048036038101906102029190611de8565b610824565b005b610223600480360381019061021e9190611e3b565b61085f565b60405161023293929190611e77565b60405180910390f35b61025560048036038101906102509190611b27565b6108ec565b6040516102629190611b95565b60405180910390f35b61028560048036038101906102809190611e3b565b610972565b6040516102929190611eae565b60405180910390f35b6102a3610a29565b005b6102ad610a3d565b6040516102ba9190611b95565b60405180910390f35b6102cb610a67565b6040516102d89190611acf565b60405180910390f35b6102fb60048036038101906102f69190611ef5565b610af9565b005b61031760048036038101906103129190611fd6565b610b0f565b005b610333600480360381019061032e9190611b27565b610b4a565b6040516103409190611acf565b60405180910390f35b610363600480360381019061035e9190612059565b610c5c565b6040516103709190611a24565b60405180910390f35b610393600480360381019061038e9190611e3b565b610cf0565b005b60007f80ac58cd000000000000000000000000000000000000000000000000000000007bffffffffffffffffffffffffffffffffffffffffffffffffffffffff1916827bffffffffffffffffffffffffffffffffffffffffffffffffffffffff1916148061046057507f5b5e139f000000000000000000000000000000000000000000000000000000007bffffffffffffffffffffffffffffffffffffffffffffffffffffffff1916827bffffffffffffffffffffffffffffffffffffffffffffffffffffffff1916145b80610470575061046f82610d73565b5b9050919050565b606060008054610486906120c8565b80601f01602080910402602001604051908101604052809291908181526020018280546104b2906120c8565b80156104ff5780601f106104d4576101008083540402835291602001916104ff565b820191906000526020600020905b8154815290600101906020018083116104e257829003601f168201915b5050505050905090565b600061051482610ddd565b6004600083815260200190815260200160002060009054906101000a900473ffffffffffffffffffffffffffffffffffffffff169050919050565b600061055a826108ec565b90508073ffffffffffffffffffffffffffffffffffffffff168373ffffffffffffffffffffffffffffffffffffffff16036105ca576040517f08c379a00000000000000000000000000000000000000000000000000000000081526004016105c19061216b565b60405180910390fd5b8073ffffffffffffffffffffffffffffffffffffffff166105e9610e28565b73ffffffffffffffffffffffffffffffffffffffff161480610618575061061781610612610e28565b610c5c565b5b610657576040517f08c379a000000000000000000000000000000000000000000000000000000000815260040161064e906121fd565b60405180910390fd5b6106618383610e30565b505050565b61066e610ee9565b600960008673ffffffffffffffffffffffffffffffffffffffff1673ffffffffffffffffffffffffffffffffffffffff16815260200190815260200160002060009054906101000a900460ff16156106fb576040517f08c379a00000000000000000000000000000000000000000000000000000000081526004016106f29061228f565b60405180910390fd5b6107058585610f67565b61070f8482610f85565b604051806060016040528085815260200184815260200183815250600860008773ffffffffffffffffffffffffffffffffffffffff1673ffffffffffffffffffffffffffffffffffffffff1681526020019081526020016000206000820151816000015560208201518160010155604082015181600201559050506001600960008773ffffffffffffffffffffffffffffffffffffffff1673ffffffffffffffffffffffffffffffffffffffff16815260200190815260200160002060006101000a81548160ff0219169083151502179055505050505050565b6040517f08c379a000000000000000000000000000000000000000000000000000000000815260040161081b90612321565b60405180910390fd5b6040517f08c379a000000000000000000000000000000000000000000000000000000000815260040161085690612321565b60405180910390fd5b600080600080600860008673ffffffffffffffffffffffffffffffffffffffff1673ffffffffffffffffffffffffffffffffffffffff16815260200190815260200160002060405180606001604052908160008201548152602001600182015481526020016002820154815250509050806000015181602001518260400151935093509350509193909250565b6000806108f883610ff2565b9050600073ffffffffffffffffffffffffffffffffffffffff168173ffffffffffffffffffffffffffffffffffffffff1603610969576040517f08c379a00000000000000000000000000000000000000000000000000000000081526004016109609061238d565b60405180910390fd5b80915050919050565b60008073ffffffffffffffffffffffffffffffffffffffff168273ffffffffffffffffffffffffffffffffffffffff16036109e2576040517f08c379a00000000000000000000000000000000000000000000000000000000081526004016109d99061241f565b60405180910390fd5b600360008373ffffffffffffffffffffffffffffffffffffffff1673ffffffffffffffffffffffffffffffffffffffff168152602001908152602001600020549050919050565b610a31610ee9565b610a3b600061102f565b565b6000600760009054906101000a900473ffffffffffffffffffffffffffffffffffffffff16905090565b606060018054610a76906120c8565b80601f0160208091040260200160405190810160405280929190818152602001828054610aa2906120c8565b8015610aef5780601f10610ac457610100808354040283529160200191610aef565b820191906000526020600020905b815481529060010190602001808311610ad257829003601f168201915b5050505050905090565b610b0b610b04610e28565b83836110f5565b5050565b6040517f08c379a0000000000000000000000000000000000000000000000000000000008152600401610b4190612321565b60405180910390fd5b6060610b5582610ddd565b6000600660008481526020019081526020016000208054610b75906120c8565b80601f0160208091040260200160405190810160405280929190818152602001828054610ba1906120c8565b8015610bee5780601f10610bc357610100808354040283529160200191610bee565b820191906000526020600020905b815481529060010190602001808311610bd157829003601f168201915b505050505090506000610bff611261565b90506000815103610c14578192505050610c57565b600082511115610c49578082604051602001610c3192919061247b565b60405160208183030381529060405292505050610c57565b610c5284611278565b925050505b919050565b6000600560008473ffffffffffffffffffffffffffffffffffffffff1673ffffffffffffffffffffffffffffffffffffffff16815260200190815260200160002060008373ffffffffffffffffffffffffffffffffffffffff1673ffffffffffffffffffffffffffffffffffffffff16815260200190815260200160002060009054906101000a900460ff16905092915050565b610cf8610ee9565b600073ffffffffffffffffffffffffffffffffffffffff168173ffffffffffffffffffffffffffffffffffffffff1603610d67576040517f08c379a0000000000000000000000000000000000000000000000000000000008152600401610d5e90612511565b60405180910390fd5b610d708161102f565b50565b60007f01ffc9a7000000000000000000000000000000000000000000000000000000007bffffffffffffffffffffffffffffffffffffffffffffffffffffffff1916827bffffffffffffffffffffffffffffffffffffffffffffffffffffffff1916149050919050565b610de6816112e0565b610e25576040517f08c379a0000000000000000000000000000000000000000000000000000000008152600401610e1c9061238d565b60405180910390fd5b50565b600033905090565b816004600083815260200190815260200160002060006101000a81548173ffffffffffffffffffffffffffffffffffffffff021916908373ffffffffffffffffffffffffffffffffffffffff160217905550808273ffffffffffffffffffffffffffffffffffffffff16610ea3836108ec565b73ffffffffffffffffffffffffffffffffffffffff167f8c5be1e5ebec7d5bd14f71427d1e84f3dd0314c0f7b2291e5b200ac8c7c3b92560405160405180910390a45050565b610ef1610e28565b73ffffffffffffffffffffffffffffffffffffffff16610f0f610a3d565b73ffffffffffffffffffffffffffffffffffffffff1614610f65576040517f08c379a0000000000000000000000000000000000000000000000000000000008152600401610f5c9061257d565b60405180910390fd5b565b610f81828260405180602001604052806000815250611321565b5050565b610f8e826112e0565b610fcd576040517f08c379a0000000000000000000000000000000000000000000000000000000008152600401610fc49061260f565b60405180910390fd5b80600660008481526020019081526020016000209081610fed91906127db565b505050565b60006002600083815260200190815260200160002060009054906101000a900473ffffffffffffffffffffffffffffffffffffffff169050919050565b6000600760009054906101000a900473ffffffffffffffffffffffffffffffffffffffff16905081600760006101000a81548173ffffffffffffffffffffffffffffffffffffffff021916908373ffffffffffffffffffffffffffffffffffffffff1602179055508173ffffffffffffffffffffffffffffffffffffffff168173ffffffffffffffffffffffffffffffffffffffff167f8be0079c531659141344cd1fd0a4f28419497f9722a3daafe3b4186f6b6457e060405160405180910390a35050565b8173ffffffffffffffffffffffffffffffffffffffff168373ffffffffffffffffffffffffffffffffffffffff1603611163576040517f08c379a000000000000000000000000000000000000000000000000000000000815260040161115a906128f9565b60405180910390fd5b80600560008573ffffffffffffffffffffffffffffffffffffffff1673ffffffffffffffffffffffffffffffffffffffff16815260200190815260200160002060008473ffffffffffffffffffffffffffffffffffffffff1673ffffffffffffffffffffffffffffffffffffffff16815260200190815260200160002060006101000a81548160ff0219169083151502179055508173ffffffffffffffffffffffffffffffffffffffff168373ffffffffffffffffffffffffffffffffffffffff167f17307eab39ab6107e8899845ad3d59bd9653f200f220920489ca2b5937696c31836040516112549190611a24565b60405180910390a3505050565b606060405180602001604052806000815250905090565b606061128382610ddd565b600061128d611261565b905060008151116112ad57604051806020016040528060008152506112d8565b806112b78461137c565b6040516020016112c892919061247b565b6040516020818303038152906040525b915050919050565b60008073ffffffffffffffffffffffffffffffffffffffff1661130283610ff2565b73ffffffffffffffffffffffffffffffffffffffff1614159050919050565b61132b838361144a565b6113386000848484611667565b611377576040517f08c379a000000000000000000000000000000000000000000000000000000000815260040161136e9061298b565b60405180910390fd5b505050565b60606000600161138b846117ee565b01905060008167ffffffffffffffff8111156113aa576113a9611c26565b5b6040519080825280601f01601f1916602001820160405280156113dc5781602001600182028036833780820191505090505b509050600082602001820190505b60011561143f578080600190039150507f3031323334353637383961626364656600000000000000000000000000000000600a86061a8153600a8581611433576114326129ab565b5b049450600085036113ea575b819350505050919050565b600073ffffffffffffffffffffffffffffffffffffffff168273ffffffffffffffffffffffffffffffffffffffff16036114b9576040517f08c379a00000000000000000000000000000000000000000000000000000000081526004016114b090612a26565b60405180910390fd5b6114c2816112e0565b15611502576040517f08c379a00000000000000000000000000000000000000000000000000000000081526004016114f990612a92565b60405180910390fd5b611510600083836001611941565b611519816112e0565b15611559576040517f08c379a000000000000000000000000000000000000000000000000000000000815260040161155090612a92565b60405180910390fd5b6001600360008473ffffffffffffffffffffffffffffffffffffffff1673ffffffffffffffffffffffffffffffffffffffff16815260200190815260200160002060008282540192505081905550816002600083815260200190815260200160002060006101000a81548173ffffffffffffffffffffffffffffffffffffffff021916908373ffffffffffffffffffffffffffffffffffffffff160217905550808273ffffffffffffffffffffffffffffffffffffffff16600073ffffffffffffffffffffffffffffffffffffffff167fddf252ad1be2c89b69c2b068fc378daa952ba7f163c4a11628f55a4df523b3ef60405160405180910390a4611663600083836001611947565b5050565b60006116888473ffffffffffffffffffffffffffffffffffffffff1661194d565b156117e1578373ffffffffffffffffffffffffffffffffffffffff1663150b7a026116b1610e28565b8786866040518563ffffffff1660e01b81526004016116d39493929190612b07565b6020604051808303816000875af192505050801561170f57506040513d601f19601f8201168201806040525081019061170c9190612b68565b60015b611791573d806000811461173f576040519150601f19603f3d011682016040523d82523d6000602084013e611744565b606091505b506000815103611789576040517f08c379a00000000000000000000000000000000000000000000000000000000081526004016117809061298b565b60405180910390fd5b805181602001fd5b63150b7a0260e01b7bffffffffffffffffffffffffffffffffffffffffffffffffffffffff1916817bffffffffffffffffffffffffffffffffffffffffffffffffffffffff1916149150506117e6565b600190505b949350505050565b600080600090507a184f03e93ff9f4daa797ed6e38ed64bf6a1f010000000000000000831061184c577a184f03e93ff9f4daa797ed6e38ed64bf6a1f0100000000000000008381611842576118416129ab565b5b0492506040810190505b6d04ee2d6d415b85acef81000000008310611889576d04ee2d6d415b85acef8100000000838161187f5761187e6129ab565b5b0492506020810190505b662386f26fc1000083106118b857662386f26fc1000083816118ae576118ad6129ab565b5b0492506010810190505b6305f5e10083106118e1576305f5e10083816118d7576118d66129ab565b5b0492506008810190505b61271083106119065761271083816118fc576118fb6129ab565b5b0492506004810190505b60648310611929576064838161191f5761191e6129ab565b5b0492506002810190505b600a8310611938576001810190505b80915050919050565b50505050565b50505050565b6000808273ffffffffffffffffffffffffffffffffffffffff163b119050919050565b6000604051905090565b600080fd5b600080fd5b60007fffffffff0000000000000000000000000000000000000000000000000000000082169050919050565b6119b981611984565b81146119c457600080fd5b50565b6000813590506119d6816119b0565b92915050565b6000602082840312156119f2576119f161197a565b5b6000611a00848285016119c7565b91505092915050565b60008115159050919050565b611a1e81611a09565b82525050565b6000602082019050611a396000830184611a15565b92915050565b600081519050919050565b600082825260208201905092915050565b60005b83811015611a79578082015181840152602081019050611a5e565b60008484015250505050565b6000601f19601f8301169050919050565b6000611aa182611a3f565b611aab8185611a4a565b9350611abb818560208601611a5b565b611ac481611a85565b840191505092915050565b60006020820190508181036000830152611ae98184611a96565b905092915050565b6000819050919050565b611b0481611af1565b8114611b0f57600080fd5b50565b600081359050611b2181611afb565b92915050565b600060208284031215611b3d57611b3c61197a565b5b6000611b4b84828501611b12565b91505092915050565b600073ffffffffffffffffffffffffffffffffffffffff82169050919050565b6000611b7f82611b54565b9050919050565b611b8f81611b74565b82525050565b6000602082019050611baa6000830184611b86565b92915050565b611bb981611b74565b8114611bc457600080fd5b50565b600081359050611bd681611bb0565b92915050565b60008060408385031215611bf357611bf261197a565b5b6000611c0185828601611bc7565b9250506020611c1285828601611b12565b9150509250929050565b600080fd5b600080fd5b7f4e487b7100000000000000000000000000000000000000000000000000000000600052604160045260246000fd5b611c5e82611a85565b810181811067ffffffffffffffff82111715611c7d57611c7c611c26565b5b80604052505050565b6000611c90611970565b9050611c9c8282611c55565b919050565b600067ffffffffffffffff821115611cbc57611cbb611c26565b5b611cc582611a85565b9050602081019050919050565b82818337600083830152505050565b6000611cf4611cef84611ca1565b611c86565b905082815260208101848484011115611d1057611d0f611c21565b5b611d1b848285611cd2565b509392505050565b600082601f830112611d3857611d37611c1c565b5b8135611d48848260208601611ce1565b91505092915050565b600080600080600060a08688031215611d6d57611d6c61197a565b5b6000611d7b88828901611bc7565b9550506020611d8c88828901611b12565b9450506040611d9d88828901611b12565b9350506060611dae88828901611b12565b925050608086013567ffffffffffffffff811115611dcf57611dce61197f565b5b611ddb88828901611d23565b9150509295509295909350565b600080600060608486031215611e0157611e0061197a565b5b6000611e0f86828701611bc7565b9350506020611e2086828701611bc7565b9250506040611e3186828701611b12565b9150509250925092565b600060208284031215611e5157611e5061197a565b5b6000611e5f84828501611bc7565b91505092915050565b611e7181611af1565b82525050565b6000606082019050611e8c6000830186611e68565b611e996020830185611e68565b611ea66040830184611e68565b949350505050565b6000602082019050611ec36000830184611e68565b92915050565b611ed281611a09565b8114611edd57600080fd5b50565b600081359050611eef81611ec9565b92915050565b60008060408385031215611f0c57611f0b61197a565b5b6000611f1a85828601611bc7565b9250506020611f2b85828601611ee0565b9150509250929050565b600067ffffffffffffffff821115611f5057611f4f611c26565b5b611f5982611a85565b9050602081019050919050565b6000611f79611f7484611f35565b611c86565b905082815260208101848484011115611f9557611f94611c21565b5b611fa0848285611cd2565b509392505050565b600082601f830112611fbd57611fbc611c1c565b5b8135611fcd848260208601611f66565b91505092915050565b60008060008060808587031215611ff057611fef61197a565b5b6000611ffe87828801611bc7565b945050602061200f87828801611bc7565b935050604061202087828801611b12565b925050606085013567ffffffffffffffff8111156120415761204061197f565b5b61204d87828801611fa8565b91505092959194509250565b600080604083850312156120705761206f61197a565b5b600061207e85828601611bc7565b925050602061208f85828601611bc7565b9150509250929050565b7f4e487b7100000000000000000000000000000000000000000000000000000000600052602260045260246000fd5b600060028204905060018216806120e057607f821691505b6020821081036120f3576120f2612099565b5b50919050565b7f4552433732313a20617070726f76616c20746f2063757272656e74206f776e6560008201527f7200000000000000000000000000000000000000000000000000000000000000602082015250565b6000612155602183611a4a565b9150612160826120f9565b604082019050919050565b6000602082019050818103600083015261218481612148565b9050919050565b7f4552433732313a20617070726f76652063616c6c6572206973206e6f7420746f60008201527f6b656e206f776e6572206f7220617070726f76656420666f7220616c6c000000602082015250565b60006121e7603d83611a4a565b91506121f28261218b565b604082019050919050565b60006020820190508181036000830152612216816121da565b9050919050565b7f45616368206163636f756e742063616e206f6e6c79206f776e206f6e65204d6560008201527f6d62657273686970204e46540000000000000000000000000000000000000000602082015250565b6000612279602c83611a4a565b91506122848261221d565b604082019050919050565b600060208201905081810360008301526122a88161226c565b9050919050565b7f4d656d62657273686970204e46547320617265206e6f6e2d7472616e7366657260008201527f61626c6500000000000000000000000000000000000000000000000000000000602082015250565b600061230b602483611a4a565b9150612316826122af565b604082019050919050565b6000602082019050818103600083015261233a816122fe565b9050919050565b7f4552433732313a20696e76616c696420746f6b656e2049440000000000000000600082015250565b6000612377601883611a4a565b915061238282612341565b602082019050919050565b600060208201905081810360008301526123a68161236a565b9050919050565b7f4552433732313a2061646472657373207a65726f206973206e6f74206120766160008201527f6c6964206f776e65720000000000000000000000000000000000000000000000602082015250565b6000612409602983611a4a565b9150612414826123ad565b604082019050919050565b60006020820190508181036000830152612438816123fc565b9050919050565b600081905092915050565b600061245582611a3f565b61245f818561243f565b935061246f818560208601611a5b565b80840191505092915050565b6000612487828561244a565b9150612493828461244a565b91508190509392505050565b7f4f776e61626c653a206e6577206f776e657220697320746865207a65726f206160008201527f6464726573730000000000000000000000000000000000000000000000000000602082015250565b60006124fb602683611a4a565b91506125068261249f565b604082019050919050565b6000602082019050818103600083015261252a816124ee565b9050919050565b7f4f776e61626c653a2063616c6c6572206973206e6f7420746865206f776e6572600082015250565b6000612567602083611a4a565b915061257282612531565b602082019050919050565b600060208201905081810360008301526125968161255a565b9050919050565b7f45524337323155524953746f726167653a2055524920736574206f66206e6f6e60008201527f6578697374656e7420746f6b656e000000000000000000000000000000000000602082015250565b60006125f9602e83611a4a565b91506126048261259d565b604082019050919050565b60006020820190508181036000830152612628816125ec565b9050919050565b60008190508160005260206000209050919050565b60006020601f8301049050919050565b600082821b905092915050565b6000600883026126917fffffffffffffffffffffffffffffffffffffffffffffffffffffffffffffffff82612654565b61269b8683612654565b95508019841693508086168417925050509392505050565b6000819050919050565b60006126d86126d36126ce84611af1565b6126b3565b611af1565b9050919050565b6000819050919050565b6126f2836126bd565b6127066126fe826126df565b848454612661565b825550505050565b600090565b61271b61270e565b6127268184846126e9565b505050565b5b8181101561274a5761273f600082612713565b60018101905061272c565b5050565b601f82111561278f576127608161262f565b61276984612644565b81016020851015612778578190505b61278c61278485612644565b83018261272b565b50505b505050565b600082821c905092915050565b60006127b260001984600802612794565b1980831691505092915050565b60006127cb83836127a1565b9150826002028217905092915050565b6127e482611a3f565b67ffffffffffffffff8111156127fd576127fc611c26565b5b61280782546120c8565b61281282828561274e565b600060209050601f8311600181146128455760008415612833578287015190505b61283d85826127bf565b8655506128a5565b601f1984166128538661262f565b60005b8281101561287b57848901518255600182019150602085019450602081019050612856565b868310156128985784890151612894601f8916826127a1565b8355505b6001600288020188555050505b505050505050565b7f4552433732313a20617070726f766520746f2063616c6c657200000000000000600082015250565b60006128e3601983611a4a565b91506128ee826128ad565b602082019050919050565b60006020820190508181036000830152612912816128d6565b9050919050565b7f4552433732313a207472616e7366657220746f206e6f6e20455243373231526560008201527f63656976657220696d706c656d656e7465720000000000000000000000000000602082015250565b6000612975603283611a4a565b915061298082612919565b604082019050919050565b600060208201905081810360008301526129a481612968565b9050919050565b7f4e487b7100000000000000000000000000000000000000000000000000000000600052601260045260246000fd5b7f4552433732313a206d696e7420746f20746865207a65726f2061646472657373600082015250565b6000612a10602083611a4a565b9150612a1b826129da565b602082019050919050565b60006020820190508181036000830152612a3f81612a03565b9050919050565b7f4552433732313a20746f6b656e20616c7265616479206d696e74656400000000600082015250565b6000612a7c601c83611a4a565b9150612a8782612a46565b602082019050919050565b60006020820190508181036000830152612aab81612a6f565b9050919050565b600081519050919050565b600082825260208201905092915050565b6000612ad982612ab2565b612ae38185612abd565b9350612af3818560208601611a5b565b612afc81611a85565b840191505092915050565b6000608082019050612b1c6000830187611b86565b612b296020830186611b86565b612b366040830185611e68565b8181036060830152612b488184612ace565b905095945050505050565b600081519050612b62816119b0565b92915050565b600060208284031215612b7e57612b7d61197a565b5b6000612b8c84828501612b53565b9150509291505056fea264697066735822122034c31dffc6d89ac50455682bff9ca9dae2797343e527df08b859067ebe385f2a64736f6c63430008120033",
  "linkReferences": {},
  "deployedLinkReferences": {}
}