{
  "_format": "hh-sol-artifact-1",
  "contractName": "ProjectManager",
  "sourceName": "contracts/ProjectManager.sol",
  "abi": [
    {
      "inputs": [],
      "stateMutability": "nonpayable",
      "type": "constructor"
    },
    {
      "anonymous": false,
      "inputs": [
        {
          "indexed": false,
          "internalType": "string",
          "name": "newIpfsHash",
          "type": "string"
        }
      ],
      "name": "AccountsDataUpdated",
      "type": "event"
    },
    {
      "anonymous": false,
      "inputs": [
        {
          "indexed": true,
          "internalType": "address",
          "name": "owner",
          "type": "address"
        },
        {
          "indexed": true,
          "internalType": "address",
          "name": "approved",
          "type": "address"
        },
        {
          "indexed": true,
          "internalType": "uint256",
          "name": "tokenId",
          "type": "uint256"
        }
      ],
      "name": "Approval",
      "type": "event"
    },
    {
      "anonymous": false,
      "inputs": [
        {
          "indexed": true,
          "internalType": "address",
          "name": "owner",
          "type": "address"
        },
        {
          "indexed": true,
          "internalType": "address",
          "name": "operator",
          "type": "address"
        },
        {
          "indexed": false,
          "internalType": "bool",
          "name": "approved",
          "type": "bool"
        }
      ],
      "name": "ApprovalForAll",
      "type": "event"
    },
    {
      "anonymous": false,
      "inputs": [
        {
          "indexed": true,
          "internalType": "address",
          "name": "previousOwner",
          "type": "address"
        },
        {
          "indexed": true,
          "internalType": "address",
          "name": "newOwner",
          "type": "address"
        }
      ],
      "name": "OwnershipTransferred",
      "type": "event"
    },
    {
      "anonymous": false,
      "inputs": [
        {
          "indexed": true,
          "internalType": "uint256",
          "name": "projectId",
          "type": "uint256"
        },
        {
          "indexed": false,
          "internalType": "string",
          "name": "ipfsHash",
          "type": "string"
        }
      ],
      "name": "ProjectCreated",
      "type": "event"
    },
    {
      "anonymous": false,
      "inputs": [
        {
          "indexed": true,
          "internalType": "uint256",
          "name": "projectId",
          "type": "uint256"
        }
      ],
      "name": "ProjectDeleted",
      "type": "event"
    },
    {
      "anonymous": false,
      "inputs": [
        {
          "indexed": true,
          "internalType": "uint256",
          "name": "projectId",
          "type": "uint256"
        },
        {
          "indexed": false,
          "internalType": "string",
          "name": "newIpfsHash",
          "type": "string"
        }
      ],
      "name": "ProjectUpdated",
      "type": "event"
    },
    {
      "anonymous": false,
      "inputs": [
        {
          "indexed": true,
          "internalType": "address",
          "name": "from",
          "type": "address"
        },
        {
          "indexed": true,
          "internalType": "address",
          "name": "to",
          "type": "address"
        },
        {
          "indexed": true,
          "internalType": "uint256",
          "name": "tokenId",
          "type": "uint256"
        }
      ],
      "name": "Transfer",
      "type": "event"
    },
    {
      "inputs": [],
      "name": "accountsDataIpfsHash",
      "outputs": [
        {
          "internalType": "string",
          "name": "",
          "type": "string"
        }
      ],
      "stateMutability": "view",
      "type": "function"
    },
    {
      "inputs": [
        {
          "internalType": "address",
          "name": "to",
          "type": "address"
        },
        {
          "internalType": "uint256",
          "name": "tokenId",
          "type": "uint256"
        }
      ],
      "name": "approve",
      "outputs": [],
      "stateMutability": "nonpayable",
      "type": "function"
    },
    {
      "inputs": [
        {
          "internalType": "address",
          "name": "owner",
          "type": "address"
        }
      ],
      "name": "balanceOf",
      "outputs": [
        {
          "internalType": "uint256",
          "name": "",
          "type": "uint256"
        }
      ],
      "stateMutability": "view",
      "type": "function"
    },
    {
      "inputs": [
        {
          "internalType": "string",
          "name": "ipfsHash",
          "type": "string"
        }
      ],
      "name": "createProject",
      "outputs": [],
      "stateMutability": "nonpayable",
      "type": "function"
    },
    {
      "inputs": [
        {
          "internalType": "uint256",
          "name": "projectId",
          "type": "uint256"
        }
      ],
      "name": "deleteProject",
      "outputs": [],
      "stateMutability": "nonpayable",
      "type": "function"
    },
    {
      "inputs": [
        {
          "internalType": "uint256",
          "name": "tokenId",
          "type": "uint256"
        }
      ],
      "name": "getApproved",
      "outputs": [
        {
          "internalType": "address",
          "name": "",
          "type": "address"
        }
      ],
      "stateMutability": "view",
      "type": "function"
    },
    {
      "inputs": [],
      "name": "getProjectIdCounter",
      "outputs": [
        {
          "internalType": "uint256",
          "name": "",
          "type": "uint256"
        }
      ],
      "stateMutability": "view",
      "type": "function"
    },
    {
      "inputs": [
        {
          "internalType": "address",
          "name": "owner",
          "type": "address"
        },
        {
          "internalType": "address",
          "name": "operator",
          "type": "address"
        }
      ],
      "name": "isApprovedForAll",
      "outputs": [
        {
          "internalType": "bool",
          "name": "",
          "type": "bool"
        }
      ],
      "stateMutability": "view",
      "type": "function"
    },
    {
      "inputs": [],
      "name": "name",
      "outputs": [
        {
          "internalType": "string",
          "name": "",
          "type": "string"
        }
      ],
      "stateMutability": "view",
      "type": "function"
    },
    {
      "inputs": [],
      "name": "owner",
      "outputs": [
        {
          "internalType": "address",
          "name": "",
          "type": "address"
        }
      ],
      "stateMutability": "view",
      "type": "function"
    },
    {
      "inputs": [
        {
          "internalType": "uint256",
          "name": "tokenId",
          "type": "uint256"
        }
      ],
      "name": "ownerOf",
      "outputs": [
        {
          "internalType": "address",
          "name": "",
          "type": "address"
        }
      ],
      "stateMutability": "view",
      "type": "function"
    },
    {
      "inputs": [
        {
          "internalType": "uint256",
          "name": "",
          "type": "uint256"
        }
      ],
      "name": "projects",
      "outputs": [
        {
          "internalType": "uint256",
          "name": "id",
          "type": "uint256"
        },
        {
          "internalType": "string",
          "name": "ipfsHash",
          "type": "string"
        }
      ],
      "stateMutability": "view",
      "type": "function"
    },
    {
      "inputs": [],
      "name": "renounceOwnership",
      "outputs": [],
      "stateMutability": "nonpayable",
      "type": "function"
    },
    {
      "inputs": [
        {
          "internalType": "address",
          "name": "from",
          "type": "address"
        },
        {
          "internalType": "address",
          "name": "to",
          "type": "address"
        },
        {
          "internalType": "uint256",
          "name": "tokenId",
          "type": "uint256"
        }
      ],
      "name": "safeTransferFrom",
      "outputs": [],
      "stateMutability": "nonpayable",
      "type": "function"
    },
    {
      "inputs": [
        {
          "internalType": "address",
          "name": "from",
          "type": "address"
        },
        {
          "internalType": "address",
          "name": "to",
          "type": "address"
        },
        {
          "internalType": "uint256",
          "name": "tokenId",
          "type": "uint256"
        },
        {
          "internalType": "bytes",
          "name": "data",
          "type": "bytes"
        }
      ],
      "name": "safeTransferFrom",
      "outputs": [],
      "stateMutability": "nonpayable",
      "type": "function"
    },
    {
      "inputs": [
        {
          "internalType": "address",
          "name": "operator",
          "type": "address"
        },
        {
          "internalType": "bool",
          "name": "approved",
          "type": "bool"
        }
      ],
      "name": "setApprovalForAll",
      "outputs": [],
      "stateMutability": "nonpayable",
      "type": "function"
    },
    {
      "inputs": [
        {
          "internalType": "bytes4",
          "name": "interfaceId",
          "type": "bytes4"
        }
      ],
      "name": "supportsInterface",
      "outputs": [
        {
          "internalType": "bool",
          "name": "",
          "type": "bool"
        }
      ],
      "stateMutability": "view",
      "type": "function"
    },
    {
      "inputs": [],
      "name": "symbol",
      "outputs": [
        {
          "internalType": "string",
          "name": "",
          "type": "string"
        }
      ],
      "stateMutability": "view",
      "type": "function"
    },
    {
      "inputs": [
        {
          "internalType": "uint256",
          "name": "tokenId",
          "type": "uint256"
        }
      ],
      "name": "tokenURI",
      "outputs": [
        {
          "internalType": "string",
          "name": "",
          "type": "string"
        }
      ],
      "stateMutability": "view",
      "type": "function"
    },
    {
      "inputs": [
        {
          "internalType": "address",
          "name": "from",
          "type": "address"
        },
        {
          "internalType": "address",
          "name": "to",
          "type": "address"
        },
        {
          "internalType": "uint256",
          "name": "tokenId",
          "type": "uint256"
        }
      ],
      "name": "transferFrom",
      "outputs": [],
      "stateMutability": "nonpayable",
      "type": "function"
    },
    {
      "inputs": [
        {
          "internalType": "address",
          "name": "newOwner",
          "type": "address"
        }
      ],
      "name": "transferOwnership",
      "outputs": [],
      "stateMutability": "nonpayable",
      "type": "function"
    },
    {
      "inputs": [
        {
          "internalType": "string",
          "name": "newIpfsHash",
          "type": "string"
        }
      ],
      "name": "updateAccountsData",
      "outputs": [],
      "stateMutability": "nonpayable",
      "type": "function"
    },
    {
      "inputs": [
        {
          "internalType": "uint256",
          "name": "projectId",
          "type": "uint256"
        },
        {
          "internalType": "string",
          "name": "newIpfsHash",
          "type": "string"
        }
      ],
      "name": "updateProject",
      "outputs": [],
      "stateMutability": "nonpayable",
      "type": "function"
    }
  ],
  "bytecode": "0x60806040523480156200001157600080fd5b506040518060400160405280600e81526020017f50726f6a6563744d616e616765720000000000000000000000000000000000008152506040518060400160405280600281526020017f504d00000000000000000000000000000000000000000000000000000000000081525081600090816200008f919062000412565b508060019081620000a1919062000412565b505050620000c4620000b8620000ca60201b60201c565b620000d260201b60201c565b620004f9565b600033905090565b6000600760009054906101000a900473ffffffffffffffffffffffffffffffffffffffff16905081600760006101000a81548173ffffffffffffffffffffffffffffffffffffffff021916908373ffffffffffffffffffffffffffffffffffffffff1602179055508173ffffffffffffffffffffffffffffffffffffffff168173ffffffffffffffffffffffffffffffffffffffff167f8be0079c531659141344cd1fd0a4f28419497f9722a3daafe3b4186f6b6457e060405160405180910390a35050565b600081519050919050565b7f4e487b7100000000000000000000000000000000000000000000000000000000600052604160045260246000fd5b7f4e487b7100000000000000000000000000000000000000000000000000000000600052602260045260246000fd5b600060028204905060018216806200021a57607f821691505b60208210810362000230576200022f620001d2565b5b50919050565b60008190508160005260206000209050919050565b60006020601f8301049050919050565b600082821b905092915050565b6000600883026200029a7fffffffffffffffffffffffffffffffffffffffffffffffffffffffffffffffff826200025b565b620002a686836200025b565b95508019841693508086168417925050509392505050565b6000819050919050565b6000819050919050565b6000620002f3620002ed620002e784620002be565b620002c8565b620002be565b9050919050565b6000819050919050565b6200030f83620002d2565b620003276200031e82620002fa565b84845462000268565b825550505050565b600090565b6200033e6200032f565b6200034b81848462000304565b505050565b5b8181101562000373576200036760008262000334565b60018101905062000351565b5050565b601f821115620003c2576200038c8162000236565b62000397846200024b565b81016020851015620003a7578190505b620003bf620003b6856200024b565b83018262000350565b50505b505050565b600082821c905092915050565b6000620003e760001984600802620003c7565b1980831691505092915050565b6000620004028383620003d4565b9150826002028217905092915050565b6200041d8262000198565b67ffffffffffffffff811115620004395762000438620001a3565b5b62000445825462000201565b6200045282828562000377565b600060209050601f8311600181146200048a576000841562000475578287015190505b620004818582620003f4565b865550620004f1565b601f1984166200049a8662000236565b60005b82811015620004c4578489015182556001820191506020850194506020810190506200049d565b86831015620004e45784890151620004e0601f891682620003d4565b8355505b6001600288020188555050505b505050505050565b61306380620005096000396000f3fe608060405234801561001057600080fd5b506004361061014d5760003560e01c8063715018a6116100c3578063b88d4fde1161007c578063b88d4fde1461038b578063bbc3a7f3146103a7578063bcdc973d146103c3578063c87b56dd146103df578063e985e9c51461040f578063f2fde38b1461043f5761014d565b8063715018a6146102ed5780638da5cb5b146102f757806395d89b41146103155780639cd3077814610333578063a19bd10c14610351578063a22cb4651461036f5761014d565b806315ee4df11161011557806315ee4df11461021d57806323b872dd1461023957806342842e0e146102555780634cd0cb28146102715780636352211e1461028d57806370a08231146102bd5761014d565b806301ffc9a71461015257806306fdde0314610182578063081812fc146101a0578063095ea7b3146101d0578063107046bd146101ec575b600080fd5b61016c60048036038101906101679190611e6d565b61045b565b6040516101799190611eb5565b60405180910390f35b61018a61053d565b6040516101979190611f60565b60405180910390f35b6101ba60048036038101906101b59190611fb8565b6105cf565b6040516101c79190612026565b60405180910390f35b6101ea60048036038101906101e5919061206d565b610615565b005b61020660048036038101906102019190611fb8565b61072c565b6040516102149291906120bc565b60405180910390f35b61023760048036038101906102329190612221565b6107d8565b005b610253600480360381019061024e919061226a565b61087f565b005b61026f600480360381019061026a919061226a565b6108df565b005b61028b60048036038101906102869190611fb8565b6108ff565b005b6102a760048036038101906102a29190611fb8565b6109d4565b6040516102b49190612026565b60405180910390f35b6102d760048036038101906102d291906122bd565b610a5a565b6040516102e491906122ea565b60405180910390f35b6102f5610b11565b005b6102ff610b25565b60405161030c9190612026565b60405180910390f35b61031d610b4f565b60405161032a9190611f60565b60405180910390f35b61033b610be1565b60405161034891906122ea565b60405180910390f35b610359610bf2565b6040516103669190611f60565b60405180910390f35b61038960048036038101906103849190612331565b610c80565b005b6103a560048036038101906103a09190612412565b610c96565b005b6103c160048036038101906103bc9190612495565b610cf8565b005b6103dd60048036038101906103d89190612221565b610dc5565b005b6103f960048036038101906103f49190611fb8565b610e17565b6040516104069190611f60565b60405180910390f35b610429600480360381019061042491906124f1565b610f29565b6040516104369190611eb5565b60405180910390f35b610459600480360381019061045491906122bd565b610fbd565b005b60007f80ac58cd000000000000000000000000000000000000000000000000000000007bffffffffffffffffffffffffffffffffffffffffffffffffffffffff1916827bffffffffffffffffffffffffffffffffffffffffffffffffffffffff1916148061052657507f5b5e139f000000000000000000000000000000000000000000000000000000007bffffffffffffffffffffffffffffffffffffffffffffffffffffffff1916827bffffffffffffffffffffffffffffffffffffffffffffffffffffffff1916145b80610536575061053582611040565b5b9050919050565b60606000805461054c90612560565b80601f016020809104026020016040519081016040528092919081815260200182805461057890612560565b80156105c55780601f1061059a576101008083540402835291602001916105c5565b820191906000526020600020905b8154815290600101906020018083116105a857829003601f168201915b5050505050905090565b60006105da826110aa565b6004600083815260200190815260200160002060009054906101000a900473ffffffffffffffffffffffffffffffffffffffff169050919050565b6000610620826109d4565b90508073ffffffffffffffffffffffffffffffffffffffff168373ffffffffffffffffffffffffffffffffffffffff1603610690576040517f08c379a000000000000000000000000000000000000000000000000000000000815260040161068790612603565b60405180910390fd5b8073ffffffffffffffffffffffffffffffffffffffff166106af6110f5565b73ffffffffffffffffffffffffffffffffffffffff1614806106de57506106dd816106d86110f5565b610f29565b5b61071d576040517f08c379a000000000000000000000000000000000000000000000000000000000815260040161071490612695565b60405180910390fd5b61072783836110fd565b505050565b600960205280600052604060002060009150905080600001549080600101805461075590612560565b80601f016020809104026020016040519081016040528092919081815260200182805461078190612560565b80156107ce5780601f106107a3576101008083540402835291602001916107ce565b820191906000526020600020905b8154815290600101906020018083116107b157829003601f168201915b5050505050905082565b6107e06111b6565b6107ea6008611234565b60006107f6600861124a565b90506040518060400160405280828152602001838152506009600083815260200190815260200160002060008201518160000155602082015181600101908161083f9190612861565b50905050807fed06d1e70f1faa0e1750def1b3a1d942390a8f47d03679c9025a1c38dc34fe7b836040516108739190611f60565b60405180910390a25050565b61089061088a6110f5565b82611258565b6108cf576040517f08c379a00000000000000000000000000000000000000000000000000000000081526004016108c6906129a5565b60405180910390fd5b6108da8383836112ed565b505050565b6108fa83838360405180602001604052806000815250610c96565b505050565b6109076111b6565b600060096000838152602001908152602001600020600101805461092a90612560565b90501161096c576040517f08c379a000000000000000000000000000000000000000000000000000000000815260040161096390612a11565b60405180910390fd5b600960008281526020019081526020016000206000808201600090556001820160006109989190611da4565b50506109a460086115e6565b807f8c2a9a6341bba6c545de035fe1175518191d1ec50716506635b641372af17c5f60405160405180910390a250565b6000806109e083611642565b9050600073ffffffffffffffffffffffffffffffffffffffff168173ffffffffffffffffffffffffffffffffffffffff1603610a51576040517f08c379a0000000000000000000000000000000000000000000000000000000008152600401610a4890612a7d565b60405180910390fd5b80915050919050565b60008073ffffffffffffffffffffffffffffffffffffffff168273ffffffffffffffffffffffffffffffffffffffff1603610aca576040517f08c379a0000000000000000000000000000000000000000000000000000000008152600401610ac190612b0f565b60405180910390fd5b600360008373ffffffffffffffffffffffffffffffffffffffff1673ffffffffffffffffffffffffffffffffffffffff168152602001908152602001600020549050919050565b610b196111b6565b610b23600061167f565b565b6000600760009054906101000a900473ffffffffffffffffffffffffffffffffffffffff16905090565b606060018054610b5e90612560565b80601f0160208091040260200160405190810160405280929190818152602001828054610b8a90612560565b8015610bd75780601f10610bac57610100808354040283529160200191610bd7565b820191906000526020600020905b815481529060010190602001808311610bba57829003601f168201915b5050505050905090565b6000610bed600861124a565b905090565b600a8054610bff90612560565b80601f0160208091040260200160405190810160405280929190818152602001828054610c2b90612560565b8015610c785780601f10610c4d57610100808354040283529160200191610c78565b820191906000526020600020905b815481529060010190602001808311610c5b57829003601f168201915b505050505081565b610c92610c8b6110f5565b8383611745565b5050565b610ca7610ca16110f5565b83611258565b610ce6576040517f08c379a0000000000000000000000000000000000000000000000000000000008152600401610cdd906129a5565b60405180910390fd5b610cf2848484846118b1565b50505050565b610d006111b6565b6000600960008481526020019081526020016000206001018054610d2390612560565b905011610d65576040517f08c379a0000000000000000000000000000000000000000000000000000000008152600401610d5c90612a11565b60405180910390fd5b80600960008481526020019081526020016000206001019081610d889190612861565b50817fd59ff490e419b5a72d916db4f77bc918cb64099584e8605b5a5aa543eacc0c0782604051610db99190611f60565b60405180910390a25050565b610dcd6111b6565b80600a9081610ddc9190612861565b507f533a6042f70c903858d9d8a7ef12d0ef9347829e5dfcd0cb1ac94e60e4a1969e81604051610e0c9190611f60565b60405180910390a150565b6060610e22826110aa565b6000600660008481526020019081526020016000208054610e4290612560565b80601f0160208091040260200160405190810160405280929190818152602001828054610e6e90612560565b8015610ebb5780601f10610e9057610100808354040283529160200191610ebb565b820191906000526020600020905b815481529060010190602001808311610e9e57829003601f168201915b505050505090506000610ecc61190d565b90506000815103610ee1578192505050610f24565b600082511115610f16578082604051602001610efe929190612b6b565b60405160208183030381529060405292505050610f24565b610f1f84611924565b925050505b919050565b6000600560008473ffffffffffffffffffffffffffffffffffffffff1673ffffffffffffffffffffffffffffffffffffffff16815260200190815260200160002060008373ffffffffffffffffffffffffffffffffffffffff1673ffffffffffffffffffffffffffffffffffffffff16815260200190815260200160002060009054906101000a900460ff16905092915050565b610fc56111b6565b600073ffffffffffffffffffffffffffffffffffffffff168173ffffffffffffffffffffffffffffffffffffffff1603611034576040517f08c379a000000000000000000000000000000000000000000000000000000000815260040161102b90612c01565b60405180910390fd5b61103d8161167f565b50565b60007f01ffc9a7000000000000000000000000000000000000000000000000000000007bffffffffffffffffffffffffffffffffffffffffffffffffffffffff1916827bffffffffffffffffffffffffffffffffffffffffffffffffffffffff1916149050919050565b6110b38161198c565b6110f2576040517f08c379a00000000000000000000000000000000000000000000000000000000081526004016110e990612a7d565b60405180910390fd5b50565b600033905090565b816004600083815260200190815260200160002060006101000a81548173ffffffffffffffffffffffffffffffffffffffff021916908373ffffffffffffffffffffffffffffffffffffffff160217905550808273ffffffffffffffffffffffffffffffffffffffff16611170836109d4565b73ffffffffffffffffffffffffffffffffffffffff167f8c5be1e5ebec7d5bd14f71427d1e84f3dd0314c0f7b2291e5b200ac8c7c3b92560405160405180910390a45050565b6111be6110f5565b73ffffffffffffffffffffffffffffffffffffffff166111dc610b25565b73ffffffffffffffffffffffffffffffffffffffff1614611232576040517f08c379a000000000000000000000000000000000000000000000000000000000815260040161122990612c6d565b60405180910390fd5b565b6001816000016000828254019250508190555050565b600081600001549050919050565b600080611264836109d4565b90508073ffffffffffffffffffffffffffffffffffffffff168473ffffffffffffffffffffffffffffffffffffffff1614806112a657506112a58185610f29565b5b806112e457508373ffffffffffffffffffffffffffffffffffffffff166112cc846105cf565b73ffffffffffffffffffffffffffffffffffffffff16145b91505092915050565b8273ffffffffffffffffffffffffffffffffffffffff1661130d826109d4565b73ffffffffffffffffffffffffffffffffffffffff1614611363576040517f08c379a000000000000000000000000000000000000000000000000000000000815260040161135a90612cff565b60405180910390fd5b600073ffffffffffffffffffffffffffffffffffffffff168273ffffffffffffffffffffffffffffffffffffffff16036113d2576040517f08c379a00000000000000000000000000000000000000000000000000000000081526004016113c990612d91565b60405180910390fd5b6113df83838360016119cd565b8273ffffffffffffffffffffffffffffffffffffffff166113ff826109d4565b73ffffffffffffffffffffffffffffffffffffffff1614611455576040517f08c379a000000000000000000000000000000000000000000000000000000000815260040161144c90612cff565b60405180910390fd5b6004600082815260200190815260200160002060006101000a81549073ffffffffffffffffffffffffffffffffffffffff02191690556001600360008573ffffffffffffffffffffffffffffffffffffffff1673ffffffffffffffffffffffffffffffffffffffff168152602001908152602001600020600082825403925050819055506001600360008473ffffffffffffffffffffffffffffffffffffffff1673ffffffffffffffffffffffffffffffffffffffff16815260200190815260200160002060008282540192505081905550816002600083815260200190815260200160002060006101000a81548173ffffffffffffffffffffffffffffffffffffffff021916908373ffffffffffffffffffffffffffffffffffffffff160217905550808273ffffffffffffffffffffffffffffffffffffffff168473ffffffffffffffffffffffffffffffffffffffff167fddf252ad1be2c89b69c2b068fc378daa952ba7f163c4a11628f55a4df523b3ef60405160405180910390a46115e183838360016119d3565b505050565b60008160000154905060008111611632576040517f08c379a000000000000000000000000000000000000000000000000000000000815260040161162990612dfd565b60405180910390fd5b6001810382600001819055505050565b60006002600083815260200190815260200160002060009054906101000a900473ffffffffffffffffffffffffffffffffffffffff169050919050565b6000600760009054906101000a900473ffffffffffffffffffffffffffffffffffffffff16905081600760006101000a81548173ffffffffffffffffffffffffffffffffffffffff021916908373ffffffffffffffffffffffffffffffffffffffff1602179055508173ffffffffffffffffffffffffffffffffffffffff168173ffffffffffffffffffffffffffffffffffffffff167f8be0079c531659141344cd1fd0a4f28419497f9722a3daafe3b4186f6b6457e060405160405180910390a35050565b8173ffffffffffffffffffffffffffffffffffffffff168373ffffffffffffffffffffffffffffffffffffffff16036117b3576040517f08c379a00000000000000000000000000000000000000000000000000000000081526004016117aa90612e69565b60405180910390fd5b80600560008573ffffffffffffffffffffffffffffffffffffffff1673ffffffffffffffffffffffffffffffffffffffff16815260200190815260200160002060008473ffffffffffffffffffffffffffffffffffffffff1673ffffffffffffffffffffffffffffffffffffffff16815260200190815260200160002060006101000a81548160ff0219169083151502179055508173ffffffffffffffffffffffffffffffffffffffff168373ffffffffffffffffffffffffffffffffffffffff167f17307eab39ab6107e8899845ad3d59bd9653f200f220920489ca2b5937696c31836040516118a49190611eb5565b60405180910390a3505050565b6118bc8484846112ed565b6118c8848484846119d9565b611907576040517f08c379a00000000000000000000000000000000000000000000000000000000081526004016118fe90612efb565b60405180910390fd5b50505050565b606060405180602001604052806000815250905090565b606061192f826110aa565b600061193961190d565b905060008151116119595760405180602001604052806000815250611984565b8061196384611b60565b604051602001611974929190612b6b565b6040516020818303038152906040525b915050919050565b60008073ffffffffffffffffffffffffffffffffffffffff166119ae83611642565b73ffffffffffffffffffffffffffffffffffffffff1614159050919050565b50505050565b50505050565b60006119fa8473ffffffffffffffffffffffffffffffffffffffff16611c2e565b15611b53578373ffffffffffffffffffffffffffffffffffffffff1663150b7a02611a236110f5565b8786866040518563ffffffff1660e01b8152600401611a459493929190612f70565b6020604051808303816000875af1925050508015611a8157506040513d601f19601f82011682018060405250810190611a7e9190612fd1565b60015b611b03573d8060008114611ab1576040519150601f19603f3d011682016040523d82523d6000602084013e611ab6565b606091505b506000815103611afb576040517f08c379a0000000000000000000000000000000000000000000000000000000008152600401611af290612efb565b60405180910390fd5b805181602001fd5b63150b7a0260e01b7bffffffffffffffffffffffffffffffffffffffffffffffffffffffff1916817bffffffffffffffffffffffffffffffffffffffffffffffffffffffff191614915050611b58565b600190505b949350505050565b606060006001611b6f84611c51565b01905060008167ffffffffffffffff811115611b8e57611b8d6120f6565b5b6040519080825280601f01601f191660200182016040528015611bc05781602001600182028036833780820191505090505b509050600082602001820190505b600115611c23578080600190039150507f3031323334353637383961626364656600000000000000000000000000000000600a86061a8153600a8581611c1757611c16612ffe565b5b04945060008503611bce575b819350505050919050565b6000808273ffffffffffffffffffffffffffffffffffffffff163b119050919050565b600080600090507a184f03e93ff9f4daa797ed6e38ed64bf6a1f0100000000000000008310611caf577a184f03e93ff9f4daa797ed6e38ed64bf6a1f0100000000000000008381611ca557611ca4612ffe565b5b0492506040810190505b6d04ee2d6d415b85acef81000000008310611cec576d04ee2d6d415b85acef81000000008381611ce257611ce1612ffe565b5b0492506020810190505b662386f26fc100008310611d1b57662386f26fc100008381611d1157611d10612ffe565b5b0492506010810190505b6305f5e1008310611d44576305f5e1008381611d3a57611d39612ffe565b5b0492506008810190505b6127108310611d69576127108381611d5f57611d5e612ffe565b5b0492506004810190505b60648310611d8c5760648381611d8257611d81612ffe565b5b0492506002810190505b600a8310611d9b576001810190505b80915050919050565b508054611db090612560565b6000825580601f10611dc25750611de1565b601f016020900490600052602060002090810190611de09190611de4565b5b50565b5b80821115611dfd576000816000905550600101611de5565b5090565b6000604051905090565b600080fd5b600080fd5b60007fffffffff0000000000000000000000000000000000000000000000000000000082169050919050565b611e4a81611e15565b8114611e5557600080fd5b50565b600081359050611e6781611e41565b92915050565b600060208284031215611e8357611e82611e0b565b5b6000611e9184828501611e58565b91505092915050565b60008115159050919050565b611eaf81611e9a565b82525050565b6000602082019050611eca6000830184611ea6565b92915050565b600081519050919050565b600082825260208201905092915050565b60005b83811015611f0a578082015181840152602081019050611eef565b60008484015250505050565b6000601f19601f8301169050919050565b6000611f3282611ed0565b611f3c8185611edb565b9350611f4c818560208601611eec565b611f5581611f16565b840191505092915050565b60006020820190508181036000830152611f7a8184611f27565b905092915050565b6000819050919050565b611f9581611f82565b8114611fa057600080fd5b50565b600081359050611fb281611f8c565b92915050565b600060208284031215611fce57611fcd611e0b565b5b6000611fdc84828501611fa3565b91505092915050565b600073ffffffffffffffffffffffffffffffffffffffff82169050919050565b600061201082611fe5565b9050919050565b61202081612005565b82525050565b600060208201905061203b6000830184612017565b92915050565b61204a81612005565b811461205557600080fd5b50565b60008135905061206781612041565b92915050565b6000806040838503121561208457612083611e0b565b5b600061209285828601612058565b92505060206120a385828601611fa3565b9150509250929050565b6120b681611f82565b82525050565b60006040820190506120d160008301856120ad565b81810360208301526120e38184611f27565b90509392505050565b600080fd5b600080fd5b7f4e487b7100000000000000000000000000000000000000000000000000000000600052604160045260246000fd5b61212e82611f16565b810181811067ffffffffffffffff8211171561214d5761214c6120f6565b5b80604052505050565b6000612160611e01565b905061216c8282612125565b919050565b600067ffffffffffffffff82111561218c5761218b6120f6565b5b61219582611f16565b9050602081019050919050565b82818337600083830152505050565b60006121c46121bf84612171565b612156565b9050828152602081018484840111156121e0576121df6120f1565b5b6121eb8482856121a2565b509392505050565b600082601f830112612208576122076120ec565b5b81356122188482602086016121b1565b91505092915050565b60006020828403121561223757612236611e0b565b5b600082013567ffffffffffffffff81111561225557612254611e10565b5b612261848285016121f3565b91505092915050565b60008060006060848603121561228357612282611e0b565b5b600061229186828701612058565b93505060206122a286828701612058565b92505060406122b386828701611fa3565b9150509250925092565b6000602082840312156122d3576122d2611e0b565b5b60006122e184828501612058565b91505092915050565b60006020820190506122ff60008301846120ad565b92915050565b61230e81611e9a565b811461231957600080fd5b50565b60008135905061232b81612305565b92915050565b6000806040838503121561234857612347611e0b565b5b600061235685828601612058565b92505060206123678582860161231c565b9150509250929050565b600067ffffffffffffffff82111561238c5761238b6120f6565b5b61239582611f16565b9050602081019050919050565b60006123b56123b084612371565b612156565b9050828152602081018484840111156123d1576123d06120f1565b5b6123dc8482856121a2565b509392505050565b600082601f8301126123f9576123f86120ec565b5b81356124098482602086016123a2565b91505092915050565b6000806000806080858703121561242c5761242b611e0b565b5b600061243a87828801612058565b945050602061244b87828801612058565b935050604061245c87828801611fa3565b925050606085013567ffffffffffffffff81111561247d5761247c611e10565b5b612489878288016123e4565b91505092959194509250565b600080604083850312156124ac576124ab611e0b565b5b60006124ba85828601611fa3565b925050602083013567ffffffffffffffff8111156124db576124da611e10565b5b6124e7858286016121f3565b9150509250929050565b6000806040838503121561250857612507611e0b565b5b600061251685828601612058565b925050602061252785828601612058565b9150509250929050565b7f4e487b7100000000000000000000000000000000000000000000000000000000600052602260045260246000fd5b6000600282049050600182168061257857607f821691505b60208210810361258b5761258a612531565b5b50919050565b7f4552433732313a20617070726f76616c20746f2063757272656e74206f776e6560008201527f7200000000000000000000000000000000000000000000000000000000000000602082015250565b60006125ed602183611edb565b91506125f882612591565b604082019050919050565b6000602082019050818103600083015261261c816125e0565b9050919050565b7f4552433732313a20617070726f76652063616c6c6572206973206e6f7420746f60008201527f6b656e206f776e6572206f7220617070726f76656420666f7220616c6c000000602082015250565b600061267f603d83611edb565b915061268a82612623565b604082019050919050565b600060208201905081810360008301526126ae81612672565b9050919050565b60008190508160005260206000209050919050565b60006020601f8301049050919050565b600082821b905092915050565b6000600883026127177fffffffffffffffffffffffffffffffffffffffffffffffffffffffffffffffff826126da565b61272186836126da565b95508019841693508086168417925050509392505050565b6000819050919050565b600061275e61275961275484611f82565b612739565b611f82565b9050919050565b6000819050919050565b61277883612743565b61278c61278482612765565b8484546126e7565b825550505050565b600090565b6127a1612794565b6127ac81848461276f565b505050565b5b818110156127d0576127c5600082612799565b6001810190506127b2565b5050565b601f821115612815576127e6816126b5565b6127ef846126ca565b810160208510156127fe578190505b61281261280a856126ca565b8301826127b1565b50505b505050565b600082821c905092915050565b60006128386000198460080261281a565b1980831691505092915050565b60006128518383612827565b9150826002028217905092915050565b61286a82611ed0565b67ffffffffffffffff811115612883576128826120f6565b5b61288d8254612560565b6128988282856127d4565b600060209050601f8311600181146128cb57600084156128b9578287015190505b6128c38582612845565b86555061292b565b601f1984166128d9866126b5565b60005b82811015612901578489015182556001820191506020850194506020810190506128dc565b8683101561291e578489015161291a601f891682612827565b8355505b6001600288020188555050505b505050505050565b7f4552433732313a2063616c6c6572206973206e6f7420746f6b656e206f776e6560008201527f72206f7220617070726f76656400000000000000000000000000000000000000602082015250565b600061298f602d83611edb565b915061299a82612933565b604082019050919050565b600060208201905081810360008301526129be81612982565b9050919050565b7f50726f6a656374206e6f7420666f756e64000000000000000000000000000000600082015250565b60006129fb601183611edb565b9150612a06826129c5565b602082019050919050565b60006020820190508181036000830152612a2a816129ee565b9050919050565b7f4552433732313a20696e76616c696420746f6b656e2049440000000000000000600082015250565b6000612a67601883611edb565b9150612a7282612a31565b602082019050919050565b60006020820190508181036000830152612a9681612a5a565b9050919050565b7f4552433732313a2061646472657373207a65726f206973206e6f74206120766160008201527f6c6964206f776e65720000000000000000000000000000000000000000000000602082015250565b6000612af9602983611edb565b9150612b0482612a9d565b604082019050919050565b60006020820190508181036000830152612b2881612aec565b9050919050565b600081905092915050565b6000612b4582611ed0565b612b4f8185612b2f565b9350612b5f818560208601611eec565b80840191505092915050565b6000612b778285612b3a565b9150612b838284612b3a565b91508190509392505050565b7f4f776e61626c653a206e6577206f776e657220697320746865207a65726f206160008201527f6464726573730000000000000000000000000000000000000000000000000000602082015250565b6000612beb602683611edb565b9150612bf682612b8f565b604082019050919050565b60006020820190508181036000830152612c1a81612bde565b9050919050565b7f4f776e61626c653a2063616c6c6572206973206e6f7420746865206f776e6572600082015250565b6000612c57602083611edb565b9150612c6282612c21565b602082019050919050565b60006020820190508181036000830152612c8681612c4a565b9050919050565b7f4552433732313a207472616e736665722066726f6d20696e636f72726563742060008201527f6f776e6572000000000000000000000000000000000000000000000000000000602082015250565b6000612ce9602583611edb565b9150612cf482612c8d565b604082019050919050565b60006020820190508181036000830152612d1881612cdc565b9050919050565b7f4552433732313a207472616e7366657220746f20746865207a65726f2061646460008201527f7265737300000000000000000000000000000000000000000000000000000000602082015250565b6000612d7b602483611edb565b9150612d8682612d1f565b604082019050919050565b60006020820190508181036000830152612daa81612d6e565b9050919050565b7f436f756e7465723a2064656372656d656e74206f766572666c6f770000000000600082015250565b6000612de7601b83611edb565b9150612df282612db1565b602082019050919050565b60006020820190508181036000830152612e1681612dda565b9050919050565b7f4552433732313a20617070726f766520746f2063616c6c657200000000000000600082015250565b6000612e53601983611edb565b9150612e5e82612e1d565b602082019050919050565b60006020820190508181036000830152612e8281612e46565b9050919050565b7f4552433732313a207472616e7366657220746f206e6f6e20455243373231526560008201527f63656976657220696d706c656d656e7465720000000000000000000000000000602082015250565b6000612ee5603283611edb565b9150612ef082612e89565b604082019050919050565b60006020820190508181036000830152612f1481612ed8565b9050919050565b600081519050919050565b600082825260208201905092915050565b6000612f4282612f1b565b612f4c8185612f26565b9350612f5c818560208601611eec565b612f6581611f16565b840191505092915050565b6000608082019050612f856000830187612017565b612f926020830186612017565b612f9f60408301856120ad565b8181036060830152612fb18184612f37565b905095945050505050565b600081519050612fcb81611e41565b92915050565b600060208284031215612fe757612fe6611e0b565b5b6000612ff584828501612fbc565b91505092915050565b7f4e487b7100000000000000000000000000000000000000000000000000000000600052601260045260246000fdfea2646970667358221220b1d6196a2486229fc556a31f8be117157072580416dab1733295a71b69d0835f64736f6c63430008120033",
  "linkReferences": {},
  "deployedLinkReferences": {}
}