{
  "_format": "hh-sol-artifact-1",
  "contractName": "ProjectManager",
  "sourceName": "contracts/ProjectManager.sol",
  "abi": [
    {
      "inputs": [],
      "stateMutability": "nonpayable",
      "type": "constructor"
    },
    {
      "anonymous": false,
      "inputs": [
        {
          "indexed": true,
          "internalType": "address",
          "name": "owner",
          "type": "address"
        },
        {
          "indexed": true,
          "internalType": "address",
          "name": "approved",
          "type": "address"
        },
        {
          "indexed": true,
          "internalType": "uint256",
          "name": "tokenId",
          "type": "uint256"
        }
      ],
      "name": "Approval",
      "type": "event"
    },
    {
      "anonymous": false,
      "inputs": [
        {
          "indexed": true,
          "internalType": "address",
          "name": "owner",
          "type": "address"
        },
        {
          "indexed": true,
          "internalType": "address",
          "name": "operator",
          "type": "address"
        },
        {
          "indexed": false,
          "internalType": "bool",
          "name": "approved",
          "type": "bool"
        }
      ],
      "name": "ApprovalForAll",
      "type": "event"
    },
    {
      "anonymous": false,
      "inputs": [
        {
          "indexed": true,
          "internalType": "address",
          "name": "previousOwner",
          "type": "address"
        },
        {
          "indexed": true,
          "internalType": "address",
          "name": "newOwner",
          "type": "address"
        }
      ],
      "name": "OwnershipTransferred",
      "type": "event"
    },
    {
      "anonymous": false,
      "inputs": [
        {
          "indexed": true,
          "internalType": "uint256",
          "name": "projectId",
          "type": "uint256"
        },
        {
          "indexed": false,
          "internalType": "string",
          "name": "ipfsHash",
          "type": "string"
        }
      ],
      "name": "ProjectCreated",
      "type": "event"
    },
    {
      "anonymous": false,
      "inputs": [
        {
          "indexed": true,
          "internalType": "uint256",
          "name": "projectId",
          "type": "uint256"
        },
        {
          "indexed": false,
          "internalType": "string",
          "name": "newIpfsHash",
          "type": "string"
        }
      ],
      "name": "ProjectUpdated",
      "type": "event"
    },
    {
      "anonymous": false,
      "inputs": [
        {
          "indexed": true,
          "internalType": "address",
          "name": "from",
          "type": "address"
        },
        {
          "indexed": true,
          "internalType": "address",
          "name": "to",
          "type": "address"
        },
        {
          "indexed": true,
          "internalType": "uint256",
          "name": "tokenId",
          "type": "uint256"
        }
      ],
      "name": "Transfer",
      "type": "event"
    },
    {
      "inputs": [
        {
          "internalType": "address",
          "name": "to",
          "type": "address"
        },
        {
          "internalType": "uint256",
          "name": "tokenId",
          "type": "uint256"
        }
      ],
      "name": "approve",
      "outputs": [],
      "stateMutability": "nonpayable",
      "type": "function"
    },
    {
      "inputs": [
        {
          "internalType": "address",
          "name": "owner",
          "type": "address"
        }
      ],
      "name": "balanceOf",
      "outputs": [
        {
          "internalType": "uint256",
          "name": "",
          "type": "uint256"
        }
      ],
      "stateMutability": "view",
      "type": "function"
    },
    {
      "inputs": [
        {
          "internalType": "string",
          "name": "ipfsHash",
          "type": "string"
        }
      ],
      "name": "createProject",
      "outputs": [],
      "stateMutability": "nonpayable",
      "type": "function"
    },
    {
      "inputs": [
        {
          "internalType": "uint256",
          "name": "tokenId",
          "type": "uint256"
        }
      ],
      "name": "getApproved",
      "outputs": [
        {
          "internalType": "address",
          "name": "",
          "type": "address"
        }
      ],
      "stateMutability": "view",
      "type": "function"
    },
    {
      "inputs": [],
      "name": "getProjectIdCounter",
      "outputs": [
        {
          "internalType": "uint256",
          "name": "",
          "type": "uint256"
        }
      ],
      "stateMutability": "view",
      "type": "function"
    },
    {
      "inputs": [
        {
          "internalType": "address",
          "name": "owner",
          "type": "address"
        },
        {
          "internalType": "address",
          "name": "operator",
          "type": "address"
        }
      ],
      "name": "isApprovedForAll",
      "outputs": [
        {
          "internalType": "bool",
          "name": "",
          "type": "bool"
        }
      ],
      "stateMutability": "view",
      "type": "function"
    },
    {
      "inputs": [],
      "name": "name",
      "outputs": [
        {
          "internalType": "string",
          "name": "",
          "type": "string"
        }
      ],
      "stateMutability": "view",
      "type": "function"
    },
    {
      "inputs": [],
      "name": "owner",
      "outputs": [
        {
          "internalType": "address",
          "name": "",
          "type": "address"
        }
      ],
      "stateMutability": "view",
      "type": "function"
    },
    {
      "inputs": [
        {
          "internalType": "uint256",
          "name": "tokenId",
          "type": "uint256"
        }
      ],
      "name": "ownerOf",
      "outputs": [
        {
          "internalType": "address",
          "name": "",
          "type": "address"
        }
      ],
      "stateMutability": "view",
      "type": "function"
    },
    {
      "inputs": [
        {
          "internalType": "uint256",
          "name": "",
          "type": "uint256"
        }
      ],
      "name": "projects",
      "outputs": [
        {
          "internalType": "uint256",
          "name": "id",
          "type": "uint256"
        },
        {
          "internalType": "string",
          "name": "ipfsHash",
          "type": "string"
        }
      ],
      "stateMutability": "view",
      "type": "function"
    },
    {
      "inputs": [],
      "name": "renounceOwnership",
      "outputs": [],
      "stateMutability": "nonpayable",
      "type": "function"
    },
    {
      "inputs": [
        {
          "internalType": "address",
          "name": "from",
          "type": "address"
        },
        {
          "internalType": "address",
          "name": "to",
          "type": "address"
        },
        {
          "internalType": "uint256",
          "name": "tokenId",
          "type": "uint256"
        }
      ],
      "name": "safeTransferFrom",
      "outputs": [],
      "stateMutability": "nonpayable",
      "type": "function"
    },
    {
      "inputs": [
        {
          "internalType": "address",
          "name": "from",
          "type": "address"
        },
        {
          "internalType": "address",
          "name": "to",
          "type": "address"
        },
        {
          "internalType": "uint256",
          "name": "tokenId",
          "type": "uint256"
        },
        {
          "internalType": "bytes",
          "name": "data",
          "type": "bytes"
        }
      ],
      "name": "safeTransferFrom",
      "outputs": [],
      "stateMutability": "nonpayable",
      "type": "function"
    },
    {
      "inputs": [
        {
          "internalType": "address",
          "name": "operator",
          "type": "address"
        },
        {
          "internalType": "bool",
          "name": "approved",
          "type": "bool"
        }
      ],
      "name": "setApprovalForAll",
      "outputs": [],
      "stateMutability": "nonpayable",
      "type": "function"
    },
    {
      "inputs": [
        {
          "internalType": "bytes4",
          "name": "interfaceId",
          "type": "bytes4"
        }
      ],
      "name": "supportsInterface",
      "outputs": [
        {
          "internalType": "bool",
          "name": "",
          "type": "bool"
        }
      ],
      "stateMutability": "view",
      "type": "function"
    },
    {
      "inputs": [],
      "name": "symbol",
      "outputs": [
        {
          "internalType": "string",
          "name": "",
          "type": "string"
        }
      ],
      "stateMutability": "view",
      "type": "function"
    },
    {
      "inputs": [
        {
          "internalType": "uint256",
          "name": "tokenId",
          "type": "uint256"
        }
      ],
      "name": "tokenURI",
      "outputs": [
        {
          "internalType": "string",
          "name": "",
          "type": "string"
        }
      ],
      "stateMutability": "view",
      "type": "function"
    },
    {
      "inputs": [
        {
          "internalType": "address",
          "name": "from",
          "type": "address"
        },
        {
          "internalType": "address",
          "name": "to",
          "type": "address"
        },
        {
          "internalType": "uint256",
          "name": "tokenId",
          "type": "uint256"
        }
      ],
      "name": "transferFrom",
      "outputs": [],
      "stateMutability": "nonpayable",
      "type": "function"
    },
    {
      "inputs": [
        {
          "internalType": "address",
          "name": "newOwner",
          "type": "address"
        }
      ],
      "name": "transferOwnership",
      "outputs": [],
      "stateMutability": "nonpayable",
      "type": "function"
    },
    {
      "inputs": [
        {
          "internalType": "uint256",
          "name": "projectId",
          "type": "uint256"
        },
        {
          "internalType": "string",
          "name": "newIpfsHash",
          "type": "string"
        }
      ],
      "name": "updateProject",
      "outputs": [],
      "stateMutability": "nonpayable",
      "type": "function"
    }
  ],
  "bytecode": "0x60806040523480156200001157600080fd5b506040518060400160405280600e81526020017f50726f6a6563744d616e616765720000000000000000000000000000000000008152506040518060400160405280600281526020017f504d00000000000000000000000000000000000000000000000000000000000081525081600090816200008f919062000412565b508060019081620000a1919062000412565b505050620000c4620000b8620000ca60201b60201c565b620000d260201b60201c565b620004f9565b600033905090565b6000600760009054906101000a900473ffffffffffffffffffffffffffffffffffffffff16905081600760006101000a81548173ffffffffffffffffffffffffffffffffffffffff021916908373ffffffffffffffffffffffffffffffffffffffff1602179055508173ffffffffffffffffffffffffffffffffffffffff168173ffffffffffffffffffffffffffffffffffffffff167f8be0079c531659141344cd1fd0a4f28419497f9722a3daafe3b4186f6b6457e060405160405180910390a35050565b600081519050919050565b7f4e487b7100000000000000000000000000000000000000000000000000000000600052604160045260246000fd5b7f4e487b7100000000000000000000000000000000000000000000000000000000600052602260045260246000fd5b600060028204905060018216806200021a57607f821691505b60208210810362000230576200022f620001d2565b5b50919050565b60008190508160005260206000209050919050565b60006020601f8301049050919050565b600082821b905092915050565b6000600883026200029a7fffffffffffffffffffffffffffffffffffffffffffffffffffffffffffffffff826200025b565b620002a686836200025b565b95508019841693508086168417925050509392505050565b6000819050919050565b6000819050919050565b6000620002f3620002ed620002e784620002be565b620002c8565b620002be565b9050919050565b6000819050919050565b6200030f83620002d2565b620003276200031e82620002fa565b84845462000268565b825550505050565b600090565b6200033e6200032f565b6200034b81848462000304565b505050565b5b8181101562000373576200036760008262000334565b60018101905062000351565b5050565b601f821115620003c2576200038c8162000236565b62000397846200024b565b81016020851015620003a7578190505b620003bf620003b6856200024b565b83018262000350565b50505b505050565b600082821c905092915050565b6000620003e760001984600802620003c7565b1980831691505092915050565b6000620004028383620003d4565b9150826002028217905092915050565b6200041d8262000198565b67ffffffffffffffff811115620004395762000438620001a3565b5b62000445825462000201565b6200045282828562000377565b600060209050601f8311600181146200048a576000841562000475578287015190505b620004818582620003f4565b865550620004f1565b601f1984166200049a8662000236565b60005b82811015620004c4578489015182556001820191506020850194506020810190506200049d565b86831015620004e45784890151620004e0601f891682620003d4565b8355505b6001600288020188555050505b505050505050565b612d1280620005096000396000f3fe608060405234801561001057600080fd5b506004361061012c5760003560e01c8063715018a6116100ad578063b88d4fde11610071578063b88d4fde14610330578063bbc3a7f31461034c578063c87b56dd14610368578063e985e9c514610398578063f2fde38b146103c85761012c565b8063715018a6146102b05780638da5cb5b146102ba57806395d89b41146102d85780639cd30778146102f6578063a22cb465146103145761012c565b806315ee4df1116100f457806315ee4df1146101fc57806323b872dd1461021857806342842e0e146102345780636352211e1461025057806370a08231146102805761012c565b806301ffc9a71461013157806306fdde0314610161578063081812fc1461017f578063095ea7b3146101af578063107046bd146101cb575b600080fd5b61014b60048036038101906101469190611b88565b6103e4565b6040516101589190611bd0565b60405180910390f35b6101696104c6565b6040516101769190611c7b565b60405180910390f35b61019960048036038101906101949190611cd3565b610558565b6040516101a69190611d41565b60405180910390f35b6101c960048036038101906101c49190611d88565b61059e565b005b6101e560048036038101906101e09190611cd3565b6106b5565b6040516101f3929190611dd7565b60405180910390f35b61021660048036038101906102119190611f3c565b610761565b005b610232600480360381019061022d9190611f85565b610808565b005b61024e60048036038101906102499190611f85565b610868565b005b61026a60048036038101906102659190611cd3565b610888565b6040516102779190611d41565b60405180910390f35b61029a60048036038101906102959190611fd8565b61090e565b6040516102a79190612005565b60405180910390f35b6102b86109c5565b005b6102c26109d9565b6040516102cf9190611d41565b60405180910390f35b6102e0610a03565b6040516102ed9190611c7b565b60405180910390f35b6102fe610a95565b60405161030b9190612005565b60405180910390f35b61032e6004803603810190610329919061204c565b610aa6565b005b61034a6004803603810190610345919061212d565b610abc565b005b610366600480360381019061036191906121b0565b610b1e565b005b610382600480360381019061037d9190611cd3565b610beb565b60405161038f9190611c7b565b60405180910390f35b6103b260048036038101906103ad919061220c565b610cfd565b6040516103bf9190611bd0565b60405180910390f35b6103e260048036038101906103dd9190611fd8565b610d91565b005b60007f80ac58cd000000000000000000000000000000000000000000000000000000007bffffffffffffffffffffffffffffffffffffffffffffffffffffffff1916827bffffffffffffffffffffffffffffffffffffffffffffffffffffffff191614806104af57507f5b5e139f000000000000000000000000000000000000000000000000000000007bffffffffffffffffffffffffffffffffffffffffffffffffffffffff1916827bffffffffffffffffffffffffffffffffffffffffffffffffffffffff1916145b806104bf57506104be82610e14565b5b9050919050565b6060600080546104d59061227b565b80601f01602080910402602001604051908101604052809291908181526020018280546105019061227b565b801561054e5780601f106105235761010080835404028352916020019161054e565b820191906000526020600020905b81548152906001019060200180831161053157829003601f168201915b5050505050905090565b600061056382610e7e565b6004600083815260200190815260200160002060009054906101000a900473ffffffffffffffffffffffffffffffffffffffff169050919050565b60006105a982610888565b90508073ffffffffffffffffffffffffffffffffffffffff168373ffffffffffffffffffffffffffffffffffffffff1603610619576040517f08c379a00000000000000000000000000000000000000000000000000000000081526004016106109061231e565b60405180910390fd5b8073ffffffffffffffffffffffffffffffffffffffff16610638610ec9565b73ffffffffffffffffffffffffffffffffffffffff161480610667575061066681610661610ec9565b610cfd565b5b6106a6576040517f08c379a000000000000000000000000000000000000000000000000000000000815260040161069d906123b0565b60405180910390fd5b6106b08383610ed1565b505050565b60096020528060005260406000206000915090508060000154908060010180546106de9061227b565b80601f016020809104026020016040519081016040528092919081815260200182805461070a9061227b565b80156107575780601f1061072c57610100808354040283529160200191610757565b820191906000526020600020905b81548152906001019060200180831161073a57829003601f168201915b5050505050905082565b610769610f8a565b6107736008611008565b600061077f600861101e565b9050604051806040016040528082815260200183815250600960008381526020019081526020016000206000820151816000015560208201518160010190816107c8919061257c565b50905050807fed06d1e70f1faa0e1750def1b3a1d942390a8f47d03679c9025a1c38dc34fe7b836040516107fc9190611c7b565b60405180910390a25050565b610819610813610ec9565b8261102c565b610858576040517f08c379a000000000000000000000000000000000000000000000000000000000815260040161084f906126c0565b60405180910390fd5b6108638383836110c1565b505050565b61088383838360405180602001604052806000815250610abc565b505050565b600080610894836113ba565b9050600073ffffffffffffffffffffffffffffffffffffffff168173ffffffffffffffffffffffffffffffffffffffff1603610905576040517f08c379a00000000000000000000000000000000000000000000000000000000081526004016108fc9061272c565b60405180910390fd5b80915050919050565b60008073ffffffffffffffffffffffffffffffffffffffff168273ffffffffffffffffffffffffffffffffffffffff160361097e576040517f08c379a0000000000000000000000000000000000000000000000000000000008152600401610975906127be565b60405180910390fd5b600360008373ffffffffffffffffffffffffffffffffffffffff1673ffffffffffffffffffffffffffffffffffffffff168152602001908152602001600020549050919050565b6109cd610f8a565b6109d760006113f7565b565b6000600760009054906101000a900473ffffffffffffffffffffffffffffffffffffffff16905090565b606060018054610a129061227b565b80601f0160208091040260200160405190810160405280929190818152602001828054610a3e9061227b565b8015610a8b5780601f10610a6057610100808354040283529160200191610a8b565b820191906000526020600020905b815481529060010190602001808311610a6e57829003601f168201915b5050505050905090565b6000610aa1600861101e565b905090565b610ab8610ab1610ec9565b83836114bd565b5050565b610acd610ac7610ec9565b8361102c565b610b0c576040517f08c379a0000000000000000000000000000000000000000000000000000000008152600401610b03906126c0565b60405180910390fd5b610b1884848484611629565b50505050565b610b26610f8a565b6000600960008481526020019081526020016000206001018054610b499061227b565b905011610b8b576040517f08c379a0000000000000000000000000000000000000000000000000000000008152600401610b829061282a565b60405180910390fd5b80600960008481526020019081526020016000206001019081610bae919061257c565b50817fd59ff490e419b5a72d916db4f77bc918cb64099584e8605b5a5aa543eacc0c0782604051610bdf9190611c7b565b60405180910390a25050565b6060610bf682610e7e565b6000600660008481526020019081526020016000208054610c169061227b565b80601f0160208091040260200160405190810160405280929190818152602001828054610c429061227b565b8015610c8f5780601f10610c6457610100808354040283529160200191610c8f565b820191906000526020600020905b815481529060010190602001808311610c7257829003601f168201915b505050505090506000610ca0611685565b90506000815103610cb5578192505050610cf8565b600082511115610cea578082604051602001610cd2929190612886565b60405160208183030381529060405292505050610cf8565b610cf38461169c565b925050505b919050565b6000600560008473ffffffffffffffffffffffffffffffffffffffff1673ffffffffffffffffffffffffffffffffffffffff16815260200190815260200160002060008373ffffffffffffffffffffffffffffffffffffffff1673ffffffffffffffffffffffffffffffffffffffff16815260200190815260200160002060009054906101000a900460ff16905092915050565b610d99610f8a565b600073ffffffffffffffffffffffffffffffffffffffff168173ffffffffffffffffffffffffffffffffffffffff1603610e08576040517f08c379a0000000000000000000000000000000000000000000000000000000008152600401610dff9061291c565b60405180910390fd5b610e11816113f7565b50565b60007f01ffc9a7000000000000000000000000000000000000000000000000000000007bffffffffffffffffffffffffffffffffffffffffffffffffffffffff1916827bffffffffffffffffffffffffffffffffffffffffffffffffffffffff1916149050919050565b610e8781611704565b610ec6576040517f08c379a0000000000000000000000000000000000000000000000000000000008152600401610ebd9061272c565b60405180910390fd5b50565b600033905090565b816004600083815260200190815260200160002060006101000a81548173ffffffffffffffffffffffffffffffffffffffff021916908373ffffffffffffffffffffffffffffffffffffffff160217905550808273ffffffffffffffffffffffffffffffffffffffff16610f4483610888565b73ffffffffffffffffffffffffffffffffffffffff167f8c5be1e5ebec7d5bd14f71427d1e84f3dd0314c0f7b2291e5b200ac8c7c3b92560405160405180910390a45050565b610f92610ec9565b73ffffffffffffffffffffffffffffffffffffffff16610fb06109d9565b73ffffffffffffffffffffffffffffffffffffffff1614611006576040517f08c379a0000000000000000000000000000000000000000000000000000000008152600401610ffd90612988565b60405180910390fd5b565b6001816000016000828254019250508190555050565b600081600001549050919050565b60008061103883610888565b90508073ffffffffffffffffffffffffffffffffffffffff168473ffffffffffffffffffffffffffffffffffffffff16148061107a57506110798185610cfd565b5b806110b857508373ffffffffffffffffffffffffffffffffffffffff166110a084610558565b73ffffffffffffffffffffffffffffffffffffffff16145b91505092915050565b8273ffffffffffffffffffffffffffffffffffffffff166110e182610888565b73ffffffffffffffffffffffffffffffffffffffff1614611137576040517f08c379a000000000000000000000000000000000000000000000000000000000815260040161112e90612a1a565b60405180910390fd5b600073ffffffffffffffffffffffffffffffffffffffff168273ffffffffffffffffffffffffffffffffffffffff16036111a6576040517f08c379a000000000000000000000000000000000000000000000000000000000815260040161119d90612aac565b60405180910390fd5b6111b38383836001611745565b8273ffffffffffffffffffffffffffffffffffffffff166111d382610888565b73ffffffffffffffffffffffffffffffffffffffff1614611229576040517f08c379a000000000000000000000000000000000000000000000000000000000815260040161122090612a1a565b60405180910390fd5b6004600082815260200190815260200160002060006101000a81549073ffffffffffffffffffffffffffffffffffffffff02191690556001600360008573ffffffffffffffffffffffffffffffffffffffff1673ffffffffffffffffffffffffffffffffffffffff168152602001908152602001600020600082825403925050819055506001600360008473ffffffffffffffffffffffffffffffffffffffff1673ffffffffffffffffffffffffffffffffffffffff16815260200190815260200160002060008282540192505081905550816002600083815260200190815260200160002060006101000a81548173ffffffffffffffffffffffffffffffffffffffff021916908373ffffffffffffffffffffffffffffffffffffffff160217905550808273ffffffffffffffffffffffffffffffffffffffff168473ffffffffffffffffffffffffffffffffffffffff167fddf252ad1be2c89b69c2b068fc378daa952ba7f163c4a11628f55a4df523b3ef60405160405180910390a46113b5838383600161174b565b505050565b60006002600083815260200190815260200160002060009054906101000a900473ffffffffffffffffffffffffffffffffffffffff169050919050565b6000600760009054906101000a900473ffffffffffffffffffffffffffffffffffffffff16905081600760006101000a81548173ffffffffffffffffffffffffffffffffffffffff021916908373ffffffffffffffffffffffffffffffffffffffff1602179055508173ffffffffffffffffffffffffffffffffffffffff168173ffffffffffffffffffffffffffffffffffffffff167f8be0079c531659141344cd1fd0a4f28419497f9722a3daafe3b4186f6b6457e060405160405180910390a35050565b8173ffffffffffffffffffffffffffffffffffffffff168373ffffffffffffffffffffffffffffffffffffffff160361152b576040517f08c379a000000000000000000000000000000000000000000000000000000000815260040161152290612b18565b60405180910390fd5b80600560008573ffffffffffffffffffffffffffffffffffffffff1673ffffffffffffffffffffffffffffffffffffffff16815260200190815260200160002060008473ffffffffffffffffffffffffffffffffffffffff1673ffffffffffffffffffffffffffffffffffffffff16815260200190815260200160002060006101000a81548160ff0219169083151502179055508173ffffffffffffffffffffffffffffffffffffffff168373ffffffffffffffffffffffffffffffffffffffff167f17307eab39ab6107e8899845ad3d59bd9653f200f220920489ca2b5937696c318360405161161c9190611bd0565b60405180910390a3505050565b6116348484846110c1565b61164084848484611751565b61167f576040517f08c379a000000000000000000000000000000000000000000000000000000000815260040161167690612baa565b60405180910390fd5b50505050565b606060405180602001604052806000815250905090565b60606116a782610e7e565b60006116b1611685565b905060008151116116d157604051806020016040528060008152506116fc565b806116db846118d8565b6040516020016116ec929190612886565b6040516020818303038152906040525b915050919050565b60008073ffffffffffffffffffffffffffffffffffffffff16611726836113ba565b73ffffffffffffffffffffffffffffffffffffffff1614159050919050565b50505050565b50505050565b60006117728473ffffffffffffffffffffffffffffffffffffffff166119a6565b156118cb578373ffffffffffffffffffffffffffffffffffffffff1663150b7a0261179b610ec9565b8786866040518563ffffffff1660e01b81526004016117bd9493929190612c1f565b6020604051808303816000875af19250505080156117f957506040513d601f19601f820116820180604052508101906117f69190612c80565b60015b61187b573d8060008114611829576040519150601f19603f3d011682016040523d82523d6000602084013e61182e565b606091505b506000815103611873576040517f08c379a000000000000000000000000000000000000000000000000000000000815260040161186a90612baa565b60405180910390fd5b805181602001fd5b63150b7a0260e01b7bffffffffffffffffffffffffffffffffffffffffffffffffffffffff1916817bffffffffffffffffffffffffffffffffffffffffffffffffffffffff1916149150506118d0565b600190505b949350505050565b6060600060016118e7846119c9565b01905060008167ffffffffffffffff81111561190657611905611e11565b5b6040519080825280601f01601f1916602001820160405280156119385781602001600182028036833780820191505090505b509050600082602001820190505b60011561199b578080600190039150507f3031323334353637383961626364656600000000000000000000000000000000600a86061a8153600a858161198f5761198e612cad565b5b04945060008503611946575b819350505050919050565b6000808273ffffffffffffffffffffffffffffffffffffffff163b119050919050565b600080600090507a184f03e93ff9f4daa797ed6e38ed64bf6a1f0100000000000000008310611a27577a184f03e93ff9f4daa797ed6e38ed64bf6a1f0100000000000000008381611a1d57611a1c612cad565b5b0492506040810190505b6d04ee2d6d415b85acef81000000008310611a64576d04ee2d6d415b85acef81000000008381611a5a57611a59612cad565b5b0492506020810190505b662386f26fc100008310611a9357662386f26fc100008381611a8957611a88612cad565b5b0492506010810190505b6305f5e1008310611abc576305f5e1008381611ab257611ab1612cad565b5b0492506008810190505b6127108310611ae1576127108381611ad757611ad6612cad565b5b0492506004810190505b60648310611b045760648381611afa57611af9612cad565b5b0492506002810190505b600a8310611b13576001810190505b80915050919050565b6000604051905090565b600080fd5b600080fd5b60007fffffffff0000000000000000000000000000000000000000000000000000000082169050919050565b611b6581611b30565b8114611b7057600080fd5b50565b600081359050611b8281611b5c565b92915050565b600060208284031215611b9e57611b9d611b26565b5b6000611bac84828501611b73565b91505092915050565b60008115159050919050565b611bca81611bb5565b82525050565b6000602082019050611be56000830184611bc1565b92915050565b600081519050919050565b600082825260208201905092915050565b60005b83811015611c25578082015181840152602081019050611c0a565b60008484015250505050565b6000601f19601f8301169050919050565b6000611c4d82611beb565b611c578185611bf6565b9350611c67818560208601611c07565b611c7081611c31565b840191505092915050565b60006020820190508181036000830152611c958184611c42565b905092915050565b6000819050919050565b611cb081611c9d565b8114611cbb57600080fd5b50565b600081359050611ccd81611ca7565b92915050565b600060208284031215611ce957611ce8611b26565b5b6000611cf784828501611cbe565b91505092915050565b600073ffffffffffffffffffffffffffffffffffffffff82169050919050565b6000611d2b82611d00565b9050919050565b611d3b81611d20565b82525050565b6000602082019050611d566000830184611d32565b92915050565b611d6581611d20565b8114611d7057600080fd5b50565b600081359050611d8281611d5c565b92915050565b60008060408385031215611d9f57611d9e611b26565b5b6000611dad85828601611d73565b9250506020611dbe85828601611cbe565b9150509250929050565b611dd181611c9d565b82525050565b6000604082019050611dec6000830185611dc8565b8181036020830152611dfe8184611c42565b90509392505050565b600080fd5b600080fd5b7f4e487b7100000000000000000000000000000000000000000000000000000000600052604160045260246000fd5b611e4982611c31565b810181811067ffffffffffffffff82111715611e6857611e67611e11565b5b80604052505050565b6000611e7b611b1c565b9050611e878282611e40565b919050565b600067ffffffffffffffff821115611ea757611ea6611e11565b5b611eb082611c31565b9050602081019050919050565b82818337600083830152505050565b6000611edf611eda84611e8c565b611e71565b905082815260208101848484011115611efb57611efa611e0c565b5b611f06848285611ebd565b509392505050565b600082601f830112611f2357611f22611e07565b5b8135611f33848260208601611ecc565b91505092915050565b600060208284031215611f5257611f51611b26565b5b600082013567ffffffffffffffff811115611f7057611f6f611b2b565b5b611f7c84828501611f0e565b91505092915050565b600080600060608486031215611f9e57611f9d611b26565b5b6000611fac86828701611d73565b9350506020611fbd86828701611d73565b9250506040611fce86828701611cbe565b9150509250925092565b600060208284031215611fee57611fed611b26565b5b6000611ffc84828501611d73565b91505092915050565b600060208201905061201a6000830184611dc8565b92915050565b61202981611bb5565b811461203457600080fd5b50565b60008135905061204681612020565b92915050565b6000806040838503121561206357612062611b26565b5b600061207185828601611d73565b925050602061208285828601612037565b9150509250929050565b600067ffffffffffffffff8211156120a7576120a6611e11565b5b6120b082611c31565b9050602081019050919050565b60006120d06120cb8461208c565b611e71565b9050828152602081018484840111156120ec576120eb611e0c565b5b6120f7848285611ebd565b509392505050565b600082601f83011261211457612113611e07565b5b81356121248482602086016120bd565b91505092915050565b6000806000806080858703121561214757612146611b26565b5b600061215587828801611d73565b945050602061216687828801611d73565b935050604061217787828801611cbe565b925050606085013567ffffffffffffffff81111561219857612197611b2b565b5b6121a4878288016120ff565b91505092959194509250565b600080604083850312156121c7576121c6611b26565b5b60006121d585828601611cbe565b925050602083013567ffffffffffffffff8111156121f6576121f5611b2b565b5b61220285828601611f0e565b9150509250929050565b6000806040838503121561222357612222611b26565b5b600061223185828601611d73565b925050602061224285828601611d73565b9150509250929050565b7f4e487b7100000000000000000000000000000000000000000000000000000000600052602260045260246000fd5b6000600282049050600182168061229357607f821691505b6020821081036122a6576122a561224c565b5b50919050565b7f4552433732313a20617070726f76616c20746f2063757272656e74206f776e6560008201527f7200000000000000000000000000000000000000000000000000000000000000602082015250565b6000612308602183611bf6565b9150612313826122ac565b604082019050919050565b60006020820190508181036000830152612337816122fb565b9050919050565b7f4552433732313a20617070726f76652063616c6c6572206973206e6f7420746f60008201527f6b656e206f776e6572206f7220617070726f76656420666f7220616c6c000000602082015250565b600061239a603d83611bf6565b91506123a58261233e565b604082019050919050565b600060208201905081810360008301526123c98161238d565b9050919050565b60008190508160005260206000209050919050565b60006020601f8301049050919050565b600082821b905092915050565b6000600883026124327fffffffffffffffffffffffffffffffffffffffffffffffffffffffffffffffff826123f5565b61243c86836123f5565b95508019841693508086168417925050509392505050565b6000819050919050565b600061247961247461246f84611c9d565b612454565b611c9d565b9050919050565b6000819050919050565b6124938361245e565b6124a761249f82612480565b848454612402565b825550505050565b600090565b6124bc6124af565b6124c781848461248a565b505050565b5b818110156124eb576124e06000826124b4565b6001810190506124cd565b5050565b601f82111561253057612501816123d0565b61250a846123e5565b81016020851015612519578190505b61252d612525856123e5565b8301826124cc565b50505b505050565b600082821c905092915050565b600061255360001984600802612535565b1980831691505092915050565b600061256c8383612542565b9150826002028217905092915050565b61258582611beb565b67ffffffffffffffff81111561259e5761259d611e11565b5b6125a8825461227b565b6125b38282856124ef565b600060209050601f8311600181146125e657600084156125d4578287015190505b6125de8582612560565b865550612646565b601f1984166125f4866123d0565b60005b8281101561261c578489015182556001820191506020850194506020810190506125f7565b868310156126395784890151612635601f891682612542565b8355505b6001600288020188555050505b505050505050565b7f4552433732313a2063616c6c6572206973206e6f7420746f6b656e206f776e6560008201527f72206f7220617070726f76656400000000000000000000000000000000000000602082015250565b60006126aa602d83611bf6565b91506126b58261264e565b604082019050919050565b600060208201905081810360008301526126d98161269d565b9050919050565b7f4552433732313a20696e76616c696420746f6b656e2049440000000000000000600082015250565b6000612716601883611bf6565b9150612721826126e0565b602082019050919050565b6000602082019050818103600083015261274581612709565b9050919050565b7f4552433732313a2061646472657373207a65726f206973206e6f74206120766160008201527f6c6964206f776e65720000000000000000000000000000000000000000000000602082015250565b60006127a8602983611bf6565b91506127b38261274c565b604082019050919050565b600060208201905081810360008301526127d78161279b565b9050919050565b7f50726f6a656374206e6f7420666f756e64000000000000000000000000000000600082015250565b6000612814601183611bf6565b915061281f826127de565b602082019050919050565b6000602082019050818103600083015261284381612807565b9050919050565b600081905092915050565b600061286082611beb565b61286a818561284a565b935061287a818560208601611c07565b80840191505092915050565b60006128928285612855565b915061289e8284612855565b91508190509392505050565b7f4f776e61626c653a206e6577206f776e657220697320746865207a65726f206160008201527f6464726573730000000000000000000000000000000000000000000000000000602082015250565b6000612906602683611bf6565b9150612911826128aa565b604082019050919050565b60006020820190508181036000830152612935816128f9565b9050919050565b7f4f776e61626c653a2063616c6c6572206973206e6f7420746865206f776e6572600082015250565b6000612972602083611bf6565b915061297d8261293c565b602082019050919050565b600060208201905081810360008301526129a181612965565b9050919050565b7f4552433732313a207472616e736665722066726f6d20696e636f72726563742060008201527f6f776e6572000000000000000000000000000000000000000000000000000000602082015250565b6000612a04602583611bf6565b9150612a0f826129a8565b604082019050919050565b60006020820190508181036000830152612a33816129f7565b9050919050565b7f4552433732313a207472616e7366657220746f20746865207a65726f2061646460008201527f7265737300000000000000000000000000000000000000000000000000000000602082015250565b6000612a96602483611bf6565b9150612aa182612a3a565b604082019050919050565b60006020820190508181036000830152612ac581612a89565b9050919050565b7f4552433732313a20617070726f766520746f2063616c6c657200000000000000600082015250565b6000612b02601983611bf6565b9150612b0d82612acc565b602082019050919050565b60006020820190508181036000830152612b3181612af5565b9050919050565b7f4552433732313a207472616e7366657220746f206e6f6e20455243373231526560008201527f63656976657220696d706c656d656e7465720000000000000000000000000000602082015250565b6000612b94603283611bf6565b9150612b9f82612b38565b604082019050919050565b60006020820190508181036000830152612bc381612b87565b9050919050565b600081519050919050565b600082825260208201905092915050565b6000612bf182612bca565b612bfb8185612bd5565b9350612c0b818560208601611c07565b612c1481611c31565b840191505092915050565b6000608082019050612c346000830187611d32565b612c416020830186611d32565b612c4e6040830185611dc8565b8181036060830152612c608184612be6565b905095945050505050565b600081519050612c7a81611b5c565b92915050565b600060208284031215612c9657612c95611b26565b5b6000612ca484828501612c6b565b91505092915050565b7f4e487b7100000000000000000000000000000000000000000000000000000000600052601260045260246000fdfea26469706673582212205309d7af97604445f7f37fe72eb063129b04d924dcd1e2a3fc3dc771945e3c6f64736f6c63430008120033",
  "linkReferences": {},
  "deployedLinkReferences": {}
}