{
  "_format": "hh-sol-artifact-1",
  "contractName": "ProjectManager",
  "sourceName": "contracts/ProjectManager.sol",
  "abi": [
    {
      "inputs": [],
      "stateMutability": "nonpayable",
      "type": "constructor"
    },
    {
      "anonymous": false,
      "inputs": [
        {
          "indexed": true,
          "internalType": "address",
          "name": "owner",
          "type": "address"
        },
        {
          "indexed": true,
          "internalType": "address",
          "name": "approved",
          "type": "address"
        },
        {
          "indexed": true,
          "internalType": "uint256",
          "name": "tokenId",
          "type": "uint256"
        }
      ],
      "name": "Approval",
      "type": "event"
    },
    {
      "anonymous": false,
      "inputs": [
        {
          "indexed": true,
          "internalType": "address",
          "name": "owner",
          "type": "address"
        },
        {
          "indexed": true,
          "internalType": "address",
          "name": "operator",
          "type": "address"
        },
        {
          "indexed": false,
          "internalType": "bool",
          "name": "approved",
          "type": "bool"
        }
      ],
      "name": "ApprovalForAll",
      "type": "event"
    },
    {
      "anonymous": false,
      "inputs": [
        {
          "indexed": true,
          "internalType": "address",
          "name": "previousOwner",
          "type": "address"
        },
        {
          "indexed": true,
          "internalType": "address",
          "name": "newOwner",
          "type": "address"
        }
      ],
      "name": "OwnershipTransferred",
      "type": "event"
    },
    {
      "anonymous": false,
      "inputs": [
        {
          "indexed": true,
          "internalType": "uint256",
          "name": "projectId",
          "type": "uint256"
        },
        {
          "indexed": false,
          "internalType": "string",
          "name": "ipfsHash",
          "type": "string"
        }
      ],
      "name": "ProjectCreated",
      "type": "event"
    },
    {
      "anonymous": false,
      "inputs": [
        {
          "indexed": true,
          "internalType": "uint256",
          "name": "projectId",
          "type": "uint256"
        },
        {
          "indexed": false,
          "internalType": "string",
          "name": "newIpfsHash",
          "type": "string"
        }
      ],
      "name": "ProjectUpdated",
      "type": "event"
    },
    {
      "anonymous": false,
      "inputs": [
        {
          "indexed": true,
          "internalType": "address",
          "name": "from",
          "type": "address"
        },
        {
          "indexed": true,
          "internalType": "address",
          "name": "to",
          "type": "address"
        },
        {
          "indexed": true,
          "internalType": "uint256",
          "name": "tokenId",
          "type": "uint256"
        }
      ],
      "name": "Transfer",
      "type": "event"
    },
    {
      "inputs": [
        {
          "internalType": "address",
          "name": "to",
          "type": "address"
        },
        {
          "internalType": "uint256",
          "name": "tokenId",
          "type": "uint256"
        }
      ],
      "name": "approve",
      "outputs": [],
      "stateMutability": "nonpayable",
      "type": "function"
    },
    {
      "inputs": [
        {
          "internalType": "address",
          "name": "owner",
          "type": "address"
        }
      ],
      "name": "balanceOf",
      "outputs": [
        {
          "internalType": "uint256",
          "name": "",
          "type": "uint256"
        }
      ],
      "stateMutability": "view",
      "type": "function"
    },
    {
      "inputs": [
        {
          "internalType": "string",
          "name": "ipfsHash",
          "type": "string"
        }
      ],
      "name": "createProject",
      "outputs": [],
      "stateMutability": "nonpayable",
      "type": "function"
    },
    {
      "inputs": [
        {
          "internalType": "uint256",
          "name": "tokenId",
          "type": "uint256"
        }
      ],
      "name": "getApproved",
      "outputs": [
        {
          "internalType": "address",
          "name": "",
          "type": "address"
        }
      ],
      "stateMutability": "view",
      "type": "function"
    },
    {
      "inputs": [
        {
          "internalType": "address",
          "name": "owner",
          "type": "address"
        },
        {
          "internalType": "address",
          "name": "operator",
          "type": "address"
        }
      ],
      "name": "isApprovedForAll",
      "outputs": [
        {
          "internalType": "bool",
          "name": "",
          "type": "bool"
        }
      ],
      "stateMutability": "view",
      "type": "function"
    },
    {
      "inputs": [],
      "name": "name",
      "outputs": [
        {
          "internalType": "string",
          "name": "",
          "type": "string"
        }
      ],
      "stateMutability": "view",
      "type": "function"
    },
    {
      "inputs": [],
      "name": "owner",
      "outputs": [
        {
          "internalType": "address",
          "name": "",
          "type": "address"
        }
      ],
      "stateMutability": "view",
      "type": "function"
    },
    {
      "inputs": [
        {
          "internalType": "uint256",
          "name": "tokenId",
          "type": "uint256"
        }
      ],
      "name": "ownerOf",
      "outputs": [
        {
          "internalType": "address",
          "name": "",
          "type": "address"
        }
      ],
      "stateMutability": "view",
      "type": "function"
    },
    {
      "inputs": [
        {
          "internalType": "uint256",
          "name": "",
          "type": "uint256"
        }
      ],
      "name": "projects",
      "outputs": [
        {
          "internalType": "uint256",
          "name": "id",
          "type": "uint256"
        },
        {
          "internalType": "string",
          "name": "ipfsHash",
          "type": "string"
        }
      ],
      "stateMutability": "view",
      "type": "function"
    },
    {
      "inputs": [],
      "name": "renounceOwnership",
      "outputs": [],
      "stateMutability": "nonpayable",
      "type": "function"
    },
    {
      "inputs": [
        {
          "internalType": "address",
          "name": "from",
          "type": "address"
        },
        {
          "internalType": "address",
          "name": "to",
          "type": "address"
        },
        {
          "internalType": "uint256",
          "name": "tokenId",
          "type": "uint256"
        }
      ],
      "name": "safeTransferFrom",
      "outputs": [],
      "stateMutability": "nonpayable",
      "type": "function"
    },
    {
      "inputs": [
        {
          "internalType": "address",
          "name": "from",
          "type": "address"
        },
        {
          "internalType": "address",
          "name": "to",
          "type": "address"
        },
        {
          "internalType": "uint256",
          "name": "tokenId",
          "type": "uint256"
        },
        {
          "internalType": "bytes",
          "name": "data",
          "type": "bytes"
        }
      ],
      "name": "safeTransferFrom",
      "outputs": [],
      "stateMutability": "nonpayable",
      "type": "function"
    },
    {
      "inputs": [
        {
          "internalType": "address",
          "name": "operator",
          "type": "address"
        },
        {
          "internalType": "bool",
          "name": "approved",
          "type": "bool"
        }
      ],
      "name": "setApprovalForAll",
      "outputs": [],
      "stateMutability": "nonpayable",
      "type": "function"
    },
    {
      "inputs": [
        {
          "internalType": "bytes4",
          "name": "interfaceId",
          "type": "bytes4"
        }
      ],
      "name": "supportsInterface",
      "outputs": [
        {
          "internalType": "bool",
          "name": "",
          "type": "bool"
        }
      ],
      "stateMutability": "view",
      "type": "function"
    },
    {
      "inputs": [],
      "name": "symbol",
      "outputs": [
        {
          "internalType": "string",
          "name": "",
          "type": "string"
        }
      ],
      "stateMutability": "view",
      "type": "function"
    },
    {
      "inputs": [
        {
          "internalType": "uint256",
          "name": "tokenId",
          "type": "uint256"
        }
      ],
      "name": "tokenURI",
      "outputs": [
        {
          "internalType": "string",
          "name": "",
          "type": "string"
        }
      ],
      "stateMutability": "view",
      "type": "function"
    },
    {
      "inputs": [
        {
          "internalType": "address",
          "name": "from",
          "type": "address"
        },
        {
          "internalType": "address",
          "name": "to",
          "type": "address"
        },
        {
          "internalType": "uint256",
          "name": "tokenId",
          "type": "uint256"
        }
      ],
      "name": "transferFrom",
      "outputs": [],
      "stateMutability": "nonpayable",
      "type": "function"
    },
    {
      "inputs": [
        {
          "internalType": "address",
          "name": "newOwner",
          "type": "address"
        }
      ],
      "name": "transferOwnership",
      "outputs": [],
      "stateMutability": "nonpayable",
      "type": "function"
    },
    {
      "inputs": [
        {
          "internalType": "uint256",
          "name": "projectId",
          "type": "uint256"
        },
        {
          "internalType": "string",
          "name": "newIpfsHash",
          "type": "string"
        }
      ],
      "name": "updateProject",
      "outputs": [],
      "stateMutability": "nonpayable",
      "type": "function"
    }
  ],
  "bytecode": "0x60806040523480156200001157600080fd5b506040518060400160405280600e81526020017f50726f6a6563744d616e616765720000000000000000000000000000000000008152506040518060400160405280600281526020017f504d00000000000000000000000000000000000000000000000000000000000081525081600090816200008f919062000412565b508060019081620000a1919062000412565b505050620000c4620000b8620000ca60201b60201c565b620000d260201b60201c565b620004f9565b600033905090565b6000600760009054906101000a900473ffffffffffffffffffffffffffffffffffffffff16905081600760006101000a81548173ffffffffffffffffffffffffffffffffffffffff021916908373ffffffffffffffffffffffffffffffffffffffff1602179055508173ffffffffffffffffffffffffffffffffffffffff168173ffffffffffffffffffffffffffffffffffffffff167f8be0079c531659141344cd1fd0a4f28419497f9722a3daafe3b4186f6b6457e060405160405180910390a35050565b600081519050919050565b7f4e487b7100000000000000000000000000000000000000000000000000000000600052604160045260246000fd5b7f4e487b7100000000000000000000000000000000000000000000000000000000600052602260045260246000fd5b600060028204905060018216806200021a57607f821691505b60208210810362000230576200022f620001d2565b5b50919050565b60008190508160005260206000209050919050565b60006020601f8301049050919050565b600082821b905092915050565b6000600883026200029a7fffffffffffffffffffffffffffffffffffffffffffffffffffffffffffffffff826200025b565b620002a686836200025b565b95508019841693508086168417925050509392505050565b6000819050919050565b6000819050919050565b6000620002f3620002ed620002e784620002be565b620002c8565b620002be565b9050919050565b6000819050919050565b6200030f83620002d2565b620003276200031e82620002fa565b84845462000268565b825550505050565b600090565b6200033e6200032f565b6200034b81848462000304565b505050565b5b8181101562000373576200036760008262000334565b60018101905062000351565b5050565b601f821115620003c2576200038c8162000236565b62000397846200024b565b81016020851015620003a7578190505b620003bf620003b6856200024b565b83018262000350565b50505b505050565b600082821c905092915050565b6000620003e760001984600802620003c7565b1980831691505092915050565b6000620004028383620003d4565b9150826002028217905092915050565b6200041d8262000198565b67ffffffffffffffff811115620004395762000438620001a3565b5b62000445825462000201565b6200045282828562000377565b600060209050601f8311600181146200048a576000841562000475578287015190505b620004818582620003f4565b865550620004f1565b601f1984166200049a8662000236565b60005b82811015620004c4578489015182556001820191506020850194506020810190506200049d565b86831015620004e45784890151620004e0601f891682620003d4565b8355505b6001600288020188555050505b505050505050565b612cd880620005096000396000f3fe608060405234801561001057600080fd5b50600436106101215760003560e01c806370a08231116100ad578063b88d4fde11610071578063b88d4fde14610307578063bbc3a7f314610323578063c87b56dd1461033f578063e985e9c51461036f578063f2fde38b1461039f57610121565b806370a0823114610275578063715018a6146102a55780638da5cb5b146102af57806395d89b41146102cd578063a22cb465146102eb57610121565b8063107046bd116100f4578063107046bd146101c057806315ee4df1146101f157806323b872dd1461020d57806342842e0e146102295780636352211e1461024557610121565b806301ffc9a71461012657806306fdde0314610156578063081812fc14610174578063095ea7b3146101a4575b600080fd5b610140600480360381019061013b9190611b4e565b6103bb565b60405161014d9190611b96565b60405180910390f35b61015e61049d565b60405161016b9190611c41565b60405180910390f35b61018e60048036038101906101899190611c99565b61052f565b60405161019b9190611d07565b60405180910390f35b6101be60048036038101906101b99190611d4e565b610575565b005b6101da60048036038101906101d59190611c99565b61068c565b6040516101e8929190611d9d565b60405180910390f35b61020b60048036038101906102069190611f02565b610738565b005b61022760048036038101906102229190611f4b565b6107df565b005b610243600480360381019061023e9190611f4b565b61083f565b005b61025f600480360381019061025a9190611c99565b61085f565b60405161026c9190611d07565b60405180910390f35b61028f600480360381019061028a9190611f9e565b6108e5565b60405161029c9190611fcb565b60405180910390f35b6102ad61099c565b005b6102b76109b0565b6040516102c49190611d07565b60405180910390f35b6102d56109da565b6040516102e29190611c41565b60405180910390f35b61030560048036038101906103009190612012565b610a6c565b005b610321600480360381019061031c91906120f3565b610a82565b005b61033d60048036038101906103389190612176565b610ae4565b005b61035960048036038101906103549190611c99565b610bb1565b6040516103669190611c41565b60405180910390f35b610389600480360381019061038491906121d2565b610cc3565b6040516103969190611b96565b60405180910390f35b6103b960048036038101906103b49190611f9e565b610d57565b005b60007f80ac58cd000000000000000000000000000000000000000000000000000000007bffffffffffffffffffffffffffffffffffffffffffffffffffffffff1916827bffffffffffffffffffffffffffffffffffffffffffffffffffffffff1916148061048657507f5b5e139f000000000000000000000000000000000000000000000000000000007bffffffffffffffffffffffffffffffffffffffffffffffffffffffff1916827bffffffffffffffffffffffffffffffffffffffffffffffffffffffff1916145b80610496575061049582610dda565b5b9050919050565b6060600080546104ac90612241565b80601f01602080910402602001604051908101604052809291908181526020018280546104d890612241565b80156105255780601f106104fa57610100808354040283529160200191610525565b820191906000526020600020905b81548152906001019060200180831161050857829003601f168201915b5050505050905090565b600061053a82610e44565b6004600083815260200190815260200160002060009054906101000a900473ffffffffffffffffffffffffffffffffffffffff169050919050565b60006105808261085f565b90508073ffffffffffffffffffffffffffffffffffffffff168373ffffffffffffffffffffffffffffffffffffffff16036105f0576040517f08c379a00000000000000000000000000000000000000000000000000000000081526004016105e7906122e4565b60405180910390fd5b8073ffffffffffffffffffffffffffffffffffffffff1661060f610e8f565b73ffffffffffffffffffffffffffffffffffffffff16148061063e575061063d81610638610e8f565b610cc3565b5b61067d576040517f08c379a000000000000000000000000000000000000000000000000000000000815260040161067490612376565b60405180910390fd5b6106878383610e97565b505050565b60096020528060005260406000206000915090508060000154908060010180546106b590612241565b80601f01602080910402602001604051908101604052809291908181526020018280546106e190612241565b801561072e5780601f106107035761010080835404028352916020019161072e565b820191906000526020600020905b81548152906001019060200180831161071157829003601f168201915b5050505050905082565b610740610f50565b61074a6008610fce565b60006107566008610fe4565b90506040518060400160405280828152602001838152506009600083815260200190815260200160002060008201518160000155602082015181600101908161079f9190612542565b50905050807fed06d1e70f1faa0e1750def1b3a1d942390a8f47d03679c9025a1c38dc34fe7b836040516107d39190611c41565b60405180910390a25050565b6107f06107ea610e8f565b82610ff2565b61082f576040517f08c379a000000000000000000000000000000000000000000000000000000000815260040161082690612686565b60405180910390fd5b61083a838383611087565b505050565b61085a83838360405180602001604052806000815250610a82565b505050565b60008061086b83611380565b9050600073ffffffffffffffffffffffffffffffffffffffff168173ffffffffffffffffffffffffffffffffffffffff16036108dc576040517f08c379a00000000000000000000000000000000000000000000000000000000081526004016108d3906126f2565b60405180910390fd5b80915050919050565b60008073ffffffffffffffffffffffffffffffffffffffff168273ffffffffffffffffffffffffffffffffffffffff1603610955576040517f08c379a000000000000000000000000000000000000000000000000000000000815260040161094c90612784565b60405180910390fd5b600360008373ffffffffffffffffffffffffffffffffffffffff1673ffffffffffffffffffffffffffffffffffffffff168152602001908152602001600020549050919050565b6109a4610f50565b6109ae60006113bd565b565b6000600760009054906101000a900473ffffffffffffffffffffffffffffffffffffffff16905090565b6060600180546109e990612241565b80601f0160208091040260200160405190810160405280929190818152602001828054610a1590612241565b8015610a625780601f10610a3757610100808354040283529160200191610a62565b820191906000526020600020905b815481529060010190602001808311610a4557829003601f168201915b5050505050905090565b610a7e610a77610e8f565b8383611483565b5050565b610a93610a8d610e8f565b83610ff2565b610ad2576040517f08c379a0000000000000000000000000000000000000000000000000000000008152600401610ac990612686565b60405180910390fd5b610ade848484846115ef565b50505050565b610aec610f50565b6000600960008481526020019081526020016000206001018054610b0f90612241565b905011610b51576040517f08c379a0000000000000000000000000000000000000000000000000000000008152600401610b48906127f0565b60405180910390fd5b80600960008481526020019081526020016000206001019081610b749190612542565b50817fd59ff490e419b5a72d916db4f77bc918cb64099584e8605b5a5aa543eacc0c0782604051610ba59190611c41565b60405180910390a25050565b6060610bbc82610e44565b6000600660008481526020019081526020016000208054610bdc90612241565b80601f0160208091040260200160405190810160405280929190818152602001828054610c0890612241565b8015610c555780601f10610c2a57610100808354040283529160200191610c55565b820191906000526020600020905b815481529060010190602001808311610c3857829003601f168201915b505050505090506000610c6661164b565b90506000815103610c7b578192505050610cbe565b600082511115610cb0578082604051602001610c9892919061284c565b60405160208183030381529060405292505050610cbe565b610cb984611662565b925050505b919050565b6000600560008473ffffffffffffffffffffffffffffffffffffffff1673ffffffffffffffffffffffffffffffffffffffff16815260200190815260200160002060008373ffffffffffffffffffffffffffffffffffffffff1673ffffffffffffffffffffffffffffffffffffffff16815260200190815260200160002060009054906101000a900460ff16905092915050565b610d5f610f50565b600073ffffffffffffffffffffffffffffffffffffffff168173ffffffffffffffffffffffffffffffffffffffff1603610dce576040517f08c379a0000000000000000000000000000000000000000000000000000000008152600401610dc5906128e2565b60405180910390fd5b610dd7816113bd565b50565b60007f01ffc9a7000000000000000000000000000000000000000000000000000000007bffffffffffffffffffffffffffffffffffffffffffffffffffffffff1916827bffffffffffffffffffffffffffffffffffffffffffffffffffffffff1916149050919050565b610e4d816116ca565b610e8c576040517f08c379a0000000000000000000000000000000000000000000000000000000008152600401610e83906126f2565b60405180910390fd5b50565b600033905090565b816004600083815260200190815260200160002060006101000a81548173ffffffffffffffffffffffffffffffffffffffff021916908373ffffffffffffffffffffffffffffffffffffffff160217905550808273ffffffffffffffffffffffffffffffffffffffff16610f0a8361085f565b73ffffffffffffffffffffffffffffffffffffffff167f8c5be1e5ebec7d5bd14f71427d1e84f3dd0314c0f7b2291e5b200ac8c7c3b92560405160405180910390a45050565b610f58610e8f565b73ffffffffffffffffffffffffffffffffffffffff16610f766109b0565b73ffffffffffffffffffffffffffffffffffffffff1614610fcc576040517f08c379a0000000000000000000000000000000000000000000000000000000008152600401610fc39061294e565b60405180910390fd5b565b6001816000016000828254019250508190555050565b600081600001549050919050565b600080610ffe8361085f565b90508073ffffffffffffffffffffffffffffffffffffffff168473ffffffffffffffffffffffffffffffffffffffff161480611040575061103f8185610cc3565b5b8061107e57508373ffffffffffffffffffffffffffffffffffffffff166110668461052f565b73ffffffffffffffffffffffffffffffffffffffff16145b91505092915050565b8273ffffffffffffffffffffffffffffffffffffffff166110a78261085f565b73ffffffffffffffffffffffffffffffffffffffff16146110fd576040517f08c379a00000000000000000000000000000000000000000000000000000000081526004016110f4906129e0565b60405180910390fd5b600073ffffffffffffffffffffffffffffffffffffffff168273ffffffffffffffffffffffffffffffffffffffff160361116c576040517f08c379a000000000000000000000000000000000000000000000000000000000815260040161116390612a72565b60405180910390fd5b611179838383600161170b565b8273ffffffffffffffffffffffffffffffffffffffff166111998261085f565b73ffffffffffffffffffffffffffffffffffffffff16146111ef576040517f08c379a00000000000000000000000000000000000000000000000000000000081526004016111e6906129e0565b60405180910390fd5b6004600082815260200190815260200160002060006101000a81549073ffffffffffffffffffffffffffffffffffffffff02191690556001600360008573ffffffffffffffffffffffffffffffffffffffff1673ffffffffffffffffffffffffffffffffffffffff168152602001908152602001600020600082825403925050819055506001600360008473ffffffffffffffffffffffffffffffffffffffff1673ffffffffffffffffffffffffffffffffffffffff16815260200190815260200160002060008282540192505081905550816002600083815260200190815260200160002060006101000a81548173ffffffffffffffffffffffffffffffffffffffff021916908373ffffffffffffffffffffffffffffffffffffffff160217905550808273ffffffffffffffffffffffffffffffffffffffff168473ffffffffffffffffffffffffffffffffffffffff167fddf252ad1be2c89b69c2b068fc378daa952ba7f163c4a11628f55a4df523b3ef60405160405180910390a461137b8383836001611711565b505050565b60006002600083815260200190815260200160002060009054906101000a900473ffffffffffffffffffffffffffffffffffffffff169050919050565b6000600760009054906101000a900473ffffffffffffffffffffffffffffffffffffffff16905081600760006101000a81548173ffffffffffffffffffffffffffffffffffffffff021916908373ffffffffffffffffffffffffffffffffffffffff1602179055508173ffffffffffffffffffffffffffffffffffffffff168173ffffffffffffffffffffffffffffffffffffffff167f8be0079c531659141344cd1fd0a4f28419497f9722a3daafe3b4186f6b6457e060405160405180910390a35050565b8173ffffffffffffffffffffffffffffffffffffffff168373ffffffffffffffffffffffffffffffffffffffff16036114f1576040517f08c379a00000000000000000000000000000000000000000000000000000000081526004016114e890612ade565b60405180910390fd5b80600560008573ffffffffffffffffffffffffffffffffffffffff1673ffffffffffffffffffffffffffffffffffffffff16815260200190815260200160002060008473ffffffffffffffffffffffffffffffffffffffff1673ffffffffffffffffffffffffffffffffffffffff16815260200190815260200160002060006101000a81548160ff0219169083151502179055508173ffffffffffffffffffffffffffffffffffffffff168373ffffffffffffffffffffffffffffffffffffffff167f17307eab39ab6107e8899845ad3d59bd9653f200f220920489ca2b5937696c31836040516115e29190611b96565b60405180910390a3505050565b6115fa848484611087565b61160684848484611717565b611645576040517f08c379a000000000000000000000000000000000000000000000000000000000815260040161163c90612b70565b60405180910390fd5b50505050565b606060405180602001604052806000815250905090565b606061166d82610e44565b600061167761164b565b9050600081511161169757604051806020016040528060008152506116c2565b806116a18461189e565b6040516020016116b292919061284c565b6040516020818303038152906040525b915050919050565b60008073ffffffffffffffffffffffffffffffffffffffff166116ec83611380565b73ffffffffffffffffffffffffffffffffffffffff1614159050919050565b50505050565b50505050565b60006117388473ffffffffffffffffffffffffffffffffffffffff1661196c565b15611891578373ffffffffffffffffffffffffffffffffffffffff1663150b7a02611761610e8f565b8786866040518563ffffffff1660e01b81526004016117839493929190612be5565b6020604051808303816000875af19250505080156117bf57506040513d601f19601f820116820180604052508101906117bc9190612c46565b60015b611841573d80600081146117ef576040519150601f19603f3d011682016040523d82523d6000602084013e6117f4565b606091505b506000815103611839576040517f08c379a000000000000000000000000000000000000000000000000000000000815260040161183090612b70565b60405180910390fd5b805181602001fd5b63150b7a0260e01b7bffffffffffffffffffffffffffffffffffffffffffffffffffffffff1916817bffffffffffffffffffffffffffffffffffffffffffffffffffffffff191614915050611896565b600190505b949350505050565b6060600060016118ad8461198f565b01905060008167ffffffffffffffff8111156118cc576118cb611dd7565b5b6040519080825280601f01601f1916602001820160405280156118fe5781602001600182028036833780820191505090505b509050600082602001820190505b600115611961578080600190039150507f3031323334353637383961626364656600000000000000000000000000000000600a86061a8153600a858161195557611954612c73565b5b0494506000850361190c575b819350505050919050565b6000808273ffffffffffffffffffffffffffffffffffffffff163b119050919050565b600080600090507a184f03e93ff9f4daa797ed6e38ed64bf6a1f01000000000000000083106119ed577a184f03e93ff9f4daa797ed6e38ed64bf6a1f01000000000000000083816119e3576119e2612c73565b5b0492506040810190505b6d04ee2d6d415b85acef81000000008310611a2a576d04ee2d6d415b85acef81000000008381611a2057611a1f612c73565b5b0492506020810190505b662386f26fc100008310611a5957662386f26fc100008381611a4f57611a4e612c73565b5b0492506010810190505b6305f5e1008310611a82576305f5e1008381611a7857611a77612c73565b5b0492506008810190505b6127108310611aa7576127108381611a9d57611a9c612c73565b5b0492506004810190505b60648310611aca5760648381611ac057611abf612c73565b5b0492506002810190505b600a8310611ad9576001810190505b80915050919050565b6000604051905090565b600080fd5b600080fd5b60007fffffffff0000000000000000000000000000000000000000000000000000000082169050919050565b611b2b81611af6565b8114611b3657600080fd5b50565b600081359050611b4881611b22565b92915050565b600060208284031215611b6457611b63611aec565b5b6000611b7284828501611b39565b91505092915050565b60008115159050919050565b611b9081611b7b565b82525050565b6000602082019050611bab6000830184611b87565b92915050565b600081519050919050565b600082825260208201905092915050565b60005b83811015611beb578082015181840152602081019050611bd0565b60008484015250505050565b6000601f19601f8301169050919050565b6000611c1382611bb1565b611c1d8185611bbc565b9350611c2d818560208601611bcd565b611c3681611bf7565b840191505092915050565b60006020820190508181036000830152611c5b8184611c08565b905092915050565b6000819050919050565b611c7681611c63565b8114611c8157600080fd5b50565b600081359050611c9381611c6d565b92915050565b600060208284031215611caf57611cae611aec565b5b6000611cbd84828501611c84565b91505092915050565b600073ffffffffffffffffffffffffffffffffffffffff82169050919050565b6000611cf182611cc6565b9050919050565b611d0181611ce6565b82525050565b6000602082019050611d1c6000830184611cf8565b92915050565b611d2b81611ce6565b8114611d3657600080fd5b50565b600081359050611d4881611d22565b92915050565b60008060408385031215611d6557611d64611aec565b5b6000611d7385828601611d39565b9250506020611d8485828601611c84565b9150509250929050565b611d9781611c63565b82525050565b6000604082019050611db26000830185611d8e565b8181036020830152611dc48184611c08565b90509392505050565b600080fd5b600080fd5b7f4e487b7100000000000000000000000000000000000000000000000000000000600052604160045260246000fd5b611e0f82611bf7565b810181811067ffffffffffffffff82111715611e2e57611e2d611dd7565b5b80604052505050565b6000611e41611ae2565b9050611e4d8282611e06565b919050565b600067ffffffffffffffff821115611e6d57611e6c611dd7565b5b611e7682611bf7565b9050602081019050919050565b82818337600083830152505050565b6000611ea5611ea084611e52565b611e37565b905082815260208101848484011115611ec157611ec0611dd2565b5b611ecc848285611e83565b509392505050565b600082601f830112611ee957611ee8611dcd565b5b8135611ef9848260208601611e92565b91505092915050565b600060208284031215611f1857611f17611aec565b5b600082013567ffffffffffffffff811115611f3657611f35611af1565b5b611f4284828501611ed4565b91505092915050565b600080600060608486031215611f6457611f63611aec565b5b6000611f7286828701611d39565b9350506020611f8386828701611d39565b9250506040611f9486828701611c84565b9150509250925092565b600060208284031215611fb457611fb3611aec565b5b6000611fc284828501611d39565b91505092915050565b6000602082019050611fe06000830184611d8e565b92915050565b611fef81611b7b565b8114611ffa57600080fd5b50565b60008135905061200c81611fe6565b92915050565b6000806040838503121561202957612028611aec565b5b600061203785828601611d39565b925050602061204885828601611ffd565b9150509250929050565b600067ffffffffffffffff82111561206d5761206c611dd7565b5b61207682611bf7565b9050602081019050919050565b600061209661209184612052565b611e37565b9050828152602081018484840111156120b2576120b1611dd2565b5b6120bd848285611e83565b509392505050565b600082601f8301126120da576120d9611dcd565b5b81356120ea848260208601612083565b91505092915050565b6000806000806080858703121561210d5761210c611aec565b5b600061211b87828801611d39565b945050602061212c87828801611d39565b935050604061213d87828801611c84565b925050606085013567ffffffffffffffff81111561215e5761215d611af1565b5b61216a878288016120c5565b91505092959194509250565b6000806040838503121561218d5761218c611aec565b5b600061219b85828601611c84565b925050602083013567ffffffffffffffff8111156121bc576121bb611af1565b5b6121c885828601611ed4565b9150509250929050565b600080604083850312156121e9576121e8611aec565b5b60006121f785828601611d39565b925050602061220885828601611d39565b9150509250929050565b7f4e487b7100000000000000000000000000000000000000000000000000000000600052602260045260246000fd5b6000600282049050600182168061225957607f821691505b60208210810361226c5761226b612212565b5b50919050565b7f4552433732313a20617070726f76616c20746f2063757272656e74206f776e6560008201527f7200000000000000000000000000000000000000000000000000000000000000602082015250565b60006122ce602183611bbc565b91506122d982612272565b604082019050919050565b600060208201905081810360008301526122fd816122c1565b9050919050565b7f4552433732313a20617070726f76652063616c6c6572206973206e6f7420746f60008201527f6b656e206f776e6572206f7220617070726f76656420666f7220616c6c000000602082015250565b6000612360603d83611bbc565b915061236b82612304565b604082019050919050565b6000602082019050818103600083015261238f81612353565b9050919050565b60008190508160005260206000209050919050565b60006020601f8301049050919050565b600082821b905092915050565b6000600883026123f87fffffffffffffffffffffffffffffffffffffffffffffffffffffffffffffffff826123bb565b61240286836123bb565b95508019841693508086168417925050509392505050565b6000819050919050565b600061243f61243a61243584611c63565b61241a565b611c63565b9050919050565b6000819050919050565b61245983612424565b61246d61246582612446565b8484546123c8565b825550505050565b600090565b612482612475565b61248d818484612450565b505050565b5b818110156124b1576124a660008261247a565b600181019050612493565b5050565b601f8211156124f6576124c781612396565b6124d0846123ab565b810160208510156124df578190505b6124f36124eb856123ab565b830182612492565b50505b505050565b600082821c905092915050565b6000612519600019846008026124fb565b1980831691505092915050565b60006125328383612508565b9150826002028217905092915050565b61254b82611bb1565b67ffffffffffffffff81111561256457612563611dd7565b5b61256e8254612241565b6125798282856124b5565b600060209050601f8311600181146125ac576000841561259a578287015190505b6125a48582612526565b86555061260c565b601f1984166125ba86612396565b60005b828110156125e2578489015182556001820191506020850194506020810190506125bd565b868310156125ff57848901516125fb601f891682612508565b8355505b6001600288020188555050505b505050505050565b7f4552433732313a2063616c6c6572206973206e6f7420746f6b656e206f776e6560008201527f72206f7220617070726f76656400000000000000000000000000000000000000602082015250565b6000612670602d83611bbc565b915061267b82612614565b604082019050919050565b6000602082019050818103600083015261269f81612663565b9050919050565b7f4552433732313a20696e76616c696420746f6b656e2049440000000000000000600082015250565b60006126dc601883611bbc565b91506126e7826126a6565b602082019050919050565b6000602082019050818103600083015261270b816126cf565b9050919050565b7f4552433732313a2061646472657373207a65726f206973206e6f74206120766160008201527f6c6964206f776e65720000000000000000000000000000000000000000000000602082015250565b600061276e602983611bbc565b915061277982612712565b604082019050919050565b6000602082019050818103600083015261279d81612761565b9050919050565b7f50726f6a656374206e6f7420666f756e64000000000000000000000000000000600082015250565b60006127da601183611bbc565b91506127e5826127a4565b602082019050919050565b60006020820190508181036000830152612809816127cd565b9050919050565b600081905092915050565b600061282682611bb1565b6128308185612810565b9350612840818560208601611bcd565b80840191505092915050565b6000612858828561281b565b9150612864828461281b565b91508190509392505050565b7f4f776e61626c653a206e6577206f776e657220697320746865207a65726f206160008201527f6464726573730000000000000000000000000000000000000000000000000000602082015250565b60006128cc602683611bbc565b91506128d782612870565b604082019050919050565b600060208201905081810360008301526128fb816128bf565b9050919050565b7f4f776e61626c653a2063616c6c6572206973206e6f7420746865206f776e6572600082015250565b6000612938602083611bbc565b915061294382612902565b602082019050919050565b600060208201905081810360008301526129678161292b565b9050919050565b7f4552433732313a207472616e736665722066726f6d20696e636f72726563742060008201527f6f776e6572000000000000000000000000000000000000000000000000000000602082015250565b60006129ca602583611bbc565b91506129d58261296e565b604082019050919050565b600060208201905081810360008301526129f9816129bd565b9050919050565b7f4552433732313a207472616e7366657220746f20746865207a65726f2061646460008201527f7265737300000000000000000000000000000000000000000000000000000000602082015250565b6000612a5c602483611bbc565b9150612a6782612a00565b604082019050919050565b60006020820190508181036000830152612a8b81612a4f565b9050919050565b7f4552433732313a20617070726f766520746f2063616c6c657200000000000000600082015250565b6000612ac8601983611bbc565b9150612ad382612a92565b602082019050919050565b60006020820190508181036000830152612af781612abb565b9050919050565b7f4552433732313a207472616e7366657220746f206e6f6e20455243373231526560008201527f63656976657220696d706c656d656e7465720000000000000000000000000000602082015250565b6000612b5a603283611bbc565b9150612b6582612afe565b604082019050919050565b60006020820190508181036000830152612b8981612b4d565b9050919050565b600081519050919050565b600082825260208201905092915050565b6000612bb782612b90565b612bc18185612b9b565b9350612bd1818560208601611bcd565b612bda81611bf7565b840191505092915050565b6000608082019050612bfa6000830187611cf8565b612c076020830186611cf8565b612c146040830185611d8e565b8181036060830152612c268184612bac565b905095945050505050565b600081519050612c4081611b22565b92915050565b600060208284031215612c5c57612c5b611aec565b5b6000612c6a84828501612c31565b91505092915050565b7f4e487b7100000000000000000000000000000000000000000000000000000000600052601260045260246000fdfea26469706673582212200c7521bfde81ee90343c309aee02d439c0c36e828661f4197b3ce0b377b4174e64736f6c63430008120033",
  "linkReferences": {},
  "deployedLinkReferences": {}
}