{
  "_format": "hh-sol-artifact-1",
  "contractName": "ProjectManager",
  "sourceName": "contracts/ProjectManager.sol",
  "abi": [
    {
      "inputs": [],
      "stateMutability": "nonpayable",
      "type": "constructor"
    },
    {
      "anonymous": false,
      "inputs": [
        {
          "indexed": false,
          "internalType": "string",
          "name": "newIpfsHash",
          "type": "string"
        }
      ],
      "name": "AccountsDataUpdated",
      "type": "event"
    },
    {
      "anonymous": false,
      "inputs": [
        {
          "indexed": true,
          "internalType": "address",
          "name": "owner",
          "type": "address"
        },
        {
          "indexed": true,
          "internalType": "address",
          "name": "approved",
          "type": "address"
        },
        {
          "indexed": true,
          "internalType": "uint256",
          "name": "tokenId",
          "type": "uint256"
        }
      ],
      "name": "Approval",
      "type": "event"
    },
    {
      "anonymous": false,
      "inputs": [
        {
          "indexed": true,
          "internalType": "address",
          "name": "owner",
          "type": "address"
        },
        {
          "indexed": true,
          "internalType": "address",
          "name": "operator",
          "type": "address"
        },
        {
          "indexed": false,
          "internalType": "bool",
          "name": "approved",
          "type": "bool"
        }
      ],
      "name": "ApprovalForAll",
      "type": "event"
    },
    {
      "anonymous": false,
      "inputs": [
        {
          "indexed": true,
          "internalType": "address",
          "name": "previousOwner",
          "type": "address"
        },
        {
          "indexed": true,
          "internalType": "address",
          "name": "newOwner",
          "type": "address"
        }
      ],
      "name": "OwnershipTransferred",
      "type": "event"
    },
    {
      "anonymous": false,
      "inputs": [
        {
          "indexed": true,
          "internalType": "uint256",
          "name": "projectId",
          "type": "uint256"
        },
        {
          "indexed": false,
          "internalType": "string",
          "name": "ipfsHash",
          "type": "string"
        }
      ],
      "name": "ProjectCreated",
      "type": "event"
    },
    {
      "anonymous": false,
      "inputs": [
        {
          "indexed": true,
          "internalType": "uint256",
          "name": "projectId",
          "type": "uint256"
        },
        {
          "indexed": false,
          "internalType": "string",
          "name": "newIpfsHash",
          "type": "string"
        }
      ],
      "name": "ProjectUpdated",
      "type": "event"
    },
    {
      "anonymous": false,
      "inputs": [
        {
          "indexed": true,
          "internalType": "address",
          "name": "from",
          "type": "address"
        },
        {
          "indexed": true,
          "internalType": "address",
          "name": "to",
          "type": "address"
        },
        {
          "indexed": true,
          "internalType": "uint256",
          "name": "tokenId",
          "type": "uint256"
        }
      ],
      "name": "Transfer",
      "type": "event"
    },
    {
      "inputs": [],
      "name": "accountsDataIpfsHash",
      "outputs": [
        {
          "internalType": "string",
          "name": "",
          "type": "string"
        }
      ],
      "stateMutability": "view",
      "type": "function"
    },
    {
      "inputs": [
        {
          "internalType": "address",
          "name": "to",
          "type": "address"
        },
        {
          "internalType": "uint256",
          "name": "tokenId",
          "type": "uint256"
        }
      ],
      "name": "approve",
      "outputs": [],
      "stateMutability": "nonpayable",
      "type": "function"
    },
    {
      "inputs": [
        {
          "internalType": "address",
          "name": "owner",
          "type": "address"
        }
      ],
      "name": "balanceOf",
      "outputs": [
        {
          "internalType": "uint256",
          "name": "",
          "type": "uint256"
        }
      ],
      "stateMutability": "view",
      "type": "function"
    },
    {
      "inputs": [
        {
          "internalType": "string",
          "name": "ipfsHash",
          "type": "string"
        }
      ],
      "name": "createProject",
      "outputs": [],
      "stateMutability": "nonpayable",
      "type": "function"
    },
    {
      "inputs": [
        {
          "internalType": "uint256",
          "name": "tokenId",
          "type": "uint256"
        }
      ],
      "name": "getApproved",
      "outputs": [
        {
          "internalType": "address",
          "name": "",
          "type": "address"
        }
      ],
      "stateMutability": "view",
      "type": "function"
    },
    {
      "inputs": [],
      "name": "getProjectIdCounter",
      "outputs": [
        {
          "internalType": "uint256",
          "name": "",
          "type": "uint256"
        }
      ],
      "stateMutability": "view",
      "type": "function"
    },
    {
      "inputs": [
        {
          "internalType": "address",
          "name": "owner",
          "type": "address"
        },
        {
          "internalType": "address",
          "name": "operator",
          "type": "address"
        }
      ],
      "name": "isApprovedForAll",
      "outputs": [
        {
          "internalType": "bool",
          "name": "",
          "type": "bool"
        }
      ],
      "stateMutability": "view",
      "type": "function"
    },
    {
      "inputs": [],
      "name": "name",
      "outputs": [
        {
          "internalType": "string",
          "name": "",
          "type": "string"
        }
      ],
      "stateMutability": "view",
      "type": "function"
    },
    {
      "inputs": [],
      "name": "owner",
      "outputs": [
        {
          "internalType": "address",
          "name": "",
          "type": "address"
        }
      ],
      "stateMutability": "view",
      "type": "function"
    },
    {
      "inputs": [
        {
          "internalType": "uint256",
          "name": "tokenId",
          "type": "uint256"
        }
      ],
      "name": "ownerOf",
      "outputs": [
        {
          "internalType": "address",
          "name": "",
          "type": "address"
        }
      ],
      "stateMutability": "view",
      "type": "function"
    },
    {
      "inputs": [
        {
          "internalType": "uint256",
          "name": "",
          "type": "uint256"
        }
      ],
      "name": "projects",
      "outputs": [
        {
          "internalType": "uint256",
          "name": "id",
          "type": "uint256"
        },
        {
          "internalType": "string",
          "name": "ipfsHash",
          "type": "string"
        }
      ],
      "stateMutability": "view",
      "type": "function"
    },
    {
      "inputs": [],
      "name": "renounceOwnership",
      "outputs": [],
      "stateMutability": "nonpayable",
      "type": "function"
    },
    {
      "inputs": [
        {
          "internalType": "address",
          "name": "from",
          "type": "address"
        },
        {
          "internalType": "address",
          "name": "to",
          "type": "address"
        },
        {
          "internalType": "uint256",
          "name": "tokenId",
          "type": "uint256"
        }
      ],
      "name": "safeTransferFrom",
      "outputs": [],
      "stateMutability": "nonpayable",
      "type": "function"
    },
    {
      "inputs": [
        {
          "internalType": "address",
          "name": "from",
          "type": "address"
        },
        {
          "internalType": "address",
          "name": "to",
          "type": "address"
        },
        {
          "internalType": "uint256",
          "name": "tokenId",
          "type": "uint256"
        },
        {
          "internalType": "bytes",
          "name": "data",
          "type": "bytes"
        }
      ],
      "name": "safeTransferFrom",
      "outputs": [],
      "stateMutability": "nonpayable",
      "type": "function"
    },
    {
      "inputs": [
        {
          "internalType": "address",
          "name": "operator",
          "type": "address"
        },
        {
          "internalType": "bool",
          "name": "approved",
          "type": "bool"
        }
      ],
      "name": "setApprovalForAll",
      "outputs": [],
      "stateMutability": "nonpayable",
      "type": "function"
    },
    {
      "inputs": [
        {
          "internalType": "bytes4",
          "name": "interfaceId",
          "type": "bytes4"
        }
      ],
      "name": "supportsInterface",
      "outputs": [
        {
          "internalType": "bool",
          "name": "",
          "type": "bool"
        }
      ],
      "stateMutability": "view",
      "type": "function"
    },
    {
      "inputs": [],
      "name": "symbol",
      "outputs": [
        {
          "internalType": "string",
          "name": "",
          "type": "string"
        }
      ],
      "stateMutability": "view",
      "type": "function"
    },
    {
      "inputs": [
        {
          "internalType": "uint256",
          "name": "tokenId",
          "type": "uint256"
        }
      ],
      "name": "tokenURI",
      "outputs": [
        {
          "internalType": "string",
          "name": "",
          "type": "string"
        }
      ],
      "stateMutability": "view",
      "type": "function"
    },
    {
      "inputs": [
        {
          "internalType": "address",
          "name": "from",
          "type": "address"
        },
        {
          "internalType": "address",
          "name": "to",
          "type": "address"
        },
        {
          "internalType": "uint256",
          "name": "tokenId",
          "type": "uint256"
        }
      ],
      "name": "transferFrom",
      "outputs": [],
      "stateMutability": "nonpayable",
      "type": "function"
    },
    {
      "inputs": [
        {
          "internalType": "address",
          "name": "newOwner",
          "type": "address"
        }
      ],
      "name": "transferOwnership",
      "outputs": [],
      "stateMutability": "nonpayable",
      "type": "function"
    },
    {
      "inputs": [
        {
          "internalType": "string",
          "name": "newIpfsHash",
          "type": "string"
        }
      ],
      "name": "updateAccountsData",
      "outputs": [],
      "stateMutability": "nonpayable",
      "type": "function"
    },
    {
      "inputs": [
        {
          "internalType": "uint256",
          "name": "projectId",
          "type": "uint256"
        },
        {
          "internalType": "string",
          "name": "newIpfsHash",
          "type": "string"
        }
      ],
      "name": "updateProject",
      "outputs": [],
      "stateMutability": "nonpayable",
      "type": "function"
    }
  ],
  "bytecode": "0x60806040523480156200001157600080fd5b506040518060400160405280600e81526020017f50726f6a6563744d616e616765720000000000000000000000000000000000008152506040518060400160405280600281526020017f504d00000000000000000000000000000000000000000000000000000000000081525081600090816200008f919062000412565b508060019081620000a1919062000412565b505050620000c4620000b8620000ca60201b60201c565b620000d260201b60201c565b620004f9565b600033905090565b6000600760009054906101000a900473ffffffffffffffffffffffffffffffffffffffff16905081600760006101000a81548173ffffffffffffffffffffffffffffffffffffffff021916908373ffffffffffffffffffffffffffffffffffffffff1602179055508173ffffffffffffffffffffffffffffffffffffffff168173ffffffffffffffffffffffffffffffffffffffff167f8be0079c531659141344cd1fd0a4f28419497f9722a3daafe3b4186f6b6457e060405160405180910390a35050565b600081519050919050565b7f4e487b7100000000000000000000000000000000000000000000000000000000600052604160045260246000fd5b7f4e487b7100000000000000000000000000000000000000000000000000000000600052602260045260246000fd5b600060028204905060018216806200021a57607f821691505b60208210810362000230576200022f620001d2565b5b50919050565b60008190508160005260206000209050919050565b60006020601f8301049050919050565b600082821b905092915050565b6000600883026200029a7fffffffffffffffffffffffffffffffffffffffffffffffffffffffffffffffff826200025b565b620002a686836200025b565b95508019841693508086168417925050509392505050565b6000819050919050565b6000819050919050565b6000620002f3620002ed620002e784620002be565b620002c8565b620002be565b9050919050565b6000819050919050565b6200030f83620002d2565b620003276200031e82620002fa565b84845462000268565b825550505050565b600090565b6200033e6200032f565b6200034b81848462000304565b505050565b5b8181101562000373576200036760008262000334565b60018101905062000351565b5050565b601f821115620003c2576200038c8162000236565b62000397846200024b565b81016020851015620003a7578190505b620003bf620003b6856200024b565b83018262000350565b50505b505050565b600082821c905092915050565b6000620003e760001984600802620003c7565b1980831691505092915050565b6000620004028383620003d4565b9150826002028217905092915050565b6200041d8262000198565b67ffffffffffffffff811115620004395762000438620001a3565b5b62000445825462000201565b6200045282828562000377565b600060209050601f8311600181146200048a576000841562000475578287015190505b620004818582620003f4565b865550620004f1565b601f1984166200049a8662000236565b60005b82811015620004c4578489015182556001820191506020850194506020810190506200049d565b86831015620004e45784890151620004e0601f891682620003d4565b8355505b6001600288020188555050505b505050505050565b612e4280620005096000396000f3fe608060405234801561001057600080fd5b50600436106101425760003560e01c80638da5cb5b116100b8578063b88d4fde1161007c578063b88d4fde14610364578063bbc3a7f314610380578063bcdc973d1461039c578063c87b56dd146103b8578063e985e9c5146103e8578063f2fde38b1461041857610142565b80638da5cb5b146102d057806395d89b41146102ee5780639cd307781461030c578063a19bd10c1461032a578063a22cb4651461034857610142565b806315ee4df11161010a57806315ee4df11461021257806323b872dd1461022e57806342842e0e1461024a5780636352211e1461026657806370a0823114610296578063715018a6146102c657610142565b806301ffc9a71461014757806306fdde0314610177578063081812fc14610195578063095ea7b3146101c5578063107046bd146101e1575b600080fd5b610161600480360381019061015c9190611cb8565b610434565b60405161016e9190611d00565b60405180910390f35b61017f610516565b60405161018c9190611dab565b60405180910390f35b6101af60048036038101906101aa9190611e03565b6105a8565b6040516101bc9190611e71565b60405180910390f35b6101df60048036038101906101da9190611eb8565b6105ee565b005b6101fb60048036038101906101f69190611e03565b610705565b604051610209929190611f07565b60405180910390f35b61022c6004803603810190610227919061206c565b6107b1565b005b610248600480360381019061024391906120b5565b610858565b005b610264600480360381019061025f91906120b5565b6108b8565b005b610280600480360381019061027b9190611e03565b6108d8565b60405161028d9190611e71565b60405180910390f35b6102b060048036038101906102ab9190612108565b61095e565b6040516102bd9190612135565b60405180910390f35b6102ce610a15565b005b6102d8610a29565b6040516102e59190611e71565b60405180910390f35b6102f6610a53565b6040516103039190611dab565b60405180910390f35b610314610ae5565b6040516103219190612135565b60405180910390f35b610332610af6565b60405161033f9190611dab565b60405180910390f35b610362600480360381019061035d919061217c565b610b84565b005b61037e6004803603810190610379919061225d565b610b9a565b005b61039a600480360381019061039591906122e0565b610bfc565b005b6103b660048036038101906103b1919061206c565b610cc9565b005b6103d260048036038101906103cd9190611e03565b610d1b565b6040516103df9190611dab565b60405180910390f35b61040260048036038101906103fd919061233c565b610e2d565b60405161040f9190611d00565b60405180910390f35b610432600480360381019061042d9190612108565b610ec1565b005b60007f80ac58cd000000000000000000000000000000000000000000000000000000007bffffffffffffffffffffffffffffffffffffffffffffffffffffffff1916827bffffffffffffffffffffffffffffffffffffffffffffffffffffffff191614806104ff57507f5b5e139f000000000000000000000000000000000000000000000000000000007bffffffffffffffffffffffffffffffffffffffffffffffffffffffff1916827bffffffffffffffffffffffffffffffffffffffffffffffffffffffff1916145b8061050f575061050e82610f44565b5b9050919050565b606060008054610525906123ab565b80601f0160208091040260200160405190810160405280929190818152602001828054610551906123ab565b801561059e5780601f106105735761010080835404028352916020019161059e565b820191906000526020600020905b81548152906001019060200180831161058157829003601f168201915b5050505050905090565b60006105b382610fae565b6004600083815260200190815260200160002060009054906101000a900473ffffffffffffffffffffffffffffffffffffffff169050919050565b60006105f9826108d8565b90508073ffffffffffffffffffffffffffffffffffffffff168373ffffffffffffffffffffffffffffffffffffffff1603610669576040517f08c379a00000000000000000000000000000000000000000000000000000000081526004016106609061244e565b60405180910390fd5b8073ffffffffffffffffffffffffffffffffffffffff16610688610ff9565b73ffffffffffffffffffffffffffffffffffffffff1614806106b757506106b6816106b1610ff9565b610e2d565b5b6106f6576040517f08c379a00000000000000000000000000000000000000000000000000000000081526004016106ed906124e0565b60405180910390fd5b6107008383611001565b505050565b600960205280600052604060002060009150905080600001549080600101805461072e906123ab565b80601f016020809104026020016040519081016040528092919081815260200182805461075a906123ab565b80156107a75780601f1061077c576101008083540402835291602001916107a7565b820191906000526020600020905b81548152906001019060200180831161078a57829003601f168201915b5050505050905082565b6107b96110ba565b6107c36008611138565b60006107cf600861114e565b90506040518060400160405280828152602001838152506009600083815260200190815260200160002060008201518160000155602082015181600101908161081891906126ac565b50905050807fed06d1e70f1faa0e1750def1b3a1d942390a8f47d03679c9025a1c38dc34fe7b8360405161084c9190611dab565b60405180910390a25050565b610869610863610ff9565b8261115c565b6108a8576040517f08c379a000000000000000000000000000000000000000000000000000000000815260040161089f906127f0565b60405180910390fd5b6108b38383836111f1565b505050565b6108d383838360405180602001604052806000815250610b9a565b505050565b6000806108e4836114ea565b9050600073ffffffffffffffffffffffffffffffffffffffff168173ffffffffffffffffffffffffffffffffffffffff1603610955576040517f08c379a000000000000000000000000000000000000000000000000000000000815260040161094c9061285c565b60405180910390fd5b80915050919050565b60008073ffffffffffffffffffffffffffffffffffffffff168273ffffffffffffffffffffffffffffffffffffffff16036109ce576040517f08c379a00000000000000000000000000000000000000000000000000000000081526004016109c5906128ee565b60405180910390fd5b600360008373ffffffffffffffffffffffffffffffffffffffff1673ffffffffffffffffffffffffffffffffffffffff168152602001908152602001600020549050919050565b610a1d6110ba565b610a276000611527565b565b6000600760009054906101000a900473ffffffffffffffffffffffffffffffffffffffff16905090565b606060018054610a62906123ab565b80601f0160208091040260200160405190810160405280929190818152602001828054610a8e906123ab565b8015610adb5780601f10610ab057610100808354040283529160200191610adb565b820191906000526020600020905b815481529060010190602001808311610abe57829003601f168201915b5050505050905090565b6000610af1600861114e565b905090565b600a8054610b03906123ab565b80601f0160208091040260200160405190810160405280929190818152602001828054610b2f906123ab565b8015610b7c5780601f10610b5157610100808354040283529160200191610b7c565b820191906000526020600020905b815481529060010190602001808311610b5f57829003601f168201915b505050505081565b610b96610b8f610ff9565b83836115ed565b5050565b610bab610ba5610ff9565b8361115c565b610bea576040517f08c379a0000000000000000000000000000000000000000000000000000000008152600401610be1906127f0565b60405180910390fd5b610bf684848484611759565b50505050565b610c046110ba565b6000600960008481526020019081526020016000206001018054610c27906123ab565b905011610c69576040517f08c379a0000000000000000000000000000000000000000000000000000000008152600401610c609061295a565b60405180910390fd5b80600960008481526020019081526020016000206001019081610c8c91906126ac565b50817fd59ff490e419b5a72d916db4f77bc918cb64099584e8605b5a5aa543eacc0c0782604051610cbd9190611dab565b60405180910390a25050565b610cd16110ba565b80600a9081610ce091906126ac565b507f533a6042f70c903858d9d8a7ef12d0ef9347829e5dfcd0cb1ac94e60e4a1969e81604051610d109190611dab565b60405180910390a150565b6060610d2682610fae565b6000600660008481526020019081526020016000208054610d46906123ab565b80601f0160208091040260200160405190810160405280929190818152602001828054610d72906123ab565b8015610dbf5780601f10610d9457610100808354040283529160200191610dbf565b820191906000526020600020905b815481529060010190602001808311610da257829003601f168201915b505050505090506000610dd06117b5565b90506000815103610de5578192505050610e28565b600082511115610e1a578082604051602001610e029291906129b6565b60405160208183030381529060405292505050610e28565b610e23846117cc565b925050505b919050565b6000600560008473ffffffffffffffffffffffffffffffffffffffff1673ffffffffffffffffffffffffffffffffffffffff16815260200190815260200160002060008373ffffffffffffffffffffffffffffffffffffffff1673ffffffffffffffffffffffffffffffffffffffff16815260200190815260200160002060009054906101000a900460ff16905092915050565b610ec96110ba565b600073ffffffffffffffffffffffffffffffffffffffff168173ffffffffffffffffffffffffffffffffffffffff1603610f38576040517f08c379a0000000000000000000000000000000000000000000000000000000008152600401610f2f90612a4c565b60405180910390fd5b610f4181611527565b50565b60007f01ffc9a7000000000000000000000000000000000000000000000000000000007bffffffffffffffffffffffffffffffffffffffffffffffffffffffff1916827bffffffffffffffffffffffffffffffffffffffffffffffffffffffff1916149050919050565b610fb781611834565b610ff6576040517f08c379a0000000000000000000000000000000000000000000000000000000008152600401610fed9061285c565b60405180910390fd5b50565b600033905090565b816004600083815260200190815260200160002060006101000a81548173ffffffffffffffffffffffffffffffffffffffff021916908373ffffffffffffffffffffffffffffffffffffffff160217905550808273ffffffffffffffffffffffffffffffffffffffff16611074836108d8565b73ffffffffffffffffffffffffffffffffffffffff167f8c5be1e5ebec7d5bd14f71427d1e84f3dd0314c0f7b2291e5b200ac8c7c3b92560405160405180910390a45050565b6110c2610ff9565b73ffffffffffffffffffffffffffffffffffffffff166110e0610a29565b73ffffffffffffffffffffffffffffffffffffffff1614611136576040517f08c379a000000000000000000000000000000000000000000000000000000000815260040161112d90612ab8565b60405180910390fd5b565b6001816000016000828254019250508190555050565b600081600001549050919050565b600080611168836108d8565b90508073ffffffffffffffffffffffffffffffffffffffff168473ffffffffffffffffffffffffffffffffffffffff1614806111aa57506111a98185610e2d565b5b806111e857508373ffffffffffffffffffffffffffffffffffffffff166111d0846105a8565b73ffffffffffffffffffffffffffffffffffffffff16145b91505092915050565b8273ffffffffffffffffffffffffffffffffffffffff16611211826108d8565b73ffffffffffffffffffffffffffffffffffffffff1614611267576040517f08c379a000000000000000000000000000000000000000000000000000000000815260040161125e90612b4a565b60405180910390fd5b600073ffffffffffffffffffffffffffffffffffffffff168273ffffffffffffffffffffffffffffffffffffffff16036112d6576040517f08c379a00000000000000000000000000000000000000000000000000000000081526004016112cd90612bdc565b60405180910390fd5b6112e38383836001611875565b8273ffffffffffffffffffffffffffffffffffffffff16611303826108d8565b73ffffffffffffffffffffffffffffffffffffffff1614611359576040517f08c379a000000000000000000000000000000000000000000000000000000000815260040161135090612b4a565b60405180910390fd5b6004600082815260200190815260200160002060006101000a81549073ffffffffffffffffffffffffffffffffffffffff02191690556001600360008573ffffffffffffffffffffffffffffffffffffffff1673ffffffffffffffffffffffffffffffffffffffff168152602001908152602001600020600082825403925050819055506001600360008473ffffffffffffffffffffffffffffffffffffffff1673ffffffffffffffffffffffffffffffffffffffff16815260200190815260200160002060008282540192505081905550816002600083815260200190815260200160002060006101000a81548173ffffffffffffffffffffffffffffffffffffffff021916908373ffffffffffffffffffffffffffffffffffffffff160217905550808273ffffffffffffffffffffffffffffffffffffffff168473ffffffffffffffffffffffffffffffffffffffff167fddf252ad1be2c89b69c2b068fc378daa952ba7f163c4a11628f55a4df523b3ef60405160405180910390a46114e5838383600161187b565b505050565b60006002600083815260200190815260200160002060009054906101000a900473ffffffffffffffffffffffffffffffffffffffff169050919050565b6000600760009054906101000a900473ffffffffffffffffffffffffffffffffffffffff16905081600760006101000a81548173ffffffffffffffffffffffffffffffffffffffff021916908373ffffffffffffffffffffffffffffffffffffffff1602179055508173ffffffffffffffffffffffffffffffffffffffff168173ffffffffffffffffffffffffffffffffffffffff167f8be0079c531659141344cd1fd0a4f28419497f9722a3daafe3b4186f6b6457e060405160405180910390a35050565b8173ffffffffffffffffffffffffffffffffffffffff168373ffffffffffffffffffffffffffffffffffffffff160361165b576040517f08c379a000000000000000000000000000000000000000000000000000000000815260040161165290612c48565b60405180910390fd5b80600560008573ffffffffffffffffffffffffffffffffffffffff1673ffffffffffffffffffffffffffffffffffffffff16815260200190815260200160002060008473ffffffffffffffffffffffffffffffffffffffff1673ffffffffffffffffffffffffffffffffffffffff16815260200190815260200160002060006101000a81548160ff0219169083151502179055508173ffffffffffffffffffffffffffffffffffffffff168373ffffffffffffffffffffffffffffffffffffffff167f17307eab39ab6107e8899845ad3d59bd9653f200f220920489ca2b5937696c318360405161174c9190611d00565b60405180910390a3505050565b6117648484846111f1565b61177084848484611881565b6117af576040517f08c379a00000000000000000000000000000000000000000000000000000000081526004016117a690612cda565b60405180910390fd5b50505050565b606060405180602001604052806000815250905090565b60606117d782610fae565b60006117e16117b5565b90506000815111611801576040518060200160405280600081525061182c565b8061180b84611a08565b60405160200161181c9291906129b6565b6040516020818303038152906040525b915050919050565b60008073ffffffffffffffffffffffffffffffffffffffff16611856836114ea565b73ffffffffffffffffffffffffffffffffffffffff1614159050919050565b50505050565b50505050565b60006118a28473ffffffffffffffffffffffffffffffffffffffff16611ad6565b156119fb578373ffffffffffffffffffffffffffffffffffffffff1663150b7a026118cb610ff9565b8786866040518563ffffffff1660e01b81526004016118ed9493929190612d4f565b6020604051808303816000875af192505050801561192957506040513d601f19601f820116820180604052508101906119269190612db0565b60015b6119ab573d8060008114611959576040519150601f19603f3d011682016040523d82523d6000602084013e61195e565b606091505b5060008151036119a3576040517f08c379a000000000000000000000000000000000000000000000000000000000815260040161199a90612cda565b60405180910390fd5b805181602001fd5b63150b7a0260e01b7bffffffffffffffffffffffffffffffffffffffffffffffffffffffff1916817bffffffffffffffffffffffffffffffffffffffffffffffffffffffff191614915050611a00565b600190505b949350505050565b606060006001611a1784611af9565b01905060008167ffffffffffffffff811115611a3657611a35611f41565b5b6040519080825280601f01601f191660200182016040528015611a685781602001600182028036833780820191505090505b509050600082602001820190505b600115611acb578080600190039150507f3031323334353637383961626364656600000000000000000000000000000000600a86061a8153600a8581611abf57611abe612ddd565b5b04945060008503611a76575b819350505050919050565b6000808273ffffffffffffffffffffffffffffffffffffffff163b119050919050565b600080600090507a184f03e93ff9f4daa797ed6e38ed64bf6a1f0100000000000000008310611b57577a184f03e93ff9f4daa797ed6e38ed64bf6a1f0100000000000000008381611b4d57611b4c612ddd565b5b0492506040810190505b6d04ee2d6d415b85acef81000000008310611b94576d04ee2d6d415b85acef81000000008381611b8a57611b89612ddd565b5b0492506020810190505b662386f26fc100008310611bc357662386f26fc100008381611bb957611bb8612ddd565b5b0492506010810190505b6305f5e1008310611bec576305f5e1008381611be257611be1612ddd565b5b0492506008810190505b6127108310611c11576127108381611c0757611c06612ddd565b5b0492506004810190505b60648310611c345760648381611c2a57611c29612ddd565b5b0492506002810190505b600a8310611c43576001810190505b80915050919050565b6000604051905090565b600080fd5b600080fd5b60007fffffffff0000000000000000000000000000000000000000000000000000000082169050919050565b611c9581611c60565b8114611ca057600080fd5b50565b600081359050611cb281611c8c565b92915050565b600060208284031215611cce57611ccd611c56565b5b6000611cdc84828501611ca3565b91505092915050565b60008115159050919050565b611cfa81611ce5565b82525050565b6000602082019050611d156000830184611cf1565b92915050565b600081519050919050565b600082825260208201905092915050565b60005b83811015611d55578082015181840152602081019050611d3a565b60008484015250505050565b6000601f19601f8301169050919050565b6000611d7d82611d1b565b611d878185611d26565b9350611d97818560208601611d37565b611da081611d61565b840191505092915050565b60006020820190508181036000830152611dc58184611d72565b905092915050565b6000819050919050565b611de081611dcd565b8114611deb57600080fd5b50565b600081359050611dfd81611dd7565b92915050565b600060208284031215611e1957611e18611c56565b5b6000611e2784828501611dee565b91505092915050565b600073ffffffffffffffffffffffffffffffffffffffff82169050919050565b6000611e5b82611e30565b9050919050565b611e6b81611e50565b82525050565b6000602082019050611e866000830184611e62565b92915050565b611e9581611e50565b8114611ea057600080fd5b50565b600081359050611eb281611e8c565b92915050565b60008060408385031215611ecf57611ece611c56565b5b6000611edd85828601611ea3565b9250506020611eee85828601611dee565b9150509250929050565b611f0181611dcd565b82525050565b6000604082019050611f1c6000830185611ef8565b8181036020830152611f2e8184611d72565b90509392505050565b600080fd5b600080fd5b7f4e487b7100000000000000000000000000000000000000000000000000000000600052604160045260246000fd5b611f7982611d61565b810181811067ffffffffffffffff82111715611f9857611f97611f41565b5b80604052505050565b6000611fab611c4c565b9050611fb78282611f70565b919050565b600067ffffffffffffffff821115611fd757611fd6611f41565b5b611fe082611d61565b9050602081019050919050565b82818337600083830152505050565b600061200f61200a84611fbc565b611fa1565b90508281526020810184848401111561202b5761202a611f3c565b5b612036848285611fed565b509392505050565b600082601f83011261205357612052611f37565b5b8135612063848260208601611ffc565b91505092915050565b60006020828403121561208257612081611c56565b5b600082013567ffffffffffffffff8111156120a05761209f611c5b565b5b6120ac8482850161203e565b91505092915050565b6000806000606084860312156120ce576120cd611c56565b5b60006120dc86828701611ea3565b93505060206120ed86828701611ea3565b92505060406120fe86828701611dee565b9150509250925092565b60006020828403121561211e5761211d611c56565b5b600061212c84828501611ea3565b91505092915050565b600060208201905061214a6000830184611ef8565b92915050565b61215981611ce5565b811461216457600080fd5b50565b60008135905061217681612150565b92915050565b6000806040838503121561219357612192611c56565b5b60006121a185828601611ea3565b92505060206121b285828601612167565b9150509250929050565b600067ffffffffffffffff8211156121d7576121d6611f41565b5b6121e082611d61565b9050602081019050919050565b60006122006121fb846121bc565b611fa1565b90508281526020810184848401111561221c5761221b611f3c565b5b612227848285611fed565b509392505050565b600082601f83011261224457612243611f37565b5b81356122548482602086016121ed565b91505092915050565b6000806000806080858703121561227757612276611c56565b5b600061228587828801611ea3565b945050602061229687828801611ea3565b93505060406122a787828801611dee565b925050606085013567ffffffffffffffff8111156122c8576122c7611c5b565b5b6122d48782880161222f565b91505092959194509250565b600080604083850312156122f7576122f6611c56565b5b600061230585828601611dee565b925050602083013567ffffffffffffffff81111561232657612325611c5b565b5b6123328582860161203e565b9150509250929050565b6000806040838503121561235357612352611c56565b5b600061236185828601611ea3565b925050602061237285828601611ea3565b9150509250929050565b7f4e487b7100000000000000000000000000000000000000000000000000000000600052602260045260246000fd5b600060028204905060018216806123c357607f821691505b6020821081036123d6576123d561237c565b5b50919050565b7f4552433732313a20617070726f76616c20746f2063757272656e74206f776e6560008201527f7200000000000000000000000000000000000000000000000000000000000000602082015250565b6000612438602183611d26565b9150612443826123dc565b604082019050919050565b600060208201905081810360008301526124678161242b565b9050919050565b7f4552433732313a20617070726f76652063616c6c6572206973206e6f7420746f60008201527f6b656e206f776e6572206f7220617070726f76656420666f7220616c6c000000602082015250565b60006124ca603d83611d26565b91506124d58261246e565b604082019050919050565b600060208201905081810360008301526124f9816124bd565b9050919050565b60008190508160005260206000209050919050565b60006020601f8301049050919050565b600082821b905092915050565b6000600883026125627fffffffffffffffffffffffffffffffffffffffffffffffffffffffffffffffff82612525565b61256c8683612525565b95508019841693508086168417925050509392505050565b6000819050919050565b60006125a96125a461259f84611dcd565b612584565b611dcd565b9050919050565b6000819050919050565b6125c38361258e565b6125d76125cf826125b0565b848454612532565b825550505050565b600090565b6125ec6125df565b6125f78184846125ba565b505050565b5b8181101561261b576126106000826125e4565b6001810190506125fd565b5050565b601f8211156126605761263181612500565b61263a84612515565b81016020851015612649578190505b61265d61265585612515565b8301826125fc565b50505b505050565b600082821c905092915050565b600061268360001984600802612665565b1980831691505092915050565b600061269c8383612672565b9150826002028217905092915050565b6126b582611d1b565b67ffffffffffffffff8111156126ce576126cd611f41565b5b6126d882546123ab565b6126e382828561261f565b600060209050601f8311600181146127165760008415612704578287015190505b61270e8582612690565b865550612776565b601f19841661272486612500565b60005b8281101561274c57848901518255600182019150602085019450602081019050612727565b868310156127695784890151612765601f891682612672565b8355505b6001600288020188555050505b505050505050565b7f4552433732313a2063616c6c6572206973206e6f7420746f6b656e206f776e6560008201527f72206f7220617070726f76656400000000000000000000000000000000000000602082015250565b60006127da602d83611d26565b91506127e58261277e565b604082019050919050565b60006020820190508181036000830152612809816127cd565b9050919050565b7f4552433732313a20696e76616c696420746f6b656e2049440000000000000000600082015250565b6000612846601883611d26565b915061285182612810565b602082019050919050565b6000602082019050818103600083015261287581612839565b9050919050565b7f4552433732313a2061646472657373207a65726f206973206e6f74206120766160008201527f6c6964206f776e65720000000000000000000000000000000000000000000000602082015250565b60006128d8602983611d26565b91506128e38261287c565b604082019050919050565b60006020820190508181036000830152612907816128cb565b9050919050565b7f50726f6a656374206e6f7420666f756e64000000000000000000000000000000600082015250565b6000612944601183611d26565b915061294f8261290e565b602082019050919050565b6000602082019050818103600083015261297381612937565b9050919050565b600081905092915050565b600061299082611d1b565b61299a818561297a565b93506129aa818560208601611d37565b80840191505092915050565b60006129c28285612985565b91506129ce8284612985565b91508190509392505050565b7f4f776e61626c653a206e6577206f776e657220697320746865207a65726f206160008201527f6464726573730000000000000000000000000000000000000000000000000000602082015250565b6000612a36602683611d26565b9150612a41826129da565b604082019050919050565b60006020820190508181036000830152612a6581612a29565b9050919050565b7f4f776e61626c653a2063616c6c6572206973206e6f7420746865206f776e6572600082015250565b6000612aa2602083611d26565b9150612aad82612a6c565b602082019050919050565b60006020820190508181036000830152612ad181612a95565b9050919050565b7f4552433732313a207472616e736665722066726f6d20696e636f72726563742060008201527f6f776e6572000000000000000000000000000000000000000000000000000000602082015250565b6000612b34602583611d26565b9150612b3f82612ad8565b604082019050919050565b60006020820190508181036000830152612b6381612b27565b9050919050565b7f4552433732313a207472616e7366657220746f20746865207a65726f2061646460008201527f7265737300000000000000000000000000000000000000000000000000000000602082015250565b6000612bc6602483611d26565b9150612bd182612b6a565b604082019050919050565b60006020820190508181036000830152612bf581612bb9565b9050919050565b7f4552433732313a20617070726f766520746f2063616c6c657200000000000000600082015250565b6000612c32601983611d26565b9150612c3d82612bfc565b602082019050919050565b60006020820190508181036000830152612c6181612c25565b9050919050565b7f4552433732313a207472616e7366657220746f206e6f6e20455243373231526560008201527f63656976657220696d706c656d656e7465720000000000000000000000000000602082015250565b6000612cc4603283611d26565b9150612ccf82612c68565b604082019050919050565b60006020820190508181036000830152612cf381612cb7565b9050919050565b600081519050919050565b600082825260208201905092915050565b6000612d2182612cfa565b612d2b8185612d05565b9350612d3b818560208601611d37565b612d4481611d61565b840191505092915050565b6000608082019050612d646000830187611e62565b612d716020830186611e62565b612d7e6040830185611ef8565b8181036060830152612d908184612d16565b905095945050505050565b600081519050612daa81611c8c565b92915050565b600060208284031215612dc657612dc5611c56565b5b6000612dd484828501612d9b565b91505092915050565b7f4e487b7100000000000000000000000000000000000000000000000000000000600052601260045260246000fdfea2646970667358221220cf57b8e093c524a42a65e331489f308ed705d48d24033f6f33534ab74fdcc04364736f6c63430008120033",
  "linkReferences": {},
  "deployedLinkReferences": {}
}